{
	"chapter9/ex6.sol": {
		"UserInfo": {
			"abi": [
				{
					"inputs": [
						{
							"internalType": "address",
							"name": "_address",
							"type": "address"
						},
						{
							"internalType": "uint256",
							"name": "_point",
							"type": "uint256"
						}
					],
					"name": "pointUpWithCall",
					"outputs": [],
					"stateMutability": "nonpayable",
					"type": "function"
				},
				{
					"inputs": [
						{
							"internalType": "address",
							"name": "_address",
							"type": "address"
						},
						{
							"internalType": "uint256",
							"name": "_point",
							"type": "uint256"
						}
					],
					"name": "pointUpWithDelegateCall",
					"outputs": [],
					"stateMutability": "nonpayable",
					"type": "function"
				},
				{
					"inputs": [],
					"name": "total",
					"outputs": [
						{
							"internalType": "uint256",
							"name": "",
							"type": "uint256"
						}
					],
					"stateMutability": "view",
					"type": "function"
				}
			],
			"devdoc": {
				"kind": "dev",
				"methods": {},
				"version": 1
			},
			"evm": {
				"assembly": "    /* \"chapter9/ex6.sol\":250:772  contract UserInfo {... */\n  mstore(0x40, 0x80)\n  callvalue\n  dup1\n  iszero\n  tag_1\n  jumpi\n  0x00\n  dup1\n  revert\ntag_1:\n  pop\n  dataSize(sub_0)\n  dup1\n  dataOffset(sub_0)\n  0x00\n  codecopy\n  0x00\n  return\nstop\n\nsub_0: assembly {\n        /* \"chapter9/ex6.sol\":250:772  contract UserInfo {... */\n      mstore(0x40, 0x80)\n      callvalue\n      dup1\n      iszero\n      tag_1\n      jumpi\n      0x00\n      dup1\n      revert\n    tag_1:\n      pop\n      jumpi(tag_2, lt(calldatasize, 0x04))\n      shr(0xe0, calldataload(0x00))\n      dup1\n      0x2ddbd13a\n      eq\n      tag_3\n      jumpi\n      dup1\n      0x829b9bbc\n      eq\n      tag_4\n      jumpi\n      dup1\n      0x9b8e6125\n      eq\n      tag_5\n      jumpi\n    tag_2:\n      0x00\n      dup1\n      revert\n        /* \"chapter9/ex6.sol\":274:291  uint public total */\n    tag_3:\n      tag_6\n      tag_7\n      jump\t// in\n    tag_6:\n      mload(0x40)\n      tag_8\n      swap2\n      swap1\n      tag_9\n      jump\t// in\n    tag_8:\n      mload(0x40)\n      dup1\n      swap2\n      sub\n      swap1\n      return\n        /* \"chapter9/ex6.sol\":298:523  function pointUpWithCall(address _address, uint _point) public {... */\n    tag_4:\n      tag_10\n      0x04\n      dup1\n      calldatasize\n      sub\n      dup2\n      add\n      swap1\n      tag_11\n      swap2\n      swap1\n      tag_12\n      jump\t// in\n    tag_11:\n      tag_13\n      jump\t// in\n    tag_10:\n      stop\n        /* \"chapter9/ex6.sol\":529:770  function pointUpWithDelegateCall(address _address, uint _point) public {... */\n    tag_5:\n      tag_14\n      0x04\n      dup1\n      calldatasize\n      sub\n      dup2\n      add\n      swap1\n      tag_15\n      swap2\n      swap1\n      tag_12\n      jump\t// in\n    tag_15:\n      tag_16\n      jump\t// in\n    tag_14:\n      stop\n        /* \"chapter9/ex6.sol\":274:291  uint public total */\n    tag_7:\n      sload(0x00)\n      dup2\n      jump\t// out\n        /* \"chapter9/ex6.sol\":298:523  function pointUpWithCall(address _address, uint _point) public {... */\n    tag_13:\n        /* \"chapter9/ex6.sol\":372:384  bool success */\n      0x00\n        /* \"chapter9/ex6.sol\":390:398  _address */\n      dup3\n        /* \"chapter9/ex6.sol\":390:403  _address.call */\n      0xffffffffffffffffffffffffffffffffffffffff\n      and\n        /* \"chapter9/ex6.sol\":463:469  _point */\n      dup3\n        /* \"chapter9/ex6.sol\":417:470  abi.encodeWithSignature(\"addPoints(uint256)\", _point) */\n      add(0x24, mload(0x40))\n      tag_18\n      swap2\n      swap1\n      tag_9\n      jump\t// in\n    tag_18:\n      mload(0x40)\n      0x20\n      dup2\n      dup4\n      sub\n      sub\n      dup2\n      mstore\n      swap1\n      0x40\n      mstore\n      and(not(0xffffffffffffffffffffffffffffffffffffffffffffffffffffffff), 0x12fb1cbd00000000000000000000000000000000000000000000000000000000)\n      0x20\n      dup3\n      add\n      dup1\n      mload\n      0xffffffffffffffffffffffffffffffffffffffffffffffffffffffff\n      dup4\n      dup2\n      dup4\n      and\n      or\n      dup4\n      mstore\n      pop\n      pop\n      pop\n      pop\n        /* \"chapter9/ex6.sol\":390:480  _address.call(... */\n      mload(0x40)\n      tag_19\n      swap2\n      swap1\n      tag_20\n      jump\t// in\n    tag_19:\n      0x00\n      mload(0x40)\n      dup1\n      dup4\n      sub\n      dup2\n      0x00\n      dup7\n      gas\n      call\n      swap2\n      pop\n      pop\n      returndatasize\n      dup1\n      0x00\n      dup2\n      eq\n      tag_23\n      jumpi\n      mload(0x40)\n      swap2\n      pop\n      and(add(returndatasize, 0x3f), not(0x1f))\n      dup3\n      add\n      0x40\n      mstore\n      returndatasize\n      dup3\n      mstore\n      returndatasize\n      0x00\n      0x20\n      dup5\n      add\n      returndatacopy\n      jump(tag_22)\n    tag_23:\n      0x60\n      swap2\n      pop\n    tag_22:\n      pop\n        /* \"chapter9/ex6.sol\":371:480  (bool success, ) = _address.call(... */\n      pop\n      swap1\n      pop\n        /* \"chapter9/ex6.sol\":498:505  success */\n      dup1\n        /* \"chapter9/ex6.sol\":490:516  require(success, \"Failed\") */\n      tag_24\n      jumpi\n      mload(0x40)\n      0x08c379a000000000000000000000000000000000000000000000000000000000\n      dup2\n      mstore\n      0x04\n      add\n      tag_25\n      swap1\n      tag_26\n      jump\t// in\n    tag_25:\n      mload(0x40)\n      dup1\n      swap2\n      sub\n      swap1\n      revert\n    tag_24:\n        /* \"chapter9/ex6.sol\":361:523  {... */\n      pop\n        /* \"chapter9/ex6.sol\":298:523  function pointUpWithCall(address _address, uint _point) public {... */\n      pop\n      pop\n      jump\t// out\n        /* \"chapter9/ex6.sol\":529:770  function pointUpWithDelegateCall(address _address, uint _point) public {... */\n    tag_16:\n        /* \"chapter9/ex6.sol\":611:623  bool success */\n      0x00\n        /* \"chapter9/ex6.sol\":629:637  _address */\n      dup3\n        /* \"chapter9/ex6.sol\":629:650  _address.delegatecall */\n      0xffffffffffffffffffffffffffffffffffffffff\n      and\n        /* \"chapter9/ex6.sol\":710:716  _point */\n      dup3\n        /* \"chapter9/ex6.sol\":664:717  abi.encodeWithSignature(\"addPoints(uint256)\", _point) */\n      add(0x24, mload(0x40))\n      tag_28\n      swap2\n      swap1\n      tag_9\n      jump\t// in\n    tag_28:\n      mload(0x40)\n      0x20\n      dup2\n      dup4\n      sub\n      sub\n      dup2\n      mstore\n      swap1\n      0x40\n      mstore\n      and(not(0xffffffffffffffffffffffffffffffffffffffffffffffffffffffff), 0x12fb1cbd00000000000000000000000000000000000000000000000000000000)\n      0x20\n      dup3\n      add\n      dup1\n      mload\n      0xffffffffffffffffffffffffffffffffffffffffffffffffffffffff\n      dup4\n      dup2\n      dup4\n      and\n      or\n      dup4\n      mstore\n      pop\n      pop\n      pop\n      pop\n        /* \"chapter9/ex6.sol\":629:727  _address.delegatecall(... */\n      mload(0x40)\n      tag_29\n      swap2\n      swap1\n      tag_20\n      jump\t// in\n    tag_29:\n      0x00\n      mload(0x40)\n      dup1\n      dup4\n      sub\n      dup2\n      dup6\n      gas\n      delegatecall\n      swap2\n      pop\n      pop\n      returndatasize\n      dup1\n      0x00\n      dup2\n      eq\n      tag_32\n      jumpi\n      mload(0x40)\n      swap2\n      pop\n      and(add(returndatasize, 0x3f), not(0x1f))\n      dup3\n      add\n      0x40\n      mstore\n      returndatasize\n      dup3\n      mstore\n      returndatasize\n      0x00\n      0x20\n      dup5\n      add\n      returndatacopy\n      jump(tag_31)\n    tag_32:\n      0x60\n      swap2\n      pop\n    tag_31:\n      pop\n        /* \"chapter9/ex6.sol\":610:727  (bool success, ) = _address.delegatecall(... */\n      pop\n      swap1\n      pop\n        /* \"chapter9/ex6.sol\":745:752  success */\n      dup1\n        /* \"chapter9/ex6.sol\":737:763  require(success, \"Failed\") */\n      tag_33\n      jumpi\n      mload(0x40)\n      0x08c379a000000000000000000000000000000000000000000000000000000000\n      dup2\n      mstore\n      0x04\n      add\n      tag_34\n      swap1\n      tag_26\n      jump\t// in\n    tag_34:\n      mload(0x40)\n      dup1\n      swap2\n      sub\n      swap1\n      revert\n    tag_33:\n        /* \"chapter9/ex6.sol\":600:770  {... */\n      pop\n        /* \"chapter9/ex6.sol\":529:770  function pointUpWithDelegateCall(address _address, uint _point) public {... */\n      pop\n      pop\n      jump\t// out\n        /* \"#utility.yul\":7:84   */\n    tag_35:\n        /* \"#utility.yul\":44:51   */\n      0x00\n        /* \"#utility.yul\":73:78   */\n      dup2\n        /* \"#utility.yul\":62:78   */\n      swap1\n      pop\n        /* \"#utility.yul\":7:84   */\n      swap2\n      swap1\n      pop\n      jump\t// out\n        /* \"#utility.yul\":90:208   */\n    tag_36:\n        /* \"#utility.yul\":177:201   */\n      tag_56\n        /* \"#utility.yul\":195:200   */\n      dup2\n        /* \"#utility.yul\":177:201   */\n      tag_35\n      jump\t// in\n    tag_56:\n        /* \"#utility.yul\":172:175   */\n      dup3\n        /* \"#utility.yul\":165:202   */\n      mstore\n        /* \"#utility.yul\":90:208   */\n      pop\n      pop\n      jump\t// out\n        /* \"#utility.yul\":214:436   */\n    tag_9:\n        /* \"#utility.yul\":307:311   */\n      0x00\n        /* \"#utility.yul\":345:347   */\n      0x20\n        /* \"#utility.yul\":334:343   */\n      dup3\n        /* \"#utility.yul\":330:348   */\n      add\n        /* \"#utility.yul\":322:348   */\n      swap1\n      pop\n        /* \"#utility.yul\":358:429   */\n      tag_58\n        /* \"#utility.yul\":426:427   */\n      0x00\n        /* \"#utility.yul\":415:424   */\n      dup4\n        /* \"#utility.yul\":411:428   */\n      add\n        /* \"#utility.yul\":402:408   */\n      dup5\n        /* \"#utility.yul\":358:429   */\n      tag_36\n      jump\t// in\n    tag_58:\n        /* \"#utility.yul\":214:436   */\n      swap3\n      swap2\n      pop\n      pop\n      jump\t// out\n        /* \"#utility.yul\":523:640   */\n    tag_38:\n        /* \"#utility.yul\":632:633   */\n      0x00\n        /* \"#utility.yul\":629:630   */\n      dup1\n        /* \"#utility.yul\":622:634   */\n      revert\n        /* \"#utility.yul\":769:895   */\n    tag_40:\n        /* \"#utility.yul\":806:813   */\n      0x00\n        /* \"#utility.yul\":846:888   */\n      0xffffffffffffffffffffffffffffffffffffffff\n        /* \"#utility.yul\":839:844   */\n      dup3\n        /* \"#utility.yul\":835:889   */\n      and\n        /* \"#utility.yul\":824:889   */\n      swap1\n      pop\n        /* \"#utility.yul\":769:895   */\n      swap2\n      swap1\n      pop\n      jump\t// out\n        /* \"#utility.yul\":901:997   */\n    tag_41:\n        /* \"#utility.yul\":938:945   */\n      0x00\n        /* \"#utility.yul\":967:991   */\n      tag_64\n        /* \"#utility.yul\":985:990   */\n      dup3\n        /* \"#utility.yul\":967:991   */\n      tag_40\n      jump\t// in\n    tag_64:\n        /* \"#utility.yul\":956:991   */\n      swap1\n      pop\n        /* \"#utility.yul\":901:997   */\n      swap2\n      swap1\n      pop\n      jump\t// out\n        /* \"#utility.yul\":1003:1125   */\n    tag_42:\n        /* \"#utility.yul\":1076:1100   */\n      tag_66\n        /* \"#utility.yul\":1094:1099   */\n      dup2\n        /* \"#utility.yul\":1076:1100   */\n      tag_41\n      jump\t// in\n    tag_66:\n        /* \"#utility.yul\":1069:1074   */\n      dup2\n        /* \"#utility.yul\":1066:1101   */\n      eq\n        /* \"#utility.yul\":1056:1119   */\n      tag_67\n      jumpi\n        /* \"#utility.yul\":1115:1116   */\n      0x00\n        /* \"#utility.yul\":1112:1113   */\n      dup1\n        /* \"#utility.yul\":1105:1117   */\n      revert\n        /* \"#utility.yul\":1056:1119   */\n    tag_67:\n        /* \"#utility.yul\":1003:1125   */\n      pop\n      jump\t// out\n        /* \"#utility.yul\":1131:1270   */\n    tag_43:\n        /* \"#utility.yul\":1177:1182   */\n      0x00\n        /* \"#utility.yul\":1215:1221   */\n      dup2\n        /* \"#utility.yul\":1202:1222   */\n      calldataload\n        /* \"#utility.yul\":1193:1222   */\n      swap1\n      pop\n        /* \"#utility.yul\":1231:1264   */\n      tag_69\n        /* \"#utility.yul\":1258:1263   */\n      dup2\n        /* \"#utility.yul\":1231:1264   */\n      tag_42\n      jump\t// in\n    tag_69:\n        /* \"#utility.yul\":1131:1270   */\n      swap3\n      swap2\n      pop\n      pop\n      jump\t// out\n        /* \"#utility.yul\":1276:1398   */\n    tag_44:\n        /* \"#utility.yul\":1349:1373   */\n      tag_71\n        /* \"#utility.yul\":1367:1372   */\n      dup2\n        /* \"#utility.yul\":1349:1373   */\n      tag_35\n      jump\t// in\n    tag_71:\n        /* \"#utility.yul\":1342:1347   */\n      dup2\n        /* \"#utility.yul\":1339:1374   */\n      eq\n        /* \"#utility.yul\":1329:1392   */\n      tag_72\n      jumpi\n        /* \"#utility.yul\":1388:1389   */\n      0x00\n        /* \"#utility.yul\":1385:1386   */\n      dup1\n        /* \"#utility.yul\":1378:1390   */\n      revert\n        /* \"#utility.yul\":1329:1392   */\n    tag_72:\n        /* \"#utility.yul\":1276:1398   */\n      pop\n      jump\t// out\n        /* \"#utility.yul\":1404:1543   */\n    tag_45:\n        /* \"#utility.yul\":1450:1455   */\n      0x00\n        /* \"#utility.yul\":1488:1494   */\n      dup2\n        /* \"#utility.yul\":1475:1495   */\n      calldataload\n        /* \"#utility.yul\":1466:1495   */\n      swap1\n      pop\n        /* \"#utility.yul\":1504:1537   */\n      tag_74\n        /* \"#utility.yul\":1531:1536   */\n      dup2\n        /* \"#utility.yul\":1504:1537   */\n      tag_44\n      jump\t// in\n    tag_74:\n        /* \"#utility.yul\":1404:1543   */\n      swap3\n      swap2\n      pop\n      pop\n      jump\t// out\n        /* \"#utility.yul\":1549:2023   */\n    tag_12:\n        /* \"#utility.yul\":1617:1623   */\n      0x00\n        /* \"#utility.yul\":1625:1631   */\n      dup1\n        /* \"#utility.yul\":1674:1676   */\n      0x40\n        /* \"#utility.yul\":1662:1671   */\n      dup4\n        /* \"#utility.yul\":1653:1660   */\n      dup6\n        /* \"#utility.yul\":1649:1672   */\n      sub\n        /* \"#utility.yul\":1645:1677   */\n      slt\n        /* \"#utility.yul\":1642:1761   */\n      iszero\n      tag_76\n      jumpi\n        /* \"#utility.yul\":1680:1759   */\n      tag_77\n      tag_38\n      jump\t// in\n    tag_77:\n        /* \"#utility.yul\":1642:1761   */\n    tag_76:\n        /* \"#utility.yul\":1800:1801   */\n      0x00\n        /* \"#utility.yul\":1825:1878   */\n      tag_78\n        /* \"#utility.yul\":1870:1877   */\n      dup6\n        /* \"#utility.yul\":1861:1867   */\n      dup3\n        /* \"#utility.yul\":1850:1859   */\n      dup7\n        /* \"#utility.yul\":1846:1868   */\n      add\n        /* \"#utility.yul\":1825:1878   */\n      tag_43\n      jump\t// in\n    tag_78:\n        /* \"#utility.yul\":1815:1878   */\n      swap3\n      pop\n        /* \"#utility.yul\":1771:1888   */\n      pop\n        /* \"#utility.yul\":1927:1929   */\n      0x20\n        /* \"#utility.yul\":1953:2006   */\n      tag_79\n        /* \"#utility.yul\":1998:2005   */\n      dup6\n        /* \"#utility.yul\":1989:1995   */\n      dup3\n        /* \"#utility.yul\":1978:1987   */\n      dup7\n        /* \"#utility.yul\":1974:1996   */\n      add\n        /* \"#utility.yul\":1953:2006   */\n      tag_45\n      jump\t// in\n    tag_79:\n        /* \"#utility.yul\":1943:2006   */\n      swap2\n      pop\n        /* \"#utility.yul\":1898:2016   */\n      pop\n        /* \"#utility.yul\":1549:2023   */\n      swap3\n      pop\n      swap3\n      swap1\n      pop\n      jump\t// out\n        /* \"#utility.yul\":2029:2127   */\n    tag_46:\n        /* \"#utility.yul\":2080:2086   */\n      0x00\n        /* \"#utility.yul\":2114:2119   */\n      dup2\n        /* \"#utility.yul\":2108:2120   */\n      mload\n        /* \"#utility.yul\":2098:2120   */\n      swap1\n      pop\n        /* \"#utility.yul\":2029:2127   */\n      swap2\n      swap1\n      pop\n      jump\t// out\n        /* \"#utility.yul\":2133:2280   */\n    tag_47:\n        /* \"#utility.yul\":2234:2245   */\n      0x00\n        /* \"#utility.yul\":2271:2274   */\n      dup2\n        /* \"#utility.yul\":2256:2274   */\n      swap1\n      pop\n        /* \"#utility.yul\":2133:2280   */\n      swap3\n      swap2\n      pop\n      pop\n      jump\t// out\n        /* \"#utility.yul\":2286:2593   */\n    tag_48:\n        /* \"#utility.yul\":2354:2355   */\n      0x00\n        /* \"#utility.yul\":2364:2477   */\n    tag_83:\n        /* \"#utility.yul\":2378:2384   */\n      dup4\n        /* \"#utility.yul\":2375:2376   */\n      dup2\n        /* \"#utility.yul\":2372:2385   */\n      lt\n        /* \"#utility.yul\":2364:2477   */\n      iszero\n      tag_85\n      jumpi\n        /* \"#utility.yul\":2463:2464   */\n      dup1\n        /* \"#utility.yul\":2458:2461   */\n      dup3\n        /* \"#utility.yul\":2454:2465   */\n      add\n        /* \"#utility.yul\":2448:2466   */\n      mload\n        /* \"#utility.yul\":2444:2445   */\n      dup2\n        /* \"#utility.yul\":2439:2442   */\n      dup5\n        /* \"#utility.yul\":2435:2446   */\n      add\n        /* \"#utility.yul\":2428:2467   */\n      mstore\n        /* \"#utility.yul\":2400:2402   */\n      0x20\n        /* \"#utility.yul\":2397:2398   */\n      dup2\n        /* \"#utility.yul\":2393:2403   */\n      add\n        /* \"#utility.yul\":2388:2403   */\n      swap1\n      pop\n        /* \"#utility.yul\":2364:2477   */\n      jump(tag_83)\n    tag_85:\n        /* \"#utility.yul\":2495:2501   */\n      dup4\n        /* \"#utility.yul\":2492:2493   */\n      dup2\n        /* \"#utility.yul\":2489:2502   */\n      gt\n        /* \"#utility.yul\":2486:2587   */\n      iszero\n      tag_86\n      jumpi\n        /* \"#utility.yul\":2575:2576   */\n      0x00\n        /* \"#utility.yul\":2566:2572   */\n      dup5\n        /* \"#utility.yul\":2561:2564   */\n      dup5\n        /* \"#utility.yul\":2557:2573   */\n      add\n        /* \"#utility.yul\":2550:2577   */\n      mstore\n        /* \"#utility.yul\":2486:2587   */\n    tag_86:\n        /* \"#utility.yul\":2335:2593   */\n      pop\n        /* \"#utility.yul\":2286:2593   */\n      pop\n      pop\n      pop\n      jump\t// out\n        /* \"#utility.yul\":2599:2972   */\n    tag_49:\n        /* \"#utility.yul\":2703:2706   */\n      0x00\n        /* \"#utility.yul\":2731:2769   */\n      tag_88\n        /* \"#utility.yul\":2763:2768   */\n      dup3\n        /* \"#utility.yul\":2731:2769   */\n      tag_46\n      jump\t// in\n    tag_88:\n        /* \"#utility.yul\":2785:2873   */\n      tag_89\n        /* \"#utility.yul\":2866:2872   */\n      dup2\n        /* \"#utility.yul\":2861:2864   */\n      dup6\n        /* \"#utility.yul\":2785:2873   */\n      tag_47\n      jump\t// in\n    tag_89:\n        /* \"#utility.yul\":2778:2873   */\n      swap4\n      pop\n        /* \"#utility.yul\":2882:2934   */\n      tag_90\n        /* \"#utility.yul\":2927:2933   */\n      dup2\n        /* \"#utility.yul\":2922:2925   */\n      dup6\n        /* \"#utility.yul\":2915:2919   */\n      0x20\n        /* \"#utility.yul\":2908:2913   */\n      dup7\n        /* \"#utility.yul\":2904:2920   */\n      add\n        /* \"#utility.yul\":2882:2934   */\n      tag_48\n      jump\t// in\n    tag_90:\n        /* \"#utility.yul\":2959:2965   */\n      dup1\n        /* \"#utility.yul\":2954:2957   */\n      dup5\n        /* \"#utility.yul\":2950:2966   */\n      add\n        /* \"#utility.yul\":2943:2966   */\n      swap2\n      pop\n        /* \"#utility.yul\":2707:2972   */\n      pop\n        /* \"#utility.yul\":2599:2972   */\n      swap3\n      swap2\n      pop\n      pop\n      jump\t// out\n        /* \"#utility.yul\":2978:3249   */\n    tag_20:\n        /* \"#utility.yul\":3108:3111   */\n      0x00\n        /* \"#utility.yul\":3130:3223   */\n      tag_92\n        /* \"#utility.yul\":3219:3222   */\n      dup3\n        /* \"#utility.yul\":3210:3216   */\n      dup5\n        /* \"#utility.yul\":3130:3223   */\n      tag_49\n      jump\t// in\n    tag_92:\n        /* \"#utility.yul\":3123:3223   */\n      swap2\n      pop\n        /* \"#utility.yul\":3240:3243   */\n      dup2\n        /* \"#utility.yul\":3233:3243   */\n      swap1\n      pop\n        /* \"#utility.yul\":2978:3249   */\n      swap3\n      swap2\n      pop\n      pop\n      jump\t// out\n        /* \"#utility.yul\":3255:3424   */\n    tag_50:\n        /* \"#utility.yul\":3339:3350   */\n      0x00\n        /* \"#utility.yul\":3373:3379   */\n      dup3\n        /* \"#utility.yul\":3368:3371   */\n      dup3\n        /* \"#utility.yul\":3361:3380   */\n      mstore\n        /* \"#utility.yul\":3413:3417   */\n      0x20\n        /* \"#utility.yul\":3408:3411   */\n      dup3\n        /* \"#utility.yul\":3404:3418   */\n      add\n        /* \"#utility.yul\":3389:3418   */\n      swap1\n      pop\n        /* \"#utility.yul\":3255:3424   */\n      swap3\n      swap2\n      pop\n      pop\n      jump\t// out\n        /* \"#utility.yul\":3430:3586   */\n    tag_51:\n        /* \"#utility.yul\":3570:3578   */\n      0x4661696c65640000000000000000000000000000000000000000000000000000\n        /* \"#utility.yul\":3566:3567   */\n      0x00\n        /* \"#utility.yul\":3558:3564   */\n      dup3\n        /* \"#utility.yul\":3554:3568   */\n      add\n        /* \"#utility.yul\":3547:3579   */\n      mstore\n        /* \"#utility.yul\":3430:3586   */\n      pop\n      jump\t// out\n        /* \"#utility.yul\":3592:3957   */\n    tag_52:\n        /* \"#utility.yul\":3734:3737   */\n      0x00\n        /* \"#utility.yul\":3755:3821   */\n      tag_96\n        /* \"#utility.yul\":3819:3820   */\n      0x06\n        /* \"#utility.yul\":3814:3817   */\n      dup4\n        /* \"#utility.yul\":3755:3821   */\n      tag_50\n      jump\t// in\n    tag_96:\n        /* \"#utility.yul\":3748:3821   */\n      swap2\n      pop\n        /* \"#utility.yul\":3830:3923   */\n      tag_97\n        /* \"#utility.yul\":3919:3922   */\n      dup3\n        /* \"#utility.yul\":3830:3923   */\n      tag_51\n      jump\t// in\n    tag_97:\n        /* \"#utility.yul\":3948:3950   */\n      0x20\n        /* \"#utility.yul\":3943:3946   */\n      dup3\n        /* \"#utility.yul\":3939:3951   */\n      add\n        /* \"#utility.yul\":3932:3951   */\n      swap1\n      pop\n        /* \"#utility.yul\":3592:3957   */\n      swap2\n      swap1\n      pop\n      jump\t// out\n        /* \"#utility.yul\":3963:4382   */\n    tag_26:\n        /* \"#utility.yul\":4129:4133   */\n      0x00\n        /* \"#utility.yul\":4167:4169   */\n      0x20\n        /* \"#utility.yul\":4156:4165   */\n      dup3\n        /* \"#utility.yul\":4152:4170   */\n      add\n        /* \"#utility.yul\":4144:4170   */\n      swap1\n      pop\n        /* \"#utility.yul\":4216:4225   */\n      dup2\n        /* \"#utility.yul\":4210:4214   */\n      dup2\n        /* \"#utility.yul\":4206:4226   */\n      sub\n        /* \"#utility.yul\":4202:4203   */\n      0x00\n        /* \"#utility.yul\":4191:4200   */\n      dup4\n        /* \"#utility.yul\":4187:4204   */\n      add\n        /* \"#utility.yul\":4180:4227   */\n      mstore\n        /* \"#utility.yul\":4244:4375   */\n      tag_99\n        /* \"#utility.yul\":4370:4374   */\n      dup2\n        /* \"#utility.yul\":4244:4375   */\n      tag_52\n      jump\t// in\n    tag_99:\n        /* \"#utility.yul\":4236:4375   */\n      swap1\n      pop\n        /* \"#utility.yul\":3963:4382   */\n      swap2\n      swap1\n      pop\n      jump\t// out\n\n    auxdata: 0xa2646970667358221220add6b137f71a3fa823fd5d8730f5e00ca81552f9569a03930a1cad4f94b37d6b64736f6c634300080d0033\n}\n",
				"bytecode": {
					"linkReferences": {},
					"object": "608060405234801561001057600080fd5b50610565806100206000396000f3fe608060405234801561001057600080fd5b50600436106100415760003560e01c80632ddbd13a14610046578063829b9bbc146100645780639b8e612514610080575b600080fd5b61004e61009c565b60405161005b9190610337565b60405180910390f35b61007e600480360381019061007991906103e1565b6100a2565b005b61009a600480360381019061009591906103e1565b6101e1565b005b60005481565b60008273ffffffffffffffffffffffffffffffffffffffff16826040516024016100cc9190610337565b6040516020818303038152906040527f12fb1cbd000000000000000000000000000000000000000000000000000000007bffffffffffffffffffffffffffffffffffffffffffffffffffffffff19166020820180517bffffffffffffffffffffffffffffffffffffffffffffffffffffffff8381831617835250505050604051610156919061049b565b6000604051808303816000865af19150503d8060008114610193576040519150601f19603f3d011682016040523d82523d6000602084013e610198565b606091505b50509050806101dc576040517f08c379a00000000000000000000000000000000000000000000000000000000081526004016101d39061050f565b60405180910390fd5b505050565b60008273ffffffffffffffffffffffffffffffffffffffff168260405160240161020b9190610337565b6040516020818303038152906040527f12fb1cbd000000000000000000000000000000000000000000000000000000007bffffffffffffffffffffffffffffffffffffffffffffffffffffffff19166020820180517bffffffffffffffffffffffffffffffffffffffffffffffffffffffff8381831617835250505050604051610295919061049b565b600060405180830381855af49150503d80600081146102d0576040519150601f19603f3d011682016040523d82523d6000602084013e6102d5565b606091505b5050905080610319576040517f08c379a00000000000000000000000000000000000000000000000000000000081526004016103109061050f565b60405180910390fd5b505050565b6000819050919050565b6103318161031e565b82525050565b600060208201905061034c6000830184610328565b92915050565b600080fd5b600073ffffffffffffffffffffffffffffffffffffffff82169050919050565b600061038282610357565b9050919050565b61039281610377565b811461039d57600080fd5b50565b6000813590506103af81610389565b92915050565b6103be8161031e565b81146103c957600080fd5b50565b6000813590506103db816103b5565b92915050565b600080604083850312156103f8576103f7610352565b5b6000610406858286016103a0565b9250506020610417858286016103cc565b9150509250929050565b600081519050919050565b600081905092915050565b60005b8381101561045557808201518184015260208101905061043a565b83811115610464576000848401525b50505050565b600061047582610421565b61047f818561042c565b935061048f818560208601610437565b80840191505092915050565b60006104a7828461046a565b915081905092915050565b600082825260208201905092915050565b7f4661696c65640000000000000000000000000000000000000000000000000000600082015250565b60006104f96006836104b2565b9150610504826104c3565b602082019050919050565b60006020820190508181036000830152610528816104ec565b905091905056fea2646970667358221220add6b137f71a3fa823fd5d8730f5e00ca81552f9569a03930a1cad4f94b37d6b64736f6c634300080d0033",
					"opcodes": "PUSH1 0x80 PUSH1 0x40 MSTORE CALLVALUE DUP1 ISZERO PUSH2 0x10 JUMPI PUSH1 0x0 DUP1 REVERT JUMPDEST POP PUSH2 0x565 DUP1 PUSH2 0x20 PUSH1 0x0 CODECOPY PUSH1 0x0 RETURN INVALID PUSH1 0x80 PUSH1 0x40 MSTORE CALLVALUE DUP1 ISZERO PUSH2 0x10 JUMPI PUSH1 0x0 DUP1 REVERT JUMPDEST POP PUSH1 0x4 CALLDATASIZE LT PUSH2 0x41 JUMPI PUSH1 0x0 CALLDATALOAD PUSH1 0xE0 SHR DUP1 PUSH4 0x2DDBD13A EQ PUSH2 0x46 JUMPI DUP1 PUSH4 0x829B9BBC EQ PUSH2 0x64 JUMPI DUP1 PUSH4 0x9B8E6125 EQ PUSH2 0x80 JUMPI JUMPDEST PUSH1 0x0 DUP1 REVERT JUMPDEST PUSH2 0x4E PUSH2 0x9C JUMP JUMPDEST PUSH1 0x40 MLOAD PUSH2 0x5B SWAP2 SWAP1 PUSH2 0x337 JUMP JUMPDEST PUSH1 0x40 MLOAD DUP1 SWAP2 SUB SWAP1 RETURN JUMPDEST PUSH2 0x7E PUSH1 0x4 DUP1 CALLDATASIZE SUB DUP2 ADD SWAP1 PUSH2 0x79 SWAP2 SWAP1 PUSH2 0x3E1 JUMP JUMPDEST PUSH2 0xA2 JUMP JUMPDEST STOP JUMPDEST PUSH2 0x9A PUSH1 0x4 DUP1 CALLDATASIZE SUB DUP2 ADD SWAP1 PUSH2 0x95 SWAP2 SWAP1 PUSH2 0x3E1 JUMP JUMPDEST PUSH2 0x1E1 JUMP JUMPDEST STOP JUMPDEST PUSH1 0x0 SLOAD DUP2 JUMP JUMPDEST PUSH1 0x0 DUP3 PUSH20 0xFFFFFFFFFFFFFFFFFFFFFFFFFFFFFFFFFFFFFFFF AND DUP3 PUSH1 0x40 MLOAD PUSH1 0x24 ADD PUSH2 0xCC SWAP2 SWAP1 PUSH2 0x337 JUMP JUMPDEST PUSH1 0x40 MLOAD PUSH1 0x20 DUP2 DUP4 SUB SUB DUP2 MSTORE SWAP1 PUSH1 0x40 MSTORE PUSH32 0x12FB1CBD00000000000000000000000000000000000000000000000000000000 PUSH28 0xFFFFFFFFFFFFFFFFFFFFFFFFFFFFFFFFFFFFFFFFFFFFFFFFFFFFFFFF NOT AND PUSH1 0x20 DUP3 ADD DUP1 MLOAD PUSH28 0xFFFFFFFFFFFFFFFFFFFFFFFFFFFFFFFFFFFFFFFFFFFFFFFFFFFFFFFF DUP4 DUP2 DUP4 AND OR DUP4 MSTORE POP POP POP POP PUSH1 0x40 MLOAD PUSH2 0x156 SWAP2 SWAP1 PUSH2 0x49B JUMP JUMPDEST PUSH1 0x0 PUSH1 0x40 MLOAD DUP1 DUP4 SUB DUP2 PUSH1 0x0 DUP7 GAS CALL SWAP2 POP POP RETURNDATASIZE DUP1 PUSH1 0x0 DUP2 EQ PUSH2 0x193 JUMPI PUSH1 0x40 MLOAD SWAP2 POP PUSH1 0x1F NOT PUSH1 0x3F RETURNDATASIZE ADD AND DUP3 ADD PUSH1 0x40 MSTORE RETURNDATASIZE DUP3 MSTORE RETURNDATASIZE PUSH1 0x0 PUSH1 0x20 DUP5 ADD RETURNDATACOPY PUSH2 0x198 JUMP JUMPDEST PUSH1 0x60 SWAP2 POP JUMPDEST POP POP SWAP1 POP DUP1 PUSH2 0x1DC JUMPI PUSH1 0x40 MLOAD PUSH32 0x8C379A000000000000000000000000000000000000000000000000000000000 DUP2 MSTORE PUSH1 0x4 ADD PUSH2 0x1D3 SWAP1 PUSH2 0x50F JUMP JUMPDEST PUSH1 0x40 MLOAD DUP1 SWAP2 SUB SWAP1 REVERT JUMPDEST POP POP POP JUMP JUMPDEST PUSH1 0x0 DUP3 PUSH20 0xFFFFFFFFFFFFFFFFFFFFFFFFFFFFFFFFFFFFFFFF AND DUP3 PUSH1 0x40 MLOAD PUSH1 0x24 ADD PUSH2 0x20B SWAP2 SWAP1 PUSH2 0x337 JUMP JUMPDEST PUSH1 0x40 MLOAD PUSH1 0x20 DUP2 DUP4 SUB SUB DUP2 MSTORE SWAP1 PUSH1 0x40 MSTORE PUSH32 0x12FB1CBD00000000000000000000000000000000000000000000000000000000 PUSH28 0xFFFFFFFFFFFFFFFFFFFFFFFFFFFFFFFFFFFFFFFFFFFFFFFFFFFFFFFF NOT AND PUSH1 0x20 DUP3 ADD DUP1 MLOAD PUSH28 0xFFFFFFFFFFFFFFFFFFFFFFFFFFFFFFFFFFFFFFFFFFFFFFFFFFFFFFFF DUP4 DUP2 DUP4 AND OR DUP4 MSTORE POP POP POP POP PUSH1 0x40 MLOAD PUSH2 0x295 SWAP2 SWAP1 PUSH2 0x49B JUMP JUMPDEST PUSH1 0x0 PUSH1 0x40 MLOAD DUP1 DUP4 SUB DUP2 DUP6 GAS DELEGATECALL SWAP2 POP POP RETURNDATASIZE DUP1 PUSH1 0x0 DUP2 EQ PUSH2 0x2D0 JUMPI PUSH1 0x40 MLOAD SWAP2 POP PUSH1 0x1F NOT PUSH1 0x3F RETURNDATASIZE ADD AND DUP3 ADD PUSH1 0x40 MSTORE RETURNDATASIZE DUP3 MSTORE RETURNDATASIZE PUSH1 0x0 PUSH1 0x20 DUP5 ADD RETURNDATACOPY PUSH2 0x2D5 JUMP JUMPDEST PUSH1 0x60 SWAP2 POP JUMPDEST POP POP SWAP1 POP DUP1 PUSH2 0x319 JUMPI PUSH1 0x40 MLOAD PUSH32 0x8C379A000000000000000000000000000000000000000000000000000000000 DUP2 MSTORE PUSH1 0x4 ADD PUSH2 0x310 SWAP1 PUSH2 0x50F JUMP JUMPDEST PUSH1 0x40 MLOAD DUP1 SWAP2 SUB SWAP1 REVERT JUMPDEST POP POP POP JUMP JUMPDEST PUSH1 0x0 DUP2 SWAP1 POP SWAP2 SWAP1 POP JUMP JUMPDEST PUSH2 0x331 DUP2 PUSH2 0x31E JUMP JUMPDEST DUP3 MSTORE POP POP JUMP JUMPDEST PUSH1 0x0 PUSH1 0x20 DUP3 ADD SWAP1 POP PUSH2 0x34C PUSH1 0x0 DUP4 ADD DUP5 PUSH2 0x328 JUMP JUMPDEST SWAP3 SWAP2 POP POP JUMP JUMPDEST PUSH1 0x0 DUP1 REVERT JUMPDEST PUSH1 0x0 PUSH20 0xFFFFFFFFFFFFFFFFFFFFFFFFFFFFFFFFFFFFFFFF DUP3 AND SWAP1 POP SWAP2 SWAP1 POP JUMP JUMPDEST PUSH1 0x0 PUSH2 0x382 DUP3 PUSH2 0x357 JUMP JUMPDEST SWAP1 POP SWAP2 SWAP1 POP JUMP JUMPDEST PUSH2 0x392 DUP2 PUSH2 0x377 JUMP JUMPDEST DUP2 EQ PUSH2 0x39D JUMPI PUSH1 0x0 DUP1 REVERT JUMPDEST POP JUMP JUMPDEST PUSH1 0x0 DUP2 CALLDATALOAD SWAP1 POP PUSH2 0x3AF DUP2 PUSH2 0x389 JUMP JUMPDEST SWAP3 SWAP2 POP POP JUMP JUMPDEST PUSH2 0x3BE DUP2 PUSH2 0x31E JUMP JUMPDEST DUP2 EQ PUSH2 0x3C9 JUMPI PUSH1 0x0 DUP1 REVERT JUMPDEST POP JUMP JUMPDEST PUSH1 0x0 DUP2 CALLDATALOAD SWAP1 POP PUSH2 0x3DB DUP2 PUSH2 0x3B5 JUMP JUMPDEST SWAP3 SWAP2 POP POP JUMP JUMPDEST PUSH1 0x0 DUP1 PUSH1 0x40 DUP4 DUP6 SUB SLT ISZERO PUSH2 0x3F8 JUMPI PUSH2 0x3F7 PUSH2 0x352 JUMP JUMPDEST JUMPDEST PUSH1 0x0 PUSH2 0x406 DUP6 DUP3 DUP7 ADD PUSH2 0x3A0 JUMP JUMPDEST SWAP3 POP POP PUSH1 0x20 PUSH2 0x417 DUP6 DUP3 DUP7 ADD PUSH2 0x3CC JUMP JUMPDEST SWAP2 POP POP SWAP3 POP SWAP3 SWAP1 POP JUMP JUMPDEST PUSH1 0x0 DUP2 MLOAD SWAP1 POP SWAP2 SWAP1 POP JUMP JUMPDEST PUSH1 0x0 DUP2 SWAP1 POP SWAP3 SWAP2 POP POP JUMP JUMPDEST PUSH1 0x0 JUMPDEST DUP4 DUP2 LT ISZERO PUSH2 0x455 JUMPI DUP1 DUP3 ADD MLOAD DUP2 DUP5 ADD MSTORE PUSH1 0x20 DUP2 ADD SWAP1 POP PUSH2 0x43A JUMP JUMPDEST DUP4 DUP2 GT ISZERO PUSH2 0x464 JUMPI PUSH1 0x0 DUP5 DUP5 ADD MSTORE JUMPDEST POP POP POP POP JUMP JUMPDEST PUSH1 0x0 PUSH2 0x475 DUP3 PUSH2 0x421 JUMP JUMPDEST PUSH2 0x47F DUP2 DUP6 PUSH2 0x42C JUMP JUMPDEST SWAP4 POP PUSH2 0x48F DUP2 DUP6 PUSH1 0x20 DUP7 ADD PUSH2 0x437 JUMP JUMPDEST DUP1 DUP5 ADD SWAP2 POP POP SWAP3 SWAP2 POP POP JUMP JUMPDEST PUSH1 0x0 PUSH2 0x4A7 DUP3 DUP5 PUSH2 0x46A JUMP JUMPDEST SWAP2 POP DUP2 SWAP1 POP SWAP3 SWAP2 POP POP JUMP JUMPDEST PUSH1 0x0 DUP3 DUP3 MSTORE PUSH1 0x20 DUP3 ADD SWAP1 POP SWAP3 SWAP2 POP POP JUMP JUMPDEST PUSH32 0x4661696C65640000000000000000000000000000000000000000000000000000 PUSH1 0x0 DUP3 ADD MSTORE POP JUMP JUMPDEST PUSH1 0x0 PUSH2 0x4F9 PUSH1 0x6 DUP4 PUSH2 0x4B2 JUMP JUMPDEST SWAP2 POP PUSH2 0x504 DUP3 PUSH2 0x4C3 JUMP JUMPDEST PUSH1 0x20 DUP3 ADD SWAP1 POP SWAP2 SWAP1 POP JUMP JUMPDEST PUSH1 0x0 PUSH1 0x20 DUP3 ADD SWAP1 POP DUP2 DUP2 SUB PUSH1 0x0 DUP4 ADD MSTORE PUSH2 0x528 DUP2 PUSH2 0x4EC JUMP JUMPDEST SWAP1 POP SWAP2 SWAP1 POP JUMP INVALID LOG2 PUSH5 0x6970667358 0x22 SLT KECCAK256 0xAD 0xD6 0xB1 CALLDATACOPY 0xF7 BYTE EXTCODEHASH 0xA8 0x23 REVERT 0x5D DUP8 ADDRESS CREATE2 0xE0 0xC 0xA8 ISZERO MSTORE 0xF9 JUMP SWAP11 SUB SWAP4 EXP SHR 0xAD 0x4F SWAP5 0xB3 PUSH30 0x6B64736F6C634300080D0033000000000000000000000000000000000000 "
				},
				"gasEstimates": {
					"creation": {
						"codeDepositCost": "276200",
						"executionCost": "318",
						"totalCost": "276518"
					},
					"external": {
						"pointUpWithCall(address,uint256)": "infinite",
						"pointUpWithDelegateCall(address,uint256)": "infinite",
						"total()": "2407"
					}
				},
				"methodIdentifiers": {
					"pointUpWithCall(address,uint256)": "829b9bbc",
					"pointUpWithDelegateCall(address,uint256)": "9b8e6125",
					"total()": "2ddbd13a"
				}
			},
			"storageLayout": {
				"storage": [
					{
						"astId": 25,
						"contract": "chapter9/ex6.sol:UserInfo",
						"label": "total",
						"offset": 0,
						"slot": "0",
						"type": "t_uint256"
					}
				],
				"types": {
					"t_uint256": {
						"encoding": "inplace",
						"label": "uint256",
						"numberOfBytes": "32"
					}
				}
			},
			"userdoc": {
				"kind": "user",
				"methods": {},
				"version": 1
			}
		}
	}
}