{
	"chapter9/ex5.sol": {
		"Caller": {
			"abi": [
				{
					"inputs": [
						{
							"internalType": "address",
							"name": "_address",
							"type": "address"
						}
					],
					"name": "expectFallback",
					"outputs": [],
					"stateMutability": "nonpayable",
					"type": "function"
				},
				{
					"inputs": [
						{
							"internalType": "address",
							"name": "_address",
							"type": "address"
						}
					],
					"name": "outputWithEther",
					"outputs": [],
					"stateMutability": "payable",
					"type": "function"
				}
			],
			"devdoc": {
				"kind": "dev",
				"methods": {},
				"version": 1
			},
			"evm": {
				"assembly": "    /* \"chapter9/ex5.sol\":402:813  contract Caller {... */\n  mstore(0x40, 0x80)\n  callvalue\n  dup1\n  iszero\n  tag_1\n  jumpi\n  0x00\n  dup1\n  revert\ntag_1:\n  pop\n  dataSize(sub_0)\n  dup1\n  dataOffset(sub_0)\n  0x00\n  codecopy\n  0x00\n  return\nstop\n\nsub_0: assembly {\n        /* \"chapter9/ex5.sol\":402:813  contract Caller {... */\n      mstore(0x40, 0x80)\n      jumpi(tag_1, lt(calldatasize, 0x04))\n      shr(0xe0, calldataload(0x00))\n      dup1\n      0x36df4c43\n      eq\n      tag_2\n      jumpi\n      dup1\n      0xf3d1166c\n      eq\n      tag_3\n      jumpi\n    tag_1:\n      0x00\n      dup1\n      revert\n        /* \"chapter9/ex5.sol\":602:811  function outputWithEther(address _address) public payable {... */\n    tag_2:\n      tag_4\n      0x04\n      dup1\n      calldatasize\n      sub\n      dup2\n      add\n      swap1\n      tag_5\n      swap2\n      swap1\n      tag_6\n      jump\t// in\n    tag_5:\n      tag_7\n      jump\t// in\n    tag_4:\n      stop\n        /* \"chapter9/ex5.sol\":424:596  function expectFallback(address _address) public {... */\n    tag_3:\n      callvalue\n      dup1\n      iszero\n      tag_8\n      jumpi\n      0x00\n      dup1\n      revert\n    tag_8:\n      pop\n      tag_9\n      0x04\n      dup1\n      calldatasize\n      sub\n      dup2\n      add\n      swap1\n      tag_10\n      swap2\n      swap1\n      tag_6\n      jump\t// in\n    tag_10:\n      tag_11\n      jump\t// in\n    tag_9:\n      stop\n        /* \"chapter9/ex5.sol\":602:811  function outputWithEther(address _address) public payable {... */\n    tag_7:\n        /* \"chapter9/ex5.sol\":671:683  bool success */\n      0x00\n        /* \"chapter9/ex5.sol\":688:696  _address */\n      dup2\n        /* \"chapter9/ex5.sol\":688:701  _address.call */\n      0xffffffffffffffffffffffffffffffffffffffff\n      and\n        /* \"chapter9/ex5.sol\":708:717  msg.value */\n      callvalue\n        /* \"chapter9/ex5.sol\":732:767  abi.encodeWithSignature(\"outPut()\") */\n      add(0x24, mload(0x40))\n      mload(0x40)\n      0x20\n      dup2\n      dup4\n      sub\n      sub\n      dup2\n      mstore\n      swap1\n      0x40\n      mstore\n      and(not(0xffffffffffffffffffffffffffffffffffffffffffffffffffffffff), 0xc0e493f800000000000000000000000000000000000000000000000000000000)\n      0x20\n      dup3\n      add\n      dup1\n      mload\n      0xffffffffffffffffffffffffffffffffffffffffffffffffffffffff\n      dup4\n      dup2\n      dup4\n      and\n      or\n      dup4\n      mstore\n      pop\n      pop\n      pop\n      pop\n        /* \"chapter9/ex5.sol\":688:768  _address.call{value:msg.value}(... */\n      mload(0x40)\n      tag_13\n      swap2\n      swap1\n      tag_14\n      jump\t// in\n    tag_13:\n      0x00\n      mload(0x40)\n      dup1\n      dup4\n      sub\n      dup2\n      dup6\n      dup8\n      gas\n      call\n      swap3\n      pop\n      pop\n      pop\n      returndatasize\n      dup1\n      0x00\n      dup2\n      eq\n      tag_17\n      jumpi\n      mload(0x40)\n      swap2\n      pop\n      and(add(returndatasize, 0x3f), not(0x1f))\n      dup3\n      add\n      0x40\n      mstore\n      returndatasize\n      dup3\n      mstore\n      returndatasize\n      0x00\n      0x20\n      dup5\n      add\n      returndatacopy\n      jump(tag_16)\n    tag_17:\n      0x60\n      swap2\n      pop\n    tag_16:\n      pop\n        /* \"chapter9/ex5.sol\":670:768  (bool success,) = _address.call{value:msg.value}(... */\n      pop\n      swap1\n      pop\n        /* \"chapter9/ex5.sol\":786:793  success */\n      dup1\n        /* \"chapter9/ex5.sol\":778:804  require(success, \"Failed\") */\n      tag_18\n      jumpi\n      mload(0x40)\n      0x08c379a000000000000000000000000000000000000000000000000000000000\n      dup2\n      mstore\n      0x04\n      add\n      tag_19\n      swap1\n      tag_20\n      jump\t// in\n    tag_19:\n      mload(0x40)\n      dup1\n      swap2\n      sub\n      swap1\n      revert\n    tag_18:\n        /* \"chapter9/ex5.sol\":660:811  {... */\n      pop\n        /* \"chapter9/ex5.sol\":602:811  function outputWithEther(address _address) public payable {... */\n      pop\n      jump\t// out\n        /* \"chapter9/ex5.sol\":424:596  function expectFallback(address _address) public {... */\n    tag_11:\n        /* \"chapter9/ex5.sol\":484:496  bool success */\n      0x00\n        /* \"chapter9/ex5.sol\":502:510  _address */\n      dup2\n        /* \"chapter9/ex5.sol\":502:515  _address.call */\n      0xffffffffffffffffffffffffffffffffffffffff\n      and\n        /* \"chapter9/ex5.sol\":516:552  abi.encodeWithSignature(\"outPut2()\") */\n      add(0x24, mload(0x40))\n      mload(0x40)\n      0x20\n      dup2\n      dup4\n      sub\n      sub\n      dup2\n      mstore\n      swap1\n      0x40\n      mstore\n      and(not(0xffffffffffffffffffffffffffffffffffffffffffffffffffffffff), 0xc2e1017b00000000000000000000000000000000000000000000000000000000)\n      0x20\n      dup3\n      add\n      dup1\n      mload\n      0xffffffffffffffffffffffffffffffffffffffffffffffffffffffff\n      dup4\n      dup2\n      dup4\n      and\n      or\n      dup4\n      mstore\n      pop\n      pop\n      pop\n      pop\n        /* \"chapter9/ex5.sol\":502:553  _address.call(abi.encodeWithSignature(\"outPut2()\")) */\n      mload(0x40)\n      tag_22\n      swap2\n      swap1\n      tag_14\n      jump\t// in\n    tag_22:\n      0x00\n      mload(0x40)\n      dup1\n      dup4\n      sub\n      dup2\n      0x00\n      dup7\n      gas\n      call\n      swap2\n      pop\n      pop\n      returndatasize\n      dup1\n      0x00\n      dup2\n      eq\n      tag_25\n      jumpi\n      mload(0x40)\n      swap2\n      pop\n      and(add(returndatasize, 0x3f), not(0x1f))\n      dup3\n      add\n      0x40\n      mstore\n      returndatasize\n      dup3\n      mstore\n      returndatasize\n      0x00\n      0x20\n      dup5\n      add\n      returndatacopy\n      jump(tag_24)\n    tag_25:\n      0x60\n      swap2\n      pop\n    tag_24:\n      pop\n        /* \"chapter9/ex5.sol\":483:553  (bool success, ) = _address.call(abi.encodeWithSignature(\"outPut2()\")) */\n      pop\n      swap1\n      pop\n        /* \"chapter9/ex5.sol\":571:578  success */\n      dup1\n        /* \"chapter9/ex5.sol\":563:589  require(success, \"Failed\") */\n      tag_26\n      jumpi\n      mload(0x40)\n      0x08c379a000000000000000000000000000000000000000000000000000000000\n      dup2\n      mstore\n      0x04\n      add\n      tag_27\n      swap1\n      tag_20\n      jump\t// in\n    tag_27:\n      mload(0x40)\n      dup1\n      swap2\n      sub\n      swap1\n      revert\n    tag_26:\n        /* \"chapter9/ex5.sol\":473:596  {... */\n      pop\n        /* \"chapter9/ex5.sol\":424:596  function expectFallback(address _address) public {... */\n      pop\n      jump\t// out\n        /* \"#utility.yul\":88:205   */\n    tag_29:\n        /* \"#utility.yul\":197:198   */\n      0x00\n        /* \"#utility.yul\":194:195   */\n      dup1\n        /* \"#utility.yul\":187:199   */\n      revert\n        /* \"#utility.yul\":334:460   */\n    tag_31:\n        /* \"#utility.yul\":371:378   */\n      0x00\n        /* \"#utility.yul\":411:453   */\n      0xffffffffffffffffffffffffffffffffffffffff\n        /* \"#utility.yul\":404:409   */\n      dup3\n        /* \"#utility.yul\":400:454   */\n      and\n        /* \"#utility.yul\":389:454   */\n      swap1\n      pop\n        /* \"#utility.yul\":334:460   */\n      swap2\n      swap1\n      pop\n      jump\t// out\n        /* \"#utility.yul\":466:562   */\n    tag_32:\n        /* \"#utility.yul\":503:510   */\n      0x00\n        /* \"#utility.yul\":532:556   */\n      tag_48\n        /* \"#utility.yul\":550:555   */\n      dup3\n        /* \"#utility.yul\":532:556   */\n      tag_31\n      jump\t// in\n    tag_48:\n        /* \"#utility.yul\":521:556   */\n      swap1\n      pop\n        /* \"#utility.yul\":466:562   */\n      swap2\n      swap1\n      pop\n      jump\t// out\n        /* \"#utility.yul\":568:690   */\n    tag_33:\n        /* \"#utility.yul\":641:665   */\n      tag_50\n        /* \"#utility.yul\":659:664   */\n      dup2\n        /* \"#utility.yul\":641:665   */\n      tag_32\n      jump\t// in\n    tag_50:\n        /* \"#utility.yul\":634:639   */\n      dup2\n        /* \"#utility.yul\":631:666   */\n      eq\n        /* \"#utility.yul\":621:684   */\n      tag_51\n      jumpi\n        /* \"#utility.yul\":680:681   */\n      0x00\n        /* \"#utility.yul\":677:678   */\n      dup1\n        /* \"#utility.yul\":670:682   */\n      revert\n        /* \"#utility.yul\":621:684   */\n    tag_51:\n        /* \"#utility.yul\":568:690   */\n      pop\n      jump\t// out\n        /* \"#utility.yul\":696:835   */\n    tag_34:\n        /* \"#utility.yul\":742:747   */\n      0x00\n        /* \"#utility.yul\":780:786   */\n      dup2\n        /* \"#utility.yul\":767:787   */\n      calldataload\n        /* \"#utility.yul\":758:787   */\n      swap1\n      pop\n        /* \"#utility.yul\":796:829   */\n      tag_53\n        /* \"#utility.yul\":823:828   */\n      dup2\n        /* \"#utility.yul\":796:829   */\n      tag_33\n      jump\t// in\n    tag_53:\n        /* \"#utility.yul\":696:835   */\n      swap3\n      swap2\n      pop\n      pop\n      jump\t// out\n        /* \"#utility.yul\":841:1170   */\n    tag_6:\n        /* \"#utility.yul\":900:906   */\n      0x00\n        /* \"#utility.yul\":949:951   */\n      0x20\n        /* \"#utility.yul\":937:946   */\n      dup3\n        /* \"#utility.yul\":928:935   */\n      dup5\n        /* \"#utility.yul\":924:947   */\n      sub\n        /* \"#utility.yul\":920:952   */\n      slt\n        /* \"#utility.yul\":917:1036   */\n      iszero\n      tag_55\n      jumpi\n        /* \"#utility.yul\":955:1034   */\n      tag_56\n      tag_29\n      jump\t// in\n    tag_56:\n        /* \"#utility.yul\":917:1036   */\n    tag_55:\n        /* \"#utility.yul\":1075:1076   */\n      0x00\n        /* \"#utility.yul\":1100:1153   */\n      tag_57\n        /* \"#utility.yul\":1145:1152   */\n      dup5\n        /* \"#utility.yul\":1136:1142   */\n      dup3\n        /* \"#utility.yul\":1125:1134   */\n      dup6\n        /* \"#utility.yul\":1121:1143   */\n      add\n        /* \"#utility.yul\":1100:1153   */\n      tag_34\n      jump\t// in\n    tag_57:\n        /* \"#utility.yul\":1090:1153   */\n      swap2\n      pop\n        /* \"#utility.yul\":1046:1163   */\n      pop\n        /* \"#utility.yul\":841:1170   */\n      swap3\n      swap2\n      pop\n      pop\n      jump\t// out\n        /* \"#utility.yul\":1176:1274   */\n    tag_35:\n        /* \"#utility.yul\":1227:1233   */\n      0x00\n        /* \"#utility.yul\":1261:1266   */\n      dup2\n        /* \"#utility.yul\":1255:1267   */\n      mload\n        /* \"#utility.yul\":1245:1267   */\n      swap1\n      pop\n        /* \"#utility.yul\":1176:1274   */\n      swap2\n      swap1\n      pop\n      jump\t// out\n        /* \"#utility.yul\":1280:1427   */\n    tag_36:\n        /* \"#utility.yul\":1381:1392   */\n      0x00\n        /* \"#utility.yul\":1418:1421   */\n      dup2\n        /* \"#utility.yul\":1403:1421   */\n      swap1\n      pop\n        /* \"#utility.yul\":1280:1427   */\n      swap3\n      swap2\n      pop\n      pop\n      jump\t// out\n        /* \"#utility.yul\":1433:1740   */\n    tag_37:\n        /* \"#utility.yul\":1501:1502   */\n      0x00\n        /* \"#utility.yul\":1511:1624   */\n    tag_61:\n        /* \"#utility.yul\":1525:1531   */\n      dup4\n        /* \"#utility.yul\":1522:1523   */\n      dup2\n        /* \"#utility.yul\":1519:1532   */\n      lt\n        /* \"#utility.yul\":1511:1624   */\n      iszero\n      tag_63\n      jumpi\n        /* \"#utility.yul\":1610:1611   */\n      dup1\n        /* \"#utility.yul\":1605:1608   */\n      dup3\n        /* \"#utility.yul\":1601:1612   */\n      add\n        /* \"#utility.yul\":1595:1613   */\n      mload\n        /* \"#utility.yul\":1591:1592   */\n      dup2\n        /* \"#utility.yul\":1586:1589   */\n      dup5\n        /* \"#utility.yul\":1582:1593   */\n      add\n        /* \"#utility.yul\":1575:1614   */\n      mstore\n        /* \"#utility.yul\":1547:1549   */\n      0x20\n        /* \"#utility.yul\":1544:1545   */\n      dup2\n        /* \"#utility.yul\":1540:1550   */\n      add\n        /* \"#utility.yul\":1535:1550   */\n      swap1\n      pop\n        /* \"#utility.yul\":1511:1624   */\n      jump(tag_61)\n    tag_63:\n        /* \"#utility.yul\":1642:1648   */\n      dup4\n        /* \"#utility.yul\":1639:1640   */\n      dup2\n        /* \"#utility.yul\":1636:1649   */\n      gt\n        /* \"#utility.yul\":1633:1734   */\n      iszero\n      tag_64\n      jumpi\n        /* \"#utility.yul\":1722:1723   */\n      0x00\n        /* \"#utility.yul\":1713:1719   */\n      dup5\n        /* \"#utility.yul\":1708:1711   */\n      dup5\n        /* \"#utility.yul\":1704:1720   */\n      add\n        /* \"#utility.yul\":1697:1724   */\n      mstore\n        /* \"#utility.yul\":1633:1734   */\n    tag_64:\n        /* \"#utility.yul\":1482:1740   */\n      pop\n        /* \"#utility.yul\":1433:1740   */\n      pop\n      pop\n      pop\n      jump\t// out\n        /* \"#utility.yul\":1746:2119   */\n    tag_38:\n        /* \"#utility.yul\":1850:1853   */\n      0x00\n        /* \"#utility.yul\":1878:1916   */\n      tag_66\n        /* \"#utility.yul\":1910:1915   */\n      dup3\n        /* \"#utility.yul\":1878:1916   */\n      tag_35\n      jump\t// in\n    tag_66:\n        /* \"#utility.yul\":1932:2020   */\n      tag_67\n        /* \"#utility.yul\":2013:2019   */\n      dup2\n        /* \"#utility.yul\":2008:2011   */\n      dup6\n        /* \"#utility.yul\":1932:2020   */\n      tag_36\n      jump\t// in\n    tag_67:\n        /* \"#utility.yul\":1925:2020   */\n      swap4\n      pop\n        /* \"#utility.yul\":2029:2081   */\n      tag_68\n        /* \"#utility.yul\":2074:2080   */\n      dup2\n        /* \"#utility.yul\":2069:2072   */\n      dup6\n        /* \"#utility.yul\":2062:2066   */\n      0x20\n        /* \"#utility.yul\":2055:2060   */\n      dup7\n        /* \"#utility.yul\":2051:2067   */\n      add\n        /* \"#utility.yul\":2029:2081   */\n      tag_37\n      jump\t// in\n    tag_68:\n        /* \"#utility.yul\":2106:2112   */\n      dup1\n        /* \"#utility.yul\":2101:2104   */\n      dup5\n        /* \"#utility.yul\":2097:2113   */\n      add\n        /* \"#utility.yul\":2090:2113   */\n      swap2\n      pop\n        /* \"#utility.yul\":1854:2119   */\n      pop\n        /* \"#utility.yul\":1746:2119   */\n      swap3\n      swap2\n      pop\n      pop\n      jump\t// out\n        /* \"#utility.yul\":2125:2396   */\n    tag_14:\n        /* \"#utility.yul\":2255:2258   */\n      0x00\n        /* \"#utility.yul\":2277:2370   */\n      tag_70\n        /* \"#utility.yul\":2366:2369   */\n      dup3\n        /* \"#utility.yul\":2357:2363   */\n      dup5\n        /* \"#utility.yul\":2277:2370   */\n      tag_38\n      jump\t// in\n    tag_70:\n        /* \"#utility.yul\":2270:2370   */\n      swap2\n      pop\n        /* \"#utility.yul\":2387:2390   */\n      dup2\n        /* \"#utility.yul\":2380:2390   */\n      swap1\n      pop\n        /* \"#utility.yul\":2125:2396   */\n      swap3\n      swap2\n      pop\n      pop\n      jump\t// out\n        /* \"#utility.yul\":2402:2571   */\n    tag_39:\n        /* \"#utility.yul\":2486:2497   */\n      0x00\n        /* \"#utility.yul\":2520:2526   */\n      dup3\n        /* \"#utility.yul\":2515:2518   */\n      dup3\n        /* \"#utility.yul\":2508:2527   */\n      mstore\n        /* \"#utility.yul\":2560:2564   */\n      0x20\n        /* \"#utility.yul\":2555:2558   */\n      dup3\n        /* \"#utility.yul\":2551:2565   */\n      add\n        /* \"#utility.yul\":2536:2565   */\n      swap1\n      pop\n        /* \"#utility.yul\":2402:2571   */\n      swap3\n      swap2\n      pop\n      pop\n      jump\t// out\n        /* \"#utility.yul\":2577:2733   */\n    tag_40:\n        /* \"#utility.yul\":2717:2725   */\n      0x4661696c65640000000000000000000000000000000000000000000000000000\n        /* \"#utility.yul\":2713:2714   */\n      0x00\n        /* \"#utility.yul\":2705:2711   */\n      dup3\n        /* \"#utility.yul\":2701:2715   */\n      add\n        /* \"#utility.yul\":2694:2726   */\n      mstore\n        /* \"#utility.yul\":2577:2733   */\n      pop\n      jump\t// out\n        /* \"#utility.yul\":2739:3104   */\n    tag_41:\n        /* \"#utility.yul\":2881:2884   */\n      0x00\n        /* \"#utility.yul\":2902:2968   */\n      tag_74\n        /* \"#utility.yul\":2966:2967   */\n      0x06\n        /* \"#utility.yul\":2961:2964   */\n      dup4\n        /* \"#utility.yul\":2902:2968   */\n      tag_39\n      jump\t// in\n    tag_74:\n        /* \"#utility.yul\":2895:2968   */\n      swap2\n      pop\n        /* \"#utility.yul\":2977:3070   */\n      tag_75\n        /* \"#utility.yul\":3066:3069   */\n      dup3\n        /* \"#utility.yul\":2977:3070   */\n      tag_40\n      jump\t// in\n    tag_75:\n        /* \"#utility.yul\":3095:3097   */\n      0x20\n        /* \"#utility.yul\":3090:3093   */\n      dup3\n        /* \"#utility.yul\":3086:3098   */\n      add\n        /* \"#utility.yul\":3079:3098   */\n      swap1\n      pop\n        /* \"#utility.yul\":2739:3104   */\n      swap2\n      swap1\n      pop\n      jump\t// out\n        /* \"#utility.yul\":3110:3529   */\n    tag_20:\n        /* \"#utility.yul\":3276:3280   */\n      0x00\n        /* \"#utility.yul\":3314:3316   */\n      0x20\n        /* \"#utility.yul\":3303:3312   */\n      dup3\n        /* \"#utility.yul\":3299:3317   */\n      add\n        /* \"#utility.yul\":3291:3317   */\n      swap1\n      pop\n        /* \"#utility.yul\":3363:3372   */\n      dup2\n        /* \"#utility.yul\":3357:3361   */\n      dup2\n        /* \"#utility.yul\":3353:3373   */\n      sub\n        /* \"#utility.yul\":3349:3350   */\n      0x00\n        /* \"#utility.yul\":3338:3347   */\n      dup4\n        /* \"#utility.yul\":3334:3351   */\n      add\n        /* \"#utility.yul\":3327:3374   */\n      mstore\n        /* \"#utility.yul\":3391:3522   */\n      tag_77\n        /* \"#utility.yul\":3517:3521   */\n      dup2\n        /* \"#utility.yul\":3391:3522   */\n      tag_41\n      jump\t// in\n    tag_77:\n        /* \"#utility.yul\":3383:3522   */\n      swap1\n      pop\n        /* \"#utility.yul\":3110:3529   */\n      swap2\n      swap1\n      pop\n      jump\t// out\n\n    auxdata: 0xa26469706673582212208af663d5225e975c3168f01ab9504e874b3460698b8cac30e47bda4b6ec9dd9f64736f6c634300080d0033\n}\n",
				"bytecode": {
					"linkReferences": {},
					"object": "608060405234801561001057600080fd5b506104ae806100206000396000f3fe6080604052600436106100295760003560e01c806336df4c431461002e578063f3d1166c1461004a575b600080fd5b6100486004803603810190610043919061033d565b610073565b005b34801561005657600080fd5b50610071600480360381019061006c919061033d565b6101a7565b005b60008173ffffffffffffffffffffffffffffffffffffffff16346040516024016040516020818303038152906040527fc0e493f8000000000000000000000000000000000000000000000000000000007bffffffffffffffffffffffffffffffffffffffffffffffffffffffff19166020820180517bffffffffffffffffffffffffffffffffffffffffffffffffffffffff838183161783525050505060405161011d91906103e4565b60006040518083038185875af1925050503d806000811461015a576040519150601f19603f3d011682016040523d82523d6000602084013e61015f565b606091505b50509050806101a3576040517f08c379a000000000000000000000000000000000000000000000000000000000815260040161019a90610458565b60405180910390fd5b5050565b60008173ffffffffffffffffffffffffffffffffffffffff166040516024016040516020818303038152906040527fc2e1017b000000000000000000000000000000000000000000000000000000007bffffffffffffffffffffffffffffffffffffffffffffffffffffffff19166020820180517bffffffffffffffffffffffffffffffffffffffffffffffffffffffff838183161783525050505060405161025091906103e4565b6000604051808303816000865af19150503d806000811461028d576040519150601f19603f3d011682016040523d82523d6000602084013e610292565b606091505b50509050806102d6576040517f08c379a00000000000000000000000000000000000000000000000000000000081526004016102cd90610458565b60405180910390fd5b5050565b600080fd5b600073ffffffffffffffffffffffffffffffffffffffff82169050919050565b600061030a826102df565b9050919050565b61031a816102ff565b811461032557600080fd5b50565b60008135905061033781610311565b92915050565b600060208284031215610353576103526102da565b5b600061036184828501610328565b91505092915050565b600081519050919050565b600081905092915050565b60005b8381101561039e578082015181840152602081019050610383565b838111156103ad576000848401525b50505050565b60006103be8261036a565b6103c88185610375565b93506103d8818560208601610380565b80840191505092915050565b60006103f082846103b3565b915081905092915050565b600082825260208201905092915050565b7f4661696c65640000000000000000000000000000000000000000000000000000600082015250565b60006104426006836103fb565b915061044d8261040c565b602082019050919050565b6000602082019050818103600083015261047181610435565b905091905056fea26469706673582212208af663d5225e975c3168f01ab9504e874b3460698b8cac30e47bda4b6ec9dd9f64736f6c634300080d0033",
					"opcodes": "PUSH1 0x80 PUSH1 0x40 MSTORE CALLVALUE DUP1 ISZERO PUSH2 0x10 JUMPI PUSH1 0x0 DUP1 REVERT JUMPDEST POP PUSH2 0x4AE DUP1 PUSH2 0x20 PUSH1 0x0 CODECOPY PUSH1 0x0 RETURN INVALID PUSH1 0x80 PUSH1 0x40 MSTORE PUSH1 0x4 CALLDATASIZE LT PUSH2 0x29 JUMPI PUSH1 0x0 CALLDATALOAD PUSH1 0xE0 SHR DUP1 PUSH4 0x36DF4C43 EQ PUSH2 0x2E JUMPI DUP1 PUSH4 0xF3D1166C EQ PUSH2 0x4A JUMPI JUMPDEST PUSH1 0x0 DUP1 REVERT JUMPDEST PUSH2 0x48 PUSH1 0x4 DUP1 CALLDATASIZE SUB DUP2 ADD SWAP1 PUSH2 0x43 SWAP2 SWAP1 PUSH2 0x33D JUMP JUMPDEST PUSH2 0x73 JUMP JUMPDEST STOP JUMPDEST CALLVALUE DUP1 ISZERO PUSH2 0x56 JUMPI PUSH1 0x0 DUP1 REVERT JUMPDEST POP PUSH2 0x71 PUSH1 0x4 DUP1 CALLDATASIZE SUB DUP2 ADD SWAP1 PUSH2 0x6C SWAP2 SWAP1 PUSH2 0x33D JUMP JUMPDEST PUSH2 0x1A7 JUMP JUMPDEST STOP JUMPDEST PUSH1 0x0 DUP2 PUSH20 0xFFFFFFFFFFFFFFFFFFFFFFFFFFFFFFFFFFFFFFFF AND CALLVALUE PUSH1 0x40 MLOAD PUSH1 0x24 ADD PUSH1 0x40 MLOAD PUSH1 0x20 DUP2 DUP4 SUB SUB DUP2 MSTORE SWAP1 PUSH1 0x40 MSTORE PUSH32 0xC0E493F800000000000000000000000000000000000000000000000000000000 PUSH28 0xFFFFFFFFFFFFFFFFFFFFFFFFFFFFFFFFFFFFFFFFFFFFFFFFFFFFFFFF NOT AND PUSH1 0x20 DUP3 ADD DUP1 MLOAD PUSH28 0xFFFFFFFFFFFFFFFFFFFFFFFFFFFFFFFFFFFFFFFFFFFFFFFFFFFFFFFF DUP4 DUP2 DUP4 AND OR DUP4 MSTORE POP POP POP POP PUSH1 0x40 MLOAD PUSH2 0x11D SWAP2 SWAP1 PUSH2 0x3E4 JUMP JUMPDEST PUSH1 0x0 PUSH1 0x40 MLOAD DUP1 DUP4 SUB DUP2 DUP6 DUP8 GAS CALL SWAP3 POP POP POP RETURNDATASIZE DUP1 PUSH1 0x0 DUP2 EQ PUSH2 0x15A JUMPI PUSH1 0x40 MLOAD SWAP2 POP PUSH1 0x1F NOT PUSH1 0x3F RETURNDATASIZE ADD AND DUP3 ADD PUSH1 0x40 MSTORE RETURNDATASIZE DUP3 MSTORE RETURNDATASIZE PUSH1 0x0 PUSH1 0x20 DUP5 ADD RETURNDATACOPY PUSH2 0x15F JUMP JUMPDEST PUSH1 0x60 SWAP2 POP JUMPDEST POP POP SWAP1 POP DUP1 PUSH2 0x1A3 JUMPI PUSH1 0x40 MLOAD PUSH32 0x8C379A000000000000000000000000000000000000000000000000000000000 DUP2 MSTORE PUSH1 0x4 ADD PUSH2 0x19A SWAP1 PUSH2 0x458 JUMP JUMPDEST PUSH1 0x40 MLOAD DUP1 SWAP2 SUB SWAP1 REVERT JUMPDEST POP POP JUMP JUMPDEST PUSH1 0x0 DUP2 PUSH20 0xFFFFFFFFFFFFFFFFFFFFFFFFFFFFFFFFFFFFFFFF AND PUSH1 0x40 MLOAD PUSH1 0x24 ADD PUSH1 0x40 MLOAD PUSH1 0x20 DUP2 DUP4 SUB SUB DUP2 MSTORE SWAP1 PUSH1 0x40 MSTORE PUSH32 0xC2E1017B00000000000000000000000000000000000000000000000000000000 PUSH28 0xFFFFFFFFFFFFFFFFFFFFFFFFFFFFFFFFFFFFFFFFFFFFFFFFFFFFFFFF NOT AND PUSH1 0x20 DUP3 ADD DUP1 MLOAD PUSH28 0xFFFFFFFFFFFFFFFFFFFFFFFFFFFFFFFFFFFFFFFFFFFFFFFFFFFFFFFF DUP4 DUP2 DUP4 AND OR DUP4 MSTORE POP POP POP POP PUSH1 0x40 MLOAD PUSH2 0x250 SWAP2 SWAP1 PUSH2 0x3E4 JUMP JUMPDEST PUSH1 0x0 PUSH1 0x40 MLOAD DUP1 DUP4 SUB DUP2 PUSH1 0x0 DUP7 GAS CALL SWAP2 POP POP RETURNDATASIZE DUP1 PUSH1 0x0 DUP2 EQ PUSH2 0x28D JUMPI PUSH1 0x40 MLOAD SWAP2 POP PUSH1 0x1F NOT PUSH1 0x3F RETURNDATASIZE ADD AND DUP3 ADD PUSH1 0x40 MSTORE RETURNDATASIZE DUP3 MSTORE RETURNDATASIZE PUSH1 0x0 PUSH1 0x20 DUP5 ADD RETURNDATACOPY PUSH2 0x292 JUMP JUMPDEST PUSH1 0x60 SWAP2 POP JUMPDEST POP POP SWAP1 POP DUP1 PUSH2 0x2D6 JUMPI PUSH1 0x40 MLOAD PUSH32 0x8C379A000000000000000000000000000000000000000000000000000000000 DUP2 MSTORE PUSH1 0x4 ADD PUSH2 0x2CD SWAP1 PUSH2 0x458 JUMP JUMPDEST PUSH1 0x40 MLOAD DUP1 SWAP2 SUB SWAP1 REVERT JUMPDEST POP POP JUMP JUMPDEST PUSH1 0x0 DUP1 REVERT JUMPDEST PUSH1 0x0 PUSH20 0xFFFFFFFFFFFFFFFFFFFFFFFFFFFFFFFFFFFFFFFF DUP3 AND SWAP1 POP SWAP2 SWAP1 POP JUMP JUMPDEST PUSH1 0x0 PUSH2 0x30A DUP3 PUSH2 0x2DF JUMP JUMPDEST SWAP1 POP SWAP2 SWAP1 POP JUMP JUMPDEST PUSH2 0x31A DUP2 PUSH2 0x2FF JUMP JUMPDEST DUP2 EQ PUSH2 0x325 JUMPI PUSH1 0x0 DUP1 REVERT JUMPDEST POP JUMP JUMPDEST PUSH1 0x0 DUP2 CALLDATALOAD SWAP1 POP PUSH2 0x337 DUP2 PUSH2 0x311 JUMP JUMPDEST SWAP3 SWAP2 POP POP JUMP JUMPDEST PUSH1 0x0 PUSH1 0x20 DUP3 DUP5 SUB SLT ISZERO PUSH2 0x353 JUMPI PUSH2 0x352 PUSH2 0x2DA JUMP JUMPDEST JUMPDEST PUSH1 0x0 PUSH2 0x361 DUP5 DUP3 DUP6 ADD PUSH2 0x328 JUMP JUMPDEST SWAP2 POP POP SWAP3 SWAP2 POP POP JUMP JUMPDEST PUSH1 0x0 DUP2 MLOAD SWAP1 POP SWAP2 SWAP1 POP JUMP JUMPDEST PUSH1 0x0 DUP2 SWAP1 POP SWAP3 SWAP2 POP POP JUMP JUMPDEST PUSH1 0x0 JUMPDEST DUP4 DUP2 LT ISZERO PUSH2 0x39E JUMPI DUP1 DUP3 ADD MLOAD DUP2 DUP5 ADD MSTORE PUSH1 0x20 DUP2 ADD SWAP1 POP PUSH2 0x383 JUMP JUMPDEST DUP4 DUP2 GT ISZERO PUSH2 0x3AD JUMPI PUSH1 0x0 DUP5 DUP5 ADD MSTORE JUMPDEST POP POP POP POP JUMP JUMPDEST PUSH1 0x0 PUSH2 0x3BE DUP3 PUSH2 0x36A JUMP JUMPDEST PUSH2 0x3C8 DUP2 DUP6 PUSH2 0x375 JUMP JUMPDEST SWAP4 POP PUSH2 0x3D8 DUP2 DUP6 PUSH1 0x20 DUP7 ADD PUSH2 0x380 JUMP JUMPDEST DUP1 DUP5 ADD SWAP2 POP POP SWAP3 SWAP2 POP POP JUMP JUMPDEST PUSH1 0x0 PUSH2 0x3F0 DUP3 DUP5 PUSH2 0x3B3 JUMP JUMPDEST SWAP2 POP DUP2 SWAP1 POP SWAP3 SWAP2 POP POP JUMP JUMPDEST PUSH1 0x0 DUP3 DUP3 MSTORE PUSH1 0x20 DUP3 ADD SWAP1 POP SWAP3 SWAP2 POP POP JUMP JUMPDEST PUSH32 0x4661696C65640000000000000000000000000000000000000000000000000000 PUSH1 0x0 DUP3 ADD MSTORE POP JUMP JUMPDEST PUSH1 0x0 PUSH2 0x442 PUSH1 0x6 DUP4 PUSH2 0x3FB JUMP JUMPDEST SWAP2 POP PUSH2 0x44D DUP3 PUSH2 0x40C JUMP JUMPDEST PUSH1 0x20 DUP3 ADD SWAP1 POP SWAP2 SWAP1 POP JUMP JUMPDEST PUSH1 0x0 PUSH1 0x20 DUP3 ADD SWAP1 POP DUP2 DUP2 SUB PUSH1 0x0 DUP4 ADD MSTORE PUSH2 0x471 DUP2 PUSH2 0x435 JUMP JUMPDEST SWAP1 POP SWAP2 SWAP1 POP JUMP INVALID LOG2 PUSH5 0x6970667358 0x22 SLT KECCAK256 DUP11 0xF6 PUSH4 0xD5225E97 0x5C BALANCE PUSH9 0xF01AB9504E874B3460 PUSH10 0x8B8CAC30E47BDA4B6EC9 0xDD SWAP16 PUSH5 0x736F6C6343 STOP ADDMOD 0xD STOP CALLER "
				},
				"gasEstimates": {
					"creation": {
						"codeDepositCost": "239600",
						"executionCost": "281",
						"totalCost": "239881"
					},
					"external": {
						"expectFallback(address)": "infinite",
						"outputWithEther(address)": "infinite"
					}
				},
				"methodIdentifiers": {
					"expectFallback(address)": "f3d1166c",
					"outputWithEther(address)": "36df4c43"
				}
			},
			"storageLayout": {
				"storage": [],
				"types": null
			},
			"userdoc": {
				"kind": "user",
				"methods": {},
				"version": 1
			}
		}
	}
}