{
	"chapter9/ex5.sol": {
		"Receiver": {
			"abi": [
				{
					"anonymous": false,
					"inputs": [
						{
							"indexed": false,
							"internalType": "string",
							"name": "info",
							"type": "string"
						},
						{
							"indexed": false,
							"internalType": "address",
							"name": "from",
							"type": "address"
						}
					],
					"name": "From",
					"type": "event"
				},
				{
					"stateMutability": "nonpayable",
					"type": "fallback"
				},
				{
					"inputs": [],
					"name": "getBalance",
					"outputs": [
						{
							"internalType": "uint256",
							"name": "",
							"type": "uint256"
						}
					],
					"stateMutability": "view",
					"type": "function"
				},
				{
					"inputs": [],
					"name": "outPut",
					"outputs": [],
					"stateMutability": "payable",
					"type": "function"
				}
			],
			"devdoc": {
				"kind": "dev",
				"methods": {},
				"version": 1
			},
			"evm": {
				"assembly": "    /* \"chapter9/ex5.sol\":67:400  contract Receiver {... */\n  mstore(0x40, 0x80)\n  callvalue\n  dup1\n  iszero\n  tag_1\n  jumpi\n  0x00\n  dup1\n  revert\ntag_1:\n  pop\n  dataSize(sub_0)\n  dup1\n  dataOffset(sub_0)\n  0x00\n  codecopy\n  0x00\n  return\nstop\n\nsub_0: assembly {\n        /* \"chapter9/ex5.sol\":67:400  contract Receiver {... */\n      mstore(0x40, 0x80)\n      jumpi(tag_1, lt(calldatasize, 0x04))\n      shr(0xe0, calldataload(0x00))\n      dup1\n      0x12065fe0\n      eq\n      tag_3\n      jumpi\n      dup1\n      0xc0e493f8\n      eq\n      tag_4\n      jumpi\n      jump(tag_2)\n    tag_1:\n    tag_2:\n      callvalue\n      dup1\n      iszero\n      tag_5\n      jumpi\n      0x00\n      dup1\n      revert\n    tag_5:\n      pop\n        /* \"chapter9/ex5.sol\":170:200  From(\"fallback()\", msg.sender) */\n      0x1ef5a7e9d1f6af1f9295257ddd3fda24207b9ad75063992adc5ef8ebb7a5f36b\n        /* \"chapter9/ex5.sol\":189:199  msg.sender */\n      caller\n        /* \"chapter9/ex5.sol\":170:200  From(\"fallback()\", msg.sender) */\n      mload(0x40)\n      tag_8\n      swap2\n      swap1\n      tag_9\n      jump\t// in\n    tag_8:\n      mload(0x40)\n      dup1\n      swap2\n      sub\n      swap1\n      log1\n        /* \"chapter9/ex5.sol\":67:400  contract Receiver {... */\n      stop\n        /* \"chapter9/ex5.sol\":302:395  function getBalance() public view returns(uint) {... */\n    tag_3:\n      callvalue\n      dup1\n      iszero\n      tag_10\n      jumpi\n      0x00\n      dup1\n      revert\n    tag_10:\n      pop\n      tag_11\n      tag_12\n      jump\t// in\n    tag_11:\n      mload(0x40)\n      tag_13\n      swap2\n      swap1\n      tag_14\n      jump\t// in\n    tag_13:\n      mload(0x40)\n      dup1\n      swap2\n      sub\n      swap1\n      return\n        /* \"chapter9/ex5.sol\":213:296  function outPut() public payable {... */\n    tag_4:\n      tag_15\n      tag_16\n      jump\t// in\n    tag_15:\n      stop\n        /* \"chapter9/ex5.sol\":302:395  function getBalance() public view returns(uint) {... */\n    tag_12:\n        /* \"chapter9/ex5.sol\":344:348  uint */\n      0x00\n        /* \"chapter9/ex5.sol\":367:388  address(this).balance */\n      selfbalance\n        /* \"chapter9/ex5.sol\":360:388  return address(this).balance */\n      swap1\n      pop\n        /* \"chapter9/ex5.sol\":302:395  function getBalance() public view returns(uint) {... */\n      swap1\n      jump\t// out\n        /* \"chapter9/ex5.sol\":213:296  function outPut() public payable {... */\n    tag_16:\n        /* \"chapter9/ex5.sol\":261:289  From(\"outPut()\", msg.sender) */\n      0x1ef5a7e9d1f6af1f9295257ddd3fda24207b9ad75063992adc5ef8ebb7a5f36b\n        /* \"chapter9/ex5.sol\":278:288  msg.sender */\n      caller\n        /* \"chapter9/ex5.sol\":261:289  From(\"outPut()\", msg.sender) */\n      mload(0x40)\n      tag_19\n      swap2\n      swap1\n      tag_20\n      jump\t// in\n    tag_19:\n      mload(0x40)\n      dup1\n      swap2\n      sub\n      swap1\n      log1\n        /* \"chapter9/ex5.sol\":213:296  function outPut() public payable {... */\n      jump\t// out\n        /* \"#utility.yul\":7:176   */\n    tag_21:\n        /* \"#utility.yul\":91:102   */\n      0x00\n        /* \"#utility.yul\":125:131   */\n      dup3\n        /* \"#utility.yul\":120:123   */\n      dup3\n        /* \"#utility.yul\":113:132   */\n      mstore\n        /* \"#utility.yul\":165:169   */\n      0x20\n        /* \"#utility.yul\":160:163   */\n      dup3\n        /* \"#utility.yul\":156:170   */\n      add\n        /* \"#utility.yul\":141:170   */\n      swap1\n      pop\n        /* \"#utility.yul\":7:176   */\n      swap3\n      swap2\n      pop\n      pop\n      jump\t// out\n        /* \"#utility.yul\":182:342   */\n    tag_22:\n        /* \"#utility.yul\":322:334   */\n      0x66616c6c6261636b282900000000000000000000000000000000000000000000\n        /* \"#utility.yul\":318:319   */\n      0x00\n        /* \"#utility.yul\":310:316   */\n      dup3\n        /* \"#utility.yul\":306:320   */\n      add\n        /* \"#utility.yul\":299:335   */\n      mstore\n        /* \"#utility.yul\":182:342   */\n      pop\n      jump\t// out\n        /* \"#utility.yul\":348:714   */\n    tag_23:\n        /* \"#utility.yul\":490:493   */\n      0x00\n        /* \"#utility.yul\":511:578   */\n      tag_35\n        /* \"#utility.yul\":575:577   */\n      0x0a\n        /* \"#utility.yul\":570:573   */\n      dup4\n        /* \"#utility.yul\":511:578   */\n      tag_21\n      jump\t// in\n    tag_35:\n        /* \"#utility.yul\":504:578   */\n      swap2\n      pop\n        /* \"#utility.yul\":587:680   */\n      tag_36\n        /* \"#utility.yul\":676:679   */\n      dup3\n        /* \"#utility.yul\":587:680   */\n      tag_22\n      jump\t// in\n    tag_36:\n        /* \"#utility.yul\":705:707   */\n      0x20\n        /* \"#utility.yul\":700:703   */\n      dup3\n        /* \"#utility.yul\":696:708   */\n      add\n        /* \"#utility.yul\":689:708   */\n      swap1\n      pop\n        /* \"#utility.yul\":348:714   */\n      swap2\n      swap1\n      pop\n      jump\t// out\n        /* \"#utility.yul\":720:846   */\n    tag_24:\n        /* \"#utility.yul\":757:764   */\n      0x00\n        /* \"#utility.yul\":797:839   */\n      0xffffffffffffffffffffffffffffffffffffffff\n        /* \"#utility.yul\":790:795   */\n      dup3\n        /* \"#utility.yul\":786:840   */\n      and\n        /* \"#utility.yul\":775:840   */\n      swap1\n      pop\n        /* \"#utility.yul\":720:846   */\n      swap2\n      swap1\n      pop\n      jump\t// out\n        /* \"#utility.yul\":852:948   */\n    tag_25:\n        /* \"#utility.yul\":889:896   */\n      0x00\n        /* \"#utility.yul\":918:942   */\n      tag_39\n        /* \"#utility.yul\":936:941   */\n      dup3\n        /* \"#utility.yul\":918:942   */\n      tag_24\n      jump\t// in\n    tag_39:\n        /* \"#utility.yul\":907:942   */\n      swap1\n      pop\n        /* \"#utility.yul\":852:948   */\n      swap2\n      swap1\n      pop\n      jump\t// out\n        /* \"#utility.yul\":954:1072   */\n    tag_26:\n        /* \"#utility.yul\":1041:1065   */\n      tag_41\n        /* \"#utility.yul\":1059:1064   */\n      dup2\n        /* \"#utility.yul\":1041:1065   */\n      tag_25\n      jump\t// in\n    tag_41:\n        /* \"#utility.yul\":1036:1039   */\n      dup3\n        /* \"#utility.yul\":1029:1066   */\n      mstore\n        /* \"#utility.yul\":954:1072   */\n      pop\n      pop\n      jump\t// out\n        /* \"#utility.yul\":1078:1607   */\n    tag_9:\n        /* \"#utility.yul\":1272:1276   */\n      0x00\n        /* \"#utility.yul\":1310:1312   */\n      0x40\n        /* \"#utility.yul\":1299:1308   */\n      dup3\n        /* \"#utility.yul\":1295:1313   */\n      add\n        /* \"#utility.yul\":1287:1313   */\n      swap1\n      pop\n        /* \"#utility.yul\":1359:1368   */\n      dup2\n        /* \"#utility.yul\":1353:1357   */\n      dup2\n        /* \"#utility.yul\":1349:1369   */\n      sub\n        /* \"#utility.yul\":1345:1346   */\n      0x00\n        /* \"#utility.yul\":1334:1343   */\n      dup4\n        /* \"#utility.yul\":1330:1347   */\n      add\n        /* \"#utility.yul\":1323:1370   */\n      mstore\n        /* \"#utility.yul\":1387:1518   */\n      tag_43\n        /* \"#utility.yul\":1513:1517   */\n      dup2\n        /* \"#utility.yul\":1387:1518   */\n      tag_23\n      jump\t// in\n    tag_43:\n        /* \"#utility.yul\":1379:1518   */\n      swap1\n      pop\n        /* \"#utility.yul\":1528:1600   */\n      tag_44\n        /* \"#utility.yul\":1596:1598   */\n      0x20\n        /* \"#utility.yul\":1585:1594   */\n      dup4\n        /* \"#utility.yul\":1581:1599   */\n      add\n        /* \"#utility.yul\":1572:1578   */\n      dup5\n        /* \"#utility.yul\":1528:1600   */\n      tag_26\n      jump\t// in\n    tag_44:\n        /* \"#utility.yul\":1078:1607   */\n      swap3\n      swap2\n      pop\n      pop\n      jump\t// out\n        /* \"#utility.yul\":1613:1690   */\n    tag_27:\n        /* \"#utility.yul\":1650:1657   */\n      0x00\n        /* \"#utility.yul\":1679:1684   */\n      dup2\n        /* \"#utility.yul\":1668:1684   */\n      swap1\n      pop\n        /* \"#utility.yul\":1613:1690   */\n      swap2\n      swap1\n      pop\n      jump\t// out\n        /* \"#utility.yul\":1696:1814   */\n    tag_28:\n        /* \"#utility.yul\":1783:1807   */\n      tag_47\n        /* \"#utility.yul\":1801:1806   */\n      dup2\n        /* \"#utility.yul\":1783:1807   */\n      tag_27\n      jump\t// in\n    tag_47:\n        /* \"#utility.yul\":1778:1781   */\n      dup3\n        /* \"#utility.yul\":1771:1808   */\n      mstore\n        /* \"#utility.yul\":1696:1814   */\n      pop\n      pop\n      jump\t// out\n        /* \"#utility.yul\":1820:2042   */\n    tag_14:\n        /* \"#utility.yul\":1913:1917   */\n      0x00\n        /* \"#utility.yul\":1951:1953   */\n      0x20\n        /* \"#utility.yul\":1940:1949   */\n      dup3\n        /* \"#utility.yul\":1936:1954   */\n      add\n        /* \"#utility.yul\":1928:1954   */\n      swap1\n      pop\n        /* \"#utility.yul\":1964:2035   */\n      tag_49\n        /* \"#utility.yul\":2032:2033   */\n      0x00\n        /* \"#utility.yul\":2021:2030   */\n      dup4\n        /* \"#utility.yul\":2017:2034   */\n      add\n        /* \"#utility.yul\":2008:2014   */\n      dup5\n        /* \"#utility.yul\":1964:2035   */\n      tag_28\n      jump\t// in\n    tag_49:\n        /* \"#utility.yul\":1820:2042   */\n      swap3\n      swap2\n      pop\n      pop\n      jump\t// out\n        /* \"#utility.yul\":2048:2206   */\n    tag_29:\n        /* \"#utility.yul\":2188:2198   */\n      0x6f75745075742829000000000000000000000000000000000000000000000000\n        /* \"#utility.yul\":2184:2185   */\n      0x00\n        /* \"#utility.yul\":2176:2182   */\n      dup3\n        /* \"#utility.yul\":2172:2186   */\n      add\n        /* \"#utility.yul\":2165:2199   */\n      mstore\n        /* \"#utility.yul\":2048:2206   */\n      pop\n      jump\t// out\n        /* \"#utility.yul\":2212:2577   */\n    tag_30:\n        /* \"#utility.yul\":2354:2357   */\n      0x00\n        /* \"#utility.yul\":2375:2441   */\n      tag_52\n        /* \"#utility.yul\":2439:2440   */\n      0x08\n        /* \"#utility.yul\":2434:2437   */\n      dup4\n        /* \"#utility.yul\":2375:2441   */\n      tag_21\n      jump\t// in\n    tag_52:\n        /* \"#utility.yul\":2368:2441   */\n      swap2\n      pop\n        /* \"#utility.yul\":2450:2543   */\n      tag_53\n        /* \"#utility.yul\":2539:2542   */\n      dup3\n        /* \"#utility.yul\":2450:2543   */\n      tag_29\n      jump\t// in\n    tag_53:\n        /* \"#utility.yul\":2568:2570   */\n      0x20\n        /* \"#utility.yul\":2563:2566   */\n      dup3\n        /* \"#utility.yul\":2559:2571   */\n      add\n        /* \"#utility.yul\":2552:2571   */\n      swap1\n      pop\n        /* \"#utility.yul\":2212:2577   */\n      swap2\n      swap1\n      pop\n      jump\t// out\n        /* \"#utility.yul\":2583:3112   */\n    tag_20:\n        /* \"#utility.yul\":2777:2781   */\n      0x00\n        /* \"#utility.yul\":2815:2817   */\n      0x40\n        /* \"#utility.yul\":2804:2813   */\n      dup3\n        /* \"#utility.yul\":2800:2818   */\n      add\n        /* \"#utility.yul\":2792:2818   */\n      swap1\n      pop\n        /* \"#utility.yul\":2864:2873   */\n      dup2\n        /* \"#utility.yul\":2858:2862   */\n      dup2\n        /* \"#utility.yul\":2854:2874   */\n      sub\n        /* \"#utility.yul\":2850:2851   */\n      0x00\n        /* \"#utility.yul\":2839:2848   */\n      dup4\n        /* \"#utility.yul\":2835:2852   */\n      add\n        /* \"#utility.yul\":2828:2875   */\n      mstore\n        /* \"#utility.yul\":2892:3023   */\n      tag_55\n        /* \"#utility.yul\":3018:3022   */\n      dup2\n        /* \"#utility.yul\":2892:3023   */\n      tag_30\n      jump\t// in\n    tag_55:\n        /* \"#utility.yul\":2884:3023   */\n      swap1\n      pop\n        /* \"#utility.yul\":3033:3105   */\n      tag_56\n        /* \"#utility.yul\":3101:3103   */\n      0x20\n        /* \"#utility.yul\":3090:3099   */\n      dup4\n        /* \"#utility.yul\":3086:3104   */\n      add\n        /* \"#utility.yul\":3077:3083   */\n      dup5\n        /* \"#utility.yul\":3033:3105   */\n      tag_26\n      jump\t// in\n    tag_56:\n        /* \"#utility.yul\":2583:3112   */\n      swap3\n      swap2\n      pop\n      pop\n      jump\t// out\n\n    auxdata: 0xa26469706673582212203efffbbb3b0f366e26c162953f3d77a1051dc2df95b1b9774ef87447ddf9781b64736f6c634300080d0033\n}\n",
				"bytecode": {
					"linkReferences": {},
					"object": "608060405234801561001057600080fd5b5061029a806100206000396000f3fe60806040526004361061002d5760003560e01c806312065fe014610074578063c0e493f81461009f5761002e565b5b34801561003a57600080fd5b507f1ef5a7e9d1f6af1f9295257ddd3fda24207b9ad75063992adc5ef8ebb7a5f36b3360405161006a9190610188565b60405180910390a1005b34801561008057600080fd5b506100896100a9565b60405161009691906101cf565b60405180910390f35b6100a76100b1565b005b600047905090565b7f1ef5a7e9d1f6af1f9295257ddd3fda24207b9ad75063992adc5ef8ebb7a5f36b336040516100e09190610236565b60405180910390a1565b600082825260208201905092915050565b7f66616c6c6261636b282900000000000000000000000000000000000000000000600082015250565b6000610131600a836100ea565b915061013c826100fb565b602082019050919050565b600073ffffffffffffffffffffffffffffffffffffffff82169050919050565b600061017282610147565b9050919050565b61018281610167565b82525050565b600060408201905081810360008301526101a181610124565b90506101b06020830184610179565b92915050565b6000819050919050565b6101c9816101b6565b82525050565b60006020820190506101e460008301846101c0565b92915050565b7f6f75745075742829000000000000000000000000000000000000000000000000600082015250565b60006102206008836100ea565b915061022b826101ea565b602082019050919050565b6000604082019050818103600083015261024f81610213565b905061025e6020830184610179565b9291505056fea26469706673582212203efffbbb3b0f366e26c162953f3d77a1051dc2df95b1b9774ef87447ddf9781b64736f6c634300080d0033",
					"opcodes": "PUSH1 0x80 PUSH1 0x40 MSTORE CALLVALUE DUP1 ISZERO PUSH2 0x10 JUMPI PUSH1 0x0 DUP1 REVERT JUMPDEST POP PUSH2 0x29A DUP1 PUSH2 0x20 PUSH1 0x0 CODECOPY PUSH1 0x0 RETURN INVALID PUSH1 0x80 PUSH1 0x40 MSTORE PUSH1 0x4 CALLDATASIZE LT PUSH2 0x2D JUMPI PUSH1 0x0 CALLDATALOAD PUSH1 0xE0 SHR DUP1 PUSH4 0x12065FE0 EQ PUSH2 0x74 JUMPI DUP1 PUSH4 0xC0E493F8 EQ PUSH2 0x9F JUMPI PUSH2 0x2E JUMP JUMPDEST JUMPDEST CALLVALUE DUP1 ISZERO PUSH2 0x3A JUMPI PUSH1 0x0 DUP1 REVERT JUMPDEST POP PUSH32 0x1EF5A7E9D1F6AF1F9295257DDD3FDA24207B9AD75063992ADC5EF8EBB7A5F36B CALLER PUSH1 0x40 MLOAD PUSH2 0x6A SWAP2 SWAP1 PUSH2 0x188 JUMP JUMPDEST PUSH1 0x40 MLOAD DUP1 SWAP2 SUB SWAP1 LOG1 STOP JUMPDEST CALLVALUE DUP1 ISZERO PUSH2 0x80 JUMPI PUSH1 0x0 DUP1 REVERT JUMPDEST POP PUSH2 0x89 PUSH2 0xA9 JUMP JUMPDEST PUSH1 0x40 MLOAD PUSH2 0x96 SWAP2 SWAP1 PUSH2 0x1CF JUMP JUMPDEST PUSH1 0x40 MLOAD DUP1 SWAP2 SUB SWAP1 RETURN JUMPDEST PUSH2 0xA7 PUSH2 0xB1 JUMP JUMPDEST STOP JUMPDEST PUSH1 0x0 SELFBALANCE SWAP1 POP SWAP1 JUMP JUMPDEST PUSH32 0x1EF5A7E9D1F6AF1F9295257DDD3FDA24207B9AD75063992ADC5EF8EBB7A5F36B CALLER PUSH1 0x40 MLOAD PUSH2 0xE0 SWAP2 SWAP1 PUSH2 0x236 JUMP JUMPDEST PUSH1 0x40 MLOAD DUP1 SWAP2 SUB SWAP1 LOG1 JUMP JUMPDEST PUSH1 0x0 DUP3 DUP3 MSTORE PUSH1 0x20 DUP3 ADD SWAP1 POP SWAP3 SWAP2 POP POP JUMP JUMPDEST PUSH32 0x66616C6C6261636B282900000000000000000000000000000000000000000000 PUSH1 0x0 DUP3 ADD MSTORE POP JUMP JUMPDEST PUSH1 0x0 PUSH2 0x131 PUSH1 0xA DUP4 PUSH2 0xEA JUMP JUMPDEST SWAP2 POP PUSH2 0x13C DUP3 PUSH2 0xFB JUMP JUMPDEST PUSH1 0x20 DUP3 ADD SWAP1 POP SWAP2 SWAP1 POP JUMP JUMPDEST PUSH1 0x0 PUSH20 0xFFFFFFFFFFFFFFFFFFFFFFFFFFFFFFFFFFFFFFFF DUP3 AND SWAP1 POP SWAP2 SWAP1 POP JUMP JUMPDEST PUSH1 0x0 PUSH2 0x172 DUP3 PUSH2 0x147 JUMP JUMPDEST SWAP1 POP SWAP2 SWAP1 POP JUMP JUMPDEST PUSH2 0x182 DUP2 PUSH2 0x167 JUMP JUMPDEST DUP3 MSTORE POP POP JUMP JUMPDEST PUSH1 0x0 PUSH1 0x40 DUP3 ADD SWAP1 POP DUP2 DUP2 SUB PUSH1 0x0 DUP4 ADD MSTORE PUSH2 0x1A1 DUP2 PUSH2 0x124 JUMP JUMPDEST SWAP1 POP PUSH2 0x1B0 PUSH1 0x20 DUP4 ADD DUP5 PUSH2 0x179 JUMP JUMPDEST SWAP3 SWAP2 POP POP JUMP JUMPDEST PUSH1 0x0 DUP2 SWAP1 POP SWAP2 SWAP1 POP JUMP JUMPDEST PUSH2 0x1C9 DUP2 PUSH2 0x1B6 JUMP JUMPDEST DUP3 MSTORE POP POP JUMP JUMPDEST PUSH1 0x0 PUSH1 0x20 DUP3 ADD SWAP1 POP PUSH2 0x1E4 PUSH1 0x0 DUP4 ADD DUP5 PUSH2 0x1C0 JUMP JUMPDEST SWAP3 SWAP2 POP POP JUMP JUMPDEST PUSH32 0x6F75745075742829000000000000000000000000000000000000000000000000 PUSH1 0x0 DUP3 ADD MSTORE POP JUMP JUMPDEST PUSH1 0x0 PUSH2 0x220 PUSH1 0x8 DUP4 PUSH2 0xEA JUMP JUMPDEST SWAP2 POP PUSH2 0x22B DUP3 PUSH2 0x1EA JUMP JUMPDEST PUSH1 0x20 DUP3 ADD SWAP1 POP SWAP2 SWAP1 POP JUMP JUMPDEST PUSH1 0x0 PUSH1 0x40 DUP3 ADD SWAP1 POP DUP2 DUP2 SUB PUSH1 0x0 DUP4 ADD MSTORE PUSH2 0x24F DUP2 PUSH2 0x213 JUMP JUMPDEST SWAP1 POP PUSH2 0x25E PUSH1 0x20 DUP4 ADD DUP5 PUSH2 0x179 JUMP JUMPDEST SWAP3 SWAP2 POP POP JUMP INVALID LOG2 PUSH5 0x6970667358 0x22 SLT KECCAK256 RETURNDATACOPY SELFDESTRUCT 0xFB 0xBB EXTCODESIZE 0xF CALLDATASIZE PUSH15 0x26C162953F3D77A1051DC2DF95B1B9 PUSH24 0x4EF87447DDF9781B64736F6C634300080D00330000000000 "
				},
				"gasEstimates": {
					"creation": {
						"codeDepositCost": "133200",
						"executionCost": "177",
						"totalCost": "133377"
					},
					"external": {
						"": "2340",
						"getBalance()": "317",
						"outPut()": "2329"
					}
				},
				"methodIdentifiers": {
					"getBalance()": "12065fe0",
					"outPut()": "c0e493f8"
				}
			},
			"storageLayout": {
				"storage": [],
				"types": null
			},
			"userdoc": {
				"kind": "user",
				"methods": {},
				"version": 1
			}
		}
	}
}