{
	"chapter9/quiz3.sol": {
		"quiz3": {
			"abi": [
				{
					"inputs": [
						{
							"internalType": "address",
							"name": "_address",
							"type": "address"
						},
						{
							"internalType": "uint256",
							"name": "_num1",
							"type": "uint256"
						},
						{
							"internalType": "uint256",
							"name": "_num2",
							"type": "uint256"
						}
					],
					"name": "CallMath",
					"outputs": [
						{
							"internalType": "bytes",
							"name": "",
							"type": "bytes"
						}
					],
					"stateMutability": "nonpayable",
					"type": "function"
				}
			],
			"devdoc": {
				"kind": "dev",
				"methods": {},
				"version": 1
			},
			"evm": {
				"assembly": "    /* \"chapter9/quiz3.sol\":191:514  contract quiz3 {... */\n  mstore(0x40, 0x80)\n  callvalue\n  dup1\n  iszero\n  tag_1\n  jumpi\n  0x00\n  dup1\n  revert\ntag_1:\n  pop\n  dataSize(sub_0)\n  dup1\n  dataOffset(sub_0)\n  0x00\n  codecopy\n  0x00\n  return\nstop\n\nsub_0: assembly {\n        /* \"chapter9/quiz3.sol\":191:514  contract quiz3 {... */\n      mstore(0x40, 0x80)\n      callvalue\n      dup1\n      iszero\n      tag_1\n      jumpi\n      0x00\n      dup1\n      revert\n    tag_1:\n      pop\n      jumpi(tag_2, lt(calldatasize, 0x04))\n      shr(0xe0, calldataload(0x00))\n      dup1\n      0x04d682fc\n      eq\n      tag_3\n      jumpi\n    tag_2:\n      0x00\n      dup1\n      revert\n        /* \"chapter9/quiz3.sol\":212:512  function CallMath(address _address, uint _num1, uint _num2) public returns(bytes memory) {... */\n    tag_3:\n      tag_4\n      0x04\n      dup1\n      calldatasize\n      sub\n      dup2\n      add\n      swap1\n      tag_5\n      swap2\n      swap1\n      tag_6\n      jump\t// in\n    tag_5:\n      tag_7\n      jump\t// in\n    tag_4:\n      mload(0x40)\n      tag_8\n      swap2\n      swap1\n      tag_9\n      jump\t// in\n    tag_8:\n      mload(0x40)\n      dup1\n      swap2\n      sub\n      swap1\n      return\n    tag_7:\n        /* \"chapter9/quiz3.sol\":287:299  bytes memory */\n      0x60\n        /* \"chapter9/quiz3.sol\":312:324  bool success */\n      0x00\n        /* \"chapter9/quiz3.sol\":326:345  bytes memory outpul */\n      dup1\n        /* \"chapter9/quiz3.sol\":349:357  _address */\n      dup6\n        /* \"chapter9/quiz3.sol\":349:362  _address.call */\n      0xffffffffffffffffffffffffffffffffffffffff\n      and\n        /* \"chapter9/quiz3.sol\":423:428  _num1 */\n      dup6\n        /* \"chapter9/quiz3.sol\":430:435  _num2 */\n      dup6\n        /* \"chapter9/quiz3.sol\":376:436  abi.encodeWithSignature(\"mul(uint256,uint256)\",_num1, _num2) */\n      add(0x24, mload(0x40))\n      tag_11\n      swap3\n      swap2\n      swap1\n      tag_12\n      jump\t// in\n    tag_11:\n      mload(0x40)\n      0x20\n      dup2\n      dup4\n      sub\n      sub\n      dup2\n      mstore\n      swap1\n      0x40\n      mstore\n      and(not(0xffffffffffffffffffffffffffffffffffffffffffffffffffffffff), 0xc8a4ac9c00000000000000000000000000000000000000000000000000000000)\n      0x20\n      dup3\n      add\n      dup1\n      mload\n      0xffffffffffffffffffffffffffffffffffffffffffffffffffffffff\n      dup4\n      dup2\n      dup4\n      and\n      or\n      dup4\n      mstore\n      pop\n      pop\n      pop\n      pop\n        /* \"chapter9/quiz3.sol\":349:446  _address.call(... */\n      mload(0x40)\n      tag_13\n      swap2\n      swap1\n      tag_14\n      jump\t// in\n    tag_13:\n      0x00\n      mload(0x40)\n      dup1\n      dup4\n      sub\n      dup2\n      0x00\n      dup7\n      gas\n      call\n      swap2\n      pop\n      pop\n      returndatasize\n      dup1\n      0x00\n      dup2\n      eq\n      tag_17\n      jumpi\n      mload(0x40)\n      swap2\n      pop\n      and(add(returndatasize, 0x3f), not(0x1f))\n      dup3\n      add\n      0x40\n      mstore\n      returndatasize\n      dup3\n      mstore\n      returndatasize\n      0x00\n      0x20\n      dup5\n      add\n      returndatacopy\n      jump(tag_16)\n    tag_17:\n      0x60\n      swap2\n      pop\n    tag_16:\n      pop\n        /* \"chapter9/quiz3.sol\":311:446  (bool success, bytes memory outpul) = _address.call(... */\n      swap2\n      pop\n      swap2\n      pop\n        /* \"chapter9/quiz3.sol\":464:471  success */\n      dup2\n        /* \"chapter9/quiz3.sol\":456:482  require(success, \"Failed\") */\n      tag_18\n      jumpi\n      mload(0x40)\n      0x08c379a000000000000000000000000000000000000000000000000000000000\n      dup2\n      mstore\n      0x04\n      add\n      tag_19\n      swap1\n      tag_20\n      jump\t// in\n    tag_19:\n      mload(0x40)\n      dup1\n      swap2\n      sub\n      swap1\n      revert\n    tag_18:\n        /* \"chapter9/quiz3.sol\":499:505  outpul */\n      dup1\n        /* \"chapter9/quiz3.sol\":492:505  return outpul */\n      swap3\n      pop\n      pop\n      pop\n        /* \"chapter9/quiz3.sol\":212:512  function CallMath(address _address, uint _num1, uint _num2) public returns(bytes memory) {... */\n      swap4\n      swap3\n      pop\n      pop\n      pop\n      jump\t// out\n        /* \"#utility.yul\":88:205   */\n    tag_22:\n        /* \"#utility.yul\":197:198   */\n      0x00\n        /* \"#utility.yul\":194:195   */\n      dup1\n        /* \"#utility.yul\":187:199   */\n      revert\n        /* \"#utility.yul\":334:460   */\n    tag_24:\n        /* \"#utility.yul\":371:378   */\n      0x00\n        /* \"#utility.yul\":411:453   */\n      0xffffffffffffffffffffffffffffffffffffffff\n        /* \"#utility.yul\":404:409   */\n      dup3\n        /* \"#utility.yul\":400:454   */\n      and\n        /* \"#utility.yul\":389:454   */\n      swap1\n      pop\n        /* \"#utility.yul\":334:460   */\n      swap2\n      swap1\n      pop\n      jump\t// out\n        /* \"#utility.yul\":466:562   */\n    tag_25:\n        /* \"#utility.yul\":503:510   */\n      0x00\n        /* \"#utility.yul\":532:556   */\n      tag_48\n        /* \"#utility.yul\":550:555   */\n      dup3\n        /* \"#utility.yul\":532:556   */\n      tag_24\n      jump\t// in\n    tag_48:\n        /* \"#utility.yul\":521:556   */\n      swap1\n      pop\n        /* \"#utility.yul\":466:562   */\n      swap2\n      swap1\n      pop\n      jump\t// out\n        /* \"#utility.yul\":568:690   */\n    tag_26:\n        /* \"#utility.yul\":641:665   */\n      tag_50\n        /* \"#utility.yul\":659:664   */\n      dup2\n        /* \"#utility.yul\":641:665   */\n      tag_25\n      jump\t// in\n    tag_50:\n        /* \"#utility.yul\":634:639   */\n      dup2\n        /* \"#utility.yul\":631:666   */\n      eq\n        /* \"#utility.yul\":621:684   */\n      tag_51\n      jumpi\n        /* \"#utility.yul\":680:681   */\n      0x00\n        /* \"#utility.yul\":677:678   */\n      dup1\n        /* \"#utility.yul\":670:682   */\n      revert\n        /* \"#utility.yul\":621:684   */\n    tag_51:\n        /* \"#utility.yul\":568:690   */\n      pop\n      jump\t// out\n        /* \"#utility.yul\":696:835   */\n    tag_27:\n        /* \"#utility.yul\":742:747   */\n      0x00\n        /* \"#utility.yul\":780:786   */\n      dup2\n        /* \"#utility.yul\":767:787   */\n      calldataload\n        /* \"#utility.yul\":758:787   */\n      swap1\n      pop\n        /* \"#utility.yul\":796:829   */\n      tag_53\n        /* \"#utility.yul\":823:828   */\n      dup2\n        /* \"#utility.yul\":796:829   */\n      tag_26\n      jump\t// in\n    tag_53:\n        /* \"#utility.yul\":696:835   */\n      swap3\n      swap2\n      pop\n      pop\n      jump\t// out\n        /* \"#utility.yul\":841:918   */\n    tag_28:\n        /* \"#utility.yul\":878:885   */\n      0x00\n        /* \"#utility.yul\":907:912   */\n      dup2\n        /* \"#utility.yul\":896:912   */\n      swap1\n      pop\n        /* \"#utility.yul\":841:918   */\n      swap2\n      swap1\n      pop\n      jump\t// out\n        /* \"#utility.yul\":924:1046   */\n    tag_29:\n        /* \"#utility.yul\":997:1021   */\n      tag_56\n        /* \"#utility.yul\":1015:1020   */\n      dup2\n        /* \"#utility.yul\":997:1021   */\n      tag_28\n      jump\t// in\n    tag_56:\n        /* \"#utility.yul\":990:995   */\n      dup2\n        /* \"#utility.yul\":987:1022   */\n      eq\n        /* \"#utility.yul\":977:1040   */\n      tag_57\n      jumpi\n        /* \"#utility.yul\":1036:1037   */\n      0x00\n        /* \"#utility.yul\":1033:1034   */\n      dup1\n        /* \"#utility.yul\":1026:1038   */\n      revert\n        /* \"#utility.yul\":977:1040   */\n    tag_57:\n        /* \"#utility.yul\":924:1046   */\n      pop\n      jump\t// out\n        /* \"#utility.yul\":1052:1191   */\n    tag_30:\n        /* \"#utility.yul\":1098:1103   */\n      0x00\n        /* \"#utility.yul\":1136:1142   */\n      dup2\n        /* \"#utility.yul\":1123:1143   */\n      calldataload\n        /* \"#utility.yul\":1114:1143   */\n      swap1\n      pop\n        /* \"#utility.yul\":1152:1185   */\n      tag_59\n        /* \"#utility.yul\":1179:1184   */\n      dup2\n        /* \"#utility.yul\":1152:1185   */\n      tag_29\n      jump\t// in\n    tag_59:\n        /* \"#utility.yul\":1052:1191   */\n      swap3\n      swap2\n      pop\n      pop\n      jump\t// out\n        /* \"#utility.yul\":1197:1816   */\n    tag_6:\n        /* \"#utility.yul\":1274:1280   */\n      0x00\n        /* \"#utility.yul\":1282:1288   */\n      dup1\n        /* \"#utility.yul\":1290:1296   */\n      0x00\n        /* \"#utility.yul\":1339:1341   */\n      0x60\n        /* \"#utility.yul\":1327:1336   */\n      dup5\n        /* \"#utility.yul\":1318:1325   */\n      dup7\n        /* \"#utility.yul\":1314:1337   */\n      sub\n        /* \"#utility.yul\":1310:1342   */\n      slt\n        /* \"#utility.yul\":1307:1426   */\n      iszero\n      tag_61\n      jumpi\n        /* \"#utility.yul\":1345:1424   */\n      tag_62\n      tag_22\n      jump\t// in\n    tag_62:\n        /* \"#utility.yul\":1307:1426   */\n    tag_61:\n        /* \"#utility.yul\":1465:1466   */\n      0x00\n        /* \"#utility.yul\":1490:1543   */\n      tag_63\n        /* \"#utility.yul\":1535:1542   */\n      dup7\n        /* \"#utility.yul\":1526:1532   */\n      dup3\n        /* \"#utility.yul\":1515:1524   */\n      dup8\n        /* \"#utility.yul\":1511:1533   */\n      add\n        /* \"#utility.yul\":1490:1543   */\n      tag_27\n      jump\t// in\n    tag_63:\n        /* \"#utility.yul\":1480:1543   */\n      swap4\n      pop\n        /* \"#utility.yul\":1436:1553   */\n      pop\n        /* \"#utility.yul\":1592:1594   */\n      0x20\n        /* \"#utility.yul\":1618:1671   */\n      tag_64\n        /* \"#utility.yul\":1663:1670   */\n      dup7\n        /* \"#utility.yul\":1654:1660   */\n      dup3\n        /* \"#utility.yul\":1643:1652   */\n      dup8\n        /* \"#utility.yul\":1639:1661   */\n      add\n        /* \"#utility.yul\":1618:1671   */\n      tag_30\n      jump\t// in\n    tag_64:\n        /* \"#utility.yul\":1608:1671   */\n      swap3\n      pop\n        /* \"#utility.yul\":1563:1681   */\n      pop\n        /* \"#utility.yul\":1720:1722   */\n      0x40\n        /* \"#utility.yul\":1746:1799   */\n      tag_65\n        /* \"#utility.yul\":1791:1798   */\n      dup7\n        /* \"#utility.yul\":1782:1788   */\n      dup3\n        /* \"#utility.yul\":1771:1780   */\n      dup8\n        /* \"#utility.yul\":1767:1789   */\n      add\n        /* \"#utility.yul\":1746:1799   */\n      tag_30\n      jump\t// in\n    tag_65:\n        /* \"#utility.yul\":1736:1799   */\n      swap2\n      pop\n        /* \"#utility.yul\":1691:1809   */\n      pop\n        /* \"#utility.yul\":1197:1816   */\n      swap3\n      pop\n      swap3\n      pop\n      swap3\n      jump\t// out\n        /* \"#utility.yul\":1822:1920   */\n    tag_31:\n        /* \"#utility.yul\":1873:1879   */\n      0x00\n        /* \"#utility.yul\":1907:1912   */\n      dup2\n        /* \"#utility.yul\":1901:1913   */\n      mload\n        /* \"#utility.yul\":1891:1913   */\n      swap1\n      pop\n        /* \"#utility.yul\":1822:1920   */\n      swap2\n      swap1\n      pop\n      jump\t// out\n        /* \"#utility.yul\":1926:2094   */\n    tag_32:\n        /* \"#utility.yul\":2009:2020   */\n      0x00\n        /* \"#utility.yul\":2043:2049   */\n      dup3\n        /* \"#utility.yul\":2038:2041   */\n      dup3\n        /* \"#utility.yul\":2031:2050   */\n      mstore\n        /* \"#utility.yul\":2083:2087   */\n      0x20\n        /* \"#utility.yul\":2078:2081   */\n      dup3\n        /* \"#utility.yul\":2074:2088   */\n      add\n        /* \"#utility.yul\":2059:2088   */\n      swap1\n      pop\n        /* \"#utility.yul\":1926:2094   */\n      swap3\n      swap2\n      pop\n      pop\n      jump\t// out\n        /* \"#utility.yul\":2100:2407   */\n    tag_33:\n        /* \"#utility.yul\":2168:2169   */\n      0x00\n        /* \"#utility.yul\":2178:2291   */\n    tag_69:\n        /* \"#utility.yul\":2192:2198   */\n      dup4\n        /* \"#utility.yul\":2189:2190   */\n      dup2\n        /* \"#utility.yul\":2186:2199   */\n      lt\n        /* \"#utility.yul\":2178:2291   */\n      iszero\n      tag_71\n      jumpi\n        /* \"#utility.yul\":2277:2278   */\n      dup1\n        /* \"#utility.yul\":2272:2275   */\n      dup3\n        /* \"#utility.yul\":2268:2279   */\n      add\n        /* \"#utility.yul\":2262:2280   */\n      mload\n        /* \"#utility.yul\":2258:2259   */\n      dup2\n        /* \"#utility.yul\":2253:2256   */\n      dup5\n        /* \"#utility.yul\":2249:2260   */\n      add\n        /* \"#utility.yul\":2242:2281   */\n      mstore\n        /* \"#utility.yul\":2214:2216   */\n      0x20\n        /* \"#utility.yul\":2211:2212   */\n      dup2\n        /* \"#utility.yul\":2207:2217   */\n      add\n        /* \"#utility.yul\":2202:2217   */\n      swap1\n      pop\n        /* \"#utility.yul\":2178:2291   */\n      jump(tag_69)\n    tag_71:\n        /* \"#utility.yul\":2309:2315   */\n      dup4\n        /* \"#utility.yul\":2306:2307   */\n      dup2\n        /* \"#utility.yul\":2303:2316   */\n      gt\n        /* \"#utility.yul\":2300:2401   */\n      iszero\n      tag_72\n      jumpi\n        /* \"#utility.yul\":2389:2390   */\n      0x00\n        /* \"#utility.yul\":2380:2386   */\n      dup5\n        /* \"#utility.yul\":2375:2378   */\n      dup5\n        /* \"#utility.yul\":2371:2387   */\n      add\n        /* \"#utility.yul\":2364:2391   */\n      mstore\n        /* \"#utility.yul\":2300:2401   */\n    tag_72:\n        /* \"#utility.yul\":2149:2407   */\n      pop\n        /* \"#utility.yul\":2100:2407   */\n      pop\n      pop\n      pop\n      jump\t// out\n        /* \"#utility.yul\":2413:2515   */\n    tag_34:\n        /* \"#utility.yul\":2454:2460   */\n      0x00\n        /* \"#utility.yul\":2505:2507   */\n      0x1f\n        /* \"#utility.yul\":2501:2508   */\n      not\n        /* \"#utility.yul\":2496:2498   */\n      0x1f\n        /* \"#utility.yul\":2489:2494   */\n      dup4\n        /* \"#utility.yul\":2485:2499   */\n      add\n        /* \"#utility.yul\":2481:2509   */\n      and\n        /* \"#utility.yul\":2471:2509   */\n      swap1\n      pop\n        /* \"#utility.yul\":2413:2515   */\n      swap2\n      swap1\n      pop\n      jump\t// out\n        /* \"#utility.yul\":2521:2881   */\n    tag_35:\n        /* \"#utility.yul\":2607:2610   */\n      0x00\n        /* \"#utility.yul\":2635:2673   */\n      tag_75\n        /* \"#utility.yul\":2667:2672   */\n      dup3\n        /* \"#utility.yul\":2635:2673   */\n      tag_31\n      jump\t// in\n    tag_75:\n        /* \"#utility.yul\":2689:2759   */\n      tag_76\n        /* \"#utility.yul\":2752:2758   */\n      dup2\n        /* \"#utility.yul\":2747:2750   */\n      dup6\n        /* \"#utility.yul\":2689:2759   */\n      tag_32\n      jump\t// in\n    tag_76:\n        /* \"#utility.yul\":2682:2759   */\n      swap4\n      pop\n        /* \"#utility.yul\":2768:2820   */\n      tag_77\n        /* \"#utility.yul\":2813:2819   */\n      dup2\n        /* \"#utility.yul\":2808:2811   */\n      dup6\n        /* \"#utility.yul\":2801:2805   */\n      0x20\n        /* \"#utility.yul\":2794:2799   */\n      dup7\n        /* \"#utility.yul\":2790:2806   */\n      add\n        /* \"#utility.yul\":2768:2820   */\n      tag_33\n      jump\t// in\n    tag_77:\n        /* \"#utility.yul\":2845:2874   */\n      tag_78\n        /* \"#utility.yul\":2867:2873   */\n      dup2\n        /* \"#utility.yul\":2845:2874   */\n      tag_34\n      jump\t// in\n    tag_78:\n        /* \"#utility.yul\":2840:2843   */\n      dup5\n        /* \"#utility.yul\":2836:2875   */\n      add\n        /* \"#utility.yul\":2829:2875   */\n      swap2\n      pop\n        /* \"#utility.yul\":2611:2881   */\n      pop\n        /* \"#utility.yul\":2521:2881   */\n      swap3\n      swap2\n      pop\n      pop\n      jump\t// out\n        /* \"#utility.yul\":2887:3196   */\n    tag_9:\n        /* \"#utility.yul\":2998:3002   */\n      0x00\n        /* \"#utility.yul\":3036:3038   */\n      0x20\n        /* \"#utility.yul\":3025:3034   */\n      dup3\n        /* \"#utility.yul\":3021:3039   */\n      add\n        /* \"#utility.yul\":3013:3039   */\n      swap1\n      pop\n        /* \"#utility.yul\":3085:3094   */\n      dup2\n        /* \"#utility.yul\":3079:3083   */\n      dup2\n        /* \"#utility.yul\":3075:3095   */\n      sub\n        /* \"#utility.yul\":3071:3072   */\n      0x00\n        /* \"#utility.yul\":3060:3069   */\n      dup4\n        /* \"#utility.yul\":3056:3073   */\n      add\n        /* \"#utility.yul\":3049:3096   */\n      mstore\n        /* \"#utility.yul\":3113:3189   */\n      tag_80\n        /* \"#utility.yul\":3184:3188   */\n      dup2\n        /* \"#utility.yul\":3175:3181   */\n      dup5\n        /* \"#utility.yul\":3113:3189   */\n      tag_35\n      jump\t// in\n    tag_80:\n        /* \"#utility.yul\":3105:3189   */\n      swap1\n      pop\n        /* \"#utility.yul\":2887:3196   */\n      swap3\n      swap2\n      pop\n      pop\n      jump\t// out\n        /* \"#utility.yul\":3202:3320   */\n    tag_36:\n        /* \"#utility.yul\":3289:3313   */\n      tag_82\n        /* \"#utility.yul\":3307:3312   */\n      dup2\n        /* \"#utility.yul\":3289:3313   */\n      tag_28\n      jump\t// in\n    tag_82:\n        /* \"#utility.yul\":3284:3287   */\n      dup3\n        /* \"#utility.yul\":3277:3314   */\n      mstore\n        /* \"#utility.yul\":3202:3320   */\n      pop\n      pop\n      jump\t// out\n        /* \"#utility.yul\":3326:3658   */\n    tag_12:\n        /* \"#utility.yul\":3447:3451   */\n      0x00\n        /* \"#utility.yul\":3485:3487   */\n      0x40\n        /* \"#utility.yul\":3474:3483   */\n      dup3\n        /* \"#utility.yul\":3470:3488   */\n      add\n        /* \"#utility.yul\":3462:3488   */\n      swap1\n      pop\n        /* \"#utility.yul\":3498:3569   */\n      tag_84\n        /* \"#utility.yul\":3566:3567   */\n      0x00\n        /* \"#utility.yul\":3555:3564   */\n      dup4\n        /* \"#utility.yul\":3551:3568   */\n      add\n        /* \"#utility.yul\":3542:3548   */\n      dup6\n        /* \"#utility.yul\":3498:3569   */\n      tag_36\n      jump\t// in\n    tag_84:\n        /* \"#utility.yul\":3579:3651   */\n      tag_85\n        /* \"#utility.yul\":3647:3649   */\n      0x20\n        /* \"#utility.yul\":3636:3645   */\n      dup4\n        /* \"#utility.yul\":3632:3650   */\n      add\n        /* \"#utility.yul\":3623:3629   */\n      dup5\n        /* \"#utility.yul\":3579:3651   */\n      tag_36\n      jump\t// in\n    tag_85:\n        /* \"#utility.yul\":3326:3658   */\n      swap4\n      swap3\n      pop\n      pop\n      pop\n      jump\t// out\n        /* \"#utility.yul\":3664:3811   */\n    tag_37:\n        /* \"#utility.yul\":3765:3776   */\n      0x00\n        /* \"#utility.yul\":3802:3805   */\n      dup2\n        /* \"#utility.yul\":3787:3805   */\n      swap1\n      pop\n        /* \"#utility.yul\":3664:3811   */\n      swap3\n      swap2\n      pop\n      pop\n      jump\t// out\n        /* \"#utility.yul\":3817:4190   */\n    tag_38:\n        /* \"#utility.yul\":3921:3924   */\n      0x00\n        /* \"#utility.yul\":3949:3987   */\n      tag_88\n        /* \"#utility.yul\":3981:3986   */\n      dup3\n        /* \"#utility.yul\":3949:3987   */\n      tag_31\n      jump\t// in\n    tag_88:\n        /* \"#utility.yul\":4003:4091   */\n      tag_89\n        /* \"#utility.yul\":4084:4090   */\n      dup2\n        /* \"#utility.yul\":4079:4082   */\n      dup6\n        /* \"#utility.yul\":4003:4091   */\n      tag_37\n      jump\t// in\n    tag_89:\n        /* \"#utility.yul\":3996:4091   */\n      swap4\n      pop\n        /* \"#utility.yul\":4100:4152   */\n      tag_90\n        /* \"#utility.yul\":4145:4151   */\n      dup2\n        /* \"#utility.yul\":4140:4143   */\n      dup6\n        /* \"#utility.yul\":4133:4137   */\n      0x20\n        /* \"#utility.yul\":4126:4131   */\n      dup7\n        /* \"#utility.yul\":4122:4138   */\n      add\n        /* \"#utility.yul\":4100:4152   */\n      tag_33\n      jump\t// in\n    tag_90:\n        /* \"#utility.yul\":4177:4183   */\n      dup1\n        /* \"#utility.yul\":4172:4175   */\n      dup5\n        /* \"#utility.yul\":4168:4184   */\n      add\n        /* \"#utility.yul\":4161:4184   */\n      swap2\n      pop\n        /* \"#utility.yul\":3925:4190   */\n      pop\n        /* \"#utility.yul\":3817:4190   */\n      swap3\n      swap2\n      pop\n      pop\n      jump\t// out\n        /* \"#utility.yul\":4196:4467   */\n    tag_14:\n        /* \"#utility.yul\":4326:4329   */\n      0x00\n        /* \"#utility.yul\":4348:4441   */\n      tag_92\n        /* \"#utility.yul\":4437:4440   */\n      dup3\n        /* \"#utility.yul\":4428:4434   */\n      dup5\n        /* \"#utility.yul\":4348:4441   */\n      tag_38\n      jump\t// in\n    tag_92:\n        /* \"#utility.yul\":4341:4441   */\n      swap2\n      pop\n        /* \"#utility.yul\":4458:4461   */\n      dup2\n        /* \"#utility.yul\":4451:4461   */\n      swap1\n      pop\n        /* \"#utility.yul\":4196:4467   */\n      swap3\n      swap2\n      pop\n      pop\n      jump\t// out\n        /* \"#utility.yul\":4473:4642   */\n    tag_39:\n        /* \"#utility.yul\":4557:4568   */\n      0x00\n        /* \"#utility.yul\":4591:4597   */\n      dup3\n        /* \"#utility.yul\":4586:4589   */\n      dup3\n        /* \"#utility.yul\":4579:4598   */\n      mstore\n        /* \"#utility.yul\":4631:4635   */\n      0x20\n        /* \"#utility.yul\":4626:4629   */\n      dup3\n        /* \"#utility.yul\":4622:4636   */\n      add\n        /* \"#utility.yul\":4607:4636   */\n      swap1\n      pop\n        /* \"#utility.yul\":4473:4642   */\n      swap3\n      swap2\n      pop\n      pop\n      jump\t// out\n        /* \"#utility.yul\":4648:4804   */\n    tag_40:\n        /* \"#utility.yul\":4788:4796   */\n      0x4661696c65640000000000000000000000000000000000000000000000000000\n        /* \"#utility.yul\":4784:4785   */\n      0x00\n        /* \"#utility.yul\":4776:4782   */\n      dup3\n        /* \"#utility.yul\":4772:4786   */\n      add\n        /* \"#utility.yul\":4765:4797   */\n      mstore\n        /* \"#utility.yul\":4648:4804   */\n      pop\n      jump\t// out\n        /* \"#utility.yul\":4810:5175   */\n    tag_41:\n        /* \"#utility.yul\":4952:4955   */\n      0x00\n        /* \"#utility.yul\":4973:5039   */\n      tag_96\n        /* \"#utility.yul\":5037:5038   */\n      0x06\n        /* \"#utility.yul\":5032:5035   */\n      dup4\n        /* \"#utility.yul\":4973:5039   */\n      tag_39\n      jump\t// in\n    tag_96:\n        /* \"#utility.yul\":4966:5039   */\n      swap2\n      pop\n        /* \"#utility.yul\":5048:5141   */\n      tag_97\n        /* \"#utility.yul\":5137:5140   */\n      dup3\n        /* \"#utility.yul\":5048:5141   */\n      tag_40\n      jump\t// in\n    tag_97:\n        /* \"#utility.yul\":5166:5168   */\n      0x20\n        /* \"#utility.yul\":5161:5164   */\n      dup3\n        /* \"#utility.yul\":5157:5169   */\n      add\n        /* \"#utility.yul\":5150:5169   */\n      swap1\n      pop\n        /* \"#utility.yul\":4810:5175   */\n      swap2\n      swap1\n      pop\n      jump\t// out\n        /* \"#utility.yul\":5181:5600   */\n    tag_20:\n        /* \"#utility.yul\":5347:5351   */\n      0x00\n        /* \"#utility.yul\":5385:5387   */\n      0x20\n        /* \"#utility.yul\":5374:5383   */\n      dup3\n        /* \"#utility.yul\":5370:5388   */\n      add\n        /* \"#utility.yul\":5362:5388   */\n      swap1\n      pop\n        /* \"#utility.yul\":5434:5443   */\n      dup2\n        /* \"#utility.yul\":5428:5432   */\n      dup2\n        /* \"#utility.yul\":5424:5444   */\n      sub\n        /* \"#utility.yul\":5420:5421   */\n      0x00\n        /* \"#utility.yul\":5409:5418   */\n      dup4\n        /* \"#utility.yul\":5405:5422   */\n      add\n        /* \"#utility.yul\":5398:5445   */\n      mstore\n        /* \"#utility.yul\":5462:5593   */\n      tag_99\n        /* \"#utility.yul\":5588:5592   */\n      dup2\n        /* \"#utility.yul\":5462:5593   */\n      tag_41\n      jump\t// in\n    tag_99:\n        /* \"#utility.yul\":5454:5593   */\n      swap1\n      pop\n        /* \"#utility.yul\":5181:5600   */\n      swap2\n      swap1\n      pop\n      jump\t// out\n\n    auxdata: 0xa264697066735822122046c43bd28259da9154473c4321ddd243a2b71ebf22e711f9578df3476133dd9964736f6c634300080d0033\n}\n",
				"bytecode": {
					"linkReferences": {},
					"object": "608060405234801561001057600080fd5b50610491806100206000396000f3fe608060405234801561001057600080fd5b506004361061002b5760003560e01c806304d682fc14610030575b600080fd5b61004a60048036038101906100459190610245565b610060565b6040516100579190610331565b60405180910390f35b60606000808573ffffffffffffffffffffffffffffffffffffffff16858560405160240161008f929190610362565b6040516020818303038152906040527fc8a4ac9c000000000000000000000000000000000000000000000000000000007bffffffffffffffffffffffffffffffffffffffffffffffffffffffff19166020820180517bffffffffffffffffffffffffffffffffffffffffffffffffffffffff838183161783525050505060405161011991906103c7565b6000604051808303816000865af19150503d8060008114610156576040519150601f19603f3d011682016040523d82523d6000602084013e61015b565b606091505b5091509150816101a0576040517f08c379a00000000000000000000000000000000000000000000000000000000081526004016101979061043b565b60405180910390fd5b80925050509392505050565b600080fd5b600073ffffffffffffffffffffffffffffffffffffffff82169050919050565b60006101dc826101b1565b9050919050565b6101ec816101d1565b81146101f757600080fd5b50565b600081359050610209816101e3565b92915050565b6000819050919050565b6102228161020f565b811461022d57600080fd5b50565b60008135905061023f81610219565b92915050565b60008060006060848603121561025e5761025d6101ac565b5b600061026c868287016101fa565b935050602061027d86828701610230565b925050604061028e86828701610230565b9150509250925092565b600081519050919050565b600082825260208201905092915050565b60005b838110156102d25780820151818401526020810190506102b7565b838111156102e1576000848401525b50505050565b6000601f19601f8301169050919050565b600061030382610298565b61030d81856102a3565b935061031d8185602086016102b4565b610326816102e7565b840191505092915050565b6000602082019050818103600083015261034b81846102f8565b905092915050565b61035c8161020f565b82525050565b60006040820190506103776000830185610353565b6103846020830184610353565b9392505050565b600081905092915050565b60006103a182610298565b6103ab818561038b565b93506103bb8185602086016102b4565b80840191505092915050565b60006103d38284610396565b915081905092915050565b600082825260208201905092915050565b7f4661696c65640000000000000000000000000000000000000000000000000000600082015250565b60006104256006836103de565b9150610430826103ef565b602082019050919050565b6000602082019050818103600083015261045481610418565b905091905056fea264697066735822122046c43bd28259da9154473c4321ddd243a2b71ebf22e711f9578df3476133dd9964736f6c634300080d0033",
					"opcodes": "PUSH1 0x80 PUSH1 0x40 MSTORE CALLVALUE DUP1 ISZERO PUSH2 0x10 JUMPI PUSH1 0x0 DUP1 REVERT JUMPDEST POP PUSH2 0x491 DUP1 PUSH2 0x20 PUSH1 0x0 CODECOPY PUSH1 0x0 RETURN INVALID PUSH1 0x80 PUSH1 0x40 MSTORE CALLVALUE DUP1 ISZERO PUSH2 0x10 JUMPI PUSH1 0x0 DUP1 REVERT JUMPDEST POP PUSH1 0x4 CALLDATASIZE LT PUSH2 0x2B JUMPI PUSH1 0x0 CALLDATALOAD PUSH1 0xE0 SHR DUP1 PUSH4 0x4D682FC EQ PUSH2 0x30 JUMPI JUMPDEST PUSH1 0x0 DUP1 REVERT JUMPDEST PUSH2 0x4A PUSH1 0x4 DUP1 CALLDATASIZE SUB DUP2 ADD SWAP1 PUSH2 0x45 SWAP2 SWAP1 PUSH2 0x245 JUMP JUMPDEST PUSH2 0x60 JUMP JUMPDEST PUSH1 0x40 MLOAD PUSH2 0x57 SWAP2 SWAP1 PUSH2 0x331 JUMP JUMPDEST PUSH1 0x40 MLOAD DUP1 SWAP2 SUB SWAP1 RETURN JUMPDEST PUSH1 0x60 PUSH1 0x0 DUP1 DUP6 PUSH20 0xFFFFFFFFFFFFFFFFFFFFFFFFFFFFFFFFFFFFFFFF AND DUP6 DUP6 PUSH1 0x40 MLOAD PUSH1 0x24 ADD PUSH2 0x8F SWAP3 SWAP2 SWAP1 PUSH2 0x362 JUMP JUMPDEST PUSH1 0x40 MLOAD PUSH1 0x20 DUP2 DUP4 SUB SUB DUP2 MSTORE SWAP1 PUSH1 0x40 MSTORE PUSH32 0xC8A4AC9C00000000000000000000000000000000000000000000000000000000 PUSH28 0xFFFFFFFFFFFFFFFFFFFFFFFFFFFFFFFFFFFFFFFFFFFFFFFFFFFFFFFF NOT AND PUSH1 0x20 DUP3 ADD DUP1 MLOAD PUSH28 0xFFFFFFFFFFFFFFFFFFFFFFFFFFFFFFFFFFFFFFFFFFFFFFFFFFFFFFFF DUP4 DUP2 DUP4 AND OR DUP4 MSTORE POP POP POP POP PUSH1 0x40 MLOAD PUSH2 0x119 SWAP2 SWAP1 PUSH2 0x3C7 JUMP JUMPDEST PUSH1 0x0 PUSH1 0x40 MLOAD DUP1 DUP4 SUB DUP2 PUSH1 0x0 DUP7 GAS CALL SWAP2 POP POP RETURNDATASIZE DUP1 PUSH1 0x0 DUP2 EQ PUSH2 0x156 JUMPI PUSH1 0x40 MLOAD SWAP2 POP PUSH1 0x1F NOT PUSH1 0x3F RETURNDATASIZE ADD AND DUP3 ADD PUSH1 0x40 MSTORE RETURNDATASIZE DUP3 MSTORE RETURNDATASIZE PUSH1 0x0 PUSH1 0x20 DUP5 ADD RETURNDATACOPY PUSH2 0x15B JUMP JUMPDEST PUSH1 0x60 SWAP2 POP JUMPDEST POP SWAP2 POP SWAP2 POP DUP2 PUSH2 0x1A0 JUMPI PUSH1 0x40 MLOAD PUSH32 0x8C379A000000000000000000000000000000000000000000000000000000000 DUP2 MSTORE PUSH1 0x4 ADD PUSH2 0x197 SWAP1 PUSH2 0x43B JUMP JUMPDEST PUSH1 0x40 MLOAD DUP1 SWAP2 SUB SWAP1 REVERT JUMPDEST DUP1 SWAP3 POP POP POP SWAP4 SWAP3 POP POP POP JUMP JUMPDEST PUSH1 0x0 DUP1 REVERT JUMPDEST PUSH1 0x0 PUSH20 0xFFFFFFFFFFFFFFFFFFFFFFFFFFFFFFFFFFFFFFFF DUP3 AND SWAP1 POP SWAP2 SWAP1 POP JUMP JUMPDEST PUSH1 0x0 PUSH2 0x1DC DUP3 PUSH2 0x1B1 JUMP JUMPDEST SWAP1 POP SWAP2 SWAP1 POP JUMP JUMPDEST PUSH2 0x1EC DUP2 PUSH2 0x1D1 JUMP JUMPDEST DUP2 EQ PUSH2 0x1F7 JUMPI PUSH1 0x0 DUP1 REVERT JUMPDEST POP JUMP JUMPDEST PUSH1 0x0 DUP2 CALLDATALOAD SWAP1 POP PUSH2 0x209 DUP2 PUSH2 0x1E3 JUMP JUMPDEST SWAP3 SWAP2 POP POP JUMP JUMPDEST PUSH1 0x0 DUP2 SWAP1 POP SWAP2 SWAP1 POP JUMP JUMPDEST PUSH2 0x222 DUP2 PUSH2 0x20F JUMP JUMPDEST DUP2 EQ PUSH2 0x22D JUMPI PUSH1 0x0 DUP1 REVERT JUMPDEST POP JUMP JUMPDEST PUSH1 0x0 DUP2 CALLDATALOAD SWAP1 POP PUSH2 0x23F DUP2 PUSH2 0x219 JUMP JUMPDEST SWAP3 SWAP2 POP POP JUMP JUMPDEST PUSH1 0x0 DUP1 PUSH1 0x0 PUSH1 0x60 DUP5 DUP7 SUB SLT ISZERO PUSH2 0x25E JUMPI PUSH2 0x25D PUSH2 0x1AC JUMP JUMPDEST JUMPDEST PUSH1 0x0 PUSH2 0x26C DUP7 DUP3 DUP8 ADD PUSH2 0x1FA JUMP JUMPDEST SWAP4 POP POP PUSH1 0x20 PUSH2 0x27D DUP7 DUP3 DUP8 ADD PUSH2 0x230 JUMP JUMPDEST SWAP3 POP POP PUSH1 0x40 PUSH2 0x28E DUP7 DUP3 DUP8 ADD PUSH2 0x230 JUMP JUMPDEST SWAP2 POP POP SWAP3 POP SWAP3 POP SWAP3 JUMP JUMPDEST PUSH1 0x0 DUP2 MLOAD SWAP1 POP SWAP2 SWAP1 POP JUMP JUMPDEST PUSH1 0x0 DUP3 DUP3 MSTORE PUSH1 0x20 DUP3 ADD SWAP1 POP SWAP3 SWAP2 POP POP JUMP JUMPDEST PUSH1 0x0 JUMPDEST DUP4 DUP2 LT ISZERO PUSH2 0x2D2 JUMPI DUP1 DUP3 ADD MLOAD DUP2 DUP5 ADD MSTORE PUSH1 0x20 DUP2 ADD SWAP1 POP PUSH2 0x2B7 JUMP JUMPDEST DUP4 DUP2 GT ISZERO PUSH2 0x2E1 JUMPI PUSH1 0x0 DUP5 DUP5 ADD MSTORE JUMPDEST POP POP POP POP JUMP JUMPDEST PUSH1 0x0 PUSH1 0x1F NOT PUSH1 0x1F DUP4 ADD AND SWAP1 POP SWAP2 SWAP1 POP JUMP JUMPDEST PUSH1 0x0 PUSH2 0x303 DUP3 PUSH2 0x298 JUMP JUMPDEST PUSH2 0x30D DUP2 DUP6 PUSH2 0x2A3 JUMP JUMPDEST SWAP4 POP PUSH2 0x31D DUP2 DUP6 PUSH1 0x20 DUP7 ADD PUSH2 0x2B4 JUMP JUMPDEST PUSH2 0x326 DUP2 PUSH2 0x2E7 JUMP JUMPDEST DUP5 ADD SWAP2 POP POP SWAP3 SWAP2 POP POP JUMP JUMPDEST PUSH1 0x0 PUSH1 0x20 DUP3 ADD SWAP1 POP DUP2 DUP2 SUB PUSH1 0x0 DUP4 ADD MSTORE PUSH2 0x34B DUP2 DUP5 PUSH2 0x2F8 JUMP JUMPDEST SWAP1 POP SWAP3 SWAP2 POP POP JUMP JUMPDEST PUSH2 0x35C DUP2 PUSH2 0x20F JUMP JUMPDEST DUP3 MSTORE POP POP JUMP JUMPDEST PUSH1 0x0 PUSH1 0x40 DUP3 ADD SWAP1 POP PUSH2 0x377 PUSH1 0x0 DUP4 ADD DUP6 PUSH2 0x353 JUMP JUMPDEST PUSH2 0x384 PUSH1 0x20 DUP4 ADD DUP5 PUSH2 0x353 JUMP JUMPDEST SWAP4 SWAP3 POP POP POP JUMP JUMPDEST PUSH1 0x0 DUP2 SWAP1 POP SWAP3 SWAP2 POP POP JUMP JUMPDEST PUSH1 0x0 PUSH2 0x3A1 DUP3 PUSH2 0x298 JUMP JUMPDEST PUSH2 0x3AB DUP2 DUP6 PUSH2 0x38B JUMP JUMPDEST SWAP4 POP PUSH2 0x3BB DUP2 DUP6 PUSH1 0x20 DUP7 ADD PUSH2 0x2B4 JUMP JUMPDEST DUP1 DUP5 ADD SWAP2 POP POP SWAP3 SWAP2 POP POP JUMP JUMPDEST PUSH1 0x0 PUSH2 0x3D3 DUP3 DUP5 PUSH2 0x396 JUMP JUMPDEST SWAP2 POP DUP2 SWAP1 POP SWAP3 SWAP2 POP POP JUMP JUMPDEST PUSH1 0x0 DUP3 DUP3 MSTORE PUSH1 0x20 DUP3 ADD SWAP1 POP SWAP3 SWAP2 POP POP JUMP JUMPDEST PUSH32 0x4661696C65640000000000000000000000000000000000000000000000000000 PUSH1 0x0 DUP3 ADD MSTORE POP JUMP JUMPDEST PUSH1 0x0 PUSH2 0x425 PUSH1 0x6 DUP4 PUSH2 0x3DE JUMP JUMPDEST SWAP2 POP PUSH2 0x430 DUP3 PUSH2 0x3EF JUMP JUMPDEST PUSH1 0x20 DUP3 ADD SWAP1 POP SWAP2 SWAP1 POP JUMP JUMPDEST PUSH1 0x0 PUSH1 0x20 DUP3 ADD SWAP1 POP DUP2 DUP2 SUB PUSH1 0x0 DUP4 ADD MSTORE PUSH2 0x454 DUP2 PUSH2 0x418 JUMP JUMPDEST SWAP1 POP SWAP2 SWAP1 POP JUMP INVALID LOG2 PUSH5 0x6970667358 0x22 SLT KECCAK256 CHAINID 0xC4 EXTCODESIZE 0xD2 DUP3 MSIZE 0xDA SWAP2 SLOAD SELFBALANCE EXTCODECOPY NUMBER 0x21 0xDD 0xD2 NUMBER LOG2 0xB7 0x1E 0xBF 0x22 0xE7 GT 0xF9 JUMPI DUP14 RETURN SELFBALANCE PUSH2 0x33DD SWAP10 PUSH5 0x736F6C6343 STOP ADDMOD 0xD STOP CALLER "
				},
				"gasEstimates": {
					"creation": {
						"codeDepositCost": "233800",
						"executionCost": "275",
						"totalCost": "234075"
					},
					"external": {
						"CallMath(address,uint256,uint256)": "infinite"
					}
				},
				"methodIdentifiers": {
					"CallMath(address,uint256,uint256)": "04d682fc"
				}
			},
			"storageLayout": {
				"storage": [],
				"types": null
			},
			"userdoc": {
				"kind": "user",
				"methods": {},
				"version": 1
			}
		}
	}
}