{
	"chapter8/enum.sol": {
		"enum_ex": {
			"abi": [
				{
					"inputs": [],
					"stateMutability": "nonpayable",
					"type": "constructor"
				},
				{
					"anonymous": false,
					"inputs": [
						{
							"indexed": false,
							"internalType": "string",
							"name": "info",
							"type": "string"
						}
					],
					"name": "Information",
					"type": "event"
				},
				{
					"inputs": [],
					"name": "deliveryFood",
					"outputs": [],
					"stateMutability": "nonpayable",
					"type": "function"
				},
				{
					"inputs": [],
					"name": "foodStatus",
					"outputs": [
						{
							"internalType": "enum enum_ex.FoodProcess",
							"name": "",
							"type": "uint8"
						}
					],
					"stateMutability": "view",
					"type": "function"
				},
				{
					"inputs": [],
					"name": "orderFood",
					"outputs": [],
					"stateMutability": "nonpayable",
					"type": "function"
				},
				{
					"inputs": [],
					"name": "paymentFood",
					"outputs": [],
					"stateMutability": "nonpayable",
					"type": "function"
				},
				{
					"inputs": [],
					"name": "takeAwayFood",
					"outputs": [],
					"stateMutability": "nonpayable",
					"type": "function"
				}
			],
			"devdoc": {
				"kind": "dev",
				"methods": {},
				"version": 1
			},
			"evm": {
				"assembly": "    /* \"chapter8/enum.sol\":66:1178  contract enum_ex {... */\n  mstore(0x40, 0x80)\n    /* \"chapter8/enum.sol\":258:321  constructor() {... */\n  callvalue\n  dup1\n  iszero\n  tag_1\n  jumpi\n  0x00\n  dup1\n  revert\ntag_1:\n  pop\n    /* \"chapter8/enum.sol\":295:314  FoodProcess.payment */\n  0x03\n    /* \"chapter8/enum.sol\":282:292  foodStatus */\n  0x00\n  dup1\n    /* \"chapter8/enum.sol\":282:314  foodStatus = FoodProcess.payment */\n  0x0100\n  exp\n  dup2\n  sload\n  dup2\n  0xff\n  mul\n  not\n  and\n  swap1\n  dup4\n  0x03\n  dup2\n  gt\n  iszero\n  tag_4\n  jumpi\n  tag_5\n  tag_6\n  jump\t// in\ntag_5:\ntag_4:\n  mul\n  or\n  swap1\n  sstore\n  pop\n    /* \"chapter8/enum.sol\":66:1178  contract enum_ex {... */\n  jump(tag_7)\n    /* \"#utility.yul\":7:187   */\ntag_6:\n    /* \"#utility.yul\":55:132   */\n  0x4e487b7100000000000000000000000000000000000000000000000000000000\n    /* \"#utility.yul\":52:53   */\n  0x00\n    /* \"#utility.yul\":45:133   */\n  mstore\n    /* \"#utility.yul\":152:156   */\n  0x21\n    /* \"#utility.yul\":149:150   */\n  0x04\n    /* \"#utility.yul\":142:157   */\n  mstore\n    /* \"#utility.yul\":176:180   */\n  0x24\n    /* \"#utility.yul\":173:174   */\n  0x00\n    /* \"#utility.yul\":166:181   */\n  revert\n    /* \"chapter8/enum.sol\":66:1178  contract enum_ex {... */\ntag_7:\n  dataSize(sub_0)\n  dup1\n  dataOffset(sub_0)\n  0x00\n  codecopy\n  0x00\n  return\nstop\n\nsub_0: assembly {\n        /* \"chapter8/enum.sol\":66:1178  contract enum_ex {... */\n      mstore(0x40, 0x80)\n      callvalue\n      dup1\n      iszero\n      tag_1\n      jumpi\n      0x00\n      dup1\n      revert\n    tag_1:\n      pop\n      jumpi(tag_2, lt(calldatasize, 0x04))\n      shr(0xe0, calldataload(0x00))\n      dup1\n      0x429268ae\n      eq\n      tag_3\n      jumpi\n      dup1\n      0x94d15a9e\n      eq\n      tag_4\n      jumpi\n      dup1\n      0xc62efc2b\n      eq\n      tag_5\n      jumpi\n      dup1\n      0xd3e9ff83\n      eq\n      tag_6\n      jumpi\n      dup1\n      0xd9c966fd\n      eq\n      tag_7\n      jumpi\n    tag_2:\n      0x00\n      dup1\n      revert\n        /* \"chapter8/enum.sol\":328:531  function orderFood() public {... */\n    tag_3:\n      tag_8\n      tag_9\n      jump\t// in\n    tag_8:\n      stop\n        /* \"chapter8/enum.sol\":537:745  function takeAwayFood() public {... */\n    tag_4:\n      tag_10\n      tag_11\n      jump\t// in\n    tag_10:\n      stop\n        /* \"chapter8/enum.sol\":971:1174  function paymentFood() public {... */\n    tag_5:\n      tag_12\n      tag_13\n      jump\t// in\n    tag_12:\n      stop\n        /* \"chapter8/enum.sol\":751:965  function deliveryFood() public {... */\n    tag_6:\n      tag_14\n      tag_15\n      jump\t// in\n    tag_14:\n      stop\n        /* \"chapter8/enum.sol\":222:251  FoodProcess public foodStatus */\n    tag_7:\n      tag_16\n      tag_17\n      jump\t// in\n    tag_16:\n      mload(0x40)\n      tag_18\n      swap2\n      swap1\n      tag_19\n      jump\t// in\n    tag_18:\n      mload(0x40)\n      dup1\n      swap2\n      sub\n      swap1\n      return\n        /* \"chapter8/enum.sol\":328:531  function orderFood() public {... */\n    tag_9:\n        /* \"chapter8/enum.sol\":388:407  FoodProcess.payment */\n      0x03\n        /* \"chapter8/enum.sol\":374:407  foodStatus == FoodProcess.payment */\n      dup1\n      dup2\n      gt\n      iszero\n      tag_21\n      jumpi\n      tag_22\n      tag_23\n      jump\t// in\n    tag_22:\n    tag_21:\n        /* \"chapter8/enum.sol\":374:384  foodStatus */\n      0x00\n      dup1\n      sload\n      swap1\n      0x0100\n      exp\n      swap1\n      div\n      0xff\n      and\n        /* \"chapter8/enum.sol\":374:407  foodStatus == FoodProcess.payment */\n      0x03\n      dup2\n      gt\n      iszero\n      tag_24\n      jumpi\n      tag_25\n      tag_23\n      jump\t// in\n    tag_25:\n    tag_24:\n      eq\n        /* \"chapter8/enum.sol\":366:441  require(foodStatus == FoodProcess.payment, \"It must be the payment status\") */\n      tag_26\n      jumpi\n      mload(0x40)\n      0x08c379a000000000000000000000000000000000000000000000000000000000\n      dup2\n      mstore\n      0x04\n      add\n      tag_27\n      swap1\n      tag_28\n      jump\t// in\n    tag_27:\n      mload(0x40)\n      dup1\n      swap2\n      sub\n      swap1\n      revert\n    tag_26:\n        /* \"chapter8/enum.sol\":464:481  FoodProcess.order */\n      0x00\n        /* \"chapter8/enum.sol\":451:461  foodStatus */\n      dup1\n      0x00\n        /* \"chapter8/enum.sol\":451:481  foodStatus = FoodProcess.order */\n      0x0100\n      exp\n      dup2\n      sload\n      dup2\n      0xff\n      mul\n      not\n      and\n      swap1\n      dup4\n      0x03\n      dup2\n      gt\n      iszero\n      tag_29\n      jumpi\n      tag_30\n      tag_23\n      jump\t// in\n    tag_30:\n    tag_29:\n      mul\n      or\n      swap1\n      sstore\n      pop\n        /* \"chapter8/enum.sol\":496:524  Information(\"Order Process\") */\n      0xff8fea957fb7cb582ef297c1c74436fe7a9914efbc52adf197600dc9d171efbc\n      mload(0x40)\n      tag_31\n      swap1\n      tag_32\n      jump\t// in\n    tag_31:\n      mload(0x40)\n      dup1\n      swap2\n      sub\n      swap1\n      log1\n        /* \"chapter8/enum.sol\":328:531  function orderFood() public {... */\n      jump\t// out\n        /* \"chapter8/enum.sol\":537:745  function takeAwayFood() public {... */\n    tag_11:\n        /* \"chapter8/enum.sol\":600:617  FoodProcess.order */\n      0x00\n        /* \"chapter8/enum.sol\":586:617  foodStatus == FoodProcess.order */\n      0x03\n      dup2\n      gt\n      iszero\n      tag_34\n      jumpi\n      tag_35\n      tag_23\n      jump\t// in\n    tag_35:\n    tag_34:\n        /* \"chapter8/enum.sol\":586:596  foodStatus */\n      0x00\n      dup1\n      sload\n      swap1\n      0x0100\n      exp\n      swap1\n      div\n      0xff\n      and\n        /* \"chapter8/enum.sol\":586:617  foodStatus == FoodProcess.order */\n      0x03\n      dup2\n      gt\n      iszero\n      tag_36\n      jumpi\n      tag_37\n      tag_23\n      jump\t// in\n    tag_37:\n    tag_36:\n      eq\n        /* \"chapter8/enum.sol\":578:649  require(foodStatus == FoodProcess.order, \"It must be the order status\") */\n      tag_38\n      jumpi\n      mload(0x40)\n      0x08c379a000000000000000000000000000000000000000000000000000000000\n      dup2\n      mstore\n      0x04\n      add\n      tag_39\n      swap1\n      tag_40\n      jump\t// in\n    tag_39:\n      mload(0x40)\n      dup1\n      swap2\n      sub\n      swap1\n      revert\n    tag_38:\n        /* \"chapter8/enum.sol\":672:692  FoodProcess.takeAway */\n      0x01\n        /* \"chapter8/enum.sol\":659:669  foodStatus */\n      0x00\n      dup1\n        /* \"chapter8/enum.sol\":659:692  foodStatus = FoodProcess.takeAway */\n      0x0100\n      exp\n      dup2\n      sload\n      dup2\n      0xff\n      mul\n      not\n      and\n      swap1\n      dup4\n      0x03\n      dup2\n      gt\n      iszero\n      tag_41\n      jumpi\n      tag_42\n      tag_23\n      jump\t// in\n    tag_42:\n    tag_41:\n      mul\n      or\n      swap1\n      sstore\n      pop\n        /* \"chapter8/enum.sol\":707:738  Information(\"takeAway Process\") */\n      0xff8fea957fb7cb582ef297c1c74436fe7a9914efbc52adf197600dc9d171efbc\n      mload(0x40)\n      tag_43\n      swap1\n      tag_44\n      jump\t// in\n    tag_43:\n      mload(0x40)\n      dup1\n      swap2\n      sub\n      swap1\n      log1\n        /* \"chapter8/enum.sol\":537:745  function takeAwayFood() public {... */\n      jump\t// out\n        /* \"chapter8/enum.sol\":971:1174  function paymentFood() public {... */\n    tag_13:\n        /* \"chapter8/enum.sol\":1045:1046  2 */\n      0x02\n        /* \"chapter8/enum.sol\":1033:1047  FoodProcess(2) */\n      0x03\n      dup2\n      gt\n      iszero\n      tag_46\n      jumpi\n      tag_47\n      tag_23\n      jump\t// in\n    tag_47:\n    tag_46:\n        /* \"chapter8/enum.sol\":1019:1047  foodStatus == FoodProcess(2) */\n      0x03\n      dup2\n      gt\n      iszero\n      tag_48\n      jumpi\n      tag_49\n      tag_23\n      jump\t// in\n    tag_49:\n    tag_48:\n        /* \"chapter8/enum.sol\":1019:1029  foodStatus */\n      0x00\n      dup1\n      sload\n      swap1\n      0x0100\n      exp\n      swap1\n      div\n      0xff\n      and\n        /* \"chapter8/enum.sol\":1019:1047  foodStatus == FoodProcess(2) */\n      0x03\n      dup2\n      gt\n      iszero\n      tag_50\n      jumpi\n      tag_51\n      tag_23\n      jump\t// in\n    tag_51:\n    tag_50:\n      eq\n        /* \"chapter8/enum.sol\":1011:1082  require(foodStatus == FoodProcess(2), \"It must be the delivery status\") */\n      tag_52\n      jumpi\n      mload(0x40)\n      0x08c379a000000000000000000000000000000000000000000000000000000000\n      dup2\n      mstore\n      0x04\n      add\n      tag_53\n      swap1\n      tag_54\n      jump\t// in\n    tag_53:\n      mload(0x40)\n      dup1\n      swap2\n      sub\n      swap1\n      revert\n    tag_52:\n        /* \"chapter8/enum.sol\":1105:1124  FoodProcess.payment */\n      0x03\n        /* \"chapter8/enum.sol\":1092:1102  foodStatus */\n      0x00\n      dup1\n        /* \"chapter8/enum.sol\":1092:1124  foodStatus = FoodProcess.payment */\n      0x0100\n      exp\n      dup2\n      sload\n      dup2\n      0xff\n      mul\n      not\n      and\n      swap1\n      dup4\n      0x03\n      dup2\n      gt\n      iszero\n      tag_55\n      jumpi\n      tag_56\n      tag_23\n      jump\t// in\n    tag_56:\n    tag_55:\n      mul\n      or\n      swap1\n      sstore\n      pop\n        /* \"chapter8/enum.sol\":1139:1167  Information(\"Order Process\") */\n      0xff8fea957fb7cb582ef297c1c74436fe7a9914efbc52adf197600dc9d171efbc\n      mload(0x40)\n      tag_57\n      swap1\n      tag_32\n      jump\t// in\n    tag_57:\n      mload(0x40)\n      dup1\n      swap2\n      sub\n      swap1\n      log1\n        /* \"chapter8/enum.sol\":971:1174  function paymentFood() public {... */\n      jump\t// out\n        /* \"chapter8/enum.sol\":751:965  function deliveryFood() public {... */\n    tag_15:\n        /* \"chapter8/enum.sol\":814:834  FoodProcess.takeAway */\n      0x01\n        /* \"chapter8/enum.sol\":800:834  foodStatus == FoodProcess.takeAway */\n      0x03\n      dup2\n      gt\n      iszero\n      tag_59\n      jumpi\n      tag_60\n      tag_23\n      jump\t// in\n    tag_60:\n    tag_59:\n        /* \"chapter8/enum.sol\":800:810  foodStatus */\n      0x00\n      dup1\n      sload\n      swap1\n      0x0100\n      exp\n      swap1\n      div\n      0xff\n      and\n        /* \"chapter8/enum.sol\":800:834  foodStatus == FoodProcess.takeAway */\n      0x03\n      dup2\n      gt\n      iszero\n      tag_61\n      jumpi\n      tag_62\n      tag_23\n      jump\t// in\n    tag_62:\n    tag_61:\n      eq\n        /* \"chapter8/enum.sol\":792:869  require(foodStatus == FoodProcess.takeAway, \"It must be the takeaway status\") */\n      tag_63\n      jumpi\n      mload(0x40)\n      0x08c379a000000000000000000000000000000000000000000000000000000000\n      dup2\n      mstore\n      0x04\n      add\n      tag_64\n      swap1\n      tag_65\n      jump\t// in\n    tag_64:\n      mload(0x40)\n      dup1\n      swap2\n      sub\n      swap1\n      revert\n    tag_63:\n        /* \"chapter8/enum.sol\":892:912  FoodProcess.delivery */\n      0x02\n        /* \"chapter8/enum.sol\":879:889  foodStatus */\n      0x00\n      dup1\n        /* \"chapter8/enum.sol\":879:912  foodStatus = FoodProcess.delivery */\n      0x0100\n      exp\n      dup2\n      sload\n      dup2\n      0xff\n      mul\n      not\n      and\n      swap1\n      dup4\n      0x03\n      dup2\n      gt\n      iszero\n      tag_66\n      jumpi\n      tag_67\n      tag_23\n      jump\t// in\n    tag_67:\n    tag_66:\n      mul\n      or\n      swap1\n      sstore\n      pop\n        /* \"chapter8/enum.sol\":927:958  Information(\"delivery Process\") */\n      0xff8fea957fb7cb582ef297c1c74436fe7a9914efbc52adf197600dc9d171efbc\n      mload(0x40)\n      tag_68\n      swap1\n      tag_69\n      jump\t// in\n    tag_68:\n      mload(0x40)\n      dup1\n      swap2\n      sub\n      swap1\n      log1\n        /* \"chapter8/enum.sol\":751:965  function deliveryFood() public {... */\n      jump\t// out\n        /* \"chapter8/enum.sol\":222:251  FoodProcess public foodStatus */\n    tag_17:\n      0x00\n      dup1\n      sload\n      swap1\n      0x0100\n      exp\n      swap1\n      div\n      0xff\n      and\n      dup2\n      jump\t// out\n        /* \"#utility.yul\":7:187   */\n    tag_23:\n        /* \"#utility.yul\":55:132   */\n      0x4e487b7100000000000000000000000000000000000000000000000000000000\n        /* \"#utility.yul\":52:53   */\n      0x00\n        /* \"#utility.yul\":45:133   */\n      mstore\n        /* \"#utility.yul\":152:156   */\n      0x21\n        /* \"#utility.yul\":149:150   */\n      0x04\n        /* \"#utility.yul\":142:157   */\n      mstore\n        /* \"#utility.yul\":176:180   */\n      0x24\n        /* \"#utility.yul\":173:174   */\n      0x00\n        /* \"#utility.yul\":166:181   */\n      revert\n        /* \"#utility.yul\":193:312   */\n    tag_70:\n        /* \"#utility.yul\":280:281   */\n      0x04\n        /* \"#utility.yul\":273:278   */\n      dup2\n        /* \"#utility.yul\":270:282   */\n      lt\n        /* \"#utility.yul\":260:306   */\n      tag_92\n      jumpi\n        /* \"#utility.yul\":286:304   */\n      tag_93\n      tag_23\n      jump\t// in\n    tag_93:\n        /* \"#utility.yul\":260:306   */\n    tag_92:\n        /* \"#utility.yul\":193:312   */\n      pop\n      jump\t// out\n        /* \"#utility.yul\":318:457   */\n    tag_71:\n        /* \"#utility.yul\":369:376   */\n      0x00\n        /* \"#utility.yul\":398:403   */\n      dup2\n        /* \"#utility.yul\":387:403   */\n      swap1\n      pop\n        /* \"#utility.yul\":404:451   */\n      tag_95\n        /* \"#utility.yul\":445:450   */\n      dup3\n        /* \"#utility.yul\":404:451   */\n      tag_70\n      jump\t// in\n    tag_95:\n        /* \"#utility.yul\":318:457   */\n      swap2\n      swap1\n      pop\n      jump\t// out\n        /* \"#utility.yul\":463:602   */\n    tag_72:\n        /* \"#utility.yul\":525:534   */\n      0x00\n        /* \"#utility.yul\":558:596   */\n      tag_97\n        /* \"#utility.yul\":590:595   */\n      dup3\n        /* \"#utility.yul\":558:596   */\n      tag_71\n      jump\t// in\n    tag_97:\n        /* \"#utility.yul\":545:596   */\n      swap1\n      pop\n        /* \"#utility.yul\":463:602   */\n      swap2\n      swap1\n      pop\n      jump\t// out\n        /* \"#utility.yul\":608:763   */\n    tag_73:\n        /* \"#utility.yul\":707:756   */\n      tag_99\n        /* \"#utility.yul\":750:755   */\n      dup2\n        /* \"#utility.yul\":707:756   */\n      tag_72\n      jump\t// in\n    tag_99:\n        /* \"#utility.yul\":702:705   */\n      dup3\n        /* \"#utility.yul\":695:757   */\n      mstore\n        /* \"#utility.yul\":608:763   */\n      pop\n      pop\n      jump\t// out\n        /* \"#utility.yul\":769:1015   */\n    tag_19:\n        /* \"#utility.yul\":874:878   */\n      0x00\n        /* \"#utility.yul\":912:914   */\n      0x20\n        /* \"#utility.yul\":901:910   */\n      dup3\n        /* \"#utility.yul\":897:915   */\n      add\n        /* \"#utility.yul\":889:915   */\n      swap1\n      pop\n        /* \"#utility.yul\":925:1008   */\n      tag_101\n        /* \"#utility.yul\":1005:1006   */\n      0x00\n        /* \"#utility.yul\":994:1003   */\n      dup4\n        /* \"#utility.yul\":990:1007   */\n      add\n        /* \"#utility.yul\":981:987   */\n      dup5\n        /* \"#utility.yul\":925:1008   */\n      tag_73\n      jump\t// in\n    tag_101:\n        /* \"#utility.yul\":769:1015   */\n      swap3\n      swap2\n      pop\n      pop\n      jump\t// out\n        /* \"#utility.yul\":1021:1190   */\n    tag_74:\n        /* \"#utility.yul\":1105:1116   */\n      0x00\n        /* \"#utility.yul\":1139:1145   */\n      dup3\n        /* \"#utility.yul\":1134:1137   */\n      dup3\n        /* \"#utility.yul\":1127:1146   */\n      mstore\n        /* \"#utility.yul\":1179:1183   */\n      0x20\n        /* \"#utility.yul\":1174:1177   */\n      dup3\n        /* \"#utility.yul\":1170:1184   */\n      add\n        /* \"#utility.yul\":1155:1184   */\n      swap1\n      pop\n        /* \"#utility.yul\":1021:1190   */\n      swap3\n      swap2\n      pop\n      pop\n      jump\t// out\n        /* \"#utility.yul\":1196:1375   */\n    tag_75:\n        /* \"#utility.yul\":1336:1367   */\n      0x4974206d75737420626520746865207061796d656e7420737461747573000000\n        /* \"#utility.yul\":1332:1333   */\n      0x00\n        /* \"#utility.yul\":1324:1330   */\n      dup3\n        /* \"#utility.yul\":1320:1334   */\n      add\n        /* \"#utility.yul\":1313:1368   */\n      mstore\n        /* \"#utility.yul\":1196:1375   */\n      pop\n      jump\t// out\n        /* \"#utility.yul\":1381:1747   */\n    tag_76:\n        /* \"#utility.yul\":1523:1526   */\n      0x00\n        /* \"#utility.yul\":1544:1611   */\n      tag_105\n        /* \"#utility.yul\":1608:1610   */\n      0x1d\n        /* \"#utility.yul\":1603:1606   */\n      dup4\n        /* \"#utility.yul\":1544:1611   */\n      tag_74\n      jump\t// in\n    tag_105:\n        /* \"#utility.yul\":1537:1611   */\n      swap2\n      pop\n        /* \"#utility.yul\":1620:1713   */\n      tag_106\n        /* \"#utility.yul\":1709:1712   */\n      dup3\n        /* \"#utility.yul\":1620:1713   */\n      tag_75\n      jump\t// in\n    tag_106:\n        /* \"#utility.yul\":1738:1740   */\n      0x20\n        /* \"#utility.yul\":1733:1736   */\n      dup3\n        /* \"#utility.yul\":1729:1741   */\n      add\n        /* \"#utility.yul\":1722:1741   */\n      swap1\n      pop\n        /* \"#utility.yul\":1381:1747   */\n      swap2\n      swap1\n      pop\n      jump\t// out\n        /* \"#utility.yul\":1753:2172   */\n    tag_28:\n        /* \"#utility.yul\":1919:1923   */\n      0x00\n        /* \"#utility.yul\":1957:1959   */\n      0x20\n        /* \"#utility.yul\":1946:1955   */\n      dup3\n        /* \"#utility.yul\":1942:1960   */\n      add\n        /* \"#utility.yul\":1934:1960   */\n      swap1\n      pop\n        /* \"#utility.yul\":2006:2015   */\n      dup2\n        /* \"#utility.yul\":2000:2004   */\n      dup2\n        /* \"#utility.yul\":1996:2016   */\n      sub\n        /* \"#utility.yul\":1992:1993   */\n      0x00\n        /* \"#utility.yul\":1981:1990   */\n      dup4\n        /* \"#utility.yul\":1977:1994   */\n      add\n        /* \"#utility.yul\":1970:2017   */\n      mstore\n        /* \"#utility.yul\":2034:2165   */\n      tag_108\n        /* \"#utility.yul\":2160:2164   */\n      dup2\n        /* \"#utility.yul\":2034:2165   */\n      tag_76\n      jump\t// in\n    tag_108:\n        /* \"#utility.yul\":2026:2165   */\n      swap1\n      pop\n        /* \"#utility.yul\":1753:2172   */\n      swap2\n      swap1\n      pop\n      jump\t// out\n        /* \"#utility.yul\":2178:2341   */\n    tag_77:\n        /* \"#utility.yul\":2318:2333   */\n      0x4f726465722050726f6365737300000000000000000000000000000000000000\n        /* \"#utility.yul\":2314:2315   */\n      0x00\n        /* \"#utility.yul\":2306:2312   */\n      dup3\n        /* \"#utility.yul\":2302:2316   */\n      add\n        /* \"#utility.yul\":2295:2334   */\n      mstore\n        /* \"#utility.yul\":2178:2341   */\n      pop\n      jump\t// out\n        /* \"#utility.yul\":2347:2713   */\n    tag_78:\n        /* \"#utility.yul\":2489:2492   */\n      0x00\n        /* \"#utility.yul\":2510:2577   */\n      tag_111\n        /* \"#utility.yul\":2574:2576   */\n      0x0d\n        /* \"#utility.yul\":2569:2572   */\n      dup4\n        /* \"#utility.yul\":2510:2577   */\n      tag_74\n      jump\t// in\n    tag_111:\n        /* \"#utility.yul\":2503:2577   */\n      swap2\n      pop\n        /* \"#utility.yul\":2586:2679   */\n      tag_112\n        /* \"#utility.yul\":2675:2678   */\n      dup3\n        /* \"#utility.yul\":2586:2679   */\n      tag_77\n      jump\t// in\n    tag_112:\n        /* \"#utility.yul\":2704:2706   */\n      0x20\n        /* \"#utility.yul\":2699:2702   */\n      dup3\n        /* \"#utility.yul\":2695:2707   */\n      add\n        /* \"#utility.yul\":2688:2707   */\n      swap1\n      pop\n        /* \"#utility.yul\":2347:2713   */\n      swap2\n      swap1\n      pop\n      jump\t// out\n        /* \"#utility.yul\":2719:3138   */\n    tag_32:\n        /* \"#utility.yul\":2885:2889   */\n      0x00\n        /* \"#utility.yul\":2923:2925   */\n      0x20\n        /* \"#utility.yul\":2912:2921   */\n      dup3\n        /* \"#utility.yul\":2908:2926   */\n      add\n        /* \"#utility.yul\":2900:2926   */\n      swap1\n      pop\n        /* \"#utility.yul\":2972:2981   */\n      dup2\n        /* \"#utility.yul\":2966:2970   */\n      dup2\n        /* \"#utility.yul\":2962:2982   */\n      sub\n        /* \"#utility.yul\":2958:2959   */\n      0x00\n        /* \"#utility.yul\":2947:2956   */\n      dup4\n        /* \"#utility.yul\":2943:2960   */\n      add\n        /* \"#utility.yul\":2936:2983   */\n      mstore\n        /* \"#utility.yul\":3000:3131   */\n      tag_114\n        /* \"#utility.yul\":3126:3130   */\n      dup2\n        /* \"#utility.yul\":3000:3131   */\n      tag_78\n      jump\t// in\n    tag_114:\n        /* \"#utility.yul\":2992:3131   */\n      swap1\n      pop\n        /* \"#utility.yul\":2719:3138   */\n      swap2\n      swap1\n      pop\n      jump\t// out\n        /* \"#utility.yul\":3144:3321   */\n    tag_79:\n        /* \"#utility.yul\":3284:3313   */\n      0x4974206d75737420626520746865206f72646572207374617475730000000000\n        /* \"#utility.yul\":3280:3281   */\n      0x00\n        /* \"#utility.yul\":3272:3278   */\n      dup3\n        /* \"#utility.yul\":3268:3282   */\n      add\n        /* \"#utility.yul\":3261:3314   */\n      mstore\n        /* \"#utility.yul\":3144:3321   */\n      pop\n      jump\t// out\n        /* \"#utility.yul\":3327:3693   */\n    tag_80:\n        /* \"#utility.yul\":3469:3472   */\n      0x00\n        /* \"#utility.yul\":3490:3557   */\n      tag_117\n        /* \"#utility.yul\":3554:3556   */\n      0x1b\n        /* \"#utility.yul\":3549:3552   */\n      dup4\n        /* \"#utility.yul\":3490:3557   */\n      tag_74\n      jump\t// in\n    tag_117:\n        /* \"#utility.yul\":3483:3557   */\n      swap2\n      pop\n        /* \"#utility.yul\":3566:3659   */\n      tag_118\n        /* \"#utility.yul\":3655:3658   */\n      dup3\n        /* \"#utility.yul\":3566:3659   */\n      tag_79\n      jump\t// in\n    tag_118:\n        /* \"#utility.yul\":3684:3686   */\n      0x20\n        /* \"#utility.yul\":3679:3682   */\n      dup3\n        /* \"#utility.yul\":3675:3687   */\n      add\n        /* \"#utility.yul\":3668:3687   */\n      swap1\n      pop\n        /* \"#utility.yul\":3327:3693   */\n      swap2\n      swap1\n      pop\n      jump\t// out\n        /* \"#utility.yul\":3699:4118   */\n    tag_40:\n        /* \"#utility.yul\":3865:3869   */\n      0x00\n        /* \"#utility.yul\":3903:3905   */\n      0x20\n        /* \"#utility.yul\":3892:3901   */\n      dup3\n        /* \"#utility.yul\":3888:3906   */\n      add\n        /* \"#utility.yul\":3880:3906   */\n      swap1\n      pop\n        /* \"#utility.yul\":3952:3961   */\n      dup2\n        /* \"#utility.yul\":3946:3950   */\n      dup2\n        /* \"#utility.yul\":3942:3962   */\n      sub\n        /* \"#utility.yul\":3938:3939   */\n      0x00\n        /* \"#utility.yul\":3927:3936   */\n      dup4\n        /* \"#utility.yul\":3923:3940   */\n      add\n        /* \"#utility.yul\":3916:3963   */\n      mstore\n        /* \"#utility.yul\":3980:4111   */\n      tag_120\n        /* \"#utility.yul\":4106:4110   */\n      dup2\n        /* \"#utility.yul\":3980:4111   */\n      tag_80\n      jump\t// in\n    tag_120:\n        /* \"#utility.yul\":3972:4111   */\n      swap1\n      pop\n        /* \"#utility.yul\":3699:4118   */\n      swap2\n      swap1\n      pop\n      jump\t// out\n        /* \"#utility.yul\":4124:4290   */\n    tag_81:\n        /* \"#utility.yul\":4264:4282   */\n      0x74616b65417761792050726f6365737300000000000000000000000000000000\n        /* \"#utility.yul\":4260:4261   */\n      0x00\n        /* \"#utility.yul\":4252:4258   */\n      dup3\n        /* \"#utility.yul\":4248:4262   */\n      add\n        /* \"#utility.yul\":4241:4283   */\n      mstore\n        /* \"#utility.yul\":4124:4290   */\n      pop\n      jump\t// out\n        /* \"#utility.yul\":4296:4662   */\n    tag_82:\n        /* \"#utility.yul\":4438:4441   */\n      0x00\n        /* \"#utility.yul\":4459:4526   */\n      tag_123\n        /* \"#utility.yul\":4523:4525   */\n      0x10\n        /* \"#utility.yul\":4518:4521   */\n      dup4\n        /* \"#utility.yul\":4459:4526   */\n      tag_74\n      jump\t// in\n    tag_123:\n        /* \"#utility.yul\":4452:4526   */\n      swap2\n      pop\n        /* \"#utility.yul\":4535:4628   */\n      tag_124\n        /* \"#utility.yul\":4624:4627   */\n      dup3\n        /* \"#utility.yul\":4535:4628   */\n      tag_81\n      jump\t// in\n    tag_124:\n        /* \"#utility.yul\":4653:4655   */\n      0x20\n        /* \"#utility.yul\":4648:4651   */\n      dup3\n        /* \"#utility.yul\":4644:4656   */\n      add\n        /* \"#utility.yul\":4637:4656   */\n      swap1\n      pop\n        /* \"#utility.yul\":4296:4662   */\n      swap2\n      swap1\n      pop\n      jump\t// out\n        /* \"#utility.yul\":4668:5087   */\n    tag_44:\n        /* \"#utility.yul\":4834:4838   */\n      0x00\n        /* \"#utility.yul\":4872:4874   */\n      0x20\n        /* \"#utility.yul\":4861:4870   */\n      dup3\n        /* \"#utility.yul\":4857:4875   */\n      add\n        /* \"#utility.yul\":4849:4875   */\n      swap1\n      pop\n        /* \"#utility.yul\":4921:4930   */\n      dup2\n        /* \"#utility.yul\":4915:4919   */\n      dup2\n        /* \"#utility.yul\":4911:4931   */\n      sub\n        /* \"#utility.yul\":4907:4908   */\n      0x00\n        /* \"#utility.yul\":4896:4905   */\n      dup4\n        /* \"#utility.yul\":4892:4909   */\n      add\n        /* \"#utility.yul\":4885:4932   */\n      mstore\n        /* \"#utility.yul\":4949:5080   */\n      tag_126\n        /* \"#utility.yul\":5075:5079   */\n      dup2\n        /* \"#utility.yul\":4949:5080   */\n      tag_82\n      jump\t// in\n    tag_126:\n        /* \"#utility.yul\":4941:5080   */\n      swap1\n      pop\n        /* \"#utility.yul\":4668:5087   */\n      swap2\n      swap1\n      pop\n      jump\t// out\n        /* \"#utility.yul\":5093:5273   */\n    tag_83:\n        /* \"#utility.yul\":5233:5265   */\n      0x4974206d757374206265207468652064656c6976657279207374617475730000\n        /* \"#utility.yul\":5229:5230   */\n      0x00\n        /* \"#utility.yul\":5221:5227   */\n      dup3\n        /* \"#utility.yul\":5217:5231   */\n      add\n        /* \"#utility.yul\":5210:5266   */\n      mstore\n        /* \"#utility.yul\":5093:5273   */\n      pop\n      jump\t// out\n        /* \"#utility.yul\":5279:5645   */\n    tag_84:\n        /* \"#utility.yul\":5421:5424   */\n      0x00\n        /* \"#utility.yul\":5442:5509   */\n      tag_129\n        /* \"#utility.yul\":5506:5508   */\n      0x1e\n        /* \"#utility.yul\":5501:5504   */\n      dup4\n        /* \"#utility.yul\":5442:5509   */\n      tag_74\n      jump\t// in\n    tag_129:\n        /* \"#utility.yul\":5435:5509   */\n      swap2\n      pop\n        /* \"#utility.yul\":5518:5611   */\n      tag_130\n        /* \"#utility.yul\":5607:5610   */\n      dup3\n        /* \"#utility.yul\":5518:5611   */\n      tag_83\n      jump\t// in\n    tag_130:\n        /* \"#utility.yul\":5636:5638   */\n      0x20\n        /* \"#utility.yul\":5631:5634   */\n      dup3\n        /* \"#utility.yul\":5627:5639   */\n      add\n        /* \"#utility.yul\":5620:5639   */\n      swap1\n      pop\n        /* \"#utility.yul\":5279:5645   */\n      swap2\n      swap1\n      pop\n      jump\t// out\n        /* \"#utility.yul\":5651:6070   */\n    tag_54:\n        /* \"#utility.yul\":5817:5821   */\n      0x00\n        /* \"#utility.yul\":5855:5857   */\n      0x20\n        /* \"#utility.yul\":5844:5853   */\n      dup3\n        /* \"#utility.yul\":5840:5858   */\n      add\n        /* \"#utility.yul\":5832:5858   */\n      swap1\n      pop\n        /* \"#utility.yul\":5904:5913   */\n      dup2\n        /* \"#utility.yul\":5898:5902   */\n      dup2\n        /* \"#utility.yul\":5894:5914   */\n      sub\n        /* \"#utility.yul\":5890:5891   */\n      0x00\n        /* \"#utility.yul\":5879:5888   */\n      dup4\n        /* \"#utility.yul\":5875:5892   */\n      add\n        /* \"#utility.yul\":5868:5915   */\n      mstore\n        /* \"#utility.yul\":5932:6063   */\n      tag_132\n        /* \"#utility.yul\":6058:6062   */\n      dup2\n        /* \"#utility.yul\":5932:6063   */\n      tag_84\n      jump\t// in\n    tag_132:\n        /* \"#utility.yul\":5924:6063   */\n      swap1\n      pop\n        /* \"#utility.yul\":5651:6070   */\n      swap2\n      swap1\n      pop\n      jump\t// out\n        /* \"#utility.yul\":6076:6256   */\n    tag_85:\n        /* \"#utility.yul\":6216:6248   */\n      0x4974206d757374206265207468652074616b6561776179207374617475730000\n        /* \"#utility.yul\":6212:6213   */\n      0x00\n        /* \"#utility.yul\":6204:6210   */\n      dup3\n        /* \"#utility.yul\":6200:6214   */\n      add\n        /* \"#utility.yul\":6193:6249   */\n      mstore\n        /* \"#utility.yul\":6076:6256   */\n      pop\n      jump\t// out\n        /* \"#utility.yul\":6262:6628   */\n    tag_86:\n        /* \"#utility.yul\":6404:6407   */\n      0x00\n        /* \"#utility.yul\":6425:6492   */\n      tag_135\n        /* \"#utility.yul\":6489:6491   */\n      0x1e\n        /* \"#utility.yul\":6484:6487   */\n      dup4\n        /* \"#utility.yul\":6425:6492   */\n      tag_74\n      jump\t// in\n    tag_135:\n        /* \"#utility.yul\":6418:6492   */\n      swap2\n      pop\n        /* \"#utility.yul\":6501:6594   */\n      tag_136\n        /* \"#utility.yul\":6590:6593   */\n      dup3\n        /* \"#utility.yul\":6501:6594   */\n      tag_85\n      jump\t// in\n    tag_136:\n        /* \"#utility.yul\":6619:6621   */\n      0x20\n        /* \"#utility.yul\":6614:6617   */\n      dup3\n        /* \"#utility.yul\":6610:6622   */\n      add\n        /* \"#utility.yul\":6603:6622   */\n      swap1\n      pop\n        /* \"#utility.yul\":6262:6628   */\n      swap2\n      swap1\n      pop\n      jump\t// out\n        /* \"#utility.yul\":6634:7053   */\n    tag_65:\n        /* \"#utility.yul\":6800:6804   */\n      0x00\n        /* \"#utility.yul\":6838:6840   */\n      0x20\n        /* \"#utility.yul\":6827:6836   */\n      dup3\n        /* \"#utility.yul\":6823:6841   */\n      add\n        /* \"#utility.yul\":6815:6841   */\n      swap1\n      pop\n        /* \"#utility.yul\":6887:6896   */\n      dup2\n        /* \"#utility.yul\":6881:6885   */\n      dup2\n        /* \"#utility.yul\":6877:6897   */\n      sub\n        /* \"#utility.yul\":6873:6874   */\n      0x00\n        /* \"#utility.yul\":6862:6871   */\n      dup4\n        /* \"#utility.yul\":6858:6875   */\n      add\n        /* \"#utility.yul\":6851:6898   */\n      mstore\n        /* \"#utility.yul\":6915:7046   */\n      tag_138\n        /* \"#utility.yul\":7041:7045   */\n      dup2\n        /* \"#utility.yul\":6915:7046   */\n      tag_86\n      jump\t// in\n    tag_138:\n        /* \"#utility.yul\":6907:7046   */\n      swap1\n      pop\n        /* \"#utility.yul\":6634:7053   */\n      swap2\n      swap1\n      pop\n      jump\t// out\n        /* \"#utility.yul\":7059:7225   */\n    tag_87:\n        /* \"#utility.yul\":7199:7217   */\n      0x64656c69766572792050726f6365737300000000000000000000000000000000\n        /* \"#utility.yul\":7195:7196   */\n      0x00\n        /* \"#utility.yul\":7187:7193   */\n      dup3\n        /* \"#utility.yul\":7183:7197   */\n      add\n        /* \"#utility.yul\":7176:7218   */\n      mstore\n        /* \"#utility.yul\":7059:7225   */\n      pop\n      jump\t// out\n        /* \"#utility.yul\":7231:7597   */\n    tag_88:\n        /* \"#utility.yul\":7373:7376   */\n      0x00\n        /* \"#utility.yul\":7394:7461   */\n      tag_141\n        /* \"#utility.yul\":7458:7460   */\n      0x10\n        /* \"#utility.yul\":7453:7456   */\n      dup4\n        /* \"#utility.yul\":7394:7461   */\n      tag_74\n      jump\t// in\n    tag_141:\n        /* \"#utility.yul\":7387:7461   */\n      swap2\n      pop\n        /* \"#utility.yul\":7470:7563   */\n      tag_142\n        /* \"#utility.yul\":7559:7562   */\n      dup3\n        /* \"#utility.yul\":7470:7563   */\n      tag_87\n      jump\t// in\n    tag_142:\n        /* \"#utility.yul\":7588:7590   */\n      0x20\n        /* \"#utility.yul\":7583:7586   */\n      dup3\n        /* \"#utility.yul\":7579:7591   */\n      add\n        /* \"#utility.yul\":7572:7591   */\n      swap1\n      pop\n        /* \"#utility.yul\":7231:7597   */\n      swap2\n      swap1\n      pop\n      jump\t// out\n        /* \"#utility.yul\":7603:8022   */\n    tag_69:\n        /* \"#utility.yul\":7769:7773   */\n      0x00\n        /* \"#utility.yul\":7807:7809   */\n      0x20\n        /* \"#utility.yul\":7796:7805   */\n      dup3\n        /* \"#utility.yul\":7792:7810   */\n      add\n        /* \"#utility.yul\":7784:7810   */\n      swap1\n      pop\n        /* \"#utility.yul\":7856:7865   */\n      dup2\n        /* \"#utility.yul\":7850:7854   */\n      dup2\n        /* \"#utility.yul\":7846:7866   */\n      sub\n        /* \"#utility.yul\":7842:7843   */\n      0x00\n        /* \"#utility.yul\":7831:7840   */\n      dup4\n        /* \"#utility.yul\":7827:7844   */\n      add\n        /* \"#utility.yul\":7820:7867   */\n      mstore\n        /* \"#utility.yul\":7884:8015   */\n      tag_144\n        /* \"#utility.yul\":8010:8014   */\n      dup2\n        /* \"#utility.yul\":7884:8015   */\n      tag_88\n      jump\t// in\n    tag_144:\n        /* \"#utility.yul\":7876:8015   */\n      swap1\n      pop\n        /* \"#utility.yul\":7603:8022   */\n      swap2\n      swap1\n      pop\n      jump\t// out\n\n    auxdata: 0xa2646970667358221220f4781616b562b6489195773de7f59c7ff368244f85cca2b39f9faa0adf8d827764736f6c63430008120033\n}\n",
				"bytecode": {
					"linkReferences": {},
					"object": "608060405234801561001057600080fd5b5060036000806101000a81548160ff0219169083600381111561003657610035610040565b5b021790555061006f565b7f4e487b7100000000000000000000000000000000000000000000000000000000600052602160045260246000fd5b6107e58061007e6000396000f3fe608060405234801561001057600080fd5b50600436106100575760003560e01c8063429268ae1461005c57806394d15a9e14610066578063c62efc2b14610070578063d3e9ff831461007a578063d9c966fd14610084575b600080fd5b6100646100a2565b005b61006e610176565b005b61007861024b565b005b610082610332565b005b61008c610407565b604051610099919061048f565b60405180910390f35b6003808111156100b5576100b4610418565b5b60008054906101000a900460ff1660038111156100d5576100d4610418565b5b14610115576040517f08c379a000000000000000000000000000000000000000000000000000000000815260040161010c90610507565b60405180910390fd5b60008060006101000a81548160ff0219169083600381111561013a57610139610418565b5b02179055507fff8fea957fb7cb582ef297c1c74436fe7a9914efbc52adf197600dc9d171efbc60405161016c90610573565b60405180910390a1565b6000600381111561018a57610189610418565b5b60008054906101000a900460ff1660038111156101aa576101a9610418565b5b146101ea576040517f08c379a00000000000000000000000000000000000000000000000000000000081526004016101e1906105df565b60405180910390fd5b60016000806101000a81548160ff0219169083600381111561020f5761020e610418565b5b02179055507fff8fea957fb7cb582ef297c1c74436fe7a9914efbc52adf197600dc9d171efbc6040516102419061064b565b60405180910390a1565b6002600381111561025f5761025e610418565b5b600381111561027157610270610418565b5b60008054906101000a900460ff16600381111561029157610290610418565b5b146102d1576040517f08c379a00000000000000000000000000000000000000000000000000000000081526004016102c8906106b7565b60405180910390fd5b60036000806101000a81548160ff021916908360038111156102f6576102f5610418565b5b02179055507fff8fea957fb7cb582ef297c1c74436fe7a9914efbc52adf197600dc9d171efbc60405161032890610573565b60405180910390a1565b6001600381111561034657610345610418565b5b60008054906101000a900460ff16600381111561036657610365610418565b5b146103a6576040517f08c379a000000000000000000000000000000000000000000000000000000000815260040161039d90610723565b60405180910390fd5b60026000806101000a81548160ff021916908360038111156103cb576103ca610418565b5b02179055507fff8fea957fb7cb582ef297c1c74436fe7a9914efbc52adf197600dc9d171efbc6040516103fd9061078f565b60405180910390a1565b60008054906101000a900460ff1681565b7f4e487b7100000000000000000000000000000000000000000000000000000000600052602160045260246000fd5b6004811061045857610457610418565b5b50565b600081905061046982610447565b919050565b60006104798261045b565b9050919050565b6104898161046e565b82525050565b60006020820190506104a46000830184610480565b92915050565b600082825260208201905092915050565b7f4974206d75737420626520746865207061796d656e7420737461747573000000600082015250565b60006104f1601d836104aa565b91506104fc826104bb565b602082019050919050565b60006020820190508181036000830152610520816104e4565b9050919050565b7f4f726465722050726f6365737300000000000000000000000000000000000000600082015250565b600061055d600d836104aa565b915061056882610527565b602082019050919050565b6000602082019050818103600083015261058c81610550565b9050919050565b7f4974206d75737420626520746865206f72646572207374617475730000000000600082015250565b60006105c9601b836104aa565b91506105d482610593565b602082019050919050565b600060208201905081810360008301526105f8816105bc565b9050919050565b7f74616b65417761792050726f6365737300000000000000000000000000000000600082015250565b60006106356010836104aa565b9150610640826105ff565b602082019050919050565b6000602082019050818103600083015261066481610628565b9050919050565b7f4974206d757374206265207468652064656c6976657279207374617475730000600082015250565b60006106a1601e836104aa565b91506106ac8261066b565b602082019050919050565b600060208201905081810360008301526106d081610694565b9050919050565b7f4974206d757374206265207468652074616b6561776179207374617475730000600082015250565b600061070d601e836104aa565b9150610718826106d7565b602082019050919050565b6000602082019050818103600083015261073c81610700565b9050919050565b7f64656c69766572792050726f6365737300000000000000000000000000000000600082015250565b60006107796010836104aa565b915061078482610743565b602082019050919050565b600060208201905081810360008301526107a88161076c565b905091905056fea2646970667358221220f4781616b562b6489195773de7f59c7ff368244f85cca2b39f9faa0adf8d827764736f6c63430008120033",
					"opcodes": "PUSH1 0x80 PUSH1 0x40 MSTORE CALLVALUE DUP1 ISZERO PUSH2 0x10 JUMPI PUSH1 0x0 DUP1 REVERT JUMPDEST POP PUSH1 0x3 PUSH1 0x0 DUP1 PUSH2 0x100 EXP DUP2 SLOAD DUP2 PUSH1 0xFF MUL NOT AND SWAP1 DUP4 PUSH1 0x3 DUP2 GT ISZERO PUSH2 0x36 JUMPI PUSH2 0x35 PUSH2 0x40 JUMP JUMPDEST JUMPDEST MUL OR SWAP1 SSTORE POP PUSH2 0x6F JUMP JUMPDEST PUSH32 0x4E487B7100000000000000000000000000000000000000000000000000000000 PUSH1 0x0 MSTORE PUSH1 0x21 PUSH1 0x4 MSTORE PUSH1 0x24 PUSH1 0x0 REVERT JUMPDEST PUSH2 0x7E5 DUP1 PUSH2 0x7E PUSH1 0x0 CODECOPY PUSH1 0x0 RETURN INVALID PUSH1 0x80 PUSH1 0x40 MSTORE CALLVALUE DUP1 ISZERO PUSH2 0x10 JUMPI PUSH1 0x0 DUP1 REVERT JUMPDEST POP PUSH1 0x4 CALLDATASIZE LT PUSH2 0x57 JUMPI PUSH1 0x0 CALLDATALOAD PUSH1 0xE0 SHR DUP1 PUSH4 0x429268AE EQ PUSH2 0x5C JUMPI DUP1 PUSH4 0x94D15A9E EQ PUSH2 0x66 JUMPI DUP1 PUSH4 0xC62EFC2B EQ PUSH2 0x70 JUMPI DUP1 PUSH4 0xD3E9FF83 EQ PUSH2 0x7A JUMPI DUP1 PUSH4 0xD9C966FD EQ PUSH2 0x84 JUMPI JUMPDEST PUSH1 0x0 DUP1 REVERT JUMPDEST PUSH2 0x64 PUSH2 0xA2 JUMP JUMPDEST STOP JUMPDEST PUSH2 0x6E PUSH2 0x176 JUMP JUMPDEST STOP JUMPDEST PUSH2 0x78 PUSH2 0x24B JUMP JUMPDEST STOP JUMPDEST PUSH2 0x82 PUSH2 0x332 JUMP JUMPDEST STOP JUMPDEST PUSH2 0x8C PUSH2 0x407 JUMP JUMPDEST PUSH1 0x40 MLOAD PUSH2 0x99 SWAP2 SWAP1 PUSH2 0x48F JUMP JUMPDEST PUSH1 0x40 MLOAD DUP1 SWAP2 SUB SWAP1 RETURN JUMPDEST PUSH1 0x3 DUP1 DUP2 GT ISZERO PUSH2 0xB5 JUMPI PUSH2 0xB4 PUSH2 0x418 JUMP JUMPDEST JUMPDEST PUSH1 0x0 DUP1 SLOAD SWAP1 PUSH2 0x100 EXP SWAP1 DIV PUSH1 0xFF AND PUSH1 0x3 DUP2 GT ISZERO PUSH2 0xD5 JUMPI PUSH2 0xD4 PUSH2 0x418 JUMP JUMPDEST JUMPDEST EQ PUSH2 0x115 JUMPI PUSH1 0x40 MLOAD PUSH32 0x8C379A000000000000000000000000000000000000000000000000000000000 DUP2 MSTORE PUSH1 0x4 ADD PUSH2 0x10C SWAP1 PUSH2 0x507 JUMP JUMPDEST PUSH1 0x40 MLOAD DUP1 SWAP2 SUB SWAP1 REVERT JUMPDEST PUSH1 0x0 DUP1 PUSH1 0x0 PUSH2 0x100 EXP DUP2 SLOAD DUP2 PUSH1 0xFF MUL NOT AND SWAP1 DUP4 PUSH1 0x3 DUP2 GT ISZERO PUSH2 0x13A JUMPI PUSH2 0x139 PUSH2 0x418 JUMP JUMPDEST JUMPDEST MUL OR SWAP1 SSTORE POP PUSH32 0xFF8FEA957FB7CB582EF297C1C74436FE7A9914EFBC52ADF197600DC9D171EFBC PUSH1 0x40 MLOAD PUSH2 0x16C SWAP1 PUSH2 0x573 JUMP JUMPDEST PUSH1 0x40 MLOAD DUP1 SWAP2 SUB SWAP1 LOG1 JUMP JUMPDEST PUSH1 0x0 PUSH1 0x3 DUP2 GT ISZERO PUSH2 0x18A JUMPI PUSH2 0x189 PUSH2 0x418 JUMP JUMPDEST JUMPDEST PUSH1 0x0 DUP1 SLOAD SWAP1 PUSH2 0x100 EXP SWAP1 DIV PUSH1 0xFF AND PUSH1 0x3 DUP2 GT ISZERO PUSH2 0x1AA JUMPI PUSH2 0x1A9 PUSH2 0x418 JUMP JUMPDEST JUMPDEST EQ PUSH2 0x1EA JUMPI PUSH1 0x40 MLOAD PUSH32 0x8C379A000000000000000000000000000000000000000000000000000000000 DUP2 MSTORE PUSH1 0x4 ADD PUSH2 0x1E1 SWAP1 PUSH2 0x5DF JUMP JUMPDEST PUSH1 0x40 MLOAD DUP1 SWAP2 SUB SWAP1 REVERT JUMPDEST PUSH1 0x1 PUSH1 0x0 DUP1 PUSH2 0x100 EXP DUP2 SLOAD DUP2 PUSH1 0xFF MUL NOT AND SWAP1 DUP4 PUSH1 0x3 DUP2 GT ISZERO PUSH2 0x20F JUMPI PUSH2 0x20E PUSH2 0x418 JUMP JUMPDEST JUMPDEST MUL OR SWAP1 SSTORE POP PUSH32 0xFF8FEA957FB7CB582EF297C1C74436FE7A9914EFBC52ADF197600DC9D171EFBC PUSH1 0x40 MLOAD PUSH2 0x241 SWAP1 PUSH2 0x64B JUMP JUMPDEST PUSH1 0x40 MLOAD DUP1 SWAP2 SUB SWAP1 LOG1 JUMP JUMPDEST PUSH1 0x2 PUSH1 0x3 DUP2 GT ISZERO PUSH2 0x25F JUMPI PUSH2 0x25E PUSH2 0x418 JUMP JUMPDEST JUMPDEST PUSH1 0x3 DUP2 GT ISZERO PUSH2 0x271 JUMPI PUSH2 0x270 PUSH2 0x418 JUMP JUMPDEST JUMPDEST PUSH1 0x0 DUP1 SLOAD SWAP1 PUSH2 0x100 EXP SWAP1 DIV PUSH1 0xFF AND PUSH1 0x3 DUP2 GT ISZERO PUSH2 0x291 JUMPI PUSH2 0x290 PUSH2 0x418 JUMP JUMPDEST JUMPDEST EQ PUSH2 0x2D1 JUMPI PUSH1 0x40 MLOAD PUSH32 0x8C379A000000000000000000000000000000000000000000000000000000000 DUP2 MSTORE PUSH1 0x4 ADD PUSH2 0x2C8 SWAP1 PUSH2 0x6B7 JUMP JUMPDEST PUSH1 0x40 MLOAD DUP1 SWAP2 SUB SWAP1 REVERT JUMPDEST PUSH1 0x3 PUSH1 0x0 DUP1 PUSH2 0x100 EXP DUP2 SLOAD DUP2 PUSH1 0xFF MUL NOT AND SWAP1 DUP4 PUSH1 0x3 DUP2 GT ISZERO PUSH2 0x2F6 JUMPI PUSH2 0x2F5 PUSH2 0x418 JUMP JUMPDEST JUMPDEST MUL OR SWAP1 SSTORE POP PUSH32 0xFF8FEA957FB7CB582EF297C1C74436FE7A9914EFBC52ADF197600DC9D171EFBC PUSH1 0x40 MLOAD PUSH2 0x328 SWAP1 PUSH2 0x573 JUMP JUMPDEST PUSH1 0x40 MLOAD DUP1 SWAP2 SUB SWAP1 LOG1 JUMP JUMPDEST PUSH1 0x1 PUSH1 0x3 DUP2 GT ISZERO PUSH2 0x346 JUMPI PUSH2 0x345 PUSH2 0x418 JUMP JUMPDEST JUMPDEST PUSH1 0x0 DUP1 SLOAD SWAP1 PUSH2 0x100 EXP SWAP1 DIV PUSH1 0xFF AND PUSH1 0x3 DUP2 GT ISZERO PUSH2 0x366 JUMPI PUSH2 0x365 PUSH2 0x418 JUMP JUMPDEST JUMPDEST EQ PUSH2 0x3A6 JUMPI PUSH1 0x40 MLOAD PUSH32 0x8C379A000000000000000000000000000000000000000000000000000000000 DUP2 MSTORE PUSH1 0x4 ADD PUSH2 0x39D SWAP1 PUSH2 0x723 JUMP JUMPDEST PUSH1 0x40 MLOAD DUP1 SWAP2 SUB SWAP1 REVERT JUMPDEST PUSH1 0x2 PUSH1 0x0 DUP1 PUSH2 0x100 EXP DUP2 SLOAD DUP2 PUSH1 0xFF MUL NOT AND SWAP1 DUP4 PUSH1 0x3 DUP2 GT ISZERO PUSH2 0x3CB JUMPI PUSH2 0x3CA PUSH2 0x418 JUMP JUMPDEST JUMPDEST MUL OR SWAP1 SSTORE POP PUSH32 0xFF8FEA957FB7CB582EF297C1C74436FE7A9914EFBC52ADF197600DC9D171EFBC PUSH1 0x40 MLOAD PUSH2 0x3FD SWAP1 PUSH2 0x78F JUMP JUMPDEST PUSH1 0x40 MLOAD DUP1 SWAP2 SUB SWAP1 LOG1 JUMP JUMPDEST PUSH1 0x0 DUP1 SLOAD SWAP1 PUSH2 0x100 EXP SWAP1 DIV PUSH1 0xFF AND DUP2 JUMP JUMPDEST PUSH32 0x4E487B7100000000000000000000000000000000000000000000000000000000 PUSH1 0x0 MSTORE PUSH1 0x21 PUSH1 0x4 MSTORE PUSH1 0x24 PUSH1 0x0 REVERT JUMPDEST PUSH1 0x4 DUP2 LT PUSH2 0x458 JUMPI PUSH2 0x457 PUSH2 0x418 JUMP JUMPDEST JUMPDEST POP JUMP JUMPDEST PUSH1 0x0 DUP2 SWAP1 POP PUSH2 0x469 DUP3 PUSH2 0x447 JUMP JUMPDEST SWAP2 SWAP1 POP JUMP JUMPDEST PUSH1 0x0 PUSH2 0x479 DUP3 PUSH2 0x45B JUMP JUMPDEST SWAP1 POP SWAP2 SWAP1 POP JUMP JUMPDEST PUSH2 0x489 DUP2 PUSH2 0x46E JUMP JUMPDEST DUP3 MSTORE POP POP JUMP JUMPDEST PUSH1 0x0 PUSH1 0x20 DUP3 ADD SWAP1 POP PUSH2 0x4A4 PUSH1 0x0 DUP4 ADD DUP5 PUSH2 0x480 JUMP JUMPDEST SWAP3 SWAP2 POP POP JUMP JUMPDEST PUSH1 0x0 DUP3 DUP3 MSTORE PUSH1 0x20 DUP3 ADD SWAP1 POP SWAP3 SWAP2 POP POP JUMP JUMPDEST PUSH32 0x4974206D75737420626520746865207061796D656E7420737461747573000000 PUSH1 0x0 DUP3 ADD MSTORE POP JUMP JUMPDEST PUSH1 0x0 PUSH2 0x4F1 PUSH1 0x1D DUP4 PUSH2 0x4AA JUMP JUMPDEST SWAP2 POP PUSH2 0x4FC DUP3 PUSH2 0x4BB JUMP JUMPDEST PUSH1 0x20 DUP3 ADD SWAP1 POP SWAP2 SWAP1 POP JUMP JUMPDEST PUSH1 0x0 PUSH1 0x20 DUP3 ADD SWAP1 POP DUP2 DUP2 SUB PUSH1 0x0 DUP4 ADD MSTORE PUSH2 0x520 DUP2 PUSH2 0x4E4 JUMP JUMPDEST SWAP1 POP SWAP2 SWAP1 POP JUMP JUMPDEST PUSH32 0x4F726465722050726F6365737300000000000000000000000000000000000000 PUSH1 0x0 DUP3 ADD MSTORE POP JUMP JUMPDEST PUSH1 0x0 PUSH2 0x55D PUSH1 0xD DUP4 PUSH2 0x4AA JUMP JUMPDEST SWAP2 POP PUSH2 0x568 DUP3 PUSH2 0x527 JUMP JUMPDEST PUSH1 0x20 DUP3 ADD SWAP1 POP SWAP2 SWAP1 POP JUMP JUMPDEST PUSH1 0x0 PUSH1 0x20 DUP3 ADD SWAP1 POP DUP2 DUP2 SUB PUSH1 0x0 DUP4 ADD MSTORE PUSH2 0x58C DUP2 PUSH2 0x550 JUMP JUMPDEST SWAP1 POP SWAP2 SWAP1 POP JUMP JUMPDEST PUSH32 0x4974206D75737420626520746865206F72646572207374617475730000000000 PUSH1 0x0 DUP3 ADD MSTORE POP JUMP JUMPDEST PUSH1 0x0 PUSH2 0x5C9 PUSH1 0x1B DUP4 PUSH2 0x4AA JUMP JUMPDEST SWAP2 POP PUSH2 0x5D4 DUP3 PUSH2 0x593 JUMP JUMPDEST PUSH1 0x20 DUP3 ADD SWAP1 POP SWAP2 SWAP1 POP JUMP JUMPDEST PUSH1 0x0 PUSH1 0x20 DUP3 ADD SWAP1 POP DUP2 DUP2 SUB PUSH1 0x0 DUP4 ADD MSTORE PUSH2 0x5F8 DUP2 PUSH2 0x5BC JUMP JUMPDEST SWAP1 POP SWAP2 SWAP1 POP JUMP JUMPDEST PUSH32 0x74616B65417761792050726F6365737300000000000000000000000000000000 PUSH1 0x0 DUP3 ADD MSTORE POP JUMP JUMPDEST PUSH1 0x0 PUSH2 0x635 PUSH1 0x10 DUP4 PUSH2 0x4AA JUMP JUMPDEST SWAP2 POP PUSH2 0x640 DUP3 PUSH2 0x5FF JUMP JUMPDEST PUSH1 0x20 DUP3 ADD SWAP1 POP SWAP2 SWAP1 POP JUMP JUMPDEST PUSH1 0x0 PUSH1 0x20 DUP3 ADD SWAP1 POP DUP2 DUP2 SUB PUSH1 0x0 DUP4 ADD MSTORE PUSH2 0x664 DUP2 PUSH2 0x628 JUMP JUMPDEST SWAP1 POP SWAP2 SWAP1 POP JUMP JUMPDEST PUSH32 0x4974206D757374206265207468652064656C6976657279207374617475730000 PUSH1 0x0 DUP3 ADD MSTORE POP JUMP JUMPDEST PUSH1 0x0 PUSH2 0x6A1 PUSH1 0x1E DUP4 PUSH2 0x4AA JUMP JUMPDEST SWAP2 POP PUSH2 0x6AC DUP3 PUSH2 0x66B JUMP JUMPDEST PUSH1 0x20 DUP3 ADD SWAP1 POP SWAP2 SWAP1 POP JUMP JUMPDEST PUSH1 0x0 PUSH1 0x20 DUP3 ADD SWAP1 POP DUP2 DUP2 SUB PUSH1 0x0 DUP4 ADD MSTORE PUSH2 0x6D0 DUP2 PUSH2 0x694 JUMP JUMPDEST SWAP1 POP SWAP2 SWAP1 POP JUMP JUMPDEST PUSH32 0x4974206D757374206265207468652074616B6561776179207374617475730000 PUSH1 0x0 DUP3 ADD MSTORE POP JUMP JUMPDEST PUSH1 0x0 PUSH2 0x70D PUSH1 0x1E DUP4 PUSH2 0x4AA JUMP JUMPDEST SWAP2 POP PUSH2 0x718 DUP3 PUSH2 0x6D7 JUMP JUMPDEST PUSH1 0x20 DUP3 ADD SWAP1 POP SWAP2 SWAP1 POP JUMP JUMPDEST PUSH1 0x0 PUSH1 0x20 DUP3 ADD SWAP1 POP DUP2 DUP2 SUB PUSH1 0x0 DUP4 ADD MSTORE PUSH2 0x73C DUP2 PUSH2 0x700 JUMP JUMPDEST SWAP1 POP SWAP2 SWAP1 POP JUMP JUMPDEST PUSH32 0x64656C69766572792050726F6365737300000000000000000000000000000000 PUSH1 0x0 DUP3 ADD MSTORE POP JUMP JUMPDEST PUSH1 0x0 PUSH2 0x779 PUSH1 0x10 DUP4 PUSH2 0x4AA JUMP JUMPDEST SWAP2 POP PUSH2 0x784 DUP3 PUSH2 0x743 JUMP JUMPDEST PUSH1 0x20 DUP3 ADD SWAP1 POP SWAP2 SWAP1 POP JUMP JUMPDEST PUSH1 0x0 PUSH1 0x20 DUP3 ADD SWAP1 POP DUP2 DUP2 SUB PUSH1 0x0 DUP4 ADD MSTORE PUSH2 0x7A8 DUP2 PUSH2 0x76C JUMP JUMPDEST SWAP1 POP SWAP2 SWAP1 POP JUMP INVALID LOG2 PUSH5 0x6970667358 0x22 SLT KECCAK256 DELEGATECALL PUSH25 0x1616B562B6489195773DE7F59C7FF368244F85CCA2B39F9FAA EXP 0xDF DUP14 DUP3 PUSH24 0x64736F6C6343000812003300000000000000000000000000 "
				},
				"gasEstimates": {
					"creation": {
						"codeDepositCost": "404200",
						"executionCost": "24742",
						"totalCost": "428942"
					},
					"external": {
						"deliveryFood()": "28485",
						"foodStatus()": "2623",
						"orderFood()": "28419",
						"paymentFood()": "28489",
						"takeAwayFood()": "28441"
					}
				},
				"methodIdentifiers": {
					"deliveryFood()": "d3e9ff83",
					"foodStatus()": "d9c966fd",
					"orderFood()": "429268ae",
					"paymentFood()": "c62efc2b",
					"takeAwayFood()": "94d15a9e"
				}
			},
			"storageLayout": {
				"storage": [
					{
						"astId": 13,
						"contract": "chapter8/enum.sol:enum_ex",
						"label": "foodStatus",
						"offset": 0,
						"slot": "0",
						"type": "t_enum(FoodProcess)10"
					}
				],
				"types": {
					"t_enum(FoodProcess)10": {
						"encoding": "inplace",
						"label": "enum enum_ex.FoodProcess",
						"numberOfBytes": "1"
					}
				}
			},
			"userdoc": {
				"kind": "user",
				"methods": {},
				"version": 1
			}
		}
	}
}