{
	"chapter8/quiz3.sol": {
		"quiz3": {
			"abi": [
				{
					"inputs": [],
					"name": "lightStatus",
					"outputs": [
						{
							"internalType": "enum quiz3.Switch",
							"name": "",
							"type": "uint8"
						}
					],
					"stateMutability": "view",
					"type": "function"
				},
				{
					"inputs": [],
					"name": "turnOffTheLight",
					"outputs": [],
					"stateMutability": "nonpayable",
					"type": "function"
				},
				{
					"inputs": [],
					"name": "turnOnTheLight",
					"outputs": [],
					"stateMutability": "nonpayable",
					"type": "function"
				}
			],
			"devdoc": {
				"kind": "dev",
				"methods": {},
				"version": 1
			},
			"evm": {
				"assembly": "    /* \"chapter8/quiz3.sol\":66:471  contract quiz3 {... */\n  mstore(0x40, 0x80)\n    /* \"chapter8/quiz3.sol\":171:184  Switch.trunOn */\n  0x01\n    /* \"chapter8/quiz3.sol\":143:184  Switch public lightStatus = Switch.trunOn */\n  0x00\n  dup1\n  0x0100\n  exp\n  dup2\n  sload\n  dup2\n  0xff\n  mul\n  not\n  and\n  swap1\n  dup4\n  0x01\n  dup2\n  gt\n  iszero\n  tag_1\n  jumpi\n  invalid\ntag_1:\n  mul\n  or\n  swap1\n  sstore\n  pop\n    /* \"chapter8/quiz3.sol\":66:471  contract quiz3 {... */\n  callvalue\n  dup1\n  iszero\n  tag_2\n  jumpi\n  0x00\n  dup1\n  revert\ntag_2:\n  pop\n  dataSize(sub_0)\n  dup1\n  dataOffset(sub_0)\n  0x00\n  codecopy\n  0x00\n  return\nstop\n\nsub_0: assembly {\n        /* \"chapter8/quiz3.sol\":66:471  contract quiz3 {... */\n      mstore(0x40, 0x80)\n      callvalue\n      dup1\n      iszero\n      tag_1\n      jumpi\n      0x00\n      dup1\n      revert\n    tag_1:\n      pop\n      jumpi(tag_2, lt(calldatasize, 0x04))\n      shr(0xe0, calldataload(0x00))\n      dup1\n      0x1bb4362b\n      eq\n      tag_3\n      jumpi\n      dup1\n      0x3f11fb99\n      eq\n      tag_4\n      jumpi\n      dup1\n      0xdd6fde70\n      eq\n      tag_5\n      jumpi\n    tag_2:\n      0x00\n      dup1\n      revert\n        /* \"chapter8/quiz3.sol\":191:327  function turnOnTheLight() public {... */\n    tag_3:\n      tag_6\n      tag_7\n      jump\t// in\n    tag_6:\n      stop\n        /* \"chapter8/quiz3.sol\":332:469  function turnOffTheLight() public {... */\n    tag_4:\n      tag_8\n      tag_9\n      jump\t// in\n    tag_8:\n      stop\n        /* \"chapter8/quiz3.sol\":143:184  Switch public lightStatus = Switch.trunOn */\n    tag_5:\n      tag_10\n      tag_11\n      jump\t// in\n    tag_10:\n      mload(0x40)\n      dup1\n      dup3\n      0x01\n      dup2\n      gt\n      iszero\n      tag_12\n      jumpi\n      invalid\n    tag_12:\n      dup2\n      mstore\n      0x20\n      add\n      swap2\n      pop\n      pop\n      mload(0x40)\n      dup1\n      swap2\n      sub\n      swap1\n      return\n        /* \"chapter8/quiz3.sol\":191:327  function turnOnTheLight() public {... */\n    tag_7:\n        /* \"chapter8/quiz3.sol\":255:269  Switch.turnOff */\n      0x00\n        /* \"chapter8/quiz3.sol\":242:269  lightStatus==Switch.turnOff */\n      0x01\n      dup2\n      gt\n      iszero\n      tag_14\n      jumpi\n      invalid\n    tag_14:\n        /* \"chapter8/quiz3.sol\":242:253  lightStatus */\n      0x00\n      dup1\n      sload\n      swap1\n      0x0100\n      exp\n      swap1\n      div\n      0xff\n      and\n        /* \"chapter8/quiz3.sol\":242:269  lightStatus==Switch.turnOff */\n      0x01\n      dup2\n      gt\n      iszero\n      tag_15\n      jumpi\n      invalid\n    tag_15:\n      eq\n        /* \"chapter8/quiz3.sol\":234:283  require(lightStatus==Switch.turnOff, \"The light\") */\n      tag_16\n      jumpi\n      mload(0x40)\n      0x08c379a000000000000000000000000000000000000000000000000000000000\n      dup2\n      mstore\n      0x04\n      add\n      dup1\n      dup1\n      0x20\n      add\n      dup3\n      dup2\n      sub\n      dup3\n      mstore\n      0x09\n      dup2\n      mstore\n      0x20\n      add\n      dup1\n      0x546865206c696768740000000000000000000000000000000000000000000000\n      dup2\n      mstore\n      pop\n      0x20\n      add\n      swap2\n      pop\n      pop\n      mload(0x40)\n      dup1\n      swap2\n      sub\n      swap1\n      revert\n    tag_16:\n        /* \"chapter8/quiz3.sol\":307:320  Switch.trunOn */\n      0x01\n        /* \"chapter8/quiz3.sol\":293:304  lightStatus */\n      0x00\n      dup1\n        /* \"chapter8/quiz3.sol\":293:320  lightStatus = Switch.trunOn */\n      0x0100\n      exp\n      dup2\n      sload\n      dup2\n      0xff\n      mul\n      not\n      and\n      swap1\n      dup4\n      0x01\n      dup2\n      gt\n      iszero\n      tag_17\n      jumpi\n      invalid\n    tag_17:\n      mul\n      or\n      swap1\n      sstore\n      pop\n        /* \"chapter8/quiz3.sol\":191:327  function turnOnTheLight() public {... */\n      jump\t// out\n        /* \"chapter8/quiz3.sol\":332:469  function turnOffTheLight() public {... */\n    tag_9:\n        /* \"chapter8/quiz3.sol\":397:410  Switch.trunOn */\n      0x01\n        /* \"chapter8/quiz3.sol\":384:410  lightStatus==Switch.trunOn */\n      dup1\n      dup2\n      gt\n      iszero\n      tag_19\n      jumpi\n      invalid\n    tag_19:\n        /* \"chapter8/quiz3.sol\":384:395  lightStatus */\n      0x00\n      dup1\n      sload\n      swap1\n      0x0100\n      exp\n      swap1\n      div\n      0xff\n      and\n        /* \"chapter8/quiz3.sol\":384:410  lightStatus==Switch.trunOn */\n      0x01\n      dup2\n      gt\n      iszero\n      tag_20\n      jumpi\n      invalid\n    tag_20:\n      eq\n        /* \"chapter8/quiz3.sol\":376:424  require(lightStatus==Switch.trunOn, \"The light\") */\n      tag_21\n      jumpi\n      mload(0x40)\n      0x08c379a000000000000000000000000000000000000000000000000000000000\n      dup2\n      mstore\n      0x04\n      add\n      dup1\n      dup1\n      0x20\n      add\n      dup3\n      dup2\n      sub\n      dup3\n      mstore\n      0x09\n      dup2\n      mstore\n      0x20\n      add\n      dup1\n      0x546865206c696768740000000000000000000000000000000000000000000000\n      dup2\n      mstore\n      pop\n      0x20\n      add\n      swap2\n      pop\n      pop\n      mload(0x40)\n      dup1\n      swap2\n      sub\n      swap1\n      revert\n    tag_21:\n        /* \"chapter8/quiz3.sol\":448:462  Switch.turnOff */\n      0x00\n        /* \"chapter8/quiz3.sol\":434:445  lightStatus */\n      dup1\n      0x00\n        /* \"chapter8/quiz3.sol\":434:462  lightStatus = Switch.turnOff */\n      0x0100\n      exp\n      dup2\n      sload\n      dup2\n      0xff\n      mul\n      not\n      and\n      swap1\n      dup4\n      0x01\n      dup2\n      gt\n      iszero\n      tag_22\n      jumpi\n      invalid\n    tag_22:\n      mul\n      or\n      swap1\n      sstore\n      pop\n        /* \"chapter8/quiz3.sol\":332:469  function turnOffTheLight() public {... */\n      jump\t// out\n        /* \"chapter8/quiz3.sol\":143:184  Switch public lightStatus = Switch.trunOn */\n    tag_11:\n      0x00\n      dup1\n      sload\n      swap1\n      0x0100\n      exp\n      swap1\n      div\n      0xff\n      and\n      dup2\n      jump\t// out\n\n    auxdata: 0xa264697066735822122090d8b90edb38c6a1f95746cbd8c2ba01c04a163a062b810919c84498f0f88b2164736f6c63430007060033\n}\n",
				"bytecode": {
					"linkReferences": {},
					"object": "608060405260016000806101000a81548160ff0219169083600181111561002257fe5b021790555034801561003357600080fd5b50610245806100436000396000f3fe608060405234801561001057600080fd5b50600436106100415760003560e01c80631bb4362b146100465780633f11fb9914610050578063dd6fde701461005a575b600080fd5b61004e610083565b005b610058610141565b005b6100626101fe565b6040518082600181111561007257fe5b815260200191505060405180910390f35b6000600181111561009057fe5b60008054906101000a900460ff1660018111156100a957fe5b1461011c576040517f08c379a00000000000000000000000000000000000000000000000000000000081526004018080602001828103825260098152602001807f546865206c69676874000000000000000000000000000000000000000000000081525060200191505060405180910390fd5b60016000806101000a81548160ff0219169083600181111561013a57fe5b0217905550565b60018081111561014d57fe5b60008054906101000a900460ff16600181111561016657fe5b146101d9576040517f08c379a00000000000000000000000000000000000000000000000000000000081526004018080602001828103825260098152602001807f546865206c69676874000000000000000000000000000000000000000000000081525060200191505060405180910390fd5b60008060006101000a81548160ff021916908360018111156101f757fe5b0217905550565b60008054906101000a900460ff168156fea264697066735822122090d8b90edb38c6a1f95746cbd8c2ba01c04a163a062b810919c84498f0f88b2164736f6c63430007060033",
					"opcodes": "PUSH1 0x80 PUSH1 0x40 MSTORE PUSH1 0x1 PUSH1 0x0 DUP1 PUSH2 0x100 EXP DUP2 SLOAD DUP2 PUSH1 0xFF MUL NOT AND SWAP1 DUP4 PUSH1 0x1 DUP2 GT ISZERO PUSH2 0x22 JUMPI INVALID JUMPDEST MUL OR SWAP1 SSTORE POP CALLVALUE DUP1 ISZERO PUSH2 0x33 JUMPI PUSH1 0x0 DUP1 REVERT JUMPDEST POP PUSH2 0x245 DUP1 PUSH2 0x43 PUSH1 0x0 CODECOPY PUSH1 0x0 RETURN INVALID PUSH1 0x80 PUSH1 0x40 MSTORE CALLVALUE DUP1 ISZERO PUSH2 0x10 JUMPI PUSH1 0x0 DUP1 REVERT JUMPDEST POP PUSH1 0x4 CALLDATASIZE LT PUSH2 0x41 JUMPI PUSH1 0x0 CALLDATALOAD PUSH1 0xE0 SHR DUP1 PUSH4 0x1BB4362B EQ PUSH2 0x46 JUMPI DUP1 PUSH4 0x3F11FB99 EQ PUSH2 0x50 JUMPI DUP1 PUSH4 0xDD6FDE70 EQ PUSH2 0x5A JUMPI JUMPDEST PUSH1 0x0 DUP1 REVERT JUMPDEST PUSH2 0x4E PUSH2 0x83 JUMP JUMPDEST STOP JUMPDEST PUSH2 0x58 PUSH2 0x141 JUMP JUMPDEST STOP JUMPDEST PUSH2 0x62 PUSH2 0x1FE JUMP JUMPDEST PUSH1 0x40 MLOAD DUP1 DUP3 PUSH1 0x1 DUP2 GT ISZERO PUSH2 0x72 JUMPI INVALID JUMPDEST DUP2 MSTORE PUSH1 0x20 ADD SWAP2 POP POP PUSH1 0x40 MLOAD DUP1 SWAP2 SUB SWAP1 RETURN JUMPDEST PUSH1 0x0 PUSH1 0x1 DUP2 GT ISZERO PUSH2 0x90 JUMPI INVALID JUMPDEST PUSH1 0x0 DUP1 SLOAD SWAP1 PUSH2 0x100 EXP SWAP1 DIV PUSH1 0xFF AND PUSH1 0x1 DUP2 GT ISZERO PUSH2 0xA9 JUMPI INVALID JUMPDEST EQ PUSH2 0x11C JUMPI PUSH1 0x40 MLOAD PUSH32 0x8C379A000000000000000000000000000000000000000000000000000000000 DUP2 MSTORE PUSH1 0x4 ADD DUP1 DUP1 PUSH1 0x20 ADD DUP3 DUP2 SUB DUP3 MSTORE PUSH1 0x9 DUP2 MSTORE PUSH1 0x20 ADD DUP1 PUSH32 0x546865206C696768740000000000000000000000000000000000000000000000 DUP2 MSTORE POP PUSH1 0x20 ADD SWAP2 POP POP PUSH1 0x40 MLOAD DUP1 SWAP2 SUB SWAP1 REVERT JUMPDEST PUSH1 0x1 PUSH1 0x0 DUP1 PUSH2 0x100 EXP DUP2 SLOAD DUP2 PUSH1 0xFF MUL NOT AND SWAP1 DUP4 PUSH1 0x1 DUP2 GT ISZERO PUSH2 0x13A JUMPI INVALID JUMPDEST MUL OR SWAP1 SSTORE POP JUMP JUMPDEST PUSH1 0x1 DUP1 DUP2 GT ISZERO PUSH2 0x14D JUMPI INVALID JUMPDEST PUSH1 0x0 DUP1 SLOAD SWAP1 PUSH2 0x100 EXP SWAP1 DIV PUSH1 0xFF AND PUSH1 0x1 DUP2 GT ISZERO PUSH2 0x166 JUMPI INVALID JUMPDEST EQ PUSH2 0x1D9 JUMPI PUSH1 0x40 MLOAD PUSH32 0x8C379A000000000000000000000000000000000000000000000000000000000 DUP2 MSTORE PUSH1 0x4 ADD DUP1 DUP1 PUSH1 0x20 ADD DUP3 DUP2 SUB DUP3 MSTORE PUSH1 0x9 DUP2 MSTORE PUSH1 0x20 ADD DUP1 PUSH32 0x546865206C696768740000000000000000000000000000000000000000000000 DUP2 MSTORE POP PUSH1 0x20 ADD SWAP2 POP POP PUSH1 0x40 MLOAD DUP1 SWAP2 SUB SWAP1 REVERT JUMPDEST PUSH1 0x0 DUP1 PUSH1 0x0 PUSH2 0x100 EXP DUP2 SLOAD DUP2 PUSH1 0xFF MUL NOT AND SWAP1 DUP4 PUSH1 0x1 DUP2 GT ISZERO PUSH2 0x1F7 JUMPI INVALID JUMPDEST MUL OR SWAP1 SSTORE POP JUMP JUMPDEST PUSH1 0x0 DUP1 SLOAD SWAP1 PUSH2 0x100 EXP SWAP1 DIV PUSH1 0xFF AND DUP2 JUMP INVALID LOG2 PUSH5 0x6970667358 0x22 SLT KECCAK256 SWAP1 0xD8 0xB9 0xE 0xDB CODESIZE 0xC6 LOG1 0xF9 JUMPI CHAINID 0xCB 0xD8 0xC2 0xBA ADD 0xC0 0x4A AND GASPRICE MOD 0x2B DUP2 MULMOD NOT 0xC8 DIFFICULTY SWAP9 CREATE 0xF8 DUP12 0x21 PUSH5 0x736F6C6343 STOP SMOD MOD STOP CALLER "
				},
				"gasEstimates": {
					"creation": {
						"codeDepositCost": "116200",
						"executionCost": "21052",
						"totalCost": "137252"
					},
					"external": {
						"lightStatus()": "1086",
						"turnOffTheLight()": "21939",
						"turnOnTheLight()": "21917"
					}
				},
				"methodIdentifiers": {
					"lightStatus()": "dd6fde70",
					"turnOffTheLight()": "3f11fb99",
					"turnOnTheLight()": "1bb4362b"
				}
			},
			"storageLayout": {
				"storage": [
					{
						"astId": 8,
						"contract": "chapter8/quiz3.sol:quiz3",
						"label": "lightStatus",
						"offset": 0,
						"slot": "0",
						"type": "t_enum(Switch)4"
					}
				],
				"types": {
					"t_enum(Switch)4": {
						"encoding": "inplace",
						"label": "enum quiz3.Switch",
						"numberOfBytes": "1"
					}
				}
			},
			"userdoc": {
				"kind": "user",
				"methods": {},
				"version": 1
			}
		}
	}
}