{
	"chapter8/quiz2.sol": {
		"quiz2": {
			"abi": [
				{
					"inputs": [
						{
							"internalType": "uint256",
							"name": "_num",
							"type": "uint256"
						}
					],
					"name": "minus10",
					"outputs": [
						{
							"internalType": "uint256",
							"name": "",
							"type": "uint256"
						}
					],
					"stateMutability": "pure",
					"type": "function"
				},
				{
					"inputs": [
						{
							"internalType": "uint256",
							"name": "_num",
							"type": "uint256"
						}
					],
					"name": "plus10",
					"outputs": [
						{
							"internalType": "uint256",
							"name": "",
							"type": "uint256"
						}
					],
					"stateMutability": "pure",
					"type": "function"
				}
			],
			"devdoc": {
				"kind": "dev",
				"methods": {},
				"version": 1
			},
			"evm": {
				"assembly": "    /* \"chapter8/quiz2.sol\":67:415  contract quiz2 {... */\n  mstore(0x40, 0x80)\n  callvalue\n  dup1\n  iszero\n  tag_1\n  jumpi\n  0x00\n  dup1\n  revert\ntag_1:\n  pop\n  dataSize(sub_0)\n  dup1\n  dataOffset(sub_0)\n  0x00\n  codecopy\n  0x00\n  return\nstop\n\nsub_0: assembly {\n        /* \"chapter8/quiz2.sol\":67:415  contract quiz2 {... */\n      mstore(0x40, 0x80)\n      callvalue\n      dup1\n      iszero\n      tag_1\n      jumpi\n      0x00\n      dup1\n      revert\n    tag_1:\n      pop\n      jumpi(tag_2, lt(calldatasize, 0x04))\n      shr(0xe0, calldataload(0x00))\n      dup1\n      0x1fc42eda\n      eq\n      tag_3\n      jumpi\n      dup1\n      0xd5d79e60\n      eq\n      tag_4\n      jumpi\n    tag_2:\n      0x00\n      dup1\n      revert\n        /* \"chapter8/quiz2.sol\":310:413  function plus10(uint _num) public pure morethan10(_num)  returns(uint) {... */\n    tag_3:\n      tag_5\n      0x04\n      dup1\n      calldatasize\n      sub\n      0x20\n      dup2\n      lt\n      iszero\n      tag_6\n      jumpi\n      0x00\n      dup1\n      revert\n    tag_6:\n      dup2\n      add\n      swap1\n      dup1\n      dup1\n      calldataload\n      swap1\n      0x20\n      add\n      swap1\n      swap3\n      swap2\n      swap1\n      pop\n      pop\n      pop\n      tag_7\n      jump\t// in\n    tag_5:\n      mload(0x40)\n      dup1\n      dup3\n      dup2\n      mstore\n      0x20\n      add\n      swap2\n      pop\n      pop\n      mload(0x40)\n      dup1\n      swap2\n      sub\n      swap1\n      return\n        /* \"chapter8/quiz2.sol\":202:305  function minus10(uint _num) public pure morethan10(_num) returns(uint) {... */\n    tag_4:\n      tag_8\n      0x04\n      dup1\n      calldatasize\n      sub\n      0x20\n      dup2\n      lt\n      iszero\n      tag_9\n      jumpi\n      0x00\n      dup1\n      revert\n    tag_9:\n      dup2\n      add\n      swap1\n      dup1\n      dup1\n      calldataload\n      swap1\n      0x20\n      add\n      swap1\n      swap3\n      swap2\n      swap1\n      pop\n      pop\n      pop\n      tag_10\n      jump\t// in\n    tag_8:\n      mload(0x40)\n      dup1\n      dup3\n      dup2\n      mstore\n      0x20\n      add\n      swap2\n      pop\n      pop\n      mload(0x40)\n      dup1\n      swap2\n      sub\n      swap1\n      return\n        /* \"chapter8/quiz2.sol\":310:413  function plus10(uint _num) public pure morethan10(_num)  returns(uint) {... */\n    tag_7:\n        /* \"chapter8/quiz2.sol\":375:379  uint */\n      0x00\n        /* \"chapter8/quiz2.sol\":360:364  _num */\n      dup2\n        /* \"chapter8/quiz2.sol\":143:145  10 */\n      0x0a\n        /* \"chapter8/quiz2.sol\":137:141  _num */\n      dup2\n        /* \"chapter8/quiz2.sol\":137:145  _num>=10 */\n      lt\n      iszero\n        /* \"chapter8/quiz2.sol\":129:179  require(_num>=10 , \"_num must be greater than 10\") */\n      tag_12\n      jumpi\n      mload(0x40)\n      0x08c379a000000000000000000000000000000000000000000000000000000000\n      dup2\n      mstore\n      0x04\n      add\n      dup1\n      dup1\n      0x20\n      add\n      dup3\n      dup2\n      sub\n      dup3\n      mstore\n      0x1c\n      dup2\n      mstore\n      0x20\n      add\n      dup1\n      0x5f6e756d206d7573742062652067726561746572207468616e20313000000000\n      dup2\n      mstore\n      pop\n      0x20\n      add\n      swap2\n      pop\n      pop\n      mload(0x40)\n      dup1\n      swap2\n      sub\n      swap1\n      revert\n    tag_12:\n        /* \"chapter8/quiz2.sol\":404:406  10 */\n      0x0a\n        /* \"chapter8/quiz2.sol\":398:402  _num */\n      dup4\n        /* \"chapter8/quiz2.sol\":398:406  _num +10 */\n      add\n        /* \"chapter8/quiz2.sol\":391:406  return _num +10 */\n      swap2\n      pop\n        /* \"chapter8/quiz2.sol\":310:413  function plus10(uint _num) public pure morethan10(_num)  returns(uint) {... */\n      pop\n      swap2\n      swap1\n      pop\n      jump\t// out\n        /* \"chapter8/quiz2.sol\":202:305  function minus10(uint _num) public pure morethan10(_num) returns(uint) {... */\n    tag_10:\n        /* \"chapter8/quiz2.sol\":267:271  uint */\n      0x00\n        /* \"chapter8/quiz2.sol\":253:257  _num */\n      dup2\n        /* \"chapter8/quiz2.sol\":143:145  10 */\n      0x0a\n        /* \"chapter8/quiz2.sol\":137:141  _num */\n      dup2\n        /* \"chapter8/quiz2.sol\":137:145  _num>=10 */\n      lt\n      iszero\n        /* \"chapter8/quiz2.sol\":129:179  require(_num>=10 , \"_num must be greater than 10\") */\n      tag_15\n      jumpi\n      mload(0x40)\n      0x08c379a000000000000000000000000000000000000000000000000000000000\n      dup2\n      mstore\n      0x04\n      add\n      dup1\n      dup1\n      0x20\n      add\n      dup3\n      dup2\n      sub\n      dup3\n      mstore\n      0x1c\n      dup2\n      mstore\n      0x20\n      add\n      dup1\n      0x5f6e756d206d7573742062652067726561746572207468616e20313000000000\n      dup2\n      mstore\n      pop\n      0x20\n      add\n      swap2\n      pop\n      pop\n      mload(0x40)\n      dup1\n      swap2\n      sub\n      swap1\n      revert\n    tag_15:\n        /* \"chapter8/quiz2.sol\":296:298  10 */\n      0x0a\n        /* \"chapter8/quiz2.sol\":290:294  _num */\n      dup4\n        /* \"chapter8/quiz2.sol\":290:298  _num -10 */\n      sub\n        /* \"chapter8/quiz2.sol\":283:298  return _num -10 */\n      swap2\n      pop\n        /* \"chapter8/quiz2.sol\":202:305  function minus10(uint _num) public pure morethan10(_num) returns(uint) {... */\n      pop\n      swap2\n      swap1\n      pop\n      jump\t// out\n\n    auxdata: 0xa2646970667358221220135c601e6eabaaa7e76fbdb2204186fa7481c14761fd242c2dff0ed6219ce7a464736f6c63430007060033\n}\n",
				"bytecode": {
					"linkReferences": {},
					"object": "608060405234801561001057600080fd5b50610201806100206000396000f3fe608060405234801561001057600080fd5b50600436106100365760003560e01c80631fc42eda1461003b578063d5d79e601461007d575b600080fd5b6100676004803603602081101561005157600080fd5b81019080803590602001909291905050506100bf565b6040518082815260200191505060405180910390f35b6100a96004803603602081101561009357600080fd5b8101908080359060200190929190505050610145565b6040518082815260200191505060405180910390f35b600081600a811015610139576040517f08c379a000000000000000000000000000000000000000000000000000000000815260040180806020018281038252601c8152602001807f5f6e756d206d7573742062652067726561746572207468616e2031300000000081525060200191505060405180910390fd5b600a8301915050919050565b600081600a8110156101bf576040517f08c379a000000000000000000000000000000000000000000000000000000000815260040180806020018281038252601c8152602001807f5f6e756d206d7573742062652067726561746572207468616e2031300000000081525060200191505060405180910390fd5b600a830391505091905056fea2646970667358221220135c601e6eabaaa7e76fbdb2204186fa7481c14761fd242c2dff0ed6219ce7a464736f6c63430007060033",
					"opcodes": "PUSH1 0x80 PUSH1 0x40 MSTORE CALLVALUE DUP1 ISZERO PUSH2 0x10 JUMPI PUSH1 0x0 DUP1 REVERT JUMPDEST POP PUSH2 0x201 DUP1 PUSH2 0x20 PUSH1 0x0 CODECOPY PUSH1 0x0 RETURN INVALID PUSH1 0x80 PUSH1 0x40 MSTORE CALLVALUE DUP1 ISZERO PUSH2 0x10 JUMPI PUSH1 0x0 DUP1 REVERT JUMPDEST POP PUSH1 0x4 CALLDATASIZE LT PUSH2 0x36 JUMPI PUSH1 0x0 CALLDATALOAD PUSH1 0xE0 SHR DUP1 PUSH4 0x1FC42EDA EQ PUSH2 0x3B JUMPI DUP1 PUSH4 0xD5D79E60 EQ PUSH2 0x7D JUMPI JUMPDEST PUSH1 0x0 DUP1 REVERT JUMPDEST PUSH2 0x67 PUSH1 0x4 DUP1 CALLDATASIZE SUB PUSH1 0x20 DUP2 LT ISZERO PUSH2 0x51 JUMPI PUSH1 0x0 DUP1 REVERT JUMPDEST DUP2 ADD SWAP1 DUP1 DUP1 CALLDATALOAD SWAP1 PUSH1 0x20 ADD SWAP1 SWAP3 SWAP2 SWAP1 POP POP POP PUSH2 0xBF JUMP JUMPDEST PUSH1 0x40 MLOAD DUP1 DUP3 DUP2 MSTORE PUSH1 0x20 ADD SWAP2 POP POP PUSH1 0x40 MLOAD DUP1 SWAP2 SUB SWAP1 RETURN JUMPDEST PUSH2 0xA9 PUSH1 0x4 DUP1 CALLDATASIZE SUB PUSH1 0x20 DUP2 LT ISZERO PUSH2 0x93 JUMPI PUSH1 0x0 DUP1 REVERT JUMPDEST DUP2 ADD SWAP1 DUP1 DUP1 CALLDATALOAD SWAP1 PUSH1 0x20 ADD SWAP1 SWAP3 SWAP2 SWAP1 POP POP POP PUSH2 0x145 JUMP JUMPDEST PUSH1 0x40 MLOAD DUP1 DUP3 DUP2 MSTORE PUSH1 0x20 ADD SWAP2 POP POP PUSH1 0x40 MLOAD DUP1 SWAP2 SUB SWAP1 RETURN JUMPDEST PUSH1 0x0 DUP2 PUSH1 0xA DUP2 LT ISZERO PUSH2 0x139 JUMPI PUSH1 0x40 MLOAD PUSH32 0x8C379A000000000000000000000000000000000000000000000000000000000 DUP2 MSTORE PUSH1 0x4 ADD DUP1 DUP1 PUSH1 0x20 ADD DUP3 DUP2 SUB DUP3 MSTORE PUSH1 0x1C DUP2 MSTORE PUSH1 0x20 ADD DUP1 PUSH32 0x5F6E756D206D7573742062652067726561746572207468616E20313000000000 DUP2 MSTORE POP PUSH1 0x20 ADD SWAP2 POP POP PUSH1 0x40 MLOAD DUP1 SWAP2 SUB SWAP1 REVERT JUMPDEST PUSH1 0xA DUP4 ADD SWAP2 POP POP SWAP2 SWAP1 POP JUMP JUMPDEST PUSH1 0x0 DUP2 PUSH1 0xA DUP2 LT ISZERO PUSH2 0x1BF JUMPI PUSH1 0x40 MLOAD PUSH32 0x8C379A000000000000000000000000000000000000000000000000000000000 DUP2 MSTORE PUSH1 0x4 ADD DUP1 DUP1 PUSH1 0x20 ADD DUP3 DUP2 SUB DUP3 MSTORE PUSH1 0x1C DUP2 MSTORE PUSH1 0x20 ADD DUP1 PUSH32 0x5F6E756D206D7573742062652067726561746572207468616E20313000000000 DUP2 MSTORE POP PUSH1 0x20 ADD SWAP2 POP POP PUSH1 0x40 MLOAD DUP1 SWAP2 SUB SWAP1 REVERT JUMPDEST PUSH1 0xA DUP4 SUB SWAP2 POP POP SWAP2 SWAP1 POP JUMP INVALID LOG2 PUSH5 0x6970667358 0x22 SLT KECCAK256 SGT 0x5C PUSH1 0x1E PUSH15 0xABAAA7E76FBDB2204186FA7481C147 PUSH2 0xFD24 0x2C 0x2D SELFDESTRUCT 0xE 0xD6 0x21 SWAP13 0xE7 LOG4 PUSH5 0x736F6C6343 STOP SMOD MOD STOP CALLER "
				},
				"gasEstimates": {
					"creation": {
						"codeDepositCost": "102600",
						"executionCost": "153",
						"totalCost": "102753"
					},
					"external": {
						"minus10(uint256)": "371",
						"plus10(uint256)": "349"
					}
				},
				"methodIdentifiers": {
					"minus10(uint256)": "d5d79e60",
					"plus10(uint256)": "1fc42eda"
				}
			},
			"storageLayout": {
				"storage": [],
				"types": null
			},
			"userdoc": {
				"kind": "user",
				"methods": {},
				"version": 1
			}
		}
	}
}