{
	"chapter5/memo.sol": {
		"Ex_memory": {
			"abi": [
				{
					"inputs": [],
					"name": "a",
					"outputs": [
						{
							"internalType": "uint256",
							"name": "",
							"type": "uint256"
						}
					],
					"stateMutability": "view",
					"type": "function"
				},
				{
					"inputs": [],
					"name": "b",
					"outputs": [
						{
							"internalType": "uint256",
							"name": "",
							"type": "uint256"
						}
					],
					"stateMutability": "view",
					"type": "function"
				},
				{
					"inputs": [],
					"name": "changeA",
					"outputs": [
						{
							"internalType": "uint256",
							"name": "",
							"type": "uint256"
						},
						{
							"internalType": "uint256",
							"name": "",
							"type": "uint256"
						}
					],
					"stateMutability": "nonpayable",
					"type": "function"
				},
				{
					"inputs": [
						{
							"internalType": "uint256[]",
							"name": "_input",
							"type": "uint256[]"
						}
					],
					"name": "changeInput",
					"outputs": [
						{
							"internalType": "uint256[]",
							"name": "",
							"type": "uint256[]"
						},
						{
							"internalType": "uint256[]",
							"name": "",
							"type": "uint256[]"
						}
					],
					"stateMutability": "pure",
					"type": "function"
				}
			],
			"devdoc": {
				"kind": "dev",
				"methods": {},
				"version": 1
			},
			"evm": {
				"assembly": "    /* \"chapter5/memo.sol\":66:451  contract Ex_memory {... */\n  mstore(0x40, 0x80)\n    /* \"chapter5/memo.sol\":108:109  3 */\n  0x03\n    /* \"chapter5/memo.sol\":92:109  uint public a = 3 */\n  0x00\n  sstore\n    /* \"chapter5/memo.sol\":131:132  a */\n  sload(0x00)\n    /* \"chapter5/memo.sol\":115:132  uint public b = a */\n  0x01\n  sstore\n    /* \"chapter5/memo.sol\":66:451  contract Ex_memory {... */\n  callvalue\n  dup1\n  iszero\n  tag_1\n  jumpi\n  0x00\n  dup1\n  revert\ntag_1:\n  pop\n  dataSize(sub_0)\n  dup1\n  dataOffset(sub_0)\n  0x00\n  codecopy\n  0x00\n  return\nstop\n\nsub_0: assembly {\n        /* \"chapter5/memo.sol\":66:451  contract Ex_memory {... */\n      mstore(0x40, 0x80)\n      callvalue\n      dup1\n      iszero\n      tag_1\n      jumpi\n      0x00\n      dup1\n      revert\n    tag_1:\n      pop\n      jumpi(tag_2, lt(calldatasize, 0x04))\n      shr(0xe0, calldataload(0x00))\n      dup1\n      0x0dbe671f\n      eq\n      tag_3\n      jumpi\n      dup1\n      0x4df7e3d0\n      eq\n      tag_4\n      jumpi\n      dup1\n      0x9023c4d1\n      eq\n      tag_5\n      jumpi\n      dup1\n      0xd19fd469\n      eq\n      tag_6\n      jumpi\n    tag_2:\n      0x00\n      dup1\n      revert\n        /* \"chapter5/memo.sol\":92:109  uint public a = 3 */\n    tag_3:\n      tag_7\n      tag_8\n      jump\t// in\n    tag_7:\n      mload(0x40)\n      tag_9\n      swap2\n      swap1\n      tag_10\n      jump\t// in\n    tag_9:\n      mload(0x40)\n      dup1\n      swap2\n      sub\n      swap1\n      return\n        /* \"chapter5/memo.sol\":115:132  uint public b = a */\n    tag_4:\n      tag_11\n      tag_12\n      jump\t// in\n    tag_11:\n      mload(0x40)\n      tag_13\n      swap2\n      swap1\n      tag_10\n      jump\t// in\n    tag_13:\n      mload(0x40)\n      dup1\n      swap2\n      sub\n      swap1\n      return\n        /* \"chapter5/memo.sol\":237:442  function changeInput(uint[] memory _input) public pure returns(uint[] memory, uint[] memory) {... */\n    tag_5:\n      tag_14\n      0x04\n      dup1\n      calldatasize\n      sub\n      dup2\n      add\n      swap1\n      tag_15\n      swap2\n      swap1\n      tag_16\n      jump\t// in\n    tag_15:\n      tag_17\n      jump\t// in\n    tag_14:\n      mload(0x40)\n      tag_18\n      swap3\n      swap2\n      swap1\n      tag_19\n      jump\t// in\n    tag_18:\n      mload(0x40)\n      dup1\n      swap2\n      sub\n      swap1\n      return\n        /* \"chapter5/memo.sol\":140:231  function changeA() public returns(uint, uint ) {... */\n    tag_6:\n      tag_20\n      tag_21\n      jump\t// in\n    tag_20:\n      mload(0x40)\n      tag_22\n      swap3\n      swap2\n      swap1\n      tag_23\n      jump\t// in\n    tag_22:\n      mload(0x40)\n      dup1\n      swap2\n      sub\n      swap1\n      return\n        /* \"chapter5/memo.sol\":92:109  uint public a = 3 */\n    tag_8:\n      sload(0x00)\n      dup2\n      jump\t// out\n        /* \"chapter5/memo.sol\":115:132  uint public b = a */\n    tag_12:\n      sload(0x01)\n      dup2\n      jump\t// out\n        /* \"chapter5/memo.sol\":237:442  function changeInput(uint[] memory _input) public pure returns(uint[] memory, uint[] memory) {... */\n    tag_17:\n        /* \"chapter5/memo.sol\":300:313  uint[] memory */\n      0x60\n        /* \"chapter5/memo.sol\":315:328  uint[] memory */\n      dup1\n        /* \"chapter5/memo.sol\":340:363  uint[] memory copyInput */\n      0x00\n        /* \"chapter5/memo.sol\":366:372  _input */\n      dup4\n        /* \"chapter5/memo.sol\":340:372  uint[] memory copyInput = _input */\n      swap1\n      pop\n        /* \"chapter5/memo.sol\":397:399  11 */\n      0x0b\n        /* \"chapter5/memo.sol\":382:391  copyInput */\n      dup2\n        /* \"chapter5/memo.sol\":392:393  0 */\n      0x00\n        /* \"chapter5/memo.sol\":382:394  copyInput[0] */\n      dup2\n      mload\n      dup2\n      lt\n      tag_25\n      jumpi\n      tag_26\n      tag_27\n      jump\t// in\n    tag_26:\n    tag_25:\n      0x20\n      mul\n      0x20\n      add\n      add\n        /* \"chapter5/memo.sol\":382:399  copyInput[0] = 11 */\n      dup2\n      dup2\n      mstore\n      pop\n      pop\n        /* \"chapter5/memo.sol\":417:423  _input */\n      dup4\n        /* \"chapter5/memo.sol\":425:434  copyInput */\n      dup2\n        /* \"chapter5/memo.sol\":409:435  return (_input, copyInput) */\n      swap3\n      pop\n      swap3\n      pop\n      pop\n        /* \"chapter5/memo.sol\":237:442  function changeInput(uint[] memory _input) public pure returns(uint[] memory, uint[] memory) {... */\n      swap2\n      pop\n      swap2\n      jump\t// out\n        /* \"chapter5/memo.sol\":140:231  function changeA() public returns(uint, uint ) {... */\n    tag_21:\n        /* \"chapter5/memo.sol\":174:178  uint */\n      0x00\n        /* \"chapter5/memo.sol\":180:184  uint */\n      dup1\n        /* \"chapter5/memo.sol\":201:202  5 */\n      0x05\n        /* \"chapter5/memo.sol\":197:198  a */\n      0x00\n        /* \"chapter5/memo.sol\":197:202  a = 5 */\n      dup2\n      swap1\n      sstore\n      pop\n        /* \"chapter5/memo.sol\":220:221  a */\n      sload(0x00)\n        /* \"chapter5/memo.sol\":222:223  b */\n      sload(0x01)\n        /* \"chapter5/memo.sol\":213:224  return(a,b) */\n      swap2\n      pop\n      swap2\n      pop\n        /* \"chapter5/memo.sol\":140:231  function changeA() public returns(uint, uint ) {... */\n      swap1\n      swap2\n      jump\t// out\n        /* \"#utility.yul\":24:746   */\n    tag_30:\n        /* \"#utility.yul\":120:125   */\n      0x00\n        /* \"#utility.yul\":145:226   */\n      tag_32\n        /* \"#utility.yul\":161:225   */\n      tag_33\n        /* \"#utility.yul\":218:224   */\n      dup5\n        /* \"#utility.yul\":161:225   */\n      tag_34\n      jump\t// in\n    tag_33:\n        /* \"#utility.yul\":145:226   */\n      tag_35\n      jump\t// in\n    tag_32:\n        /* \"#utility.yul\":136:226   */\n      swap1\n      pop\n        /* \"#utility.yul\":246:251   */\n      dup1\n        /* \"#utility.yul\":275:281   */\n      dup4\n        /* \"#utility.yul\":268:273   */\n      dup3\n        /* \"#utility.yul\":261:282   */\n      mstore\n        /* \"#utility.yul\":309:313   */\n      0x20\n        /* \"#utility.yul\":302:307   */\n      dup3\n        /* \"#utility.yul\":298:314   */\n      add\n        /* \"#utility.yul\":291:314   */\n      swap1\n      pop\n        /* \"#utility.yul\":335:341   */\n      dup3\n        /* \"#utility.yul\":385:388   */\n      dup6\n        /* \"#utility.yul\":377:381   */\n      0x20\n        /* \"#utility.yul\":369:375   */\n      dup7\n        /* \"#utility.yul\":365:382   */\n      mul\n        /* \"#utility.yul\":360:363   */\n      dup3\n        /* \"#utility.yul\":356:383   */\n      add\n        /* \"#utility.yul\":353:389   */\n      gt\n        /* \"#utility.yul\":350:493   */\n      iszero\n      tag_36\n      jumpi\n        /* \"#utility.yul\":404:483   */\n      tag_37\n      tag_38\n      jump\t// in\n    tag_37:\n        /* \"#utility.yul\":350:493   */\n    tag_36:\n        /* \"#utility.yul\":517:518   */\n      0x00\n        /* \"#utility.yul\":502:740   */\n    tag_39:\n        /* \"#utility.yul\":527:533   */\n      dup6\n        /* \"#utility.yul\":524:525   */\n      dup2\n        /* \"#utility.yul\":521:534   */\n      lt\n        /* \"#utility.yul\":502:740   */\n      iszero\n      tag_41\n      jumpi\n        /* \"#utility.yul\":595:598   */\n      dup2\n        /* \"#utility.yul\":624:661   */\n      tag_42\n        /* \"#utility.yul\":657:660   */\n      dup9\n        /* \"#utility.yul\":645:655   */\n      dup3\n        /* \"#utility.yul\":624:661   */\n      tag_43\n      jump\t// in\n    tag_42:\n        /* \"#utility.yul\":619:622   */\n      dup5\n        /* \"#utility.yul\":612:662   */\n      mstore\n        /* \"#utility.yul\":691:695   */\n      0x20\n        /* \"#utility.yul\":686:689   */\n      dup5\n        /* \"#utility.yul\":682:696   */\n      add\n        /* \"#utility.yul\":675:696   */\n      swap4\n      pop\n        /* \"#utility.yul\":725:729   */\n      0x20\n        /* \"#utility.yul\":720:723   */\n      dup4\n        /* \"#utility.yul\":716:730   */\n      add\n        /* \"#utility.yul\":709:730   */\n      swap3\n      pop\n        /* \"#utility.yul\":562:740   */\n      pop\n        /* \"#utility.yul\":549:550   */\n      0x01\n        /* \"#utility.yul\":546:547   */\n      dup2\n        /* \"#utility.yul\":542:551   */\n      add\n        /* \"#utility.yul\":537:551   */\n      swap1\n      pop\n        /* \"#utility.yul\":502:740   */\n      jump(tag_39)\n    tag_41:\n        /* \"#utility.yul\":506:520   */\n      pop\n        /* \"#utility.yul\":126:746   */\n      pop\n      pop\n        /* \"#utility.yul\":24:746   */\n      swap4\n      swap3\n      pop\n      pop\n      pop\n      jump\t// out\n        /* \"#utility.yul\":769:1139   */\n    tag_44:\n        /* \"#utility.yul\":840:845   */\n      0x00\n        /* \"#utility.yul\":889:892   */\n      dup3\n        /* \"#utility.yul\":882:886   */\n      0x1f\n        /* \"#utility.yul\":874:880   */\n      dup4\n        /* \"#utility.yul\":870:887   */\n      add\n        /* \"#utility.yul\":866:893   */\n      slt\n        /* \"#utility.yul\":856:978   */\n      tag_46\n      jumpi\n        /* \"#utility.yul\":897:976   */\n      tag_47\n      tag_48\n      jump\t// in\n    tag_47:\n        /* \"#utility.yul\":856:978   */\n    tag_46:\n        /* \"#utility.yul\":1014:1020   */\n      dup2\n        /* \"#utility.yul\":1001:1021   */\n      calldataload\n        /* \"#utility.yul\":1039:1133   */\n      tag_49\n        /* \"#utility.yul\":1129:1132   */\n      dup5\n        /* \"#utility.yul\":1121:1127   */\n      dup3\n        /* \"#utility.yul\":1114:1118   */\n      0x20\n        /* \"#utility.yul\":1106:1112   */\n      dup7\n        /* \"#utility.yul\":1102:1119   */\n      add\n        /* \"#utility.yul\":1039:1133   */\n      tag_30\n      jump\t// in\n    tag_49:\n        /* \"#utility.yul\":1030:1133   */\n      swap2\n      pop\n        /* \"#utility.yul\":846:1139   */\n      pop\n        /* \"#utility.yul\":769:1139   */\n      swap3\n      swap2\n      pop\n      pop\n      jump\t// out\n        /* \"#utility.yul\":1145:1284   */\n    tag_43:\n        /* \"#utility.yul\":1191:1196   */\n      0x00\n        /* \"#utility.yul\":1229:1235   */\n      dup2\n        /* \"#utility.yul\":1216:1236   */\n      calldataload\n        /* \"#utility.yul\":1207:1236   */\n      swap1\n      pop\n        /* \"#utility.yul\":1245:1278   */\n      tag_51\n        /* \"#utility.yul\":1272:1277   */\n      dup2\n        /* \"#utility.yul\":1245:1278   */\n      tag_52\n      jump\t// in\n    tag_51:\n        /* \"#utility.yul\":1145:1284   */\n      swap3\n      swap2\n      pop\n      pop\n      jump\t// out\n        /* \"#utility.yul\":1290:1829   */\n    tag_16:\n        /* \"#utility.yul\":1374:1380   */\n      0x00\n        /* \"#utility.yul\":1423:1425   */\n      0x20\n        /* \"#utility.yul\":1411:1420   */\n      dup3\n        /* \"#utility.yul\":1402:1409   */\n      dup5\n        /* \"#utility.yul\":1398:1421   */\n      sub\n        /* \"#utility.yul\":1394:1426   */\n      slt\n        /* \"#utility.yul\":1391:1510   */\n      iszero\n      tag_54\n      jumpi\n        /* \"#utility.yul\":1429:1508   */\n      tag_55\n      tag_56\n      jump\t// in\n    tag_55:\n        /* \"#utility.yul\":1391:1510   */\n    tag_54:\n        /* \"#utility.yul\":1577:1578   */\n      0x00\n        /* \"#utility.yul\":1566:1575   */\n      dup3\n        /* \"#utility.yul\":1562:1579   */\n      add\n        /* \"#utility.yul\":1549:1580   */\n      calldataload\n        /* \"#utility.yul\":1607:1625   */\n      0xffffffffffffffff\n        /* \"#utility.yul\":1599:1605   */\n      dup2\n        /* \"#utility.yul\":1596:1626   */\n      gt\n        /* \"#utility.yul\":1593:1710   */\n      iszero\n      tag_57\n      jumpi\n        /* \"#utility.yul\":1629:1708   */\n      tag_58\n      tag_59\n      jump\t// in\n    tag_58:\n        /* \"#utility.yul\":1593:1710   */\n    tag_57:\n        /* \"#utility.yul\":1734:1812   */\n      tag_60\n        /* \"#utility.yul\":1804:1811   */\n      dup5\n        /* \"#utility.yul\":1795:1801   */\n      dup3\n        /* \"#utility.yul\":1784:1793   */\n      dup6\n        /* \"#utility.yul\":1780:1802   */\n      add\n        /* \"#utility.yul\":1734:1812   */\n      tag_44\n      jump\t// in\n    tag_60:\n        /* \"#utility.yul\":1724:1812   */\n      swap2\n      pop\n        /* \"#utility.yul\":1520:1822   */\n      pop\n        /* \"#utility.yul\":1290:1829   */\n      swap3\n      swap2\n      pop\n      pop\n      jump\t// out\n        /* \"#utility.yul\":1835:2014   */\n    tag_61:\n        /* \"#utility.yul\":1904:1914   */\n      0x00\n        /* \"#utility.yul\":1925:1971   */\n      tag_63\n        /* \"#utility.yul\":1967:1970   */\n      dup4\n        /* \"#utility.yul\":1959:1965   */\n      dup4\n        /* \"#utility.yul\":1925:1971   */\n      tag_64\n      jump\t// in\n    tag_63:\n        /* \"#utility.yul\":2003:2007   */\n      0x20\n        /* \"#utility.yul\":1998:2001   */\n      dup4\n        /* \"#utility.yul\":1994:2008   */\n      add\n        /* \"#utility.yul\":1980:2008   */\n      swap1\n      pop\n        /* \"#utility.yul\":1835:2014   */\n      swap3\n      swap2\n      pop\n      pop\n      jump\t// out\n        /* \"#utility.yul\":2050:2782   */\n    tag_65:\n        /* \"#utility.yul\":2169:2172   */\n      0x00\n        /* \"#utility.yul\":2198:2252   */\n      tag_67\n        /* \"#utility.yul\":2246:2251   */\n      dup3\n        /* \"#utility.yul\":2198:2252   */\n      tag_68\n      jump\t// in\n    tag_67:\n        /* \"#utility.yul\":2268:2354   */\n      tag_69\n        /* \"#utility.yul\":2347:2353   */\n      dup2\n        /* \"#utility.yul\":2342:2345   */\n      dup6\n        /* \"#utility.yul\":2268:2354   */\n      tag_70\n      jump\t// in\n    tag_69:\n        /* \"#utility.yul\":2261:2354   */\n      swap4\n      pop\n        /* \"#utility.yul\":2378:2434   */\n      tag_71\n        /* \"#utility.yul\":2428:2433   */\n      dup4\n        /* \"#utility.yul\":2378:2434   */\n      tag_72\n      jump\t// in\n    tag_71:\n        /* \"#utility.yul\":2457:2464   */\n      dup1\n        /* \"#utility.yul\":2488:2489   */\n      0x00\n        /* \"#utility.yul\":2473:2757   */\n    tag_73:\n        /* \"#utility.yul\":2498:2504   */\n      dup4\n        /* \"#utility.yul\":2495:2496   */\n      dup2\n        /* \"#utility.yul\":2492:2505   */\n      lt\n        /* \"#utility.yul\":2473:2757   */\n      iszero\n      tag_75\n      jumpi\n        /* \"#utility.yul\":2574:2580   */\n      dup2\n        /* \"#utility.yul\":2568:2581   */\n      mload\n        /* \"#utility.yul\":2601:2664   */\n      tag_76\n        /* \"#utility.yul\":2660:2663   */\n      dup9\n        /* \"#utility.yul\":2645:2658   */\n      dup3\n        /* \"#utility.yul\":2601:2664   */\n      tag_61\n      jump\t// in\n    tag_76:\n        /* \"#utility.yul\":2594:2664   */\n      swap8\n      pop\n        /* \"#utility.yul\":2687:2747   */\n      tag_77\n        /* \"#utility.yul\":2740:2746   */\n      dup4\n        /* \"#utility.yul\":2687:2747   */\n      tag_78\n      jump\t// in\n    tag_77:\n        /* \"#utility.yul\":2677:2747   */\n      swap3\n      pop\n        /* \"#utility.yul\":2533:2757   */\n      pop\n        /* \"#utility.yul\":2520:2521   */\n      0x01\n        /* \"#utility.yul\":2517:2518   */\n      dup2\n        /* \"#utility.yul\":2513:2522   */\n      add\n        /* \"#utility.yul\":2508:2522   */\n      swap1\n      pop\n        /* \"#utility.yul\":2473:2757   */\n      jump(tag_73)\n    tag_75:\n        /* \"#utility.yul\":2477:2491   */\n      pop\n        /* \"#utility.yul\":2773:2776   */\n      dup6\n        /* \"#utility.yul\":2766:2776   */\n      swap4\n      pop\n        /* \"#utility.yul\":2174:2782   */\n      pop\n      pop\n      pop\n        /* \"#utility.yul\":2050:2782   */\n      swap3\n      swap2\n      pop\n      pop\n      jump\t// out\n        /* \"#utility.yul\":2788:2896   */\n    tag_64:\n        /* \"#utility.yul\":2865:2889   */\n      tag_80\n        /* \"#utility.yul\":2883:2888   */\n      dup2\n        /* \"#utility.yul\":2865:2889   */\n      tag_81\n      jump\t// in\n    tag_80:\n        /* \"#utility.yul\":2860:2863   */\n      dup3\n        /* \"#utility.yul\":2853:2890   */\n      mstore\n        /* \"#utility.yul\":2788:2896   */\n      pop\n      pop\n      jump\t// out\n        /* \"#utility.yul\":2902:3020   */\n    tag_82:\n        /* \"#utility.yul\":2989:3013   */\n      tag_84\n        /* \"#utility.yul\":3007:3012   */\n      dup2\n        /* \"#utility.yul\":2989:3013   */\n      tag_81\n      jump\t// in\n    tag_84:\n        /* \"#utility.yul\":2984:2987   */\n      dup3\n        /* \"#utility.yul\":2977:3014   */\n      mstore\n        /* \"#utility.yul\":2902:3020   */\n      pop\n      pop\n      jump\t// out\n        /* \"#utility.yul\":3026:3660   */\n    tag_19:\n        /* \"#utility.yul\":3247:3251   */\n      0x00\n        /* \"#utility.yul\":3285:3287   */\n      0x40\n        /* \"#utility.yul\":3274:3283   */\n      dup3\n        /* \"#utility.yul\":3270:3288   */\n      add\n        /* \"#utility.yul\":3262:3288   */\n      swap1\n      pop\n        /* \"#utility.yul\":3334:3343   */\n      dup2\n        /* \"#utility.yul\":3328:3332   */\n      dup2\n        /* \"#utility.yul\":3324:3344   */\n      sub\n        /* \"#utility.yul\":3320:3321   */\n      0x00\n        /* \"#utility.yul\":3309:3318   */\n      dup4\n        /* \"#utility.yul\":3305:3322   */\n      add\n        /* \"#utility.yul\":3298:3345   */\n      mstore\n        /* \"#utility.yul\":3362:3470   */\n      tag_86\n        /* \"#utility.yul\":3465:3469   */\n      dup2\n        /* \"#utility.yul\":3456:3462   */\n      dup6\n        /* \"#utility.yul\":3362:3470   */\n      tag_65\n      jump\t// in\n    tag_86:\n        /* \"#utility.yul\":3354:3470   */\n      swap1\n      pop\n        /* \"#utility.yul\":3517:3526   */\n      dup2\n        /* \"#utility.yul\":3511:3515   */\n      dup2\n        /* \"#utility.yul\":3507:3527   */\n      sub\n        /* \"#utility.yul\":3502:3504   */\n      0x20\n        /* \"#utility.yul\":3491:3500   */\n      dup4\n        /* \"#utility.yul\":3487:3505   */\n      add\n        /* \"#utility.yul\":3480:3528   */\n      mstore\n        /* \"#utility.yul\":3545:3653   */\n      tag_87\n        /* \"#utility.yul\":3648:3652   */\n      dup2\n        /* \"#utility.yul\":3639:3645   */\n      dup5\n        /* \"#utility.yul\":3545:3653   */\n      tag_65\n      jump\t// in\n    tag_87:\n        /* \"#utility.yul\":3537:3653   */\n      swap1\n      pop\n        /* \"#utility.yul\":3026:3660   */\n      swap4\n      swap3\n      pop\n      pop\n      pop\n      jump\t// out\n        /* \"#utility.yul\":3666:3888   */\n    tag_10:\n        /* \"#utility.yul\":3759:3763   */\n      0x00\n        /* \"#utility.yul\":3797:3799   */\n      0x20\n        /* \"#utility.yul\":3786:3795   */\n      dup3\n        /* \"#utility.yul\":3782:3800   */\n      add\n        /* \"#utility.yul\":3774:3800   */\n      swap1\n      pop\n        /* \"#utility.yul\":3810:3881   */\n      tag_89\n        /* \"#utility.yul\":3878:3879   */\n      0x00\n        /* \"#utility.yul\":3867:3876   */\n      dup4\n        /* \"#utility.yul\":3863:3880   */\n      add\n        /* \"#utility.yul\":3854:3860   */\n      dup5\n        /* \"#utility.yul\":3810:3881   */\n      tag_82\n      jump\t// in\n    tag_89:\n        /* \"#utility.yul\":3666:3888   */\n      swap3\n      swap2\n      pop\n      pop\n      jump\t// out\n        /* \"#utility.yul\":3894:4226   */\n    tag_23:\n        /* \"#utility.yul\":4015:4019   */\n      0x00\n        /* \"#utility.yul\":4053:4055   */\n      0x40\n        /* \"#utility.yul\":4042:4051   */\n      dup3\n        /* \"#utility.yul\":4038:4056   */\n      add\n        /* \"#utility.yul\":4030:4056   */\n      swap1\n      pop\n        /* \"#utility.yul\":4066:4137   */\n      tag_91\n        /* \"#utility.yul\":4134:4135   */\n      0x00\n        /* \"#utility.yul\":4123:4132   */\n      dup4\n        /* \"#utility.yul\":4119:4136   */\n      add\n        /* \"#utility.yul\":4110:4116   */\n      dup6\n        /* \"#utility.yul\":4066:4137   */\n      tag_82\n      jump\t// in\n    tag_91:\n        /* \"#utility.yul\":4147:4219   */\n      tag_92\n        /* \"#utility.yul\":4215:4217   */\n      0x20\n        /* \"#utility.yul\":4204:4213   */\n      dup4\n        /* \"#utility.yul\":4200:4218   */\n      add\n        /* \"#utility.yul\":4191:4197   */\n      dup5\n        /* \"#utility.yul\":4147:4219   */\n      tag_82\n      jump\t// in\n    tag_92:\n        /* \"#utility.yul\":3894:4226   */\n      swap4\n      swap3\n      pop\n      pop\n      pop\n      jump\t// out\n        /* \"#utility.yul\":4232:4361   */\n    tag_35:\n        /* \"#utility.yul\":4266:4272   */\n      0x00\n        /* \"#utility.yul\":4293:4313   */\n      tag_94\n      tag_95\n      jump\t// in\n    tag_94:\n        /* \"#utility.yul\":4283:4313   */\n      swap1\n      pop\n        /* \"#utility.yul\":4322:4355   */\n      tag_96\n        /* \"#utility.yul\":4350:4354   */\n      dup3\n        /* \"#utility.yul\":4342:4348   */\n      dup3\n        /* \"#utility.yul\":4322:4355   */\n      tag_97\n      jump\t// in\n    tag_96:\n        /* \"#utility.yul\":4232:4361   */\n      swap2\n      swap1\n      pop\n      jump\t// out\n        /* \"#utility.yul\":4367:4442   */\n    tag_95:\n        /* \"#utility.yul\":4400:4406   */\n      0x00\n        /* \"#utility.yul\":4433:4435   */\n      0x40\n        /* \"#utility.yul\":4427:4436   */\n      mload\n        /* \"#utility.yul\":4417:4436   */\n      swap1\n      pop\n        /* \"#utility.yul\":4367:4442   */\n      swap1\n      jump\t// out\n        /* \"#utility.yul\":4448:4759   */\n    tag_34:\n        /* \"#utility.yul\":4525:4529   */\n      0x00\n        /* \"#utility.yul\":4615:4633   */\n      0xffffffffffffffff\n        /* \"#utility.yul\":4607:4613   */\n      dup3\n        /* \"#utility.yul\":4604:4634   */\n      gt\n        /* \"#utility.yul\":4601:4657   */\n      iszero\n      tag_100\n      jumpi\n        /* \"#utility.yul\":4637:4655   */\n      tag_101\n      tag_102\n      jump\t// in\n    tag_101:\n        /* \"#utility.yul\":4601:4657   */\n    tag_100:\n        /* \"#utility.yul\":4687:4691   */\n      0x20\n        /* \"#utility.yul\":4679:4685   */\n      dup3\n        /* \"#utility.yul\":4675:4692   */\n      mul\n        /* \"#utility.yul\":4667:4692   */\n      swap1\n      pop\n        /* \"#utility.yul\":4747:4751   */\n      0x20\n        /* \"#utility.yul\":4741:4745   */\n      dup2\n        /* \"#utility.yul\":4737:4752   */\n      add\n        /* \"#utility.yul\":4729:4752   */\n      swap1\n      pop\n        /* \"#utility.yul\":4448:4759   */\n      swap2\n      swap1\n      pop\n      jump\t// out\n        /* \"#utility.yul\":4765:4897   */\n    tag_72:\n        /* \"#utility.yul\":4832:4836   */\n      0x00\n        /* \"#utility.yul\":4855:4858   */\n      dup2\n        /* \"#utility.yul\":4847:4858   */\n      swap1\n      pop\n        /* \"#utility.yul\":4885:4889   */\n      0x20\n        /* \"#utility.yul\":4880:4883   */\n      dup3\n        /* \"#utility.yul\":4876:4890   */\n      add\n        /* \"#utility.yul\":4868:4890   */\n      swap1\n      pop\n        /* \"#utility.yul\":4765:4897   */\n      swap2\n      swap1\n      pop\n      jump\t// out\n        /* \"#utility.yul\":4903:5017   */\n    tag_68:\n        /* \"#utility.yul\":4970:4976   */\n      0x00\n        /* \"#utility.yul\":5004:5009   */\n      dup2\n        /* \"#utility.yul\":4998:5010   */\n      mload\n        /* \"#utility.yul\":4988:5010   */\n      swap1\n      pop\n        /* \"#utility.yul\":4903:5017   */\n      swap2\n      swap1\n      pop\n      jump\t// out\n        /* \"#utility.yul\":5023:5136   */\n    tag_78:\n        /* \"#utility.yul\":5093:5097   */\n      0x00\n        /* \"#utility.yul\":5125:5129   */\n      0x20\n        /* \"#utility.yul\":5120:5123   */\n      dup3\n        /* \"#utility.yul\":5116:5130   */\n      add\n        /* \"#utility.yul\":5108:5130   */\n      swap1\n      pop\n        /* \"#utility.yul\":5023:5136   */\n      swap2\n      swap1\n      pop\n      jump\t// out\n        /* \"#utility.yul\":5142:5326   */\n    tag_70:\n        /* \"#utility.yul\":5241:5252   */\n      0x00\n        /* \"#utility.yul\":5275:5281   */\n      dup3\n        /* \"#utility.yul\":5270:5273   */\n      dup3\n        /* \"#utility.yul\":5263:5282   */\n      mstore\n        /* \"#utility.yul\":5315:5319   */\n      0x20\n        /* \"#utility.yul\":5310:5313   */\n      dup3\n        /* \"#utility.yul\":5306:5320   */\n      add\n        /* \"#utility.yul\":5291:5320   */\n      swap1\n      pop\n        /* \"#utility.yul\":5142:5326   */\n      swap3\n      swap2\n      pop\n      pop\n      jump\t// out\n        /* \"#utility.yul\":5332:5409   */\n    tag_81:\n        /* \"#utility.yul\":5369:5376   */\n      0x00\n        /* \"#utility.yul\":5398:5403   */\n      dup2\n        /* \"#utility.yul\":5387:5403   */\n      swap1\n      pop\n        /* \"#utility.yul\":5332:5409   */\n      swap2\n      swap1\n      pop\n      jump\t// out\n        /* \"#utility.yul\":5415:5696   */\n    tag_97:\n        /* \"#utility.yul\":5498:5525   */\n      tag_109\n        /* \"#utility.yul\":5520:5524   */\n      dup3\n        /* \"#utility.yul\":5498:5525   */\n      tag_110\n      jump\t// in\n    tag_109:\n        /* \"#utility.yul\":5490:5496   */\n      dup2\n        /* \"#utility.yul\":5486:5526   */\n      add\n        /* \"#utility.yul\":5628:5634   */\n      dup2\n        /* \"#utility.yul\":5616:5626   */\n      dup2\n        /* \"#utility.yul\":5613:5635   */\n      lt\n        /* \"#utility.yul\":5592:5610   */\n      0xffffffffffffffff\n        /* \"#utility.yul\":5580:5590   */\n      dup3\n        /* \"#utility.yul\":5577:5611   */\n      gt\n        /* \"#utility.yul\":5574:5636   */\n      or\n        /* \"#utility.yul\":5571:5659   */\n      iszero\n      tag_111\n      jumpi\n        /* \"#utility.yul\":5639:5657   */\n      tag_112\n      tag_102\n      jump\t// in\n    tag_112:\n        /* \"#utility.yul\":5571:5659   */\n    tag_111:\n        /* \"#utility.yul\":5679:5689   */\n      dup1\n        /* \"#utility.yul\":5675:5677   */\n      0x40\n        /* \"#utility.yul\":5668:5690   */\n      mstore\n        /* \"#utility.yul\":5458:5696   */\n      pop\n        /* \"#utility.yul\":5415:5696   */\n      pop\n      pop\n      jump\t// out\n        /* \"#utility.yul\":5702:5882   */\n    tag_27:\n        /* \"#utility.yul\":5750:5827   */\n      0x4e487b7100000000000000000000000000000000000000000000000000000000\n        /* \"#utility.yul\":5747:5748   */\n      0x00\n        /* \"#utility.yul\":5740:5828   */\n      mstore\n        /* \"#utility.yul\":5847:5851   */\n      0x32\n        /* \"#utility.yul\":5844:5845   */\n      0x04\n        /* \"#utility.yul\":5837:5852   */\n      mstore\n        /* \"#utility.yul\":5871:5875   */\n      0x24\n        /* \"#utility.yul\":5868:5869   */\n      0x00\n        /* \"#utility.yul\":5861:5876   */\n      revert\n        /* \"#utility.yul\":5888:6068   */\n    tag_102:\n        /* \"#utility.yul\":5936:6013   */\n      0x4e487b7100000000000000000000000000000000000000000000000000000000\n        /* \"#utility.yul\":5933:5934   */\n      0x00\n        /* \"#utility.yul\":5926:6014   */\n      mstore\n        /* \"#utility.yul\":6033:6037   */\n      0x41\n        /* \"#utility.yul\":6030:6031   */\n      0x04\n        /* \"#utility.yul\":6023:6038   */\n      mstore\n        /* \"#utility.yul\":6057:6061   */\n      0x24\n        /* \"#utility.yul\":6054:6055   */\n      0x00\n        /* \"#utility.yul\":6047:6062   */\n      revert\n        /* \"#utility.yul\":6074:6191   */\n    tag_48:\n        /* \"#utility.yul\":6183:6184   */\n      0x00\n        /* \"#utility.yul\":6180:6181   */\n      dup1\n        /* \"#utility.yul\":6173:6185   */\n      revert\n        /* \"#utility.yul\":6197:6314   */\n    tag_38:\n        /* \"#utility.yul\":6306:6307   */\n      0x00\n        /* \"#utility.yul\":6303:6304   */\n      dup1\n        /* \"#utility.yul\":6296:6308   */\n      revert\n        /* \"#utility.yul\":6320:6437   */\n    tag_59:\n        /* \"#utility.yul\":6429:6430   */\n      0x00\n        /* \"#utility.yul\":6426:6427   */\n      dup1\n        /* \"#utility.yul\":6419:6431   */\n      revert\n        /* \"#utility.yul\":6443:6560   */\n    tag_56:\n        /* \"#utility.yul\":6552:6553   */\n      0x00\n        /* \"#utility.yul\":6549:6550   */\n      dup1\n        /* \"#utility.yul\":6542:6554   */\n      revert\n        /* \"#utility.yul\":6566:6668   */\n    tag_110:\n        /* \"#utility.yul\":6607:6613   */\n      0x00\n        /* \"#utility.yul\":6658:6660   */\n      0x1f\n        /* \"#utility.yul\":6654:6661   */\n      not\n        /* \"#utility.yul\":6649:6651   */\n      0x1f\n        /* \"#utility.yul\":6642:6647   */\n      dup4\n        /* \"#utility.yul\":6638:6652   */\n      add\n        /* \"#utility.yul\":6634:6662   */\n      and\n        /* \"#utility.yul\":6624:6662   */\n      swap1\n      pop\n        /* \"#utility.yul\":6566:6668   */\n      swap2\n      swap1\n      pop\n      jump\t// out\n        /* \"#utility.yul\":6674:6796   */\n    tag_52:\n        /* \"#utility.yul\":6747:6771   */\n      tag_121\n        /* \"#utility.yul\":6765:6770   */\n      dup2\n        /* \"#utility.yul\":6747:6771   */\n      tag_81\n      jump\t// in\n    tag_121:\n        /* \"#utility.yul\":6740:6745   */\n      dup2\n        /* \"#utility.yul\":6737:6772   */\n      eq\n        /* \"#utility.yul\":6727:6790   */\n      tag_122\n      jumpi\n        /* \"#utility.yul\":6786:6787   */\n      0x00\n        /* \"#utility.yul\":6783:6784   */\n      dup1\n        /* \"#utility.yul\":6776:6788   */\n      revert\n        /* \"#utility.yul\":6727:6790   */\n    tag_122:\n        /* \"#utility.yul\":6674:6796   */\n      pop\n      jump\t// out\n\n    auxdata: 0xa26469706673582212203eb54b98e98a702609d11f75d06f3284f8945fbf00ec9562d7f10a8f2fd1b6ea64736f6c63430008070033\n}\n",
				"bytecode": {
					"linkReferences": {},
					"object": "6080604052600360005560005460015534801561001b57600080fd5b506104d88061002b6000396000f3fe608060405234801561001057600080fd5b506004361061004c5760003560e01c80630dbe671f146100515780634df7e3d01461006f5780639023c4d11461008d578063d19fd469146100be575b600080fd5b6100596100dd565b60405161006691906102ff565b60405180910390f35b6100776100e3565b60405161008491906102ff565b60405180910390f35b6100a760048036038101906100a291906101eb565b6100e9565b6040516100b59291906102c8565b60405180910390f35b6100c661011f565b6040516100d492919061031a565b60405180910390f35b60005481565b60015481565b6060806000839050600b8160008151811061010757610106610408565b5b60200260200101818152505083819250925050915091565b6000806005600081905550600054600154915091509091565b600061014b61014684610368565b610343565b9050808382526020820190508285602086028201111561016e5761016d61046b565b5b60005b8581101561019e578161018488826101d6565b845260208401935060208301925050600181019050610171565b5050509392505050565b600082601f8301126101bd576101bc610466565b5b81356101cd848260208601610138565b91505092915050565b6000813590506101e58161048b565b92915050565b60006020828403121561020157610200610475565b5b600082013567ffffffffffffffff81111561021f5761021e610470565b5b61022b848285016101a8565b91505092915050565b600061024083836102aa565b60208301905092915050565b6000610257826103a4565b61026181856103bc565b935061026c83610394565b8060005b8381101561029d5781516102848882610234565b975061028f836103af565b925050600181019050610270565b5085935050505092915050565b6102b3816103cd565b82525050565b6102c2816103cd565b82525050565b600060408201905081810360008301526102e2818561024c565b905081810360208301526102f6818461024c565b90509392505050565b600060208201905061031460008301846102b9565b92915050565b600060408201905061032f60008301856102b9565b61033c60208301846102b9565b9392505050565b600061034d61035e565b905061035982826103d7565b919050565b6000604051905090565b600067ffffffffffffffff82111561038357610382610437565b5b602082029050602081019050919050565b6000819050602082019050919050565b600081519050919050565b6000602082019050919050565b600082825260208201905092915050565b6000819050919050565b6103e08261047a565b810181811067ffffffffffffffff821117156103ff576103fe610437565b5b80604052505050565b7f4e487b7100000000000000000000000000000000000000000000000000000000600052603260045260246000fd5b7f4e487b7100000000000000000000000000000000000000000000000000000000600052604160045260246000fd5b600080fd5b600080fd5b600080fd5b600080fd5b6000601f19601f8301169050919050565b610494816103cd565b811461049f57600080fd5b5056fea26469706673582212203eb54b98e98a702609d11f75d06f3284f8945fbf00ec9562d7f10a8f2fd1b6ea64736f6c63430008070033",
					"opcodes": "PUSH1 0x80 PUSH1 0x40 MSTORE PUSH1 0x3 PUSH1 0x0 SSTORE PUSH1 0x0 SLOAD PUSH1 0x1 SSTORE CALLVALUE DUP1 ISZERO PUSH2 0x1B JUMPI PUSH1 0x0 DUP1 REVERT JUMPDEST POP PUSH2 0x4D8 DUP1 PUSH2 0x2B PUSH1 0x0 CODECOPY PUSH1 0x0 RETURN INVALID PUSH1 0x80 PUSH1 0x40 MSTORE CALLVALUE DUP1 ISZERO PUSH2 0x10 JUMPI PUSH1 0x0 DUP1 REVERT JUMPDEST POP PUSH1 0x4 CALLDATASIZE LT PUSH2 0x4C JUMPI PUSH1 0x0 CALLDATALOAD PUSH1 0xE0 SHR DUP1 PUSH4 0xDBE671F EQ PUSH2 0x51 JUMPI DUP1 PUSH4 0x4DF7E3D0 EQ PUSH2 0x6F JUMPI DUP1 PUSH4 0x9023C4D1 EQ PUSH2 0x8D JUMPI DUP1 PUSH4 0xD19FD469 EQ PUSH2 0xBE JUMPI JUMPDEST PUSH1 0x0 DUP1 REVERT JUMPDEST PUSH2 0x59 PUSH2 0xDD JUMP JUMPDEST PUSH1 0x40 MLOAD PUSH2 0x66 SWAP2 SWAP1 PUSH2 0x2FF JUMP JUMPDEST PUSH1 0x40 MLOAD DUP1 SWAP2 SUB SWAP1 RETURN JUMPDEST PUSH2 0x77 PUSH2 0xE3 JUMP JUMPDEST PUSH1 0x40 MLOAD PUSH2 0x84 SWAP2 SWAP1 PUSH2 0x2FF JUMP JUMPDEST PUSH1 0x40 MLOAD DUP1 SWAP2 SUB SWAP1 RETURN JUMPDEST PUSH2 0xA7 PUSH1 0x4 DUP1 CALLDATASIZE SUB DUP2 ADD SWAP1 PUSH2 0xA2 SWAP2 SWAP1 PUSH2 0x1EB JUMP JUMPDEST PUSH2 0xE9 JUMP JUMPDEST PUSH1 0x40 MLOAD PUSH2 0xB5 SWAP3 SWAP2 SWAP1 PUSH2 0x2C8 JUMP JUMPDEST PUSH1 0x40 MLOAD DUP1 SWAP2 SUB SWAP1 RETURN JUMPDEST PUSH2 0xC6 PUSH2 0x11F JUMP JUMPDEST PUSH1 0x40 MLOAD PUSH2 0xD4 SWAP3 SWAP2 SWAP1 PUSH2 0x31A JUMP JUMPDEST PUSH1 0x40 MLOAD DUP1 SWAP2 SUB SWAP1 RETURN JUMPDEST PUSH1 0x0 SLOAD DUP2 JUMP JUMPDEST PUSH1 0x1 SLOAD DUP2 JUMP JUMPDEST PUSH1 0x60 DUP1 PUSH1 0x0 DUP4 SWAP1 POP PUSH1 0xB DUP2 PUSH1 0x0 DUP2 MLOAD DUP2 LT PUSH2 0x107 JUMPI PUSH2 0x106 PUSH2 0x408 JUMP JUMPDEST JUMPDEST PUSH1 0x20 MUL PUSH1 0x20 ADD ADD DUP2 DUP2 MSTORE POP POP DUP4 DUP2 SWAP3 POP SWAP3 POP POP SWAP2 POP SWAP2 JUMP JUMPDEST PUSH1 0x0 DUP1 PUSH1 0x5 PUSH1 0x0 DUP2 SWAP1 SSTORE POP PUSH1 0x0 SLOAD PUSH1 0x1 SLOAD SWAP2 POP SWAP2 POP SWAP1 SWAP2 JUMP JUMPDEST PUSH1 0x0 PUSH2 0x14B PUSH2 0x146 DUP5 PUSH2 0x368 JUMP JUMPDEST PUSH2 0x343 JUMP JUMPDEST SWAP1 POP DUP1 DUP4 DUP3 MSTORE PUSH1 0x20 DUP3 ADD SWAP1 POP DUP3 DUP6 PUSH1 0x20 DUP7 MUL DUP3 ADD GT ISZERO PUSH2 0x16E JUMPI PUSH2 0x16D PUSH2 0x46B JUMP JUMPDEST JUMPDEST PUSH1 0x0 JUMPDEST DUP6 DUP2 LT ISZERO PUSH2 0x19E JUMPI DUP2 PUSH2 0x184 DUP9 DUP3 PUSH2 0x1D6 JUMP JUMPDEST DUP5 MSTORE PUSH1 0x20 DUP5 ADD SWAP4 POP PUSH1 0x20 DUP4 ADD SWAP3 POP POP PUSH1 0x1 DUP2 ADD SWAP1 POP PUSH2 0x171 JUMP JUMPDEST POP POP POP SWAP4 SWAP3 POP POP POP JUMP JUMPDEST PUSH1 0x0 DUP3 PUSH1 0x1F DUP4 ADD SLT PUSH2 0x1BD JUMPI PUSH2 0x1BC PUSH2 0x466 JUMP JUMPDEST JUMPDEST DUP2 CALLDATALOAD PUSH2 0x1CD DUP5 DUP3 PUSH1 0x20 DUP7 ADD PUSH2 0x138 JUMP JUMPDEST SWAP2 POP POP SWAP3 SWAP2 POP POP JUMP JUMPDEST PUSH1 0x0 DUP2 CALLDATALOAD SWAP1 POP PUSH2 0x1E5 DUP2 PUSH2 0x48B JUMP JUMPDEST SWAP3 SWAP2 POP POP JUMP JUMPDEST PUSH1 0x0 PUSH1 0x20 DUP3 DUP5 SUB SLT ISZERO PUSH2 0x201 JUMPI PUSH2 0x200 PUSH2 0x475 JUMP JUMPDEST JUMPDEST PUSH1 0x0 DUP3 ADD CALLDATALOAD PUSH8 0xFFFFFFFFFFFFFFFF DUP2 GT ISZERO PUSH2 0x21F JUMPI PUSH2 0x21E PUSH2 0x470 JUMP JUMPDEST JUMPDEST PUSH2 0x22B DUP5 DUP3 DUP6 ADD PUSH2 0x1A8 JUMP JUMPDEST SWAP2 POP POP SWAP3 SWAP2 POP POP JUMP JUMPDEST PUSH1 0x0 PUSH2 0x240 DUP4 DUP4 PUSH2 0x2AA JUMP JUMPDEST PUSH1 0x20 DUP4 ADD SWAP1 POP SWAP3 SWAP2 POP POP JUMP JUMPDEST PUSH1 0x0 PUSH2 0x257 DUP3 PUSH2 0x3A4 JUMP JUMPDEST PUSH2 0x261 DUP2 DUP6 PUSH2 0x3BC JUMP JUMPDEST SWAP4 POP PUSH2 0x26C DUP4 PUSH2 0x394 JUMP JUMPDEST DUP1 PUSH1 0x0 JUMPDEST DUP4 DUP2 LT ISZERO PUSH2 0x29D JUMPI DUP2 MLOAD PUSH2 0x284 DUP9 DUP3 PUSH2 0x234 JUMP JUMPDEST SWAP8 POP PUSH2 0x28F DUP4 PUSH2 0x3AF JUMP JUMPDEST SWAP3 POP POP PUSH1 0x1 DUP2 ADD SWAP1 POP PUSH2 0x270 JUMP JUMPDEST POP DUP6 SWAP4 POP POP POP POP SWAP3 SWAP2 POP POP JUMP JUMPDEST PUSH2 0x2B3 DUP2 PUSH2 0x3CD JUMP JUMPDEST DUP3 MSTORE POP POP JUMP JUMPDEST PUSH2 0x2C2 DUP2 PUSH2 0x3CD JUMP JUMPDEST DUP3 MSTORE POP POP JUMP JUMPDEST PUSH1 0x0 PUSH1 0x40 DUP3 ADD SWAP1 POP DUP2 DUP2 SUB PUSH1 0x0 DUP4 ADD MSTORE PUSH2 0x2E2 DUP2 DUP6 PUSH2 0x24C JUMP JUMPDEST SWAP1 POP DUP2 DUP2 SUB PUSH1 0x20 DUP4 ADD MSTORE PUSH2 0x2F6 DUP2 DUP5 PUSH2 0x24C JUMP JUMPDEST SWAP1 POP SWAP4 SWAP3 POP POP POP JUMP JUMPDEST PUSH1 0x0 PUSH1 0x20 DUP3 ADD SWAP1 POP PUSH2 0x314 PUSH1 0x0 DUP4 ADD DUP5 PUSH2 0x2B9 JUMP JUMPDEST SWAP3 SWAP2 POP POP JUMP JUMPDEST PUSH1 0x0 PUSH1 0x40 DUP3 ADD SWAP1 POP PUSH2 0x32F PUSH1 0x0 DUP4 ADD DUP6 PUSH2 0x2B9 JUMP JUMPDEST PUSH2 0x33C PUSH1 0x20 DUP4 ADD DUP5 PUSH2 0x2B9 JUMP JUMPDEST SWAP4 SWAP3 POP POP POP JUMP JUMPDEST PUSH1 0x0 PUSH2 0x34D PUSH2 0x35E JUMP JUMPDEST SWAP1 POP PUSH2 0x359 DUP3 DUP3 PUSH2 0x3D7 JUMP JUMPDEST SWAP2 SWAP1 POP JUMP JUMPDEST PUSH1 0x0 PUSH1 0x40 MLOAD SWAP1 POP SWAP1 JUMP JUMPDEST PUSH1 0x0 PUSH8 0xFFFFFFFFFFFFFFFF DUP3 GT ISZERO PUSH2 0x383 JUMPI PUSH2 0x382 PUSH2 0x437 JUMP JUMPDEST JUMPDEST PUSH1 0x20 DUP3 MUL SWAP1 POP PUSH1 0x20 DUP2 ADD SWAP1 POP SWAP2 SWAP1 POP JUMP JUMPDEST PUSH1 0x0 DUP2 SWAP1 POP PUSH1 0x20 DUP3 ADD SWAP1 POP SWAP2 SWAP1 POP JUMP JUMPDEST PUSH1 0x0 DUP2 MLOAD SWAP1 POP SWAP2 SWAP1 POP JUMP JUMPDEST PUSH1 0x0 PUSH1 0x20 DUP3 ADD SWAP1 POP SWAP2 SWAP1 POP JUMP JUMPDEST PUSH1 0x0 DUP3 DUP3 MSTORE PUSH1 0x20 DUP3 ADD SWAP1 POP SWAP3 SWAP2 POP POP JUMP JUMPDEST PUSH1 0x0 DUP2 SWAP1 POP SWAP2 SWAP1 POP JUMP JUMPDEST PUSH2 0x3E0 DUP3 PUSH2 0x47A JUMP JUMPDEST DUP2 ADD DUP2 DUP2 LT PUSH8 0xFFFFFFFFFFFFFFFF DUP3 GT OR ISZERO PUSH2 0x3FF JUMPI PUSH2 0x3FE PUSH2 0x437 JUMP JUMPDEST JUMPDEST DUP1 PUSH1 0x40 MSTORE POP POP POP JUMP JUMPDEST PUSH32 0x4E487B7100000000000000000000000000000000000000000000000000000000 PUSH1 0x0 MSTORE PUSH1 0x32 PUSH1 0x4 MSTORE PUSH1 0x24 PUSH1 0x0 REVERT JUMPDEST PUSH32 0x4E487B7100000000000000000000000000000000000000000000000000000000 PUSH1 0x0 MSTORE PUSH1 0x41 PUSH1 0x4 MSTORE PUSH1 0x24 PUSH1 0x0 REVERT JUMPDEST PUSH1 0x0 DUP1 REVERT JUMPDEST PUSH1 0x0 DUP1 REVERT JUMPDEST PUSH1 0x0 DUP1 REVERT JUMPDEST PUSH1 0x0 DUP1 REVERT JUMPDEST PUSH1 0x0 PUSH1 0x1F NOT PUSH1 0x1F DUP4 ADD AND SWAP1 POP SWAP2 SWAP1 POP JUMP JUMPDEST PUSH2 0x494 DUP2 PUSH2 0x3CD JUMP JUMPDEST DUP2 EQ PUSH2 0x49F JUMPI PUSH1 0x0 DUP1 REVERT JUMPDEST POP JUMP INVALID LOG2 PUSH5 0x6970667358 0x22 SLT KECCAK256 RETURNDATACOPY 0xB5 0x4B SWAP9 0xE9 DUP11 PUSH17 0x2609D11F75D06F3284F8945FBF00EC9562 0xD7 CALL EXP DUP16 0x2F 0xD1 0xB6 0xEA PUSH5 0x736F6C6343 STOP ADDMOD SMOD STOP CALLER "
				},
				"gasEstimates": {
					"creation": {
						"codeDepositCost": "248000",
						"executionCost": "46599",
						"totalCost": "294599"
					},
					"external": {
						"a()": "2407",
						"b()": "2429",
						"changeA()": "infinite",
						"changeInput(uint256[])": "infinite"
					}
				},
				"methodIdentifiers": {
					"a()": "0dbe671f",
					"b()": "4df7e3d0",
					"changeA()": "d19fd469",
					"changeInput(uint256[])": "9023c4d1"
				}
			},
			"storageLayout": {
				"storage": [
					{
						"astId": 4,
						"contract": "chapter5/memo.sol:Ex_memory",
						"label": "a",
						"offset": 0,
						"slot": "0",
						"type": "t_uint256"
					},
					{
						"astId": 7,
						"contract": "chapter5/memo.sol:Ex_memory",
						"label": "b",
						"offset": 0,
						"slot": "1",
						"type": "t_uint256"
					}
				],
				"types": {
					"t_uint256": {
						"encoding": "inplace",
						"label": "uint256",
						"numberOfBytes": "32"
					}
				}
			},
			"userdoc": {
				"kind": "user",
				"methods": {},
				"version": 1
			}
		}
	}
}