{
	"chapter5/linearsearch.sol": {
		"Ex5_LS": {
			"abi": [
				{
					"inputs": [
						{
							"internalType": "uint256",
							"name": "",
							"type": "uint256"
						}
					],
					"name": "fruitArray",
					"outputs": [
						{
							"internalType": "string",
							"name": "",
							"type": "string"
						}
					],
					"stateMutability": "view",
					"type": "function"
				},
				{
					"inputs": [
						{
							"internalType": "string",
							"name": "_word",
							"type": "string"
						}
					],
					"name": "linearSearch",
					"outputs": [
						{
							"internalType": "uint256",
							"name": "",
							"type": "uint256"
						},
						{
							"internalType": "string",
							"name": "",
							"type": "string"
						}
					],
					"stateMutability": "view",
					"type": "function"
				}
			],
			"devdoc": {
				"kind": "dev",
				"methods": {},
				"version": 1
			},
			"evm": {
				"assembly": "    /* \"chapter5/linearsearch.sol\":66:507  contract Ex5_LS {... */\n  mstore(0x40, 0x80)\n    /* \"chapter5/linearsearch.sol\":88:167  string[] public fruitArray = [\"apple\", \"banana\", \"coconut\", \"durian\", \"etriog\"] */\n  mload(0x40)\n  dup1\n  0xa0\n  add\n  0x40\n  mstore\n  dup1\n  mload(0x40)\n  dup1\n  0x40\n  add\n  0x40\n  mstore\n  dup1\n  0x05\n  dup2\n  mstore\n  0x20\n  add\n  0x6170706c65000000000000000000000000000000000000000000000000000000\n  dup2\n  mstore\n  pop\n  dup2\n  mstore\n  0x20\n  add\n  mload(0x40)\n  dup1\n  0x40\n  add\n  0x40\n  mstore\n  dup1\n  0x06\n  dup2\n  mstore\n  0x20\n  add\n  0x62616e616e610000000000000000000000000000000000000000000000000000\n  dup2\n  mstore\n  pop\n  dup2\n  mstore\n  0x20\n  add\n  mload(0x40)\n  dup1\n  0x40\n  add\n  0x40\n  mstore\n  dup1\n  0x07\n  dup2\n  mstore\n  0x20\n  add\n  0x636f636f6e757400000000000000000000000000000000000000000000000000\n  dup2\n  mstore\n  pop\n  dup2\n  mstore\n  0x20\n  add\n  mload(0x40)\n  dup1\n  0x40\n  add\n  0x40\n  mstore\n  dup1\n  0x06\n  dup2\n  mstore\n  0x20\n  add\n  0x64757269616e0000000000000000000000000000000000000000000000000000\n  dup2\n  mstore\n  pop\n  dup2\n  mstore\n  0x20\n  add\n  mload(0x40)\n  dup1\n  0x40\n  add\n  0x40\n  mstore\n  dup1\n  0x06\n  dup2\n  mstore\n  0x20\n  add\n  0x657472696f670000000000000000000000000000000000000000000000000000\n  dup2\n  mstore\n  pop\n  dup2\n  mstore\n  pop\n  0x00\n  swap1\n  0x05\n  tag_1\n  swap3\n  swap2\n  swap1\n  tag_2\n  jump\t// in\ntag_1:\n  pop\n    /* \"chapter5/linearsearch.sol\":66:507  contract Ex5_LS {... */\n  callvalue\n  dup1\n  iszero\n  tag_3\n  jumpi\n  0x00\n  dup1\n  revert\ntag_3:\n  pop\n  jump(tag_4)\ntag_2:\n  dup3\n  dup1\n  sload\n  dup3\n  dup3\n  sstore\n  swap1\n  0x00\n  mstore\n  keccak256(0x00, 0x20)\n  swap1\n  dup2\n  add\n  swap3\n  dup3\n  iszero\n  tag_5\n  jumpi\n  swap2\n  0x20\n  mul\n  dup3\n  add\ntag_6:\n  dup3\n  dup2\n  gt\n  iszero\n  tag_7\n  jumpi\n  dup3\n  mload\n  dup3\n  swap1\n  dup1\n  mload\n  swap1\n  0x20\n  add\n  swap1\n  tag_8\n  swap3\n  swap2\n  swap1\n  tag_9\n  jump\t// in\ntag_8:\n  pop\n  swap2\n  0x20\n  add\n  swap2\n  swap1\n  0x01\n  add\n  swap1\n  jump(tag_6)\ntag_7:\ntag_5:\n  pop\n  swap1\n  pop\n  tag_10\n  swap2\n  swap1\n  tag_11\n  jump\t// in\ntag_10:\n  pop\n  swap1\n  jump\t// out\ntag_9:\n  dup3\n  dup1\n  sload\n  tag_12\n  swap1\n  tag_13\n  jump\t// in\ntag_12:\n  swap1\n  0x00\n  mstore\n  keccak256(0x00, 0x20)\n  swap1\n  0x1f\n  add\n  0x20\n  swap1\n  div\n  dup2\n  add\n  swap3\n  dup3\n  tag_15\n  jumpi\n  0x00\n  dup6\n  sstore\n  jump(tag_14)\ntag_15:\n  dup3\n  0x1f\n  lt\n  tag_16\n  jumpi\n  dup1\n  mload\n  not(0xff)\n  and\n  dup4\n  dup1\n  add\n  or\n  dup6\n  sstore\n  jump(tag_14)\ntag_16:\n  dup3\n  dup1\n  add\n  0x01\n  add\n  dup6\n  sstore\n  dup3\n  iszero\n  tag_14\n  jumpi\n  swap2\n  dup3\n  add\ntag_17:\n  dup3\n  dup2\n  gt\n  iszero\n  tag_18\n  jumpi\n  dup3\n  mload\n  dup3\n  sstore\n  swap2\n  0x20\n  add\n  swap2\n  swap1\n  0x01\n  add\n  swap1\n  jump(tag_17)\ntag_18:\ntag_14:\n  pop\n  swap1\n  pop\n  tag_19\n  swap2\n  swap1\n  tag_20\n  jump\t// in\ntag_19:\n  pop\n  swap1\n  jump\t// out\ntag_11:\ntag_21:\n  dup1\n  dup3\n  gt\n  iszero\n  tag_22\n  jumpi\n  0x00\n  dup2\n  dup2\n  tag_23\n  swap2\n  swap1\n  tag_24\n  jump\t// in\ntag_23:\n  pop\n  0x01\n  add\n  jump(tag_21)\ntag_22:\n  pop\n  swap1\n  jump\t// out\ntag_20:\ntag_25:\n  dup1\n  dup3\n  gt\n  iszero\n  tag_26\n  jumpi\n  0x00\n  dup2\n  0x00\n  swap1\n  sstore\n  pop\n  0x01\n  add\n  jump(tag_25)\ntag_26:\n  pop\n  swap1\n  jump\t// out\ntag_24:\n  pop\n  dup1\n  sload\n  tag_27\n  swap1\n  tag_13\n  jump\t// in\ntag_27:\n  0x00\n  dup3\n  sstore\n  dup1\n  0x1f\n  lt\n  tag_29\n  jumpi\n  pop\n  jump(tag_28)\ntag_29:\n  0x1f\n  add\n  0x20\n  swap1\n  div\n  swap1\n  0x00\n  mstore\n  keccak256(0x00, 0x20)\n  swap1\n  dup2\n  add\n  swap1\n  tag_30\n  swap2\n  swap1\n  tag_20\n  jump\t// in\ntag_30:\ntag_28:\n  pop\n  jump\t// out\n    /* \"#utility.yul\":7:327   */\ntag_13:\n    /* \"#utility.yul\":51:57   */\n  0x00\n    /* \"#utility.yul\":88:89   */\n  0x02\n    /* \"#utility.yul\":82:86   */\n  dup3\n    /* \"#utility.yul\":78:90   */\n  div\n    /* \"#utility.yul\":68:90   */\n  swap1\n  pop\n    /* \"#utility.yul\":135:136   */\n  0x01\n    /* \"#utility.yul\":129:133   */\n  dup3\n    /* \"#utility.yul\":125:137   */\n  and\n    /* \"#utility.yul\":156:174   */\n  dup1\n    /* \"#utility.yul\":146:227   */\n  tag_33\n  jumpi\n    /* \"#utility.yul\":212:216   */\n  0x7f\n    /* \"#utility.yul\":204:210   */\n  dup3\n    /* \"#utility.yul\":200:217   */\n  and\n    /* \"#utility.yul\":190:217   */\n  swap2\n  pop\n    /* \"#utility.yul\":146:227   */\ntag_33:\n    /* \"#utility.yul\":274:276   */\n  0x20\n    /* \"#utility.yul\":266:272   */\n  dup3\n    /* \"#utility.yul\":263:277   */\n  lt\n    /* \"#utility.yul\":243:261   */\n  dup2\n    /* \"#utility.yul\":240:278   */\n  eq\n    /* \"#utility.yul\":237:321   */\n  iszero\n  tag_34\n  jumpi\n    /* \"#utility.yul\":293:311   */\n  tag_35\n  tag_36\n  jump\t// in\ntag_35:\n    /* \"#utility.yul\":237:321   */\ntag_34:\n    /* \"#utility.yul\":58:327   */\n  pop\n    /* \"#utility.yul\":7:327   */\n  swap2\n  swap1\n  pop\n  jump\t// out\n    /* \"#utility.yul\":333:513   */\ntag_36:\n    /* \"#utility.yul\":381:458   */\n  0x4e487b7100000000000000000000000000000000000000000000000000000000\n    /* \"#utility.yul\":378:379   */\n  0x00\n    /* \"#utility.yul\":371:459   */\n  mstore\n    /* \"#utility.yul\":478:482   */\n  0x22\n    /* \"#utility.yul\":475:476   */\n  0x04\n    /* \"#utility.yul\":468:483   */\n  mstore\n    /* \"#utility.yul\":502:506   */\n  0x24\n    /* \"#utility.yul\":499:500   */\n  0x00\n    /* \"#utility.yul\":492:507   */\n  revert\n    /* \"chapter5/linearsearch.sol\":66:507  contract Ex5_LS {... */\ntag_4:\n  dataSize(sub_0)\n  dup1\n  dataOffset(sub_0)\n  0x00\n  codecopy\n  0x00\n  return\nstop\n\nsub_0: assembly {\n        /* \"chapter5/linearsearch.sol\":66:507  contract Ex5_LS {... */\n      mstore(0x40, 0x80)\n      callvalue\n      dup1\n      iszero\n      tag_1\n      jumpi\n      0x00\n      dup1\n      revert\n    tag_1:\n      pop\n      jumpi(tag_2, lt(calldatasize, 0x04))\n      shr(0xe0, calldataload(0x00))\n      dup1\n      0x655f478b\n      eq\n      tag_3\n      jumpi\n      dup1\n      0xdfaadcbf\n      eq\n      tag_4\n      jumpi\n    tag_2:\n      0x00\n      dup1\n      revert\n        /* \"chapter5/linearsearch.sol\":174:505  function linearSearch(string memory _word) public view returns(uint256, string memory) {... */\n    tag_3:\n      tag_5\n      0x04\n      dup1\n      calldatasize\n      sub\n      dup2\n      add\n      swap1\n      tag_6\n      swap2\n      swap1\n      tag_7\n      jump\t// in\n    tag_6:\n      tag_8\n      jump\t// in\n    tag_5:\n      mload(0x40)\n      tag_9\n      swap3\n      swap2\n      swap1\n      tag_10\n      jump\t// in\n    tag_9:\n      mload(0x40)\n      dup1\n      swap2\n      sub\n      swap1\n      return\n        /* \"chapter5/linearsearch.sol\":88:167  string[] public fruitArray = [\"apple\", \"banana\", \"coconut\", \"durian\", \"etriog\"] */\n    tag_4:\n      tag_11\n      0x04\n      dup1\n      calldatasize\n      sub\n      dup2\n      add\n      swap1\n      tag_12\n      swap2\n      swap1\n      tag_13\n      jump\t// in\n    tag_12:\n      tag_14\n      jump\t// in\n    tag_11:\n      mload(0x40)\n      tag_15\n      swap2\n      swap1\n      tag_16\n      jump\t// in\n    tag_15:\n      mload(0x40)\n      dup1\n      swap2\n      sub\n      swap1\n      return\n        /* \"chapter5/linearsearch.sol\":174:505  function linearSearch(string memory _word) public view returns(uint256, string memory) {... */\n    tag_8:\n        /* \"chapter5/linearsearch.sol\":237:244  uint256 */\n      0x00\n        /* \"chapter5/linearsearch.sol\":246:259  string memory */\n      0x60\n        /* \"chapter5/linearsearch.sol\":275:283  uint idx */\n      0x00\n        /* \"chapter5/linearsearch.sol\":271:468  for(uint idx =0; idx< fruitArray.length;++idx) {... */\n    tag_18:\n        /* \"chapter5/linearsearch.sol\":293:303  fruitArray */\n      0x00\n        /* \"chapter5/linearsearch.sol\":293:310  fruitArray.length */\n      dup1\n      sload\n      swap1\n      pop\n        /* \"chapter5/linearsearch.sol\":288:291  idx */\n      dup2\n        /* \"chapter5/linearsearch.sol\":288:310  idx< fruitArray.length */\n      lt\n        /* \"chapter5/linearsearch.sol\":271:468  for(uint idx =0; idx< fruitArray.length;++idx) {... */\n      iszero\n      tag_19\n      jumpi\n        /* \"chapter5/linearsearch.sol\":387:392  _word */\n      dup4\n        /* \"chapter5/linearsearch.sol\":371:394  keccak256(bytes(_word)) */\n      dup1\n      mload\n      swap1\n      0x20\n      add\n      keccak256\n        /* \"chapter5/linearsearch.sol\":351:361  fruitArray */\n      0x00\n        /* \"chapter5/linearsearch.sol\":362:365  idx */\n      dup3\n        /* \"chapter5/linearsearch.sol\":351:366  fruitArray[idx] */\n      dup2\n      sload\n      dup2\n      lt\n      tag_21\n      jumpi\n      tag_22\n      tag_23\n      jump\t// in\n    tag_22:\n    tag_21:\n      swap1\n      0x00\n      mstore\n      keccak256(0x00, 0x20)\n      add\n        /* \"chapter5/linearsearch.sol\":335:368  keccak256(bytes(fruitArray[idx])) */\n      mload(0x40)\n      tag_25\n      swap2\n      swap1\n      tag_26\n      jump\t// in\n    tag_25:\n      mload(0x40)\n      dup1\n      swap2\n      sub\n      swap1\n      keccak256\n        /* \"chapter5/linearsearch.sol\":335:394  keccak256(bytes(fruitArray[idx]))== keccak256(bytes(_word)) */\n      eq\n        /* \"chapter5/linearsearch.sol\":332:458  if(keccak256(bytes(fruitArray[idx]))== keccak256(bytes(_word))) {... */\n      iszero\n      tag_27\n      jumpi\n        /* \"chapter5/linearsearch.sol\":422:425  idx */\n      dup1\n        /* \"chapter5/linearsearch.sol\":427:437  fruitArray */\n      0x00\n        /* \"chapter5/linearsearch.sol\":438:441  idx */\n      dup3\n        /* \"chapter5/linearsearch.sol\":427:442  fruitArray[idx] */\n      dup2\n      sload\n      dup2\n      lt\n      tag_28\n      jumpi\n      tag_29\n      tag_23\n      jump\t// in\n    tag_29:\n    tag_28:\n      swap1\n      0x00\n      mstore\n      keccak256(0x00, 0x20)\n      add\n        /* \"chapter5/linearsearch.sol\":414:443  return (idx, fruitArray[idx]) */\n      dup1\n      dup1\n      sload\n      tag_31\n      swap1\n      tag_32\n      jump\t// in\n    tag_31:\n      dup1\n      0x1f\n      add\n      0x20\n      dup1\n      swap2\n      div\n      mul\n      0x20\n      add\n      mload(0x40)\n      swap1\n      dup2\n      add\n      0x40\n      mstore\n      dup1\n      swap3\n      swap2\n      swap1\n      dup2\n      dup2\n      mstore\n      0x20\n      add\n      dup3\n      dup1\n      sload\n      tag_33\n      swap1\n      tag_32\n      jump\t// in\n    tag_33:\n      dup1\n      iszero\n      tag_34\n      jumpi\n      dup1\n      0x1f\n      lt\n      tag_35\n      jumpi\n      0x0100\n      dup1\n      dup4\n      sload\n      div\n      mul\n      dup4\n      mstore\n      swap2\n      0x20\n      add\n      swap2\n      jump(tag_34)\n    tag_35:\n      dup3\n      add\n      swap2\n      swap1\n      0x00\n      mstore\n      keccak256(0x00, 0x20)\n      swap1\n    tag_36:\n      dup2\n      sload\n      dup2\n      mstore\n      swap1\n      0x01\n      add\n      swap1\n      0x20\n      add\n      dup1\n      dup4\n      gt\n      tag_36\n      jumpi\n      dup3\n      swap1\n      sub\n      0x1f\n      and\n      dup3\n      add\n      swap2\n    tag_34:\n      pop\n      pop\n      pop\n      pop\n      pop\n      swap1\n      pop\n      swap3\n      pop\n      swap3\n      pop\n      pop\n      jump(tag_17)\n        /* \"chapter5/linearsearch.sol\":332:458  if(keccak256(bytes(fruitArray[idx]))== keccak256(bytes(_word))) {... */\n    tag_27:\n        /* \"chapter5/linearsearch.sol\":311:316  ++idx */\n      dup1\n      tag_37\n      swap1\n      tag_38\n      jump\t// in\n    tag_37:\n      swap1\n      pop\n        /* \"chapter5/linearsearch.sol\":271:468  for(uint idx =0; idx< fruitArray.length;++idx) {... */\n      jump(tag_18)\n    tag_19:\n      pop\n        /* \"chapter5/linearsearch.sol\":485:486  0 */\n      0x00\n        /* \"chapter5/linearsearch.sol\":477:498  return (0, \"Nothing\") */\n      mload(0x40)\n      dup1\n      0x40\n      add\n      0x40\n      mstore\n      dup1\n      0x07\n      dup2\n      mstore\n      0x20\n      add\n      0x4e6f7468696e6700000000000000000000000000000000000000000000000000\n      dup2\n      mstore\n      pop\n      swap2\n      pop\n      swap2\n      pop\n        /* \"chapter5/linearsearch.sol\":174:505  function linearSearch(string memory _word) public view returns(uint256, string memory) {... */\n    tag_17:\n      swap2\n      pop\n      swap2\n      jump\t// out\n        /* \"chapter5/linearsearch.sol\":88:167  string[] public fruitArray = [\"apple\", \"banana\", \"coconut\", \"durian\", \"etriog\"] */\n    tag_14:\n      0x00\n      dup2\n      dup2\n      sload\n      dup2\n      lt\n      tag_39\n      jumpi\n      0x00\n      dup1\n      revert\n    tag_39:\n      swap1\n      0x00\n      mstore\n      keccak256(0x00, 0x20)\n      add\n      0x00\n      swap2\n      pop\n      swap1\n      pop\n      dup1\n      sload\n      tag_41\n      swap1\n      tag_32\n      jump\t// in\n    tag_41:\n      dup1\n      0x1f\n      add\n      0x20\n      dup1\n      swap2\n      div\n      mul\n      0x20\n      add\n      mload(0x40)\n      swap1\n      dup2\n      add\n      0x40\n      mstore\n      dup1\n      swap3\n      swap2\n      swap1\n      dup2\n      dup2\n      mstore\n      0x20\n      add\n      dup3\n      dup1\n      sload\n      tag_42\n      swap1\n      tag_32\n      jump\t// in\n    tag_42:\n      dup1\n      iszero\n      tag_43\n      jumpi\n      dup1\n      0x1f\n      lt\n      tag_44\n      jumpi\n      0x0100\n      dup1\n      dup4\n      sload\n      div\n      mul\n      dup4\n      mstore\n      swap2\n      0x20\n      add\n      swap2\n      jump(tag_43)\n    tag_44:\n      dup3\n      add\n      swap2\n      swap1\n      0x00\n      mstore\n      keccak256(0x00, 0x20)\n      swap1\n    tag_45:\n      dup2\n      sload\n      dup2\n      mstore\n      swap1\n      0x01\n      add\n      swap1\n      0x20\n      add\n      dup1\n      dup4\n      gt\n      tag_45\n      jumpi\n      dup3\n      swap1\n      sub\n      0x1f\n      and\n      dup3\n      add\n      swap2\n    tag_43:\n      pop\n      pop\n      pop\n      pop\n      pop\n      dup2\n      jump\t// out\n        /* \"#utility.yul\":7:419   */\n    tag_47:\n        /* \"#utility.yul\":85:90   */\n      0x00\n        /* \"#utility.yul\":110:176   */\n      tag_49\n        /* \"#utility.yul\":126:175   */\n      tag_50\n        /* \"#utility.yul\":168:174   */\n      dup5\n        /* \"#utility.yul\":126:175   */\n      tag_51\n      jump\t// in\n    tag_50:\n        /* \"#utility.yul\":110:176   */\n      tag_52\n      jump\t// in\n    tag_49:\n        /* \"#utility.yul\":101:176   */\n      swap1\n      pop\n        /* \"#utility.yul\":199:205   */\n      dup3\n        /* \"#utility.yul\":192:197   */\n      dup2\n        /* \"#utility.yul\":185:206   */\n      mstore\n        /* \"#utility.yul\":237:241   */\n      0x20\n        /* \"#utility.yul\":230:235   */\n      dup2\n        /* \"#utility.yul\":226:242   */\n      add\n        /* \"#utility.yul\":275:278   */\n      dup5\n        /* \"#utility.yul\":266:272   */\n      dup5\n        /* \"#utility.yul\":261:264   */\n      dup5\n        /* \"#utility.yul\":257:273   */\n      add\n        /* \"#utility.yul\":254:279   */\n      gt\n        /* \"#utility.yul\":251:363   */\n      iszero\n      tag_53\n      jumpi\n        /* \"#utility.yul\":282:361   */\n      tag_54\n      tag_55\n      jump\t// in\n    tag_54:\n        /* \"#utility.yul\":251:363   */\n    tag_53:\n        /* \"#utility.yul\":372:413   */\n      tag_56\n        /* \"#utility.yul\":406:412   */\n      dup5\n        /* \"#utility.yul\":401:404   */\n      dup3\n        /* \"#utility.yul\":396:399   */\n      dup6\n        /* \"#utility.yul\":372:413   */\n      tag_57\n      jump\t// in\n    tag_56:\n        /* \"#utility.yul\":91:419   */\n      pop\n        /* \"#utility.yul\":7:419   */\n      swap4\n      swap3\n      pop\n      pop\n      pop\n      jump\t// out\n        /* \"#utility.yul\":439:779   */\n    tag_58:\n        /* \"#utility.yul\":495:500   */\n      0x00\n        /* \"#utility.yul\":544:547   */\n      dup3\n        /* \"#utility.yul\":537:541   */\n      0x1f\n        /* \"#utility.yul\":529:535   */\n      dup4\n        /* \"#utility.yul\":525:542   */\n      add\n        /* \"#utility.yul\":521:548   */\n      slt\n        /* \"#utility.yul\":511:633   */\n      tag_60\n      jumpi\n        /* \"#utility.yul\":552:631   */\n      tag_61\n      tag_62\n      jump\t// in\n    tag_61:\n        /* \"#utility.yul\":511:633   */\n    tag_60:\n        /* \"#utility.yul\":669:675   */\n      dup2\n        /* \"#utility.yul\":656:676   */\n      calldataload\n        /* \"#utility.yul\":694:773   */\n      tag_63\n        /* \"#utility.yul\":769:772   */\n      dup5\n        /* \"#utility.yul\":761:767   */\n      dup3\n        /* \"#utility.yul\":754:758   */\n      0x20\n        /* \"#utility.yul\":746:752   */\n      dup7\n        /* \"#utility.yul\":742:759   */\n      add\n        /* \"#utility.yul\":694:773   */\n      tag_47\n      jump\t// in\n    tag_63:\n        /* \"#utility.yul\":685:773   */\n      swap2\n      pop\n        /* \"#utility.yul\":501:779   */\n      pop\n        /* \"#utility.yul\":439:779   */\n      swap3\n      swap2\n      pop\n      pop\n      jump\t// out\n        /* \"#utility.yul\":785:924   */\n    tag_64:\n        /* \"#utility.yul\":831:836   */\n      0x00\n        /* \"#utility.yul\":869:875   */\n      dup2\n        /* \"#utility.yul\":856:876   */\n      calldataload\n        /* \"#utility.yul\":847:876   */\n      swap1\n      pop\n        /* \"#utility.yul\":885:918   */\n      tag_66\n        /* \"#utility.yul\":912:917   */\n      dup2\n        /* \"#utility.yul\":885:918   */\n      tag_67\n      jump\t// in\n    tag_66:\n        /* \"#utility.yul\":785:924   */\n      swap3\n      swap2\n      pop\n      pop\n      jump\t// out\n        /* \"#utility.yul\":930:1439   */\n    tag_7:\n        /* \"#utility.yul\":999:1005   */\n      0x00\n        /* \"#utility.yul\":1048:1050   */\n      0x20\n        /* \"#utility.yul\":1036:1045   */\n      dup3\n        /* \"#utility.yul\":1027:1034   */\n      dup5\n        /* \"#utility.yul\":1023:1046   */\n      sub\n        /* \"#utility.yul\":1019:1051   */\n      slt\n        /* \"#utility.yul\":1016:1135   */\n      iszero\n      tag_69\n      jumpi\n        /* \"#utility.yul\":1054:1133   */\n      tag_70\n      tag_71\n      jump\t// in\n    tag_70:\n        /* \"#utility.yul\":1016:1135   */\n    tag_69:\n        /* \"#utility.yul\":1202:1203   */\n      0x00\n        /* \"#utility.yul\":1191:1200   */\n      dup3\n        /* \"#utility.yul\":1187:1204   */\n      add\n        /* \"#utility.yul\":1174:1205   */\n      calldataload\n        /* \"#utility.yul\":1232:1250   */\n      0xffffffffffffffff\n        /* \"#utility.yul\":1224:1230   */\n      dup2\n        /* \"#utility.yul\":1221:1251   */\n      gt\n        /* \"#utility.yul\":1218:1335   */\n      iszero\n      tag_72\n      jumpi\n        /* \"#utility.yul\":1254:1333   */\n      tag_73\n      tag_74\n      jump\t// in\n    tag_73:\n        /* \"#utility.yul\":1218:1335   */\n    tag_72:\n        /* \"#utility.yul\":1359:1422   */\n      tag_75\n        /* \"#utility.yul\":1414:1421   */\n      dup5\n        /* \"#utility.yul\":1405:1411   */\n      dup3\n        /* \"#utility.yul\":1394:1403   */\n      dup6\n        /* \"#utility.yul\":1390:1412   */\n      add\n        /* \"#utility.yul\":1359:1422   */\n      tag_58\n      jump\t// in\n    tag_75:\n        /* \"#utility.yul\":1349:1422   */\n      swap2\n      pop\n        /* \"#utility.yul\":1145:1432   */\n      pop\n        /* \"#utility.yul\":930:1439   */\n      swap3\n      swap2\n      pop\n      pop\n      jump\t// out\n        /* \"#utility.yul\":1445:1774   */\n    tag_13:\n        /* \"#utility.yul\":1504:1510   */\n      0x00\n        /* \"#utility.yul\":1553:1555   */\n      0x20\n        /* \"#utility.yul\":1541:1550   */\n      dup3\n        /* \"#utility.yul\":1532:1539   */\n      dup5\n        /* \"#utility.yul\":1528:1551   */\n      sub\n        /* \"#utility.yul\":1524:1556   */\n      slt\n        /* \"#utility.yul\":1521:1640   */\n      iszero\n      tag_77\n      jumpi\n        /* \"#utility.yul\":1559:1638   */\n      tag_78\n      tag_71\n      jump\t// in\n    tag_78:\n        /* \"#utility.yul\":1521:1640   */\n    tag_77:\n        /* \"#utility.yul\":1679:1680   */\n      0x00\n        /* \"#utility.yul\":1704:1757   */\n      tag_79\n        /* \"#utility.yul\":1749:1756   */\n      dup5\n        /* \"#utility.yul\":1740:1746   */\n      dup3\n        /* \"#utility.yul\":1729:1738   */\n      dup6\n        /* \"#utility.yul\":1725:1747   */\n      add\n        /* \"#utility.yul\":1704:1757   */\n      tag_64\n      jump\t// in\n    tag_79:\n        /* \"#utility.yul\":1694:1757   */\n      swap2\n      pop\n        /* \"#utility.yul\":1650:1767   */\n      pop\n        /* \"#utility.yul\":1445:1774   */\n      swap3\n      swap2\n      pop\n      pop\n      jump\t// out\n        /* \"#utility.yul\":1802:2651   */\n    tag_80:\n        /* \"#utility.yul\":1907:1910   */\n      0x00\n        /* \"#utility.yul\":1944:1949   */\n      dup2\n        /* \"#utility.yul\":1938:1950   */\n      sload\n        /* \"#utility.yul\":1973:2009   */\n      tag_82\n        /* \"#utility.yul\":1999:2008   */\n      dup2\n        /* \"#utility.yul\":1973:2009   */\n      tag_32\n      jump\t// in\n    tag_82:\n        /* \"#utility.yul\":2025:2113   */\n      tag_83\n        /* \"#utility.yul\":2106:2112   */\n      dup2\n        /* \"#utility.yul\":2101:2104   */\n      dup7\n        /* \"#utility.yul\":2025:2113   */\n      tag_84\n      jump\t// in\n    tag_83:\n        /* \"#utility.yul\":2018:2113   */\n      swap5\n      pop\n        /* \"#utility.yul\":2144:2145   */\n      0x01\n        /* \"#utility.yul\":2133:2142   */\n      dup3\n        /* \"#utility.yul\":2129:2146   */\n      and\n        /* \"#utility.yul\":2160:2161   */\n      0x00\n        /* \"#utility.yul\":2155:2292   */\n      dup2\n      eq\n      tag_86\n      jumpi\n        /* \"#utility.yul\":2306:2307   */\n      0x01\n        /* \"#utility.yul\":2301:2645   */\n      dup2\n      eq\n      tag_87\n      jumpi\n        /* \"#utility.yul\":2122:2645   */\n      jump(tag_85)\n        /* \"#utility.yul\":2155:2292   */\n    tag_86:\n        /* \"#utility.yul\":2239:2243   */\n      0xff\n        /* \"#utility.yul\":2235:2244   */\n      not\n        /* \"#utility.yul\":2224:2233   */\n      dup4\n        /* \"#utility.yul\":2220:2245   */\n      and\n        /* \"#utility.yul\":2215:2218   */\n      dup7\n        /* \"#utility.yul\":2208:2246   */\n      mstore\n        /* \"#utility.yul\":2275:2281   */\n      dup2\n        /* \"#utility.yul\":2270:2273   */\n      dup7\n        /* \"#utility.yul\":2266:2282   */\n      add\n        /* \"#utility.yul\":2259:2282   */\n      swap4\n      pop\n        /* \"#utility.yul\":2155:2292   */\n      jump(tag_85)\n        /* \"#utility.yul\":2301:2645   */\n    tag_87:\n        /* \"#utility.yul\":2368:2409   */\n      tag_88\n        /* \"#utility.yul\":2403:2408   */\n      dup6\n        /* \"#utility.yul\":2368:2409   */\n      tag_89\n      jump\t// in\n    tag_88:\n        /* \"#utility.yul\":2431:2432   */\n      0x00\n        /* \"#utility.yul\":2445:2599   */\n    tag_90:\n        /* \"#utility.yul\":2459:2465   */\n      dup4\n        /* \"#utility.yul\":2456:2457   */\n      dup2\n        /* \"#utility.yul\":2453:2466   */\n      lt\n        /* \"#utility.yul\":2445:2599   */\n      iszero\n      tag_92\n      jumpi\n        /* \"#utility.yul\":2533:2540   */\n      dup2\n        /* \"#utility.yul\":2527:2541   */\n      sload\n        /* \"#utility.yul\":2523:2524   */\n      dup2\n        /* \"#utility.yul\":2518:2521   */\n      dup10\n        /* \"#utility.yul\":2514:2525   */\n      add\n        /* \"#utility.yul\":2507:2542   */\n      mstore\n        /* \"#utility.yul\":2583:2584   */\n      0x01\n        /* \"#utility.yul\":2574:2581   */\n      dup3\n        /* \"#utility.yul\":2570:2585   */\n      add\n        /* \"#utility.yul\":2559:2585   */\n      swap2\n      pop\n        /* \"#utility.yul\":2481:2485   */\n      0x20\n        /* \"#utility.yul\":2478:2479   */\n      dup2\n        /* \"#utility.yul\":2474:2486   */\n      add\n        /* \"#utility.yul\":2469:2486   */\n      swap1\n      pop\n        /* \"#utility.yul\":2445:2599   */\n      jump(tag_90)\n    tag_92:\n        /* \"#utility.yul\":2628:2634   */\n      dup4\n        /* \"#utility.yul\":2623:2626   */\n      dup9\n        /* \"#utility.yul\":2619:2635   */\n      add\n        /* \"#utility.yul\":2612:2635   */\n      swap6\n      pop\n        /* \"#utility.yul\":2308:2645   */\n      pop\n      pop\n        /* \"#utility.yul\":2122:2645   */\n    tag_85:\n      pop\n        /* \"#utility.yul\":1911:2651   */\n      pop\n      pop\n        /* \"#utility.yul\":1802:2651   */\n      swap3\n      swap2\n      pop\n      pop\n      jump\t// out\n        /* \"#utility.yul\":2657:3021   */\n    tag_93:\n        /* \"#utility.yul\":2745:2748   */\n      0x00\n        /* \"#utility.yul\":2773:2812   */\n      tag_95\n        /* \"#utility.yul\":2806:2811   */\n      dup3\n        /* \"#utility.yul\":2773:2812   */\n      tag_96\n      jump\t// in\n    tag_95:\n        /* \"#utility.yul\":2828:2899   */\n      tag_97\n        /* \"#utility.yul\":2892:2898   */\n      dup2\n        /* \"#utility.yul\":2887:2890   */\n      dup6\n        /* \"#utility.yul\":2828:2899   */\n      tag_98\n      jump\t// in\n    tag_97:\n        /* \"#utility.yul\":2821:2899   */\n      swap4\n      pop\n        /* \"#utility.yul\":2908:2960   */\n      tag_99\n        /* \"#utility.yul\":2953:2959   */\n      dup2\n        /* \"#utility.yul\":2948:2951   */\n      dup6\n        /* \"#utility.yul\":2941:2945   */\n      0x20\n        /* \"#utility.yul\":2934:2939   */\n      dup7\n        /* \"#utility.yul\":2930:2946   */\n      add\n        /* \"#utility.yul\":2908:2960   */\n      tag_100\n      jump\t// in\n    tag_99:\n        /* \"#utility.yul\":2985:3014   */\n      tag_101\n        /* \"#utility.yul\":3007:3013   */\n      dup2\n        /* \"#utility.yul\":2985:3014   */\n      tag_102\n      jump\t// in\n    tag_101:\n        /* \"#utility.yul\":2980:2983   */\n      dup5\n        /* \"#utility.yul\":2976:3015   */\n      add\n        /* \"#utility.yul\":2969:3015   */\n      swap2\n      pop\n        /* \"#utility.yul\":2749:3021   */\n      pop\n        /* \"#utility.yul\":2657:3021   */\n      swap3\n      swap2\n      pop\n      pop\n      jump\t// out\n        /* \"#utility.yul\":3027:3145   */\n    tag_103:\n        /* \"#utility.yul\":3114:3138   */\n      tag_105\n        /* \"#utility.yul\":3132:3137   */\n      dup2\n        /* \"#utility.yul\":3114:3138   */\n      tag_106\n      jump\t// in\n    tag_105:\n        /* \"#utility.yul\":3109:3112   */\n      dup3\n        /* \"#utility.yul\":3102:3139   */\n      mstore\n        /* \"#utility.yul\":3027:3145   */\n      pop\n      pop\n      jump\t// out\n        /* \"#utility.yul\":3151:3424   */\n    tag_26:\n        /* \"#utility.yul\":3282:3285   */\n      0x00\n        /* \"#utility.yul\":3304:3398   */\n      tag_108\n        /* \"#utility.yul\":3394:3397   */\n      dup3\n        /* \"#utility.yul\":3385:3391   */\n      dup5\n        /* \"#utility.yul\":3304:3398   */\n      tag_80\n      jump\t// in\n    tag_108:\n        /* \"#utility.yul\":3297:3398   */\n      swap2\n      pop\n        /* \"#utility.yul\":3415:3418   */\n      dup2\n        /* \"#utility.yul\":3408:3418   */\n      swap1\n      pop\n        /* \"#utility.yul\":3151:3424   */\n      swap3\n      swap2\n      pop\n      pop\n      jump\t// out\n        /* \"#utility.yul\":3430:3743   */\n    tag_16:\n        /* \"#utility.yul\":3543:3547   */\n      0x00\n        /* \"#utility.yul\":3581:3583   */\n      0x20\n        /* \"#utility.yul\":3570:3579   */\n      dup3\n        /* \"#utility.yul\":3566:3584   */\n      add\n        /* \"#utility.yul\":3558:3584   */\n      swap1\n      pop\n        /* \"#utility.yul\":3630:3639   */\n      dup2\n        /* \"#utility.yul\":3624:3628   */\n      dup2\n        /* \"#utility.yul\":3620:3640   */\n      sub\n        /* \"#utility.yul\":3616:3617   */\n      0x00\n        /* \"#utility.yul\":3605:3614   */\n      dup4\n        /* \"#utility.yul\":3601:3618   */\n      add\n        /* \"#utility.yul\":3594:3641   */\n      mstore\n        /* \"#utility.yul\":3658:3736   */\n      tag_110\n        /* \"#utility.yul\":3731:3735   */\n      dup2\n        /* \"#utility.yul\":3722:3728   */\n      dup5\n        /* \"#utility.yul\":3658:3736   */\n      tag_93\n      jump\t// in\n    tag_110:\n        /* \"#utility.yul\":3650:3736   */\n      swap1\n      pop\n        /* \"#utility.yul\":3430:3743   */\n      swap3\n      swap2\n      pop\n      pop\n      jump\t// out\n        /* \"#utility.yul\":3749:4172   */\n    tag_10:\n        /* \"#utility.yul\":3890:3894   */\n      0x00\n        /* \"#utility.yul\":3928:3930   */\n      0x40\n        /* \"#utility.yul\":3917:3926   */\n      dup3\n        /* \"#utility.yul\":3913:3931   */\n      add\n        /* \"#utility.yul\":3905:3931   */\n      swap1\n      pop\n        /* \"#utility.yul\":3941:4012   */\n      tag_112\n        /* \"#utility.yul\":4009:4010   */\n      0x00\n        /* \"#utility.yul\":3998:4007   */\n      dup4\n        /* \"#utility.yul\":3994:4011   */\n      add\n        /* \"#utility.yul\":3985:3991   */\n      dup6\n        /* \"#utility.yul\":3941:4012   */\n      tag_103\n      jump\t// in\n    tag_112:\n        /* \"#utility.yul\":4059:4068   */\n      dup2\n        /* \"#utility.yul\":4053:4057   */\n      dup2\n        /* \"#utility.yul\":4049:4069   */\n      sub\n        /* \"#utility.yul\":4044:4046   */\n      0x20\n        /* \"#utility.yul\":4033:4042   */\n      dup4\n        /* \"#utility.yul\":4029:4047   */\n      add\n        /* \"#utility.yul\":4022:4070   */\n      mstore\n        /* \"#utility.yul\":4087:4165   */\n      tag_113\n        /* \"#utility.yul\":4160:4164   */\n      dup2\n        /* \"#utility.yul\":4151:4157   */\n      dup5\n        /* \"#utility.yul\":4087:4165   */\n      tag_93\n      jump\t// in\n    tag_113:\n        /* \"#utility.yul\":4079:4165   */\n      swap1\n      pop\n        /* \"#utility.yul\":3749:4172   */\n      swap4\n      swap3\n      pop\n      pop\n      pop\n      jump\t// out\n        /* \"#utility.yul\":4178:4307   */\n    tag_52:\n        /* \"#utility.yul\":4212:4218   */\n      0x00\n        /* \"#utility.yul\":4239:4259   */\n      tag_115\n      tag_116\n      jump\t// in\n    tag_115:\n        /* \"#utility.yul\":4229:4259   */\n      swap1\n      pop\n        /* \"#utility.yul\":4268:4301   */\n      tag_117\n        /* \"#utility.yul\":4296:4300   */\n      dup3\n        /* \"#utility.yul\":4288:4294   */\n      dup3\n        /* \"#utility.yul\":4268:4301   */\n      tag_118\n      jump\t// in\n    tag_117:\n        /* \"#utility.yul\":4178:4307   */\n      swap2\n      swap1\n      pop\n      jump\t// out\n        /* \"#utility.yul\":4313:4388   */\n    tag_116:\n        /* \"#utility.yul\":4346:4352   */\n      0x00\n        /* \"#utility.yul\":4379:4381   */\n      0x40\n        /* \"#utility.yul\":4373:4382   */\n      mload\n        /* \"#utility.yul\":4363:4382   */\n      swap1\n      pop\n        /* \"#utility.yul\":4313:4388   */\n      swap1\n      jump\t// out\n        /* \"#utility.yul\":4394:4702   */\n    tag_51:\n        /* \"#utility.yul\":4456:4460   */\n      0x00\n        /* \"#utility.yul\":4546:4564   */\n      0xffffffffffffffff\n        /* \"#utility.yul\":4538:4544   */\n      dup3\n        /* \"#utility.yul\":4535:4565   */\n      gt\n        /* \"#utility.yul\":4532:4588   */\n      iszero\n      tag_121\n      jumpi\n        /* \"#utility.yul\":4568:4586   */\n      tag_122\n      tag_123\n      jump\t// in\n    tag_122:\n        /* \"#utility.yul\":4532:4588   */\n    tag_121:\n        /* \"#utility.yul\":4606:4635   */\n      tag_124\n        /* \"#utility.yul\":4628:4634   */\n      dup3\n        /* \"#utility.yul\":4606:4635   */\n      tag_102\n      jump\t// in\n    tag_124:\n        /* \"#utility.yul\":4598:4635   */\n      swap1\n      pop\n        /* \"#utility.yul\":4690:4694   */\n      0x20\n        /* \"#utility.yul\":4684:4688   */\n      dup2\n        /* \"#utility.yul\":4680:4695   */\n      add\n        /* \"#utility.yul\":4672:4695   */\n      swap1\n      pop\n        /* \"#utility.yul\":4394:4702   */\n      swap2\n      swap1\n      pop\n      jump\t// out\n        /* \"#utility.yul\":4708:4852   */\n    tag_89:\n        /* \"#utility.yul\":4760:4764   */\n      0x00\n        /* \"#utility.yul\":4783:4786   */\n      dup2\n        /* \"#utility.yul\":4775:4786   */\n      swap1\n      pop\n        /* \"#utility.yul\":4806:4809   */\n      dup2\n        /* \"#utility.yul\":4803:4804   */\n      0x00\n        /* \"#utility.yul\":4796:4810   */\n      mstore\n        /* \"#utility.yul\":4840:4844   */\n      0x20\n        /* \"#utility.yul\":4837:4838   */\n      0x00\n        /* \"#utility.yul\":4827:4845   */\n      keccak256\n        /* \"#utility.yul\":4819:4845   */\n      swap1\n      pop\n        /* \"#utility.yul\":4708:4852   */\n      swap2\n      swap1\n      pop\n      jump\t// out\n        /* \"#utility.yul\":4858:4957   */\n    tag_96:\n        /* \"#utility.yul\":4910:4916   */\n      0x00\n        /* \"#utility.yul\":4944:4949   */\n      dup2\n        /* \"#utility.yul\":4938:4950   */\n      mload\n        /* \"#utility.yul\":4928:4950   */\n      swap1\n      pop\n        /* \"#utility.yul\":4858:4957   */\n      swap2\n      swap1\n      pop\n      jump\t// out\n        /* \"#utility.yul\":4963:5110   */\n    tag_84:\n        /* \"#utility.yul\":5064:5075   */\n      0x00\n        /* \"#utility.yul\":5101:5104   */\n      dup2\n        /* \"#utility.yul\":5086:5104   */\n      swap1\n      pop\n        /* \"#utility.yul\":4963:5110   */\n      swap3\n      swap2\n      pop\n      pop\n      jump\t// out\n        /* \"#utility.yul\":5116:5285   */\n    tag_98:\n        /* \"#utility.yul\":5200:5211   */\n      0x00\n        /* \"#utility.yul\":5234:5240   */\n      dup3\n        /* \"#utility.yul\":5229:5232   */\n      dup3\n        /* \"#utility.yul\":5222:5241   */\n      mstore\n        /* \"#utility.yul\":5274:5278   */\n      0x20\n        /* \"#utility.yul\":5269:5272   */\n      dup3\n        /* \"#utility.yul\":5265:5279   */\n      add\n        /* \"#utility.yul\":5250:5279   */\n      swap1\n      pop\n        /* \"#utility.yul\":5116:5285   */\n      swap3\n      swap2\n      pop\n      pop\n      jump\t// out\n        /* \"#utility.yul\":5291:5368   */\n    tag_106:\n        /* \"#utility.yul\":5328:5335   */\n      0x00\n        /* \"#utility.yul\":5357:5362   */\n      dup2\n        /* \"#utility.yul\":5346:5362   */\n      swap1\n      pop\n        /* \"#utility.yul\":5291:5368   */\n      swap2\n      swap1\n      pop\n      jump\t// out\n        /* \"#utility.yul\":5374:5528   */\n    tag_57:\n        /* \"#utility.yul\":5458:5464   */\n      dup3\n        /* \"#utility.yul\":5453:5456   */\n      dup2\n        /* \"#utility.yul\":5448:5451   */\n      dup4\n        /* \"#utility.yul\":5435:5465   */\n      calldatacopy\n        /* \"#utility.yul\":5520:5521   */\n      0x00\n        /* \"#utility.yul\":5511:5517   */\n      dup4\n        /* \"#utility.yul\":5506:5509   */\n      dup4\n        /* \"#utility.yul\":5502:5518   */\n      add\n        /* \"#utility.yul\":5495:5522   */\n      mstore\n        /* \"#utility.yul\":5374:5528   */\n      pop\n      pop\n      pop\n      jump\t// out\n        /* \"#utility.yul\":5534:5841   */\n    tag_100:\n        /* \"#utility.yul\":5602:5603   */\n      0x00\n        /* \"#utility.yul\":5612:5725   */\n    tag_132:\n        /* \"#utility.yul\":5626:5632   */\n      dup4\n        /* \"#utility.yul\":5623:5624   */\n      dup2\n        /* \"#utility.yul\":5620:5633   */\n      lt\n        /* \"#utility.yul\":5612:5725   */\n      iszero\n      tag_134\n      jumpi\n        /* \"#utility.yul\":5711:5712   */\n      dup1\n        /* \"#utility.yul\":5706:5709   */\n      dup3\n        /* \"#utility.yul\":5702:5713   */\n      add\n        /* \"#utility.yul\":5696:5714   */\n      mload\n        /* \"#utility.yul\":5692:5693   */\n      dup2\n        /* \"#utility.yul\":5687:5690   */\n      dup5\n        /* \"#utility.yul\":5683:5694   */\n      add\n        /* \"#utility.yul\":5676:5715   */\n      mstore\n        /* \"#utility.yul\":5648:5650   */\n      0x20\n        /* \"#utility.yul\":5645:5646   */\n      dup2\n        /* \"#utility.yul\":5641:5651   */\n      add\n        /* \"#utility.yul\":5636:5651   */\n      swap1\n      pop\n        /* \"#utility.yul\":5612:5725   */\n      jump(tag_132)\n    tag_134:\n        /* \"#utility.yul\":5743:5749   */\n      dup4\n        /* \"#utility.yul\":5740:5741   */\n      dup2\n        /* \"#utility.yul\":5737:5750   */\n      gt\n        /* \"#utility.yul\":5734:5835   */\n      iszero\n      tag_135\n      jumpi\n        /* \"#utility.yul\":5823:5824   */\n      0x00\n        /* \"#utility.yul\":5814:5820   */\n      dup5\n        /* \"#utility.yul\":5809:5812   */\n      dup5\n        /* \"#utility.yul\":5805:5821   */\n      add\n        /* \"#utility.yul\":5798:5825   */\n      mstore\n        /* \"#utility.yul\":5734:5835   */\n    tag_135:\n        /* \"#utility.yul\":5583:5841   */\n      pop\n        /* \"#utility.yul\":5534:5841   */\n      pop\n      pop\n      pop\n      jump\t// out\n        /* \"#utility.yul\":5847:6167   */\n    tag_32:\n        /* \"#utility.yul\":5891:5897   */\n      0x00\n        /* \"#utility.yul\":5928:5929   */\n      0x02\n        /* \"#utility.yul\":5922:5926   */\n      dup3\n        /* \"#utility.yul\":5918:5930   */\n      div\n        /* \"#utility.yul\":5908:5930   */\n      swap1\n      pop\n        /* \"#utility.yul\":5975:5976   */\n      0x01\n        /* \"#utility.yul\":5969:5973   */\n      dup3\n        /* \"#utility.yul\":5965:5977   */\n      and\n        /* \"#utility.yul\":5996:6014   */\n      dup1\n        /* \"#utility.yul\":5986:6067   */\n      tag_137\n      jumpi\n        /* \"#utility.yul\":6052:6056   */\n      0x7f\n        /* \"#utility.yul\":6044:6050   */\n      dup3\n        /* \"#utility.yul\":6040:6057   */\n      and\n        /* \"#utility.yul\":6030:6057   */\n      swap2\n      pop\n        /* \"#utility.yul\":5986:6067   */\n    tag_137:\n        /* \"#utility.yul\":6114:6116   */\n      0x20\n        /* \"#utility.yul\":6106:6112   */\n      dup3\n        /* \"#utility.yul\":6103:6117   */\n      lt\n        /* \"#utility.yul\":6083:6101   */\n      dup2\n        /* \"#utility.yul\":6080:6118   */\n      eq\n        /* \"#utility.yul\":6077:6161   */\n      iszero\n      tag_138\n      jumpi\n        /* \"#utility.yul\":6133:6151   */\n      tag_139\n      tag_140\n      jump\t// in\n    tag_139:\n        /* \"#utility.yul\":6077:6161   */\n    tag_138:\n        /* \"#utility.yul\":5898:6167   */\n      pop\n        /* \"#utility.yul\":5847:6167   */\n      swap2\n      swap1\n      pop\n      jump\t// out\n        /* \"#utility.yul\":6173:6454   */\n    tag_118:\n        /* \"#utility.yul\":6256:6283   */\n      tag_142\n        /* \"#utility.yul\":6278:6282   */\n      dup3\n        /* \"#utility.yul\":6256:6283   */\n      tag_102\n      jump\t// in\n    tag_142:\n        /* \"#utility.yul\":6248:6254   */\n      dup2\n        /* \"#utility.yul\":6244:6284   */\n      add\n        /* \"#utility.yul\":6386:6392   */\n      dup2\n        /* \"#utility.yul\":6374:6384   */\n      dup2\n        /* \"#utility.yul\":6371:6393   */\n      lt\n        /* \"#utility.yul\":6350:6368   */\n      0xffffffffffffffff\n        /* \"#utility.yul\":6338:6348   */\n      dup3\n        /* \"#utility.yul\":6335:6369   */\n      gt\n        /* \"#utility.yul\":6332:6394   */\n      or\n        /* \"#utility.yul\":6329:6417   */\n      iszero\n      tag_143\n      jumpi\n        /* \"#utility.yul\":6397:6415   */\n      tag_144\n      tag_123\n      jump\t// in\n    tag_144:\n        /* \"#utility.yul\":6329:6417   */\n    tag_143:\n        /* \"#utility.yul\":6437:6447   */\n      dup1\n        /* \"#utility.yul\":6433:6435   */\n      0x40\n        /* \"#utility.yul\":6426:6448   */\n      mstore\n        /* \"#utility.yul\":6216:6454   */\n      pop\n        /* \"#utility.yul\":6173:6454   */\n      pop\n      pop\n      jump\t// out\n        /* \"#utility.yul\":6460:6693   */\n    tag_38:\n        /* \"#utility.yul\":6499:6502   */\n      0x00\n        /* \"#utility.yul\":6522:6546   */\n      tag_146\n        /* \"#utility.yul\":6540:6545   */\n      dup3\n        /* \"#utility.yul\":6522:6546   */\n      tag_106\n      jump\t// in\n    tag_146:\n        /* \"#utility.yul\":6513:6546   */\n      swap2\n      pop\n        /* \"#utility.yul\":6568:6634   */\n      0xffffffffffffffffffffffffffffffffffffffffffffffffffffffffffffffff\n        /* \"#utility.yul\":6561:6566   */\n      dup3\n        /* \"#utility.yul\":6558:6635   */\n      eq\n        /* \"#utility.yul\":6555:6658   */\n      iszero\n      tag_147\n      jumpi\n        /* \"#utility.yul\":6638:6656   */\n      tag_148\n      tag_149\n      jump\t// in\n    tag_148:\n        /* \"#utility.yul\":6555:6658   */\n    tag_147:\n        /* \"#utility.yul\":6685:6686   */\n      0x01\n        /* \"#utility.yul\":6678:6683   */\n      dup3\n        /* \"#utility.yul\":6674:6687   */\n      add\n        /* \"#utility.yul\":6667:6687   */\n      swap1\n      pop\n        /* \"#utility.yul\":6460:6693   */\n      swap2\n      swap1\n      pop\n      jump\t// out\n        /* \"#utility.yul\":6699:6879   */\n    tag_149:\n        /* \"#utility.yul\":6747:6824   */\n      0x4e487b7100000000000000000000000000000000000000000000000000000000\n        /* \"#utility.yul\":6744:6745   */\n      0x00\n        /* \"#utility.yul\":6737:6825   */\n      mstore\n        /* \"#utility.yul\":6844:6848   */\n      0x11\n        /* \"#utility.yul\":6841:6842   */\n      0x04\n        /* \"#utility.yul\":6834:6849   */\n      mstore\n        /* \"#utility.yul\":6868:6872   */\n      0x24\n        /* \"#utility.yul\":6865:6866   */\n      0x00\n        /* \"#utility.yul\":6858:6873   */\n      revert\n        /* \"#utility.yul\":6885:7065   */\n    tag_140:\n        /* \"#utility.yul\":6933:7010   */\n      0x4e487b7100000000000000000000000000000000000000000000000000000000\n        /* \"#utility.yul\":6930:6931   */\n      0x00\n        /* \"#utility.yul\":6923:7011   */\n      mstore\n        /* \"#utility.yul\":7030:7034   */\n      0x22\n        /* \"#utility.yul\":7027:7028   */\n      0x04\n        /* \"#utility.yul\":7020:7035   */\n      mstore\n        /* \"#utility.yul\":7054:7058   */\n      0x24\n        /* \"#utility.yul\":7051:7052   */\n      0x00\n        /* \"#utility.yul\":7044:7059   */\n      revert\n        /* \"#utility.yul\":7071:7251   */\n    tag_23:\n        /* \"#utility.yul\":7119:7196   */\n      0x4e487b7100000000000000000000000000000000000000000000000000000000\n        /* \"#utility.yul\":7116:7117   */\n      0x00\n        /* \"#utility.yul\":7109:7197   */\n      mstore\n        /* \"#utility.yul\":7216:7220   */\n      0x32\n        /* \"#utility.yul\":7213:7214   */\n      0x04\n        /* \"#utility.yul\":7206:7221   */\n      mstore\n        /* \"#utility.yul\":7240:7244   */\n      0x24\n        /* \"#utility.yul\":7237:7238   */\n      0x00\n        /* \"#utility.yul\":7230:7245   */\n      revert\n        /* \"#utility.yul\":7257:7437   */\n    tag_123:\n        /* \"#utility.yul\":7305:7382   */\n      0x4e487b7100000000000000000000000000000000000000000000000000000000\n        /* \"#utility.yul\":7302:7303   */\n      0x00\n        /* \"#utility.yul\":7295:7383   */\n      mstore\n        /* \"#utility.yul\":7402:7406   */\n      0x41\n        /* \"#utility.yul\":7399:7400   */\n      0x04\n        /* \"#utility.yul\":7392:7407   */\n      mstore\n        /* \"#utility.yul\":7426:7430   */\n      0x24\n        /* \"#utility.yul\":7423:7424   */\n      0x00\n        /* \"#utility.yul\":7416:7431   */\n      revert\n        /* \"#utility.yul\":7443:7560   */\n    tag_62:\n        /* \"#utility.yul\":7552:7553   */\n      0x00\n        /* \"#utility.yul\":7549:7550   */\n      dup1\n        /* \"#utility.yul\":7542:7554   */\n      revert\n        /* \"#utility.yul\":7566:7683   */\n    tag_55:\n        /* \"#utility.yul\":7675:7676   */\n      0x00\n        /* \"#utility.yul\":7672:7673   */\n      dup1\n        /* \"#utility.yul\":7665:7677   */\n      revert\n        /* \"#utility.yul\":7689:7806   */\n    tag_74:\n        /* \"#utility.yul\":7798:7799   */\n      0x00\n        /* \"#utility.yul\":7795:7796   */\n      dup1\n        /* \"#utility.yul\":7788:7800   */\n      revert\n        /* \"#utility.yul\":7812:7929   */\n    tag_71:\n        /* \"#utility.yul\":7921:7922   */\n      0x00\n        /* \"#utility.yul\":7918:7919   */\n      dup1\n        /* \"#utility.yul\":7911:7923   */\n      revert\n        /* \"#utility.yul\":7935:8037   */\n    tag_102:\n        /* \"#utility.yul\":7976:7982   */\n      0x00\n        /* \"#utility.yul\":8027:8029   */\n      0x1f\n        /* \"#utility.yul\":8023:8030   */\n      not\n        /* \"#utility.yul\":8018:8020   */\n      0x1f\n        /* \"#utility.yul\":8011:8016   */\n      dup4\n        /* \"#utility.yul\":8007:8021   */\n      add\n        /* \"#utility.yul\":8003:8031   */\n      and\n        /* \"#utility.yul\":7993:8031   */\n      swap1\n      pop\n        /* \"#utility.yul\":7935:8037   */\n      swap2\n      swap1\n      pop\n      jump\t// out\n        /* \"#utility.yul\":8043:8165   */\n    tag_67:\n        /* \"#utility.yul\":8116:8140   */\n      tag_160\n        /* \"#utility.yul\":8134:8139   */\n      dup2\n        /* \"#utility.yul\":8116:8140   */\n      tag_106\n      jump\t// in\n    tag_160:\n        /* \"#utility.yul\":8109:8114   */\n      dup2\n        /* \"#utility.yul\":8106:8141   */\n      eq\n        /* \"#utility.yul\":8096:8159   */\n      tag_161\n      jumpi\n        /* \"#utility.yul\":8155:8156   */\n      0x00\n        /* \"#utility.yul\":8152:8153   */\n      dup1\n        /* \"#utility.yul\":8145:8157   */\n      revert\n        /* \"#utility.yul\":8096:8159   */\n    tag_161:\n        /* \"#utility.yul\":8043:8165   */\n      pop\n      jump\t// out\n\n    auxdata: 0xa2646970667358221220904571f0d8b1075bf57bc68f7cd3fc972ed9ddafcbc5fff17506fa17bc7dafb364736f6c63430008070033\n}\n",
				"bytecode": {
					"linkReferences": {},
					"object": "60806040526040518060a001604052806040518060400160405280600581526020017f6170706c6500000000000000000000000000000000000000000000000000000081525081526020016040518060400160405280600681526020017f62616e616e61000000000000000000000000000000000000000000000000000081525081526020016040518060400160405280600781526020017f636f636f6e75740000000000000000000000000000000000000000000000000081525081526020016040518060400160405280600681526020017f64757269616e000000000000000000000000000000000000000000000000000081525081526020016040518060400160405280600681526020017f657472696f6700000000000000000000000000000000000000000000000000008152508152506000906005620001469291906200015b565b503480156200015457600080fd5b5062000345565b828054828255906000526020600020908101928215620001af579160200282015b82811115620001ae5782518290805190602001906200019d929190620001c2565b50916020019190600101906200017c565b5b509050620001be919062000253565b5090565b828054620001d090620002e0565b90600052602060002090601f016020900481019282620001f4576000855562000240565b82601f106200020f57805160ff191683800117855562000240565b8280016001018555821562000240579182015b828111156200023f57825182559160200191906001019062000222565b5b5090506200024f91906200027b565b5090565b5b808211156200027757600081816200026d91906200029a565b5060010162000254565b5090565b5b80821115620002965760008160009055506001016200027c565b5090565b508054620002a890620002e0565b6000825580601f10620002bc5750620002dd565b601f016020900490600052602060002090810190620002dc91906200027b565b5b50565b60006002820490506001821680620002f957607f821691505b6020821081141562000310576200030f62000316565b5b50919050565b7f4e487b7100000000000000000000000000000000000000000000000000000000600052602260045260246000fd5b61078980620003556000396000f3fe608060405234801561001057600080fd5b50600436106100365760003560e01c8063655f478b1461003b578063dfaadcbf1461006c575b600080fd5b6100556004803603810190610050919061032b565b61009c565b6040516100639291906104a1565b60405180910390f35b61008660048036038101906100819190610374565b6101fa565b604051610093919061047f565b60405180910390f35b6000606060005b6000805490508110156101b7578380519060200120600082815481106100cc576100cb6106b9565b5b906000526020600020016040516100e39190610468565b604051809103902014156101a6578060008281548110610106576101056106b9565b5b9060005260206000200180805461011c906105af565b80601f0160208091040260200160405190810160405280929190818152602001828054610148906105af565b80156101955780601f1061016a57610100808354040283529160200191610195565b820191906000526020600020905b81548152906001019060200180831161017857829003601f168201915b5050505050905092509250506101f5565b806101b090610612565b90506100a3565b5060006040518060400160405280600781526020017f4e6f7468696e6700000000000000000000000000000000000000000000000000815250915091505b915091565b6000818154811061020a57600080fd5b906000526020600020016000915090508054610225906105af565b80601f0160208091040260200160405190810160405280929190818152602001828054610251906105af565b801561029e5780601f106102735761010080835404028352916020019161029e565b820191906000526020600020905b81548152906001019060200180831161028157829003601f168201915b505050505081565b60006102b96102b4846104f6565b6104d1565b9050828152602081018484840111156102d5576102d461071c565b5b6102e084828561056d565b509392505050565b600082601f8301126102fd576102fc610717565b5b813561030d8482602086016102a6565b91505092915050565b6000813590506103258161073c565b92915050565b60006020828403121561034157610340610726565b5b600082013567ffffffffffffffff81111561035f5761035e610721565b5b61036b848285016102e8565b91505092915050565b60006020828403121561038a57610389610726565b5b600061039884828501610316565b91505092915050565b600081546103ae816105af565b6103b88186610547565b945060018216600081146103d357600181146103e457610417565b60ff19831686528186019350610417565b6103ed85610527565b60005b8381101561040f578154818901526001820191506020810190506103f0565b838801955050505b50505092915050565b600061042b8261053c565b6104358185610552565b935061044581856020860161057c565b61044e8161072b565b840191505092915050565b61046281610563565b82525050565b600061047482846103a1565b915081905092915050565b600060208201905081810360008301526104998184610420565b905092915050565b60006040820190506104b66000830185610459565b81810360208301526104c88184610420565b90509392505050565b60006104db6104ec565b90506104e782826105e1565b919050565b6000604051905090565b600067ffffffffffffffff821115610511576105106106e8565b5b61051a8261072b565b9050602081019050919050565b60008190508160005260206000209050919050565b600081519050919050565b600081905092915050565b600082825260208201905092915050565b6000819050919050565b82818337600083830152505050565b60005b8381101561059a57808201518184015260208101905061057f565b838111156105a9576000848401525b50505050565b600060028204905060018216806105c757607f821691505b602082108114156105db576105da61068a565b5b50919050565b6105ea8261072b565b810181811067ffffffffffffffff82111715610609576106086106e8565b5b80604052505050565b600061061d82610563565b91507fffffffffffffffffffffffffffffffffffffffffffffffffffffffffffffffff8214156106505761064f61065b565b5b600182019050919050565b7f4e487b7100000000000000000000000000000000000000000000000000000000600052601160045260246000fd5b7f4e487b7100000000000000000000000000000000000000000000000000000000600052602260045260246000fd5b7f4e487b7100000000000000000000000000000000000000000000000000000000600052603260045260246000fd5b7f4e487b7100000000000000000000000000000000000000000000000000000000600052604160045260246000fd5b600080fd5b600080fd5b600080fd5b600080fd5b6000601f19601f8301169050919050565b61074581610563565b811461075057600080fd5b5056fea2646970667358221220904571f0d8b1075bf57bc68f7cd3fc972ed9ddafcbc5fff17506fa17bc7dafb364736f6c63430008070033",
					"opcodes": "PUSH1 0x80 PUSH1 0x40 MSTORE PUSH1 0x40 MLOAD DUP1 PUSH1 0xA0 ADD PUSH1 0x40 MSTORE DUP1 PUSH1 0x40 MLOAD DUP1 PUSH1 0x40 ADD PUSH1 0x40 MSTORE DUP1 PUSH1 0x5 DUP2 MSTORE PUSH1 0x20 ADD PUSH32 0x6170706C65000000000000000000000000000000000000000000000000000000 DUP2 MSTORE POP DUP2 MSTORE PUSH1 0x20 ADD PUSH1 0x40 MLOAD DUP1 PUSH1 0x40 ADD PUSH1 0x40 MSTORE DUP1 PUSH1 0x6 DUP2 MSTORE PUSH1 0x20 ADD PUSH32 0x62616E616E610000000000000000000000000000000000000000000000000000 DUP2 MSTORE POP DUP2 MSTORE PUSH1 0x20 ADD PUSH1 0x40 MLOAD DUP1 PUSH1 0x40 ADD PUSH1 0x40 MSTORE DUP1 PUSH1 0x7 DUP2 MSTORE PUSH1 0x20 ADD PUSH32 0x636F636F6E757400000000000000000000000000000000000000000000000000 DUP2 MSTORE POP DUP2 MSTORE PUSH1 0x20 ADD PUSH1 0x40 MLOAD DUP1 PUSH1 0x40 ADD PUSH1 0x40 MSTORE DUP1 PUSH1 0x6 DUP2 MSTORE PUSH1 0x20 ADD PUSH32 0x64757269616E0000000000000000000000000000000000000000000000000000 DUP2 MSTORE POP DUP2 MSTORE PUSH1 0x20 ADD PUSH1 0x40 MLOAD DUP1 PUSH1 0x40 ADD PUSH1 0x40 MSTORE DUP1 PUSH1 0x6 DUP2 MSTORE PUSH1 0x20 ADD PUSH32 0x657472696F670000000000000000000000000000000000000000000000000000 DUP2 MSTORE POP DUP2 MSTORE POP PUSH1 0x0 SWAP1 PUSH1 0x5 PUSH3 0x146 SWAP3 SWAP2 SWAP1 PUSH3 0x15B JUMP JUMPDEST POP CALLVALUE DUP1 ISZERO PUSH3 0x154 JUMPI PUSH1 0x0 DUP1 REVERT JUMPDEST POP PUSH3 0x345 JUMP JUMPDEST DUP3 DUP1 SLOAD DUP3 DUP3 SSTORE SWAP1 PUSH1 0x0 MSTORE PUSH1 0x20 PUSH1 0x0 KECCAK256 SWAP1 DUP2 ADD SWAP3 DUP3 ISZERO PUSH3 0x1AF JUMPI SWAP2 PUSH1 0x20 MUL DUP3 ADD JUMPDEST DUP3 DUP2 GT ISZERO PUSH3 0x1AE JUMPI DUP3 MLOAD DUP3 SWAP1 DUP1 MLOAD SWAP1 PUSH1 0x20 ADD SWAP1 PUSH3 0x19D SWAP3 SWAP2 SWAP1 PUSH3 0x1C2 JUMP JUMPDEST POP SWAP2 PUSH1 0x20 ADD SWAP2 SWAP1 PUSH1 0x1 ADD SWAP1 PUSH3 0x17C JUMP JUMPDEST JUMPDEST POP SWAP1 POP PUSH3 0x1BE SWAP2 SWAP1 PUSH3 0x253 JUMP JUMPDEST POP SWAP1 JUMP JUMPDEST DUP3 DUP1 SLOAD PUSH3 0x1D0 SWAP1 PUSH3 0x2E0 JUMP JUMPDEST SWAP1 PUSH1 0x0 MSTORE PUSH1 0x20 PUSH1 0x0 KECCAK256 SWAP1 PUSH1 0x1F ADD PUSH1 0x20 SWAP1 DIV DUP2 ADD SWAP3 DUP3 PUSH3 0x1F4 JUMPI PUSH1 0x0 DUP6 SSTORE PUSH3 0x240 JUMP JUMPDEST DUP3 PUSH1 0x1F LT PUSH3 0x20F JUMPI DUP1 MLOAD PUSH1 0xFF NOT AND DUP4 DUP1 ADD OR DUP6 SSTORE PUSH3 0x240 JUMP JUMPDEST DUP3 DUP1 ADD PUSH1 0x1 ADD DUP6 SSTORE DUP3 ISZERO PUSH3 0x240 JUMPI SWAP2 DUP3 ADD JUMPDEST DUP3 DUP2 GT ISZERO PUSH3 0x23F JUMPI DUP3 MLOAD DUP3 SSTORE SWAP2 PUSH1 0x20 ADD SWAP2 SWAP1 PUSH1 0x1 ADD SWAP1 PUSH3 0x222 JUMP JUMPDEST JUMPDEST POP SWAP1 POP PUSH3 0x24F SWAP2 SWAP1 PUSH3 0x27B JUMP JUMPDEST POP SWAP1 JUMP JUMPDEST JUMPDEST DUP1 DUP3 GT ISZERO PUSH3 0x277 JUMPI PUSH1 0x0 DUP2 DUP2 PUSH3 0x26D SWAP2 SWAP1 PUSH3 0x29A JUMP JUMPDEST POP PUSH1 0x1 ADD PUSH3 0x254 JUMP JUMPDEST POP SWAP1 JUMP JUMPDEST JUMPDEST DUP1 DUP3 GT ISZERO PUSH3 0x296 JUMPI PUSH1 0x0 DUP2 PUSH1 0x0 SWAP1 SSTORE POP PUSH1 0x1 ADD PUSH3 0x27C JUMP JUMPDEST POP SWAP1 JUMP JUMPDEST POP DUP1 SLOAD PUSH3 0x2A8 SWAP1 PUSH3 0x2E0 JUMP JUMPDEST PUSH1 0x0 DUP3 SSTORE DUP1 PUSH1 0x1F LT PUSH3 0x2BC JUMPI POP PUSH3 0x2DD JUMP JUMPDEST PUSH1 0x1F ADD PUSH1 0x20 SWAP1 DIV SWAP1 PUSH1 0x0 MSTORE PUSH1 0x20 PUSH1 0x0 KECCAK256 SWAP1 DUP2 ADD SWAP1 PUSH3 0x2DC SWAP2 SWAP1 PUSH3 0x27B JUMP JUMPDEST JUMPDEST POP JUMP JUMPDEST PUSH1 0x0 PUSH1 0x2 DUP3 DIV SWAP1 POP PUSH1 0x1 DUP3 AND DUP1 PUSH3 0x2F9 JUMPI PUSH1 0x7F DUP3 AND SWAP2 POP JUMPDEST PUSH1 0x20 DUP3 LT DUP2 EQ ISZERO PUSH3 0x310 JUMPI PUSH3 0x30F PUSH3 0x316 JUMP JUMPDEST JUMPDEST POP SWAP2 SWAP1 POP JUMP JUMPDEST PUSH32 0x4E487B7100000000000000000000000000000000000000000000000000000000 PUSH1 0x0 MSTORE PUSH1 0x22 PUSH1 0x4 MSTORE PUSH1 0x24 PUSH1 0x0 REVERT JUMPDEST PUSH2 0x789 DUP1 PUSH3 0x355 PUSH1 0x0 CODECOPY PUSH1 0x0 RETURN INVALID PUSH1 0x80 PUSH1 0x40 MSTORE CALLVALUE DUP1 ISZERO PUSH2 0x10 JUMPI PUSH1 0x0 DUP1 REVERT JUMPDEST POP PUSH1 0x4 CALLDATASIZE LT PUSH2 0x36 JUMPI PUSH1 0x0 CALLDATALOAD PUSH1 0xE0 SHR DUP1 PUSH4 0x655F478B EQ PUSH2 0x3B JUMPI DUP1 PUSH4 0xDFAADCBF EQ PUSH2 0x6C JUMPI JUMPDEST PUSH1 0x0 DUP1 REVERT JUMPDEST PUSH2 0x55 PUSH1 0x4 DUP1 CALLDATASIZE SUB DUP2 ADD SWAP1 PUSH2 0x50 SWAP2 SWAP1 PUSH2 0x32B JUMP JUMPDEST PUSH2 0x9C JUMP JUMPDEST PUSH1 0x40 MLOAD PUSH2 0x63 SWAP3 SWAP2 SWAP1 PUSH2 0x4A1 JUMP JUMPDEST PUSH1 0x40 MLOAD DUP1 SWAP2 SUB SWAP1 RETURN JUMPDEST PUSH2 0x86 PUSH1 0x4 DUP1 CALLDATASIZE SUB DUP2 ADD SWAP1 PUSH2 0x81 SWAP2 SWAP1 PUSH2 0x374 JUMP JUMPDEST PUSH2 0x1FA JUMP JUMPDEST PUSH1 0x40 MLOAD PUSH2 0x93 SWAP2 SWAP1 PUSH2 0x47F JUMP JUMPDEST PUSH1 0x40 MLOAD DUP1 SWAP2 SUB SWAP1 RETURN JUMPDEST PUSH1 0x0 PUSH1 0x60 PUSH1 0x0 JUMPDEST PUSH1 0x0 DUP1 SLOAD SWAP1 POP DUP2 LT ISZERO PUSH2 0x1B7 JUMPI DUP4 DUP1 MLOAD SWAP1 PUSH1 0x20 ADD KECCAK256 PUSH1 0x0 DUP3 DUP2 SLOAD DUP2 LT PUSH2 0xCC JUMPI PUSH2 0xCB PUSH2 0x6B9 JUMP JUMPDEST JUMPDEST SWAP1 PUSH1 0x0 MSTORE PUSH1 0x20 PUSH1 0x0 KECCAK256 ADD PUSH1 0x40 MLOAD PUSH2 0xE3 SWAP2 SWAP1 PUSH2 0x468 JUMP JUMPDEST PUSH1 0x40 MLOAD DUP1 SWAP2 SUB SWAP1 KECCAK256 EQ ISZERO PUSH2 0x1A6 JUMPI DUP1 PUSH1 0x0 DUP3 DUP2 SLOAD DUP2 LT PUSH2 0x106 JUMPI PUSH2 0x105 PUSH2 0x6B9 JUMP JUMPDEST JUMPDEST SWAP1 PUSH1 0x0 MSTORE PUSH1 0x20 PUSH1 0x0 KECCAK256 ADD DUP1 DUP1 SLOAD PUSH2 0x11C SWAP1 PUSH2 0x5AF JUMP JUMPDEST DUP1 PUSH1 0x1F ADD PUSH1 0x20 DUP1 SWAP2 DIV MUL PUSH1 0x20 ADD PUSH1 0x40 MLOAD SWAP1 DUP2 ADD PUSH1 0x40 MSTORE DUP1 SWAP3 SWAP2 SWAP1 DUP2 DUP2 MSTORE PUSH1 0x20 ADD DUP3 DUP1 SLOAD PUSH2 0x148 SWAP1 PUSH2 0x5AF JUMP JUMPDEST DUP1 ISZERO PUSH2 0x195 JUMPI DUP1 PUSH1 0x1F LT PUSH2 0x16A JUMPI PUSH2 0x100 DUP1 DUP4 SLOAD DIV MUL DUP4 MSTORE SWAP2 PUSH1 0x20 ADD SWAP2 PUSH2 0x195 JUMP JUMPDEST DUP3 ADD SWAP2 SWAP1 PUSH1 0x0 MSTORE PUSH1 0x20 PUSH1 0x0 KECCAK256 SWAP1 JUMPDEST DUP2 SLOAD DUP2 MSTORE SWAP1 PUSH1 0x1 ADD SWAP1 PUSH1 0x20 ADD DUP1 DUP4 GT PUSH2 0x178 JUMPI DUP3 SWAP1 SUB PUSH1 0x1F AND DUP3 ADD SWAP2 JUMPDEST POP POP POP POP POP SWAP1 POP SWAP3 POP SWAP3 POP POP PUSH2 0x1F5 JUMP JUMPDEST DUP1 PUSH2 0x1B0 SWAP1 PUSH2 0x612 JUMP JUMPDEST SWAP1 POP PUSH2 0xA3 JUMP JUMPDEST POP PUSH1 0x0 PUSH1 0x40 MLOAD DUP1 PUSH1 0x40 ADD PUSH1 0x40 MSTORE DUP1 PUSH1 0x7 DUP2 MSTORE PUSH1 0x20 ADD PUSH32 0x4E6F7468696E6700000000000000000000000000000000000000000000000000 DUP2 MSTORE POP SWAP2 POP SWAP2 POP JUMPDEST SWAP2 POP SWAP2 JUMP JUMPDEST PUSH1 0x0 DUP2 DUP2 SLOAD DUP2 LT PUSH2 0x20A JUMPI PUSH1 0x0 DUP1 REVERT JUMPDEST SWAP1 PUSH1 0x0 MSTORE PUSH1 0x20 PUSH1 0x0 KECCAK256 ADD PUSH1 0x0 SWAP2 POP SWAP1 POP DUP1 SLOAD PUSH2 0x225 SWAP1 PUSH2 0x5AF JUMP JUMPDEST DUP1 PUSH1 0x1F ADD PUSH1 0x20 DUP1 SWAP2 DIV MUL PUSH1 0x20 ADD PUSH1 0x40 MLOAD SWAP1 DUP2 ADD PUSH1 0x40 MSTORE DUP1 SWAP3 SWAP2 SWAP1 DUP2 DUP2 MSTORE PUSH1 0x20 ADD DUP3 DUP1 SLOAD PUSH2 0x251 SWAP1 PUSH2 0x5AF JUMP JUMPDEST DUP1 ISZERO PUSH2 0x29E JUMPI DUP1 PUSH1 0x1F LT PUSH2 0x273 JUMPI PUSH2 0x100 DUP1 DUP4 SLOAD DIV MUL DUP4 MSTORE SWAP2 PUSH1 0x20 ADD SWAP2 PUSH2 0x29E JUMP JUMPDEST DUP3 ADD SWAP2 SWAP1 PUSH1 0x0 MSTORE PUSH1 0x20 PUSH1 0x0 KECCAK256 SWAP1 JUMPDEST DUP2 SLOAD DUP2 MSTORE SWAP1 PUSH1 0x1 ADD SWAP1 PUSH1 0x20 ADD DUP1 DUP4 GT PUSH2 0x281 JUMPI DUP3 SWAP1 SUB PUSH1 0x1F AND DUP3 ADD SWAP2 JUMPDEST POP POP POP POP POP DUP2 JUMP JUMPDEST PUSH1 0x0 PUSH2 0x2B9 PUSH2 0x2B4 DUP5 PUSH2 0x4F6 JUMP JUMPDEST PUSH2 0x4D1 JUMP JUMPDEST SWAP1 POP DUP3 DUP2 MSTORE PUSH1 0x20 DUP2 ADD DUP5 DUP5 DUP5 ADD GT ISZERO PUSH2 0x2D5 JUMPI PUSH2 0x2D4 PUSH2 0x71C JUMP JUMPDEST JUMPDEST PUSH2 0x2E0 DUP5 DUP3 DUP6 PUSH2 0x56D JUMP JUMPDEST POP SWAP4 SWAP3 POP POP POP JUMP JUMPDEST PUSH1 0x0 DUP3 PUSH1 0x1F DUP4 ADD SLT PUSH2 0x2FD JUMPI PUSH2 0x2FC PUSH2 0x717 JUMP JUMPDEST JUMPDEST DUP2 CALLDATALOAD PUSH2 0x30D DUP5 DUP3 PUSH1 0x20 DUP7 ADD PUSH2 0x2A6 JUMP JUMPDEST SWAP2 POP POP SWAP3 SWAP2 POP POP JUMP JUMPDEST PUSH1 0x0 DUP2 CALLDATALOAD SWAP1 POP PUSH2 0x325 DUP2 PUSH2 0x73C JUMP JUMPDEST SWAP3 SWAP2 POP POP JUMP JUMPDEST PUSH1 0x0 PUSH1 0x20 DUP3 DUP5 SUB SLT ISZERO PUSH2 0x341 JUMPI PUSH2 0x340 PUSH2 0x726 JUMP JUMPDEST JUMPDEST PUSH1 0x0 DUP3 ADD CALLDATALOAD PUSH8 0xFFFFFFFFFFFFFFFF DUP2 GT ISZERO PUSH2 0x35F JUMPI PUSH2 0x35E PUSH2 0x721 JUMP JUMPDEST JUMPDEST PUSH2 0x36B DUP5 DUP3 DUP6 ADD PUSH2 0x2E8 JUMP JUMPDEST SWAP2 POP POP SWAP3 SWAP2 POP POP JUMP JUMPDEST PUSH1 0x0 PUSH1 0x20 DUP3 DUP5 SUB SLT ISZERO PUSH2 0x38A JUMPI PUSH2 0x389 PUSH2 0x726 JUMP JUMPDEST JUMPDEST PUSH1 0x0 PUSH2 0x398 DUP5 DUP3 DUP6 ADD PUSH2 0x316 JUMP JUMPDEST SWAP2 POP POP SWAP3 SWAP2 POP POP JUMP JUMPDEST PUSH1 0x0 DUP2 SLOAD PUSH2 0x3AE DUP2 PUSH2 0x5AF JUMP JUMPDEST PUSH2 0x3B8 DUP2 DUP7 PUSH2 0x547 JUMP JUMPDEST SWAP5 POP PUSH1 0x1 DUP3 AND PUSH1 0x0 DUP2 EQ PUSH2 0x3D3 JUMPI PUSH1 0x1 DUP2 EQ PUSH2 0x3E4 JUMPI PUSH2 0x417 JUMP JUMPDEST PUSH1 0xFF NOT DUP4 AND DUP7 MSTORE DUP2 DUP7 ADD SWAP4 POP PUSH2 0x417 JUMP JUMPDEST PUSH2 0x3ED DUP6 PUSH2 0x527 JUMP JUMPDEST PUSH1 0x0 JUMPDEST DUP4 DUP2 LT ISZERO PUSH2 0x40F JUMPI DUP2 SLOAD DUP2 DUP10 ADD MSTORE PUSH1 0x1 DUP3 ADD SWAP2 POP PUSH1 0x20 DUP2 ADD SWAP1 POP PUSH2 0x3F0 JUMP JUMPDEST DUP4 DUP9 ADD SWAP6 POP POP POP JUMPDEST POP POP POP SWAP3 SWAP2 POP POP JUMP JUMPDEST PUSH1 0x0 PUSH2 0x42B DUP3 PUSH2 0x53C JUMP JUMPDEST PUSH2 0x435 DUP2 DUP6 PUSH2 0x552 JUMP JUMPDEST SWAP4 POP PUSH2 0x445 DUP2 DUP6 PUSH1 0x20 DUP7 ADD PUSH2 0x57C JUMP JUMPDEST PUSH2 0x44E DUP2 PUSH2 0x72B JUMP JUMPDEST DUP5 ADD SWAP2 POP POP SWAP3 SWAP2 POP POP JUMP JUMPDEST PUSH2 0x462 DUP2 PUSH2 0x563 JUMP JUMPDEST DUP3 MSTORE POP POP JUMP JUMPDEST PUSH1 0x0 PUSH2 0x474 DUP3 DUP5 PUSH2 0x3A1 JUMP JUMPDEST SWAP2 POP DUP2 SWAP1 POP SWAP3 SWAP2 POP POP JUMP JUMPDEST PUSH1 0x0 PUSH1 0x20 DUP3 ADD SWAP1 POP DUP2 DUP2 SUB PUSH1 0x0 DUP4 ADD MSTORE PUSH2 0x499 DUP2 DUP5 PUSH2 0x420 JUMP JUMPDEST SWAP1 POP SWAP3 SWAP2 POP POP JUMP JUMPDEST PUSH1 0x0 PUSH1 0x40 DUP3 ADD SWAP1 POP PUSH2 0x4B6 PUSH1 0x0 DUP4 ADD DUP6 PUSH2 0x459 JUMP JUMPDEST DUP2 DUP2 SUB PUSH1 0x20 DUP4 ADD MSTORE PUSH2 0x4C8 DUP2 DUP5 PUSH2 0x420 JUMP JUMPDEST SWAP1 POP SWAP4 SWAP3 POP POP POP JUMP JUMPDEST PUSH1 0x0 PUSH2 0x4DB PUSH2 0x4EC JUMP JUMPDEST SWAP1 POP PUSH2 0x4E7 DUP3 DUP3 PUSH2 0x5E1 JUMP JUMPDEST SWAP2 SWAP1 POP JUMP JUMPDEST PUSH1 0x0 PUSH1 0x40 MLOAD SWAP1 POP SWAP1 JUMP JUMPDEST PUSH1 0x0 PUSH8 0xFFFFFFFFFFFFFFFF DUP3 GT ISZERO PUSH2 0x511 JUMPI PUSH2 0x510 PUSH2 0x6E8 JUMP JUMPDEST JUMPDEST PUSH2 0x51A DUP3 PUSH2 0x72B JUMP JUMPDEST SWAP1 POP PUSH1 0x20 DUP2 ADD SWAP1 POP SWAP2 SWAP1 POP JUMP JUMPDEST PUSH1 0x0 DUP2 SWAP1 POP DUP2 PUSH1 0x0 MSTORE PUSH1 0x20 PUSH1 0x0 KECCAK256 SWAP1 POP SWAP2 SWAP1 POP JUMP JUMPDEST PUSH1 0x0 DUP2 MLOAD SWAP1 POP SWAP2 SWAP1 POP JUMP JUMPDEST PUSH1 0x0 DUP2 SWAP1 POP SWAP3 SWAP2 POP POP JUMP JUMPDEST PUSH1 0x0 DUP3 DUP3 MSTORE PUSH1 0x20 DUP3 ADD SWAP1 POP SWAP3 SWAP2 POP POP JUMP JUMPDEST PUSH1 0x0 DUP2 SWAP1 POP SWAP2 SWAP1 POP JUMP JUMPDEST DUP3 DUP2 DUP4 CALLDATACOPY PUSH1 0x0 DUP4 DUP4 ADD MSTORE POP POP POP JUMP JUMPDEST PUSH1 0x0 JUMPDEST DUP4 DUP2 LT ISZERO PUSH2 0x59A JUMPI DUP1 DUP3 ADD MLOAD DUP2 DUP5 ADD MSTORE PUSH1 0x20 DUP2 ADD SWAP1 POP PUSH2 0x57F JUMP JUMPDEST DUP4 DUP2 GT ISZERO PUSH2 0x5A9 JUMPI PUSH1 0x0 DUP5 DUP5 ADD MSTORE JUMPDEST POP POP POP POP JUMP JUMPDEST PUSH1 0x0 PUSH1 0x2 DUP3 DIV SWAP1 POP PUSH1 0x1 DUP3 AND DUP1 PUSH2 0x5C7 JUMPI PUSH1 0x7F DUP3 AND SWAP2 POP JUMPDEST PUSH1 0x20 DUP3 LT DUP2 EQ ISZERO PUSH2 0x5DB JUMPI PUSH2 0x5DA PUSH2 0x68A JUMP JUMPDEST JUMPDEST POP SWAP2 SWAP1 POP JUMP JUMPDEST PUSH2 0x5EA DUP3 PUSH2 0x72B JUMP JUMPDEST DUP2 ADD DUP2 DUP2 LT PUSH8 0xFFFFFFFFFFFFFFFF DUP3 GT OR ISZERO PUSH2 0x609 JUMPI PUSH2 0x608 PUSH2 0x6E8 JUMP JUMPDEST JUMPDEST DUP1 PUSH1 0x40 MSTORE POP POP POP JUMP JUMPDEST PUSH1 0x0 PUSH2 0x61D DUP3 PUSH2 0x563 JUMP JUMPDEST SWAP2 POP PUSH32 0xFFFFFFFFFFFFFFFFFFFFFFFFFFFFFFFFFFFFFFFFFFFFFFFFFFFFFFFFFFFFFFFF DUP3 EQ ISZERO PUSH2 0x650 JUMPI PUSH2 0x64F PUSH2 0x65B JUMP JUMPDEST JUMPDEST PUSH1 0x1 DUP3 ADD SWAP1 POP SWAP2 SWAP1 POP JUMP JUMPDEST PUSH32 0x4E487B7100000000000000000000000000000000000000000000000000000000 PUSH1 0x0 MSTORE PUSH1 0x11 PUSH1 0x4 MSTORE PUSH1 0x24 PUSH1 0x0 REVERT JUMPDEST PUSH32 0x4E487B7100000000000000000000000000000000000000000000000000000000 PUSH1 0x0 MSTORE PUSH1 0x22 PUSH1 0x4 MSTORE PUSH1 0x24 PUSH1 0x0 REVERT JUMPDEST PUSH32 0x4E487B7100000000000000000000000000000000000000000000000000000000 PUSH1 0x0 MSTORE PUSH1 0x32 PUSH1 0x4 MSTORE PUSH1 0x24 PUSH1 0x0 REVERT JUMPDEST PUSH32 0x4E487B7100000000000000000000000000000000000000000000000000000000 PUSH1 0x0 MSTORE PUSH1 0x41 PUSH1 0x4 MSTORE PUSH1 0x24 PUSH1 0x0 REVERT JUMPDEST PUSH1 0x0 DUP1 REVERT JUMPDEST PUSH1 0x0 DUP1 REVERT JUMPDEST PUSH1 0x0 DUP1 REVERT JUMPDEST PUSH1 0x0 DUP1 REVERT JUMPDEST PUSH1 0x0 PUSH1 0x1F NOT PUSH1 0x1F DUP4 ADD AND SWAP1 POP SWAP2 SWAP1 POP JUMP JUMPDEST PUSH2 0x745 DUP2 PUSH2 0x563 JUMP JUMPDEST DUP2 EQ PUSH2 0x750 JUMPI PUSH1 0x0 DUP1 REVERT JUMPDEST POP JUMP INVALID LOG2 PUSH5 0x6970667358 0x22 SLT KECCAK256 SWAP1 GASLIMIT PUSH18 0xF0D8B1075BF57BC68F7CD3FC972ED9DDAFCB 0xC5 SELFDESTRUCT CALL PUSH22 0x6FA17BC7DAFB364736F6C6343000807003300000000 "
				},
				"gasEstimates": {
					"creation": {
						"codeDepositCost": "385800",
						"executionCost": "infinite",
						"totalCost": "infinite"
					},
					"external": {
						"fruitArray(uint256)": "infinite",
						"linearSearch(string)": "infinite"
					}
				},
				"methodIdentifiers": {
					"fruitArray(uint256)": "dfaadcbf",
					"linearSearch(string)": "655f478b"
				}
			},
			"storageLayout": {
				"storage": [
					{
						"astId": 10,
						"contract": "chapter5/linearsearch.sol:Ex5_LS",
						"label": "fruitArray",
						"offset": 0,
						"slot": "0",
						"type": "t_array(t_string_storage)dyn_storage"
					}
				],
				"types": {
					"t_array(t_string_storage)dyn_storage": {
						"base": "t_string_storage",
						"encoding": "dynamic_array",
						"label": "string[]",
						"numberOfBytes": "32"
					},
					"t_string_storage": {
						"encoding": "bytes",
						"label": "string",
						"numberOfBytes": "32"
					}
				}
			},
			"userdoc": {
				"kind": "user",
				"methods": {},
				"version": 1
			}
		}
	}
}