{
	"data": {
		"bytecode": {
			"linkReferences": {},
			"object": "60806040526000600255600160055560006006553480156200002057600080fd5b506040516200193e3803806200193e8339818101604052810190620000469190620003e5565b33600160006101000a81548173ffffffffffffffffffffffffffffffffffffffff021916908373ffffffffffffffffffffffffffffffffffffffff16021790555081600390805190602001906200009f9291906200015d565b5080600481905550620000b7620000c560201b60201c565b600281905550505062000714565b60008043426004546003604051602001620000e1919062000561565b6040516020818303038152906040528051906020012060001c620001069190620005b4565b620001129190620005b4565b6200011e9190620005b4565b90506001600a808362000132919062000640565b6200013e919062000678565b826200014b9190620006d9565b620001579190620005b4565b91505090565b8280546200016b906200047a565b90600052602060002090601f0160209004810192826200018f5760008555620001db565b82601f10620001aa57805160ff1916838001178555620001db565b82800160010185558215620001db579182015b82811115620001da578251825591602001919060010190620001bd565b5b509050620001ea9190620001ee565b5090565b5b8082111562000209576000816000905550600101620001ef565b5090565b6000604051905090565b600080fd5b600080fd5b600080fd5b600080fd5b6000601f19601f8301169050919050565b7f4e487b7100000000000000000000000000000000000000000000000000000000600052604160045260246000fd5b62000276826200022b565b810181811067ffffffffffffffff821117156200029857620002976200023c565b5b80604052505050565b6000620002ad6200020d565b9050620002bb82826200026b565b919050565b600067ffffffffffffffff821115620002de57620002dd6200023c565b5b620002e9826200022b565b9050602081019050919050565b60005b8381101562000316578082015181840152602081019050620002f9565b8381111562000326576000848401525b50505050565b6000620003436200033d84620002c0565b620002a1565b90508281526020810184848401111562000362576200036162000226565b5b6200036f848285620002f6565b509392505050565b600082601f8301126200038f576200038e62000221565b5b8151620003a18482602086016200032c565b91505092915050565b6000819050919050565b620003bf81620003aa565b8114620003cb57600080fd5b50565b600081519050620003df81620003b4565b92915050565b60008060408385031215620003ff57620003fe62000217565b5b600083015167ffffffffffffffff81111562000420576200041f6200021c565b5b6200042e8582860162000377565b92505060206200044185828601620003ce565b9150509250929050565b7f4e487b7100000000000000000000000000000000000000000000000000000000600052602260045260246000fd5b600060028204905060018216806200049357607f821691505b602082108103620004a957620004a86200044b565b5b50919050565b600082825260208201905092915050565b60008190508160005260206000209050919050565b60008154620004e4816200047a565b620004f08186620004af565b945060018216600081146200050e5760018114620005215762000558565b60ff198316865260208601935062000558565b6200052c85620004c0565b60005b8381101562000550578154818901526001820191506020810190506200052f565b808801955050505b50505092915050565b600060208201905081810360008301526200057d8184620004d5565b905092915050565b7f4e487b7100000000000000000000000000000000000000000000000000000000600052601160045260246000fd5b6000620005c182620003aa565b9150620005ce83620003aa565b9250827fffffffffffffffffffffffffffffffffffffffffffffffffffffffffffffffff0382111562000606576200060562000585565b5b828201905092915050565b7f4e487b7100000000000000000000000000000000000000000000000000000000600052601260045260246000fd5b60006200064d82620003aa565b91506200065a83620003aa565b9250826200066d576200066c62000611565b5b828204905092915050565b60006200068582620003aa565b91506200069283620003aa565b9250817fffffffffffffffffffffffffffffffffffffffffffffffffffffffffffffffff0483118215151615620006ce57620006cd62000585565b5b828202905092915050565b6000620006e682620003aa565b9150620006f383620003aa565b92508282101562000709576200070862000585565b5b828203905092915050565b61121a80620007246000396000f3fe60806040526004361061008a5760003560e01c806379ed40bc1161005957806379ed40bc146104295780638da5cb5b146104555780639f8743f714610480578063a86d2e19146104ab578063cf66b989146104d65761037a565b80630df516d81461037f578063146ca531146103aa5780634d9b3d5d146103d55780635ef5cc89146104005761037a565b3661037a57662386f26fc1000034146100d8576040517f08c379a00000000000000000000000000000000000000000000000000000000081526004016100cf90610987565b60405180910390fd5b60001515600080600554815260200190815260200160002060003373ffffffffffffffffffffffffffffffffffffffff1673ffffffffffffffffffffffffffffffffffffffff16815260200190815260200160002060009054906101000a900460ff1615151461017d576040517f08c379a0000000000000000000000000000000000000000000000000000000008152600401610174906109f3565b60405180910390fd5b6001600080600554815260200190815260200160002060003373ffffffffffffffffffffffffffffffffffffffff1673ffffffffffffffffffffffffffffffffffffffff16815260200190815260200160002060006101000a81548160ff0219169083151502179055506006600081546101f690610a4c565b91905081905550600254600654036103295760003373ffffffffffffffffffffffffffffffffffffffff164760405161022e90610ac5565b60006040518083038185875af1925050503d806000811461026b576040519150601f19603f3d011682016040523d82523d6000602084013e610270565b606091505b50509050806102b4576040517f08c379a00000000000000000000000000000000000000000000000000000000081526004016102ab90610b26565b60405180910390fd5b60006006819055506005600081546102cb90610a4c565b919050819055506102da610513565b6002819055503373ffffffffffffffffffffffffffffffffffffffff167fd7b5435fa0dd93954c7955210a67950d9385f8cd60631432712709e265ec99ca60405160405180910390a250610378565b3373ffffffffffffffffffffffffffffffffffffffff167f20384c35af44ae3e0536c765e1cee107339d7ca70b092472c816a3a62e4ba6593460405161036f9190610b55565b60405180910390a25b005b600080fd5b34801561038b57600080fd5b5061039461059b565b6040516103a19190610b55565b60405180910390f35b3480156103b657600080fd5b506103bf6105a1565b6040516103cc9190610b55565b60405180910390f35b3480156103e157600080fd5b506103ea6105a7565b6040516103f79190610b55565b60405180910390f35b34801561040c57600080fd5b5061042760048036038101906104229190610cf6565b6105af565b005b34801561043557600080fd5b5061043e610661565b60405161044c929190610dc9565b60405180910390f35b34801561046157600080fd5b5061046a61078e565b6040516104779190610e3a565b60405180910390f35b34801561048c57600080fd5b506104956107b4565b6040516104a29190610b55565b60405180910390f35b3480156104b757600080fd5b506104c06107be565b6040516104cd9190610b55565b60405180910390f35b3480156104e257600080fd5b506104fd60048036038101906104f89190610e81565b610858565b60405161050a9190610edc565b60405180910390f35b6000804342600454600360405160200161052d9190610fec565b6040516020818303038152906040528051906020012060001c610550919061100e565b61055a919061100e565b610564919061100e565b90506001600a80836105769190611093565b61058091906110c4565b8261058b919061111e565b610595919061100e565b91505090565b60065481565b60055481565b600047905090565b600160009054906101000a900473ffffffffffffffffffffffffffffffffffffffff1673ffffffffffffffffffffffffffffffffffffffff163373ffffffffffffffffffffffffffffffffffffffff161461063f576040517f08c379a0000000000000000000000000000000000000000000000000000000008152600401610636906111c4565b60405180910390fd5b8160039080519060200190610655929190610887565b50806004819055505050565b60606000600160009054906101000a900473ffffffffffffffffffffffffffffffffffffffff1673ffffffffffffffffffffffffffffffffffffffff163373ffffffffffffffffffffffffffffffffffffffff16146106f5576040517f08c379a00000000000000000000000000000000000000000000000000000000081526004016106ec906111c4565b60405180910390fd5b600360045481805461070690610f26565b80601f016020809104026020016040519081016040528092919081815260200182805461073290610f26565b801561077f5780601f106107545761010080835404028352916020019161077f565b820191906000526020600020905b81548152906001019060200180831161076257829003601f168201915b50505050509150915091509091565b600160009054906101000a900473ffffffffffffffffffffffffffffffffffffffff1681565b6000600554905090565b6000600160009054906101000a900473ffffffffffffffffffffffffffffffffffffffff1673ffffffffffffffffffffffffffffffffffffffff163373ffffffffffffffffffffffffffffffffffffffff1614610850576040517f08c379a0000000000000000000000000000000000000000000000000000000008152600401610847906111c4565b60405180910390fd5b600254905090565b60006020528160005260406000206020528060005260406000206000915091509054906101000a900460ff1681565b82805461089390610f26565b90600052602060002090601f0160209004810192826108b557600085556108fc565b82601f106108ce57805160ff19168380011785556108fc565b828001600101855582156108fc579182015b828111156108fb5782518255916020019190600101906108e0565b5b509050610909919061090d565b5090565b5b8082111561092657600081600090555060010161090e565b5090565b600082825260208201905092915050565b7f4d75737420626520302d2e30312065746865722e000000000000000000000000600082015250565b600061097160148361092a565b915061097c8261093b565b602082019050919050565b600060208201905081810360008301526109a081610964565b9050919050565b7f4d757374206265207468652066697273742074696d652e000000000000000000600082015250565b60006109dd60178361092a565b91506109e8826109a7565b602082019050919050565b60006020820190508181036000830152610a0c816109d0565b9050919050565b7f4e487b7100000000000000000000000000000000000000000000000000000000600052601160045260246000fd5b6000819050919050565b6000610a5782610a42565b91507fffffffffffffffffffffffffffffffffffffffffffffffffffffffffffffffff8203610a8957610a88610a13565b5b600182019050919050565b600081905092915050565b50565b6000610aaf600083610a94565b9150610aba82610a9f565b600082019050919050565b6000610ad082610aa2565b9150819050919050565b7f4661696c65640000000000000000000000000000000000000000000000000000600082015250565b6000610b1060068361092a565b9150610b1b82610ada565b602082019050919050565b60006020820190508181036000830152610b3f81610b03565b9050919050565b610b4f81610a42565b82525050565b6000602082019050610b6a6000830184610b46565b92915050565b6000604051905090565b600080fd5b600080fd5b600080fd5b600080fd5b6000601f19601f8301169050919050565b7f4e487b7100000000000000000000000000000000000000000000000000000000600052604160045260246000fd5b610bd782610b8e565b810181811067ffffffffffffffff82111715610bf657610bf5610b9f565b5b80604052505050565b6000610c09610b70565b9050610c158282610bce565b919050565b600067ffffffffffffffff821115610c3557610c34610b9f565b5b610c3e82610b8e565b9050602081019050919050565b82818337600083830152505050565b6000610c6d610c6884610c1a565b610bff565b905082815260208101848484011115610c8957610c88610b89565b5b610c94848285610c4b565b509392505050565b600082601f830112610cb157610cb0610b84565b5b8135610cc1848260208601610c5a565b91505092915050565b610cd381610a42565b8114610cde57600080fd5b50565b600081359050610cf081610cca565b92915050565b60008060408385031215610d0d57610d0c610b7a565b5b600083013567ffffffffffffffff811115610d2b57610d2a610b7f565b5b610d3785828601610c9c565b9250506020610d4885828601610ce1565b9150509250929050565b600081519050919050565b60005b83811015610d7b578082015181840152602081019050610d60565b83811115610d8a576000848401525b50505050565b6000610d9b82610d52565b610da5818561092a565b9350610db5818560208601610d5d565b610dbe81610b8e565b840191505092915050565b60006040820190508181036000830152610de38185610d90565b9050610df26020830184610b46565b9392505050565b600073ffffffffffffffffffffffffffffffffffffffff82169050919050565b6000610e2482610df9565b9050919050565b610e3481610e19565b82525050565b6000602082019050610e4f6000830184610e2b565b92915050565b610e5e81610e19565b8114610e6957600080fd5b50565b600081359050610e7b81610e55565b92915050565b60008060408385031215610e9857610e97610b7a565b5b6000610ea685828601610ce1565b9250506020610eb785828601610e6c565b9150509250929050565b60008115159050919050565b610ed681610ec1565b82525050565b6000602082019050610ef16000830184610ecd565b92915050565b7f4e487b7100000000000000000000000000000000000000000000000000000000600052602260045260246000fd5b60006002820490506001821680610f3e57607f821691505b602082108103610f5157610f50610ef7565b5b50919050565b60008190508160005260206000209050919050565b60008154610f7981610f26565b610f83818661092a565b94506001821660008114610f9e5760018114610fb057610fe3565b60ff1983168652602086019350610fe3565b610fb985610f57565b60005b83811015610fdb57815481890152600182019150602081019050610fbc565b808801955050505b50505092915050565b600060208201905081810360008301526110068184610f6c565b905092915050565b600061101982610a42565b915061102483610a42565b9250827fffffffffffffffffffffffffffffffffffffffffffffffffffffffffffffffff0382111561105957611058610a13565b5b828201905092915050565b7f4e487b7100000000000000000000000000000000000000000000000000000000600052601260045260246000fd5b600061109e82610a42565b91506110a983610a42565b9250826110b9576110b8611064565b5b828204905092915050565b60006110cf82610a42565b91506110da83610a42565b9250817fffffffffffffffffffffffffffffffffffffffffffffffffffffffffffffffff048311821515161561111357611112610a13565b5b828202905092915050565b600061112982610a42565b915061113483610a42565b92508282101561114757611146610a13565b5b828203905092915050565b7f4f776e61626c65203a2043616c6c6572206973206e6f7420746865206f776e6560008201527f7200000000000000000000000000000000000000000000000000000000000000602082015250565b60006111ae60218361092a565b91506111b982611152565b604082019050919050565b600060208201905081810360008301526111dd816111a1565b905091905056fea26469706673582212208715b56efb2558d12706d86b3e17727ba8405fc8edd0aa33b0e7b8d91caaf7d464736f6c634300080d0033",
			"opcodes": "PUSH1 0x80 PUSH1 0x40 MSTORE PUSH1 0x0 PUSH1 0x2 SSTORE PUSH1 0x1 PUSH1 0x5 SSTORE PUSH1 0x0 PUSH1 0x6 SSTORE CALLVALUE DUP1 ISZERO PUSH3 0x20 JUMPI PUSH1 0x0 DUP1 REVERT JUMPDEST POP PUSH1 0x40 MLOAD PUSH3 0x193E CODESIZE SUB DUP1 PUSH3 0x193E DUP4 CODECOPY DUP2 DUP2 ADD PUSH1 0x40 MSTORE DUP2 ADD SWAP1 PUSH3 0x46 SWAP2 SWAP1 PUSH3 0x3E5 JUMP JUMPDEST CALLER PUSH1 0x1 PUSH1 0x0 PUSH2 0x100 EXP DUP2 SLOAD DUP2 PUSH20 0xFFFFFFFFFFFFFFFFFFFFFFFFFFFFFFFFFFFFFFFF MUL NOT AND SWAP1 DUP4 PUSH20 0xFFFFFFFFFFFFFFFFFFFFFFFFFFFFFFFFFFFFFFFF AND MUL OR SWAP1 SSTORE POP DUP2 PUSH1 0x3 SWAP1 DUP1 MLOAD SWAP1 PUSH1 0x20 ADD SWAP1 PUSH3 0x9F SWAP3 SWAP2 SWAP1 PUSH3 0x15D JUMP JUMPDEST POP DUP1 PUSH1 0x4 DUP2 SWAP1 SSTORE POP PUSH3 0xB7 PUSH3 0xC5 PUSH1 0x20 SHL PUSH1 0x20 SHR JUMP JUMPDEST PUSH1 0x2 DUP2 SWAP1 SSTORE POP POP POP PUSH3 0x714 JUMP JUMPDEST PUSH1 0x0 DUP1 NUMBER TIMESTAMP PUSH1 0x4 SLOAD PUSH1 0x3 PUSH1 0x40 MLOAD PUSH1 0x20 ADD PUSH3 0xE1 SWAP2 SWAP1 PUSH3 0x561 JUMP JUMPDEST PUSH1 0x40 MLOAD PUSH1 0x20 DUP2 DUP4 SUB SUB DUP2 MSTORE SWAP1 PUSH1 0x40 MSTORE DUP1 MLOAD SWAP1 PUSH1 0x20 ADD KECCAK256 PUSH1 0x0 SHR PUSH3 0x106 SWAP2 SWAP1 PUSH3 0x5B4 JUMP JUMPDEST PUSH3 0x112 SWAP2 SWAP1 PUSH3 0x5B4 JUMP JUMPDEST PUSH3 0x11E SWAP2 SWAP1 PUSH3 0x5B4 JUMP JUMPDEST SWAP1 POP PUSH1 0x1 PUSH1 0xA DUP1 DUP4 PUSH3 0x132 SWAP2 SWAP1 PUSH3 0x640 JUMP JUMPDEST PUSH3 0x13E SWAP2 SWAP1 PUSH3 0x678 JUMP JUMPDEST DUP3 PUSH3 0x14B SWAP2 SWAP1 PUSH3 0x6D9 JUMP JUMPDEST PUSH3 0x157 SWAP2 SWAP1 PUSH3 0x5B4 JUMP JUMPDEST SWAP2 POP POP SWAP1 JUMP JUMPDEST DUP3 DUP1 SLOAD PUSH3 0x16B SWAP1 PUSH3 0x47A JUMP JUMPDEST SWAP1 PUSH1 0x0 MSTORE PUSH1 0x20 PUSH1 0x0 KECCAK256 SWAP1 PUSH1 0x1F ADD PUSH1 0x20 SWAP1 DIV DUP2 ADD SWAP3 DUP3 PUSH3 0x18F JUMPI PUSH1 0x0 DUP6 SSTORE PUSH3 0x1DB JUMP JUMPDEST DUP3 PUSH1 0x1F LT PUSH3 0x1AA JUMPI DUP1 MLOAD PUSH1 0xFF NOT AND DUP4 DUP1 ADD OR DUP6 SSTORE PUSH3 0x1DB JUMP JUMPDEST DUP3 DUP1 ADD PUSH1 0x1 ADD DUP6 SSTORE DUP3 ISZERO PUSH3 0x1DB JUMPI SWAP2 DUP3 ADD JUMPDEST DUP3 DUP2 GT ISZERO PUSH3 0x1DA JUMPI DUP3 MLOAD DUP3 SSTORE SWAP2 PUSH1 0x20 ADD SWAP2 SWAP1 PUSH1 0x1 ADD SWAP1 PUSH3 0x1BD JUMP JUMPDEST JUMPDEST POP SWAP1 POP PUSH3 0x1EA SWAP2 SWAP1 PUSH3 0x1EE JUMP JUMPDEST POP SWAP1 JUMP JUMPDEST JUMPDEST DUP1 DUP3 GT ISZERO PUSH3 0x209 JUMPI PUSH1 0x0 DUP2 PUSH1 0x0 SWAP1 SSTORE POP PUSH1 0x1 ADD PUSH3 0x1EF JUMP JUMPDEST POP SWAP1 JUMP JUMPDEST PUSH1 0x0 PUSH1 0x40 MLOAD SWAP1 POP SWAP1 JUMP JUMPDEST PUSH1 0x0 DUP1 REVERT JUMPDEST PUSH1 0x0 DUP1 REVERT JUMPDEST PUSH1 0x0 DUP1 REVERT JUMPDEST PUSH1 0x0 DUP1 REVERT JUMPDEST PUSH1 0x0 PUSH1 0x1F NOT PUSH1 0x1F DUP4 ADD AND SWAP1 POP SWAP2 SWAP1 POP JUMP JUMPDEST PUSH32 0x4E487B7100000000000000000000000000000000000000000000000000000000 PUSH1 0x0 MSTORE PUSH1 0x41 PUSH1 0x4 MSTORE PUSH1 0x24 PUSH1 0x0 REVERT JUMPDEST PUSH3 0x276 DUP3 PUSH3 0x22B JUMP JUMPDEST DUP2 ADD DUP2 DUP2 LT PUSH8 0xFFFFFFFFFFFFFFFF DUP3 GT OR ISZERO PUSH3 0x298 JUMPI PUSH3 0x297 PUSH3 0x23C JUMP JUMPDEST JUMPDEST DUP1 PUSH1 0x40 MSTORE POP POP POP JUMP JUMPDEST PUSH1 0x0 PUSH3 0x2AD PUSH3 0x20D JUMP JUMPDEST SWAP1 POP PUSH3 0x2BB DUP3 DUP3 PUSH3 0x26B JUMP JUMPDEST SWAP2 SWAP1 POP JUMP JUMPDEST PUSH1 0x0 PUSH8 0xFFFFFFFFFFFFFFFF DUP3 GT ISZERO PUSH3 0x2DE JUMPI PUSH3 0x2DD PUSH3 0x23C JUMP JUMPDEST JUMPDEST PUSH3 0x2E9 DUP3 PUSH3 0x22B JUMP JUMPDEST SWAP1 POP PUSH1 0x20 DUP2 ADD SWAP1 POP SWAP2 SWAP1 POP JUMP JUMPDEST PUSH1 0x0 JUMPDEST DUP4 DUP2 LT ISZERO PUSH3 0x316 JUMPI DUP1 DUP3 ADD MLOAD DUP2 DUP5 ADD MSTORE PUSH1 0x20 DUP2 ADD SWAP1 POP PUSH3 0x2F9 JUMP JUMPDEST DUP4 DUP2 GT ISZERO PUSH3 0x326 JUMPI PUSH1 0x0 DUP5 DUP5 ADD MSTORE JUMPDEST POP POP POP POP JUMP JUMPDEST PUSH1 0x0 PUSH3 0x343 PUSH3 0x33D DUP5 PUSH3 0x2C0 JUMP JUMPDEST PUSH3 0x2A1 JUMP JUMPDEST SWAP1 POP DUP3 DUP2 MSTORE PUSH1 0x20 DUP2 ADD DUP5 DUP5 DUP5 ADD GT ISZERO PUSH3 0x362 JUMPI PUSH3 0x361 PUSH3 0x226 JUMP JUMPDEST JUMPDEST PUSH3 0x36F DUP5 DUP3 DUP6 PUSH3 0x2F6 JUMP JUMPDEST POP SWAP4 SWAP3 POP POP POP JUMP JUMPDEST PUSH1 0x0 DUP3 PUSH1 0x1F DUP4 ADD SLT PUSH3 0x38F JUMPI PUSH3 0x38E PUSH3 0x221 JUMP JUMPDEST JUMPDEST DUP2 MLOAD PUSH3 0x3A1 DUP5 DUP3 PUSH1 0x20 DUP7 ADD PUSH3 0x32C JUMP JUMPDEST SWAP2 POP POP SWAP3 SWAP2 POP POP JUMP JUMPDEST PUSH1 0x0 DUP2 SWAP1 POP SWAP2 SWAP1 POP JUMP JUMPDEST PUSH3 0x3BF DUP2 PUSH3 0x3AA JUMP JUMPDEST DUP2 EQ PUSH3 0x3CB JUMPI PUSH1 0x0 DUP1 REVERT JUMPDEST POP JUMP JUMPDEST PUSH1 0x0 DUP2 MLOAD SWAP1 POP PUSH3 0x3DF DUP2 PUSH3 0x3B4 JUMP JUMPDEST SWAP3 SWAP2 POP POP JUMP JUMPDEST PUSH1 0x0 DUP1 PUSH1 0x40 DUP4 DUP6 SUB SLT ISZERO PUSH3 0x3FF JUMPI PUSH3 0x3FE PUSH3 0x217 JUMP JUMPDEST JUMPDEST PUSH1 0x0 DUP4 ADD MLOAD PUSH8 0xFFFFFFFFFFFFFFFF DUP2 GT ISZERO PUSH3 0x420 JUMPI PUSH3 0x41F PUSH3 0x21C JUMP JUMPDEST JUMPDEST PUSH3 0x42E DUP6 DUP3 DUP7 ADD PUSH3 0x377 JUMP JUMPDEST SWAP3 POP POP PUSH1 0x20 PUSH3 0x441 DUP6 DUP3 DUP7 ADD PUSH3 0x3CE JUMP JUMPDEST SWAP2 POP POP SWAP3 POP SWAP3 SWAP1 POP JUMP JUMPDEST PUSH32 0x4E487B7100000000000000000000000000000000000000000000000000000000 PUSH1 0x0 MSTORE PUSH1 0x22 PUSH1 0x4 MSTORE PUSH1 0x24 PUSH1 0x0 REVERT JUMPDEST PUSH1 0x0 PUSH1 0x2 DUP3 DIV SWAP1 POP PUSH1 0x1 DUP3 AND DUP1 PUSH3 0x493 JUMPI PUSH1 0x7F DUP3 AND SWAP2 POP JUMPDEST PUSH1 0x20 DUP3 LT DUP2 SUB PUSH3 0x4A9 JUMPI PUSH3 0x4A8 PUSH3 0x44B JUMP JUMPDEST JUMPDEST POP SWAP2 SWAP1 POP JUMP JUMPDEST PUSH1 0x0 DUP3 DUP3 MSTORE PUSH1 0x20 DUP3 ADD SWAP1 POP SWAP3 SWAP2 POP POP JUMP JUMPDEST PUSH1 0x0 DUP2 SWAP1 POP DUP2 PUSH1 0x0 MSTORE PUSH1 0x20 PUSH1 0x0 KECCAK256 SWAP1 POP SWAP2 SWAP1 POP JUMP JUMPDEST PUSH1 0x0 DUP2 SLOAD PUSH3 0x4E4 DUP2 PUSH3 0x47A JUMP JUMPDEST PUSH3 0x4F0 DUP2 DUP7 PUSH3 0x4AF JUMP JUMPDEST SWAP5 POP PUSH1 0x1 DUP3 AND PUSH1 0x0 DUP2 EQ PUSH3 0x50E JUMPI PUSH1 0x1 DUP2 EQ PUSH3 0x521 JUMPI PUSH3 0x558 JUMP JUMPDEST PUSH1 0xFF NOT DUP4 AND DUP7 MSTORE PUSH1 0x20 DUP7 ADD SWAP4 POP PUSH3 0x558 JUMP JUMPDEST PUSH3 0x52C DUP6 PUSH3 0x4C0 JUMP JUMPDEST PUSH1 0x0 JUMPDEST DUP4 DUP2 LT ISZERO PUSH3 0x550 JUMPI DUP2 SLOAD DUP2 DUP10 ADD MSTORE PUSH1 0x1 DUP3 ADD SWAP2 POP PUSH1 0x20 DUP2 ADD SWAP1 POP PUSH3 0x52F JUMP JUMPDEST DUP1 DUP9 ADD SWAP6 POP POP POP JUMPDEST POP POP POP SWAP3 SWAP2 POP POP JUMP JUMPDEST PUSH1 0x0 PUSH1 0x20 DUP3 ADD SWAP1 POP DUP2 DUP2 SUB PUSH1 0x0 DUP4 ADD MSTORE PUSH3 0x57D DUP2 DUP5 PUSH3 0x4D5 JUMP JUMPDEST SWAP1 POP SWAP3 SWAP2 POP POP JUMP JUMPDEST PUSH32 0x4E487B7100000000000000000000000000000000000000000000000000000000 PUSH1 0x0 MSTORE PUSH1 0x11 PUSH1 0x4 MSTORE PUSH1 0x24 PUSH1 0x0 REVERT JUMPDEST PUSH1 0x0 PUSH3 0x5C1 DUP3 PUSH3 0x3AA JUMP JUMPDEST SWAP2 POP PUSH3 0x5CE DUP4 PUSH3 0x3AA JUMP JUMPDEST SWAP3 POP DUP3 PUSH32 0xFFFFFFFFFFFFFFFFFFFFFFFFFFFFFFFFFFFFFFFFFFFFFFFFFFFFFFFFFFFFFFFF SUB DUP3 GT ISZERO PUSH3 0x606 JUMPI PUSH3 0x605 PUSH3 0x585 JUMP JUMPDEST JUMPDEST DUP3 DUP3 ADD SWAP1 POP SWAP3 SWAP2 POP POP JUMP JUMPDEST PUSH32 0x4E487B7100000000000000000000000000000000000000000000000000000000 PUSH1 0x0 MSTORE PUSH1 0x12 PUSH1 0x4 MSTORE PUSH1 0x24 PUSH1 0x0 REVERT JUMPDEST PUSH1 0x0 PUSH3 0x64D DUP3 PUSH3 0x3AA JUMP JUMPDEST SWAP2 POP PUSH3 0x65A DUP4 PUSH3 0x3AA JUMP JUMPDEST SWAP3 POP DUP3 PUSH3 0x66D JUMPI PUSH3 0x66C PUSH3 0x611 JUMP JUMPDEST JUMPDEST DUP3 DUP3 DIV SWAP1 POP SWAP3 SWAP2 POP POP JUMP JUMPDEST PUSH1 0x0 PUSH3 0x685 DUP3 PUSH3 0x3AA JUMP JUMPDEST SWAP2 POP PUSH3 0x692 DUP4 PUSH3 0x3AA JUMP JUMPDEST SWAP3 POP DUP2 PUSH32 0xFFFFFFFFFFFFFFFFFFFFFFFFFFFFFFFFFFFFFFFFFFFFFFFFFFFFFFFFFFFFFFFF DIV DUP4 GT DUP3 ISZERO ISZERO AND ISZERO PUSH3 0x6CE JUMPI PUSH3 0x6CD PUSH3 0x585 JUMP JUMPDEST JUMPDEST DUP3 DUP3 MUL SWAP1 POP SWAP3 SWAP2 POP POP JUMP JUMPDEST PUSH1 0x0 PUSH3 0x6E6 DUP3 PUSH3 0x3AA JUMP JUMPDEST SWAP2 POP PUSH3 0x6F3 DUP4 PUSH3 0x3AA JUMP JUMPDEST SWAP3 POP DUP3 DUP3 LT ISZERO PUSH3 0x709 JUMPI PUSH3 0x708 PUSH3 0x585 JUMP JUMPDEST JUMPDEST DUP3 DUP3 SUB SWAP1 POP SWAP3 SWAP2 POP POP JUMP JUMPDEST PUSH2 0x121A DUP1 PUSH3 0x724 PUSH1 0x0 CODECOPY PUSH1 0x0 RETURN INVALID PUSH1 0x80 PUSH1 0x40 MSTORE PUSH1 0x4 CALLDATASIZE LT PUSH2 0x8A JUMPI PUSH1 0x0 CALLDATALOAD PUSH1 0xE0 SHR DUP1 PUSH4 0x79ED40BC GT PUSH2 0x59 JUMPI DUP1 PUSH4 0x79ED40BC EQ PUSH2 0x429 JUMPI DUP1 PUSH4 0x8DA5CB5B EQ PUSH2 0x455 JUMPI DUP1 PUSH4 0x9F8743F7 EQ PUSH2 0x480 JUMPI DUP1 PUSH4 0xA86D2E19 EQ PUSH2 0x4AB JUMPI DUP1 PUSH4 0xCF66B989 EQ PUSH2 0x4D6 JUMPI PUSH2 0x37A JUMP JUMPDEST DUP1 PUSH4 0xDF516D8 EQ PUSH2 0x37F JUMPI DUP1 PUSH4 0x146CA531 EQ PUSH2 0x3AA JUMPI DUP1 PUSH4 0x4D9B3D5D EQ PUSH2 0x3D5 JUMPI DUP1 PUSH4 0x5EF5CC89 EQ PUSH2 0x400 JUMPI PUSH2 0x37A JUMP JUMPDEST CALLDATASIZE PUSH2 0x37A JUMPI PUSH7 0x2386F26FC10000 CALLVALUE EQ PUSH2 0xD8 JUMPI PUSH1 0x40 MLOAD PUSH32 0x8C379A000000000000000000000000000000000000000000000000000000000 DUP2 MSTORE PUSH1 0x4 ADD PUSH2 0xCF SWAP1 PUSH2 0x987 JUMP JUMPDEST PUSH1 0x40 MLOAD DUP1 SWAP2 SUB SWAP1 REVERT JUMPDEST PUSH1 0x0 ISZERO ISZERO PUSH1 0x0 DUP1 PUSH1 0x5 SLOAD DUP2 MSTORE PUSH1 0x20 ADD SWAP1 DUP2 MSTORE PUSH1 0x20 ADD PUSH1 0x0 KECCAK256 PUSH1 0x0 CALLER PUSH20 0xFFFFFFFFFFFFFFFFFFFFFFFFFFFFFFFFFFFFFFFF AND PUSH20 0xFFFFFFFFFFFFFFFFFFFFFFFFFFFFFFFFFFFFFFFF AND DUP2 MSTORE PUSH1 0x20 ADD SWAP1 DUP2 MSTORE PUSH1 0x20 ADD PUSH1 0x0 KECCAK256 PUSH1 0x0 SWAP1 SLOAD SWAP1 PUSH2 0x100 EXP SWAP1 DIV PUSH1 0xFF AND ISZERO ISZERO EQ PUSH2 0x17D JUMPI PUSH1 0x40 MLOAD PUSH32 0x8C379A000000000000000000000000000000000000000000000000000000000 DUP2 MSTORE PUSH1 0x4 ADD PUSH2 0x174 SWAP1 PUSH2 0x9F3 JUMP JUMPDEST PUSH1 0x40 MLOAD DUP1 SWAP2 SUB SWAP1 REVERT JUMPDEST PUSH1 0x1 PUSH1 0x0 DUP1 PUSH1 0x5 SLOAD DUP2 MSTORE PUSH1 0x20 ADD SWAP1 DUP2 MSTORE PUSH1 0x20 ADD PUSH1 0x0 KECCAK256 PUSH1 0x0 CALLER PUSH20 0xFFFFFFFFFFFFFFFFFFFFFFFFFFFFFFFFFFFFFFFF AND PUSH20 0xFFFFFFFFFFFFFFFFFFFFFFFFFFFFFFFFFFFFFFFF AND DUP2 MSTORE PUSH1 0x20 ADD SWAP1 DUP2 MSTORE PUSH1 0x20 ADD PUSH1 0x0 KECCAK256 PUSH1 0x0 PUSH2 0x100 EXP DUP2 SLOAD DUP2 PUSH1 0xFF MUL NOT AND SWAP1 DUP4 ISZERO ISZERO MUL OR SWAP1 SSTORE POP PUSH1 0x6 PUSH1 0x0 DUP2 SLOAD PUSH2 0x1F6 SWAP1 PUSH2 0xA4C JUMP JUMPDEST SWAP2 SWAP1 POP DUP2 SWAP1 SSTORE POP PUSH1 0x2 SLOAD PUSH1 0x6 SLOAD SUB PUSH2 0x329 JUMPI PUSH1 0x0 CALLER PUSH20 0xFFFFFFFFFFFFFFFFFFFFFFFFFFFFFFFFFFFFFFFF AND SELFBALANCE PUSH1 0x40 MLOAD PUSH2 0x22E SWAP1 PUSH2 0xAC5 JUMP JUMPDEST PUSH1 0x0 PUSH1 0x40 MLOAD DUP1 DUP4 SUB DUP2 DUP6 DUP8 GAS CALL SWAP3 POP POP POP RETURNDATASIZE DUP1 PUSH1 0x0 DUP2 EQ PUSH2 0x26B JUMPI PUSH1 0x40 MLOAD SWAP2 POP PUSH1 0x1F NOT PUSH1 0x3F RETURNDATASIZE ADD AND DUP3 ADD PUSH1 0x40 MSTORE RETURNDATASIZE DUP3 MSTORE RETURNDATASIZE PUSH1 0x0 PUSH1 0x20 DUP5 ADD RETURNDATACOPY PUSH2 0x270 JUMP JUMPDEST PUSH1 0x60 SWAP2 POP JUMPDEST POP POP SWAP1 POP DUP1 PUSH2 0x2B4 JUMPI PUSH1 0x40 MLOAD PUSH32 0x8C379A000000000000000000000000000000000000000000000000000000000 DUP2 MSTORE PUSH1 0x4 ADD PUSH2 0x2AB SWAP1 PUSH2 0xB26 JUMP JUMPDEST PUSH1 0x40 MLOAD DUP1 SWAP2 SUB SWAP1 REVERT JUMPDEST PUSH1 0x0 PUSH1 0x6 DUP2 SWAP1 SSTORE POP PUSH1 0x5 PUSH1 0x0 DUP2 SLOAD PUSH2 0x2CB SWAP1 PUSH2 0xA4C JUMP JUMPDEST SWAP2 SWAP1 POP DUP2 SWAP1 SSTORE POP PUSH2 0x2DA PUSH2 0x513 JUMP JUMPDEST PUSH1 0x2 DUP2 SWAP1 SSTORE POP CALLER PUSH20 0xFFFFFFFFFFFFFFFFFFFFFFFFFFFFFFFFFFFFFFFF AND PUSH32 0xD7B5435FA0DD93954C7955210A67950D9385F8CD60631432712709E265EC99CA PUSH1 0x40 MLOAD PUSH1 0x40 MLOAD DUP1 SWAP2 SUB SWAP1 LOG2 POP PUSH2 0x378 JUMP JUMPDEST CALLER PUSH20 0xFFFFFFFFFFFFFFFFFFFFFFFFFFFFFFFFFFFFFFFF AND PUSH32 0x20384C35AF44AE3E0536C765E1CEE107339D7CA70B092472C816A3A62E4BA659 CALLVALUE PUSH1 0x40 MLOAD PUSH2 0x36F SWAP2 SWAP1 PUSH2 0xB55 JUMP JUMPDEST PUSH1 0x40 MLOAD DUP1 SWAP2 SUB SWAP1 LOG2 JUMPDEST STOP JUMPDEST PUSH1 0x0 DUP1 REVERT JUMPDEST CALLVALUE DUP1 ISZERO PUSH2 0x38B JUMPI PUSH1 0x0 DUP1 REVERT JUMPDEST POP PUSH2 0x394 PUSH2 0x59B JUMP JUMPDEST PUSH1 0x40 MLOAD PUSH2 0x3A1 SWAP2 SWAP1 PUSH2 0xB55 JUMP JUMPDEST PUSH1 0x40 MLOAD DUP1 SWAP2 SUB SWAP1 RETURN JUMPDEST CALLVALUE DUP1 ISZERO PUSH2 0x3B6 JUMPI PUSH1 0x0 DUP1 REVERT JUMPDEST POP PUSH2 0x3BF PUSH2 0x5A1 JUMP JUMPDEST PUSH1 0x40 MLOAD PUSH2 0x3CC SWAP2 SWAP1 PUSH2 0xB55 JUMP JUMPDEST PUSH1 0x40 MLOAD DUP1 SWAP2 SUB SWAP1 RETURN JUMPDEST CALLVALUE DUP1 ISZERO PUSH2 0x3E1 JUMPI PUSH1 0x0 DUP1 REVERT JUMPDEST POP PUSH2 0x3EA PUSH2 0x5A7 JUMP JUMPDEST PUSH1 0x40 MLOAD PUSH2 0x3F7 SWAP2 SWAP1 PUSH2 0xB55 JUMP JUMPDEST PUSH1 0x40 MLOAD DUP1 SWAP2 SUB SWAP1 RETURN JUMPDEST CALLVALUE DUP1 ISZERO PUSH2 0x40C JUMPI PUSH1 0x0 DUP1 REVERT JUMPDEST POP PUSH2 0x427 PUSH1 0x4 DUP1 CALLDATASIZE SUB DUP2 ADD SWAP1 PUSH2 0x422 SWAP2 SWAP1 PUSH2 0xCF6 JUMP JUMPDEST PUSH2 0x5AF JUMP JUMPDEST STOP JUMPDEST CALLVALUE DUP1 ISZERO PUSH2 0x435 JUMPI PUSH1 0x0 DUP1 REVERT JUMPDEST POP PUSH2 0x43E PUSH2 0x661 JUMP JUMPDEST PUSH1 0x40 MLOAD PUSH2 0x44C SWAP3 SWAP2 SWAP1 PUSH2 0xDC9 JUMP JUMPDEST PUSH1 0x40 MLOAD DUP1 SWAP2 SUB SWAP1 RETURN JUMPDEST CALLVALUE DUP1 ISZERO PUSH2 0x461 JUMPI PUSH1 0x0 DUP1 REVERT JUMPDEST POP PUSH2 0x46A PUSH2 0x78E JUMP JUMPDEST PUSH1 0x40 MLOAD PUSH2 0x477 SWAP2 SWAP1 PUSH2 0xE3A JUMP JUMPDEST PUSH1 0x40 MLOAD DUP1 SWAP2 SUB SWAP1 RETURN JUMPDEST CALLVALUE DUP1 ISZERO PUSH2 0x48C JUMPI PUSH1 0x0 DUP1 REVERT JUMPDEST POP PUSH2 0x495 PUSH2 0x7B4 JUMP JUMPDEST PUSH1 0x40 MLOAD PUSH2 0x4A2 SWAP2 SWAP1 PUSH2 0xB55 JUMP JUMPDEST PUSH1 0x40 MLOAD DUP1 SWAP2 SUB SWAP1 RETURN JUMPDEST CALLVALUE DUP1 ISZERO PUSH2 0x4B7 JUMPI PUSH1 0x0 DUP1 REVERT JUMPDEST POP PUSH2 0x4C0 PUSH2 0x7BE JUMP JUMPDEST PUSH1 0x40 MLOAD PUSH2 0x4CD SWAP2 SWAP1 PUSH2 0xB55 JUMP JUMPDEST PUSH1 0x40 MLOAD DUP1 SWAP2 SUB SWAP1 RETURN JUMPDEST CALLVALUE DUP1 ISZERO PUSH2 0x4E2 JUMPI PUSH1 0x0 DUP1 REVERT JUMPDEST POP PUSH2 0x4FD PUSH1 0x4 DUP1 CALLDATASIZE SUB DUP2 ADD SWAP1 PUSH2 0x4F8 SWAP2 SWAP1 PUSH2 0xE81 JUMP JUMPDEST PUSH2 0x858 JUMP JUMPDEST PUSH1 0x40 MLOAD PUSH2 0x50A SWAP2 SWAP1 PUSH2 0xEDC JUMP JUMPDEST PUSH1 0x40 MLOAD DUP1 SWAP2 SUB SWAP1 RETURN JUMPDEST PUSH1 0x0 DUP1 NUMBER TIMESTAMP PUSH1 0x4 SLOAD PUSH1 0x3 PUSH1 0x40 MLOAD PUSH1 0x20 ADD PUSH2 0x52D SWAP2 SWAP1 PUSH2 0xFEC JUMP JUMPDEST PUSH1 0x40 MLOAD PUSH1 0x20 DUP2 DUP4 SUB SUB DUP2 MSTORE SWAP1 PUSH1 0x40 MSTORE DUP1 MLOAD SWAP1 PUSH1 0x20 ADD KECCAK256 PUSH1 0x0 SHR PUSH2 0x550 SWAP2 SWAP1 PUSH2 0x100E JUMP JUMPDEST PUSH2 0x55A SWAP2 SWAP1 PUSH2 0x100E JUMP JUMPDEST PUSH2 0x564 SWAP2 SWAP1 PUSH2 0x100E JUMP JUMPDEST SWAP1 POP PUSH1 0x1 PUSH1 0xA DUP1 DUP4 PUSH2 0x576 SWAP2 SWAP1 PUSH2 0x1093 JUMP JUMPDEST PUSH2 0x580 SWAP2 SWAP1 PUSH2 0x10C4 JUMP JUMPDEST DUP3 PUSH2 0x58B SWAP2 SWAP1 PUSH2 0x111E JUMP JUMPDEST PUSH2 0x595 SWAP2 SWAP1 PUSH2 0x100E JUMP JUMPDEST SWAP2 POP POP SWAP1 JUMP JUMPDEST PUSH1 0x6 SLOAD DUP2 JUMP JUMPDEST PUSH1 0x5 SLOAD DUP2 JUMP JUMPDEST PUSH1 0x0 SELFBALANCE SWAP1 POP SWAP1 JUMP JUMPDEST PUSH1 0x1 PUSH1 0x0 SWAP1 SLOAD SWAP1 PUSH2 0x100 EXP SWAP1 DIV PUSH20 0xFFFFFFFFFFFFFFFFFFFFFFFFFFFFFFFFFFFFFFFF AND PUSH20 0xFFFFFFFFFFFFFFFFFFFFFFFFFFFFFFFFFFFFFFFF AND CALLER PUSH20 0xFFFFFFFFFFFFFFFFFFFFFFFFFFFFFFFFFFFFFFFF AND EQ PUSH2 0x63F JUMPI PUSH1 0x40 MLOAD PUSH32 0x8C379A000000000000000000000000000000000000000000000000000000000 DUP2 MSTORE PUSH1 0x4 ADD PUSH2 0x636 SWAP1 PUSH2 0x11C4 JUMP JUMPDEST PUSH1 0x40 MLOAD DUP1 SWAP2 SUB SWAP1 REVERT JUMPDEST DUP2 PUSH1 0x3 SWAP1 DUP1 MLOAD SWAP1 PUSH1 0x20 ADD SWAP1 PUSH2 0x655 SWAP3 SWAP2 SWAP1 PUSH2 0x887 JUMP JUMPDEST POP DUP1 PUSH1 0x4 DUP2 SWAP1 SSTORE POP POP POP JUMP JUMPDEST PUSH1 0x60 PUSH1 0x0 PUSH1 0x1 PUSH1 0x0 SWAP1 SLOAD SWAP1 PUSH2 0x100 EXP SWAP1 DIV PUSH20 0xFFFFFFFFFFFFFFFFFFFFFFFFFFFFFFFFFFFFFFFF AND PUSH20 0xFFFFFFFFFFFFFFFFFFFFFFFFFFFFFFFFFFFFFFFF AND CALLER PUSH20 0xFFFFFFFFFFFFFFFFFFFFFFFFFFFFFFFFFFFFFFFF AND EQ PUSH2 0x6F5 JUMPI PUSH1 0x40 MLOAD PUSH32 0x8C379A000000000000000000000000000000000000000000000000000000000 DUP2 MSTORE PUSH1 0x4 ADD PUSH2 0x6EC SWAP1 PUSH2 0x11C4 JUMP JUMPDEST PUSH1 0x40 MLOAD DUP1 SWAP2 SUB SWAP1 REVERT JUMPDEST PUSH1 0x3 PUSH1 0x4 SLOAD DUP2 DUP1 SLOAD PUSH2 0x706 SWAP1 PUSH2 0xF26 JUMP JUMPDEST DUP1 PUSH1 0x1F ADD PUSH1 0x20 DUP1 SWAP2 DIV MUL PUSH1 0x20 ADD PUSH1 0x40 MLOAD SWAP1 DUP2 ADD PUSH1 0x40 MSTORE DUP1 SWAP3 SWAP2 SWAP1 DUP2 DUP2 MSTORE PUSH1 0x20 ADD DUP3 DUP1 SLOAD PUSH2 0x732 SWAP1 PUSH2 0xF26 JUMP JUMPDEST DUP1 ISZERO PUSH2 0x77F JUMPI DUP1 PUSH1 0x1F LT PUSH2 0x754 JUMPI PUSH2 0x100 DUP1 DUP4 SLOAD DIV MUL DUP4 MSTORE SWAP2 PUSH1 0x20 ADD SWAP2 PUSH2 0x77F JUMP JUMPDEST DUP3 ADD SWAP2 SWAP1 PUSH1 0x0 MSTORE PUSH1 0x20 PUSH1 0x0 KECCAK256 SWAP1 JUMPDEST DUP2 SLOAD DUP2 MSTORE SWAP1 PUSH1 0x1 ADD SWAP1 PUSH1 0x20 ADD DUP1 DUP4 GT PUSH2 0x762 JUMPI DUP3 SWAP1 SUB PUSH1 0x1F AND DUP3 ADD SWAP2 JUMPDEST POP POP POP POP POP SWAP2 POP SWAP2 POP SWAP2 POP SWAP1 SWAP2 JUMP JUMPDEST PUSH1 0x1 PUSH1 0x0 SWAP1 SLOAD SWAP1 PUSH2 0x100 EXP SWAP1 DIV PUSH20 0xFFFFFFFFFFFFFFFFFFFFFFFFFFFFFFFFFFFFFFFF AND DUP2 JUMP JUMPDEST PUSH1 0x0 PUSH1 0x5 SLOAD SWAP1 POP SWAP1 JUMP JUMPDEST PUSH1 0x0 PUSH1 0x1 PUSH1 0x0 SWAP1 SLOAD SWAP1 PUSH2 0x100 EXP SWAP1 DIV PUSH20 0xFFFFFFFFFFFFFFFFFFFFFFFFFFFFFFFFFFFFFFFF AND PUSH20 0xFFFFFFFFFFFFFFFFFFFFFFFFFFFFFFFFFFFFFFFF AND CALLER PUSH20 0xFFFFFFFFFFFFFFFFFFFFFFFFFFFFFFFFFFFFFFFF AND EQ PUSH2 0x850 JUMPI PUSH1 0x40 MLOAD PUSH32 0x8C379A000000000000000000000000000000000000000000000000000000000 DUP2 MSTORE PUSH1 0x4 ADD PUSH2 0x847 SWAP1 PUSH2 0x11C4 JUMP JUMPDEST PUSH1 0x40 MLOAD DUP1 SWAP2 SUB SWAP1 REVERT JUMPDEST PUSH1 0x2 SLOAD SWAP1 POP SWAP1 JUMP JUMPDEST PUSH1 0x0 PUSH1 0x20 MSTORE DUP2 PUSH1 0x0 MSTORE PUSH1 0x40 PUSH1 0x0 KECCAK256 PUSH1 0x20 MSTORE DUP1 PUSH1 0x0 MSTORE PUSH1 0x40 PUSH1 0x0 KECCAK256 PUSH1 0x0 SWAP2 POP SWAP2 POP SWAP1 SLOAD SWAP1 PUSH2 0x100 EXP SWAP1 DIV PUSH1 0xFF AND DUP2 JUMP JUMPDEST DUP3 DUP1 SLOAD PUSH2 0x893 SWAP1 PUSH2 0xF26 JUMP JUMPDEST SWAP1 PUSH1 0x0 MSTORE PUSH1 0x20 PUSH1 0x0 KECCAK256 SWAP1 PUSH1 0x1F ADD PUSH1 0x20 SWAP1 DIV DUP2 ADD SWAP3 DUP3 PUSH2 0x8B5 JUMPI PUSH1 0x0 DUP6 SSTORE PUSH2 0x8FC JUMP JUMPDEST DUP3 PUSH1 0x1F LT PUSH2 0x8CE JUMPI DUP1 MLOAD PUSH1 0xFF NOT AND DUP4 DUP1 ADD OR DUP6 SSTORE PUSH2 0x8FC JUMP JUMPDEST DUP3 DUP1 ADD PUSH1 0x1 ADD DUP6 SSTORE DUP3 ISZERO PUSH2 0x8FC JUMPI SWAP2 DUP3 ADD JUMPDEST DUP3 DUP2 GT ISZERO PUSH2 0x8FB JUMPI DUP3 MLOAD DUP3 SSTORE SWAP2 PUSH1 0x20 ADD SWAP2 SWAP1 PUSH1 0x1 ADD SWAP1 PUSH2 0x8E0 JUMP JUMPDEST JUMPDEST POP SWAP1 POP PUSH2 0x909 SWAP2 SWAP1 PUSH2 0x90D JUMP JUMPDEST POP SWAP1 JUMP JUMPDEST JUMPDEST DUP1 DUP3 GT ISZERO PUSH2 0x926 JUMPI PUSH1 0x0 DUP2 PUSH1 0x0 SWAP1 SSTORE POP PUSH1 0x1 ADD PUSH2 0x90E JUMP JUMPDEST POP SWAP1 JUMP JUMPDEST PUSH1 0x0 DUP3 DUP3 MSTORE PUSH1 0x20 DUP3 ADD SWAP1 POP SWAP3 SWAP2 POP POP JUMP JUMPDEST PUSH32 0x4D75737420626520302D2E30312065746865722E000000000000000000000000 PUSH1 0x0 DUP3 ADD MSTORE POP JUMP JUMPDEST PUSH1 0x0 PUSH2 0x971 PUSH1 0x14 DUP4 PUSH2 0x92A JUMP JUMPDEST SWAP2 POP PUSH2 0x97C DUP3 PUSH2 0x93B JUMP JUMPDEST PUSH1 0x20 DUP3 ADD SWAP1 POP SWAP2 SWAP1 POP JUMP JUMPDEST PUSH1 0x0 PUSH1 0x20 DUP3 ADD SWAP1 POP DUP2 DUP2 SUB PUSH1 0x0 DUP4 ADD MSTORE PUSH2 0x9A0 DUP2 PUSH2 0x964 JUMP JUMPDEST SWAP1 POP SWAP2 SWAP1 POP JUMP JUMPDEST PUSH32 0x4D757374206265207468652066697273742074696D652E000000000000000000 PUSH1 0x0 DUP3 ADD MSTORE POP JUMP JUMPDEST PUSH1 0x0 PUSH2 0x9DD PUSH1 0x17 DUP4 PUSH2 0x92A JUMP JUMPDEST SWAP2 POP PUSH2 0x9E8 DUP3 PUSH2 0x9A7 JUMP JUMPDEST PUSH1 0x20 DUP3 ADD SWAP1 POP SWAP2 SWAP1 POP JUMP JUMPDEST PUSH1 0x0 PUSH1 0x20 DUP3 ADD SWAP1 POP DUP2 DUP2 SUB PUSH1 0x0 DUP4 ADD MSTORE PUSH2 0xA0C DUP2 PUSH2 0x9D0 JUMP JUMPDEST SWAP1 POP SWAP2 SWAP1 POP JUMP JUMPDEST PUSH32 0x4E487B7100000000000000000000000000000000000000000000000000000000 PUSH1 0x0 MSTORE PUSH1 0x11 PUSH1 0x4 MSTORE PUSH1 0x24 PUSH1 0x0 REVERT JUMPDEST PUSH1 0x0 DUP2 SWAP1 POP SWAP2 SWAP1 POP JUMP JUMPDEST PUSH1 0x0 PUSH2 0xA57 DUP3 PUSH2 0xA42 JUMP JUMPDEST SWAP2 POP PUSH32 0xFFFFFFFFFFFFFFFFFFFFFFFFFFFFFFFFFFFFFFFFFFFFFFFFFFFFFFFFFFFFFFFF DUP3 SUB PUSH2 0xA89 JUMPI PUSH2 0xA88 PUSH2 0xA13 JUMP JUMPDEST JUMPDEST PUSH1 0x1 DUP3 ADD SWAP1 POP SWAP2 SWAP1 POP JUMP JUMPDEST PUSH1 0x0 DUP2 SWAP1 POP SWAP3 SWAP2 POP POP JUMP JUMPDEST POP JUMP JUMPDEST PUSH1 0x0 PUSH2 0xAAF PUSH1 0x0 DUP4 PUSH2 0xA94 JUMP JUMPDEST SWAP2 POP PUSH2 0xABA DUP3 PUSH2 0xA9F JUMP JUMPDEST PUSH1 0x0 DUP3 ADD SWAP1 POP SWAP2 SWAP1 POP JUMP JUMPDEST PUSH1 0x0 PUSH2 0xAD0 DUP3 PUSH2 0xAA2 JUMP JUMPDEST SWAP2 POP DUP2 SWAP1 POP SWAP2 SWAP1 POP JUMP JUMPDEST PUSH32 0x4661696C65640000000000000000000000000000000000000000000000000000 PUSH1 0x0 DUP3 ADD MSTORE POP JUMP JUMPDEST PUSH1 0x0 PUSH2 0xB10 PUSH1 0x6 DUP4 PUSH2 0x92A JUMP JUMPDEST SWAP2 POP PUSH2 0xB1B DUP3 PUSH2 0xADA JUMP JUMPDEST PUSH1 0x20 DUP3 ADD SWAP1 POP SWAP2 SWAP1 POP JUMP JUMPDEST PUSH1 0x0 PUSH1 0x20 DUP3 ADD SWAP1 POP DUP2 DUP2 SUB PUSH1 0x0 DUP4 ADD MSTORE PUSH2 0xB3F DUP2 PUSH2 0xB03 JUMP JUMPDEST SWAP1 POP SWAP2 SWAP1 POP JUMP JUMPDEST PUSH2 0xB4F DUP2 PUSH2 0xA42 JUMP JUMPDEST DUP3 MSTORE POP POP JUMP JUMPDEST PUSH1 0x0 PUSH1 0x20 DUP3 ADD SWAP1 POP PUSH2 0xB6A PUSH1 0x0 DUP4 ADD DUP5 PUSH2 0xB46 JUMP JUMPDEST SWAP3 SWAP2 POP POP JUMP JUMPDEST PUSH1 0x0 PUSH1 0x40 MLOAD SWAP1 POP SWAP1 JUMP JUMPDEST PUSH1 0x0 DUP1 REVERT JUMPDEST PUSH1 0x0 DUP1 REVERT JUMPDEST PUSH1 0x0 DUP1 REVERT JUMPDEST PUSH1 0x0 DUP1 REVERT JUMPDEST PUSH1 0x0 PUSH1 0x1F NOT PUSH1 0x1F DUP4 ADD AND SWAP1 POP SWAP2 SWAP1 POP JUMP JUMPDEST PUSH32 0x4E487B7100000000000000000000000000000000000000000000000000000000 PUSH1 0x0 MSTORE PUSH1 0x41 PUSH1 0x4 MSTORE PUSH1 0x24 PUSH1 0x0 REVERT JUMPDEST PUSH2 0xBD7 DUP3 PUSH2 0xB8E JUMP JUMPDEST DUP2 ADD DUP2 DUP2 LT PUSH8 0xFFFFFFFFFFFFFFFF DUP3 GT OR ISZERO PUSH2 0xBF6 JUMPI PUSH2 0xBF5 PUSH2 0xB9F JUMP JUMPDEST JUMPDEST DUP1 PUSH1 0x40 MSTORE POP POP POP JUMP JUMPDEST PUSH1 0x0 PUSH2 0xC09 PUSH2 0xB70 JUMP JUMPDEST SWAP1 POP PUSH2 0xC15 DUP3 DUP3 PUSH2 0xBCE JUMP JUMPDEST SWAP2 SWAP1 POP JUMP JUMPDEST PUSH1 0x0 PUSH8 0xFFFFFFFFFFFFFFFF DUP3 GT ISZERO PUSH2 0xC35 JUMPI PUSH2 0xC34 PUSH2 0xB9F JUMP JUMPDEST JUMPDEST PUSH2 0xC3E DUP3 PUSH2 0xB8E JUMP JUMPDEST SWAP1 POP PUSH1 0x20 DUP2 ADD SWAP1 POP SWAP2 SWAP1 POP JUMP JUMPDEST DUP3 DUP2 DUP4 CALLDATACOPY PUSH1 0x0 DUP4 DUP4 ADD MSTORE POP POP POP JUMP JUMPDEST PUSH1 0x0 PUSH2 0xC6D PUSH2 0xC68 DUP5 PUSH2 0xC1A JUMP JUMPDEST PUSH2 0xBFF JUMP JUMPDEST SWAP1 POP DUP3 DUP2 MSTORE PUSH1 0x20 DUP2 ADD DUP5 DUP5 DUP5 ADD GT ISZERO PUSH2 0xC89 JUMPI PUSH2 0xC88 PUSH2 0xB89 JUMP JUMPDEST JUMPDEST PUSH2 0xC94 DUP5 DUP3 DUP6 PUSH2 0xC4B JUMP JUMPDEST POP SWAP4 SWAP3 POP POP POP JUMP JUMPDEST PUSH1 0x0 DUP3 PUSH1 0x1F DUP4 ADD SLT PUSH2 0xCB1 JUMPI PUSH2 0xCB0 PUSH2 0xB84 JUMP JUMPDEST JUMPDEST DUP2 CALLDATALOAD PUSH2 0xCC1 DUP5 DUP3 PUSH1 0x20 DUP7 ADD PUSH2 0xC5A JUMP JUMPDEST SWAP2 POP POP SWAP3 SWAP2 POP POP JUMP JUMPDEST PUSH2 0xCD3 DUP2 PUSH2 0xA42 JUMP JUMPDEST DUP2 EQ PUSH2 0xCDE JUMPI PUSH1 0x0 DUP1 REVERT JUMPDEST POP JUMP JUMPDEST PUSH1 0x0 DUP2 CALLDATALOAD SWAP1 POP PUSH2 0xCF0 DUP2 PUSH2 0xCCA JUMP JUMPDEST SWAP3 SWAP2 POP POP JUMP JUMPDEST PUSH1 0x0 DUP1 PUSH1 0x40 DUP4 DUP6 SUB SLT ISZERO PUSH2 0xD0D JUMPI PUSH2 0xD0C PUSH2 0xB7A JUMP JUMPDEST JUMPDEST PUSH1 0x0 DUP4 ADD CALLDATALOAD PUSH8 0xFFFFFFFFFFFFFFFF DUP2 GT ISZERO PUSH2 0xD2B JUMPI PUSH2 0xD2A PUSH2 0xB7F JUMP JUMPDEST JUMPDEST PUSH2 0xD37 DUP6 DUP3 DUP7 ADD PUSH2 0xC9C JUMP JUMPDEST SWAP3 POP POP PUSH1 0x20 PUSH2 0xD48 DUP6 DUP3 DUP7 ADD PUSH2 0xCE1 JUMP JUMPDEST SWAP2 POP POP SWAP3 POP SWAP3 SWAP1 POP JUMP JUMPDEST PUSH1 0x0 DUP2 MLOAD SWAP1 POP SWAP2 SWAP1 POP JUMP JUMPDEST PUSH1 0x0 JUMPDEST DUP4 DUP2 LT ISZERO PUSH2 0xD7B JUMPI DUP1 DUP3 ADD MLOAD DUP2 DUP5 ADD MSTORE PUSH1 0x20 DUP2 ADD SWAP1 POP PUSH2 0xD60 JUMP JUMPDEST DUP4 DUP2 GT ISZERO PUSH2 0xD8A JUMPI PUSH1 0x0 DUP5 DUP5 ADD MSTORE JUMPDEST POP POP POP POP JUMP JUMPDEST PUSH1 0x0 PUSH2 0xD9B DUP3 PUSH2 0xD52 JUMP JUMPDEST PUSH2 0xDA5 DUP2 DUP6 PUSH2 0x92A JUMP JUMPDEST SWAP4 POP PUSH2 0xDB5 DUP2 DUP6 PUSH1 0x20 DUP7 ADD PUSH2 0xD5D JUMP JUMPDEST PUSH2 0xDBE DUP2 PUSH2 0xB8E JUMP JUMPDEST DUP5 ADD SWAP2 POP POP SWAP3 SWAP2 POP POP JUMP JUMPDEST PUSH1 0x0 PUSH1 0x40 DUP3 ADD SWAP1 POP DUP2 DUP2 SUB PUSH1 0x0 DUP4 ADD MSTORE PUSH2 0xDE3 DUP2 DUP6 PUSH2 0xD90 JUMP JUMPDEST SWAP1 POP PUSH2 0xDF2 PUSH1 0x20 DUP4 ADD DUP5 PUSH2 0xB46 JUMP JUMPDEST SWAP4 SWAP3 POP POP POP JUMP JUMPDEST PUSH1 0x0 PUSH20 0xFFFFFFFFFFFFFFFFFFFFFFFFFFFFFFFFFFFFFFFF DUP3 AND SWAP1 POP SWAP2 SWAP1 POP JUMP JUMPDEST PUSH1 0x0 PUSH2 0xE24 DUP3 PUSH2 0xDF9 JUMP JUMPDEST SWAP1 POP SWAP2 SWAP1 POP JUMP JUMPDEST PUSH2 0xE34 DUP2 PUSH2 0xE19 JUMP JUMPDEST DUP3 MSTORE POP POP JUMP JUMPDEST PUSH1 0x0 PUSH1 0x20 DUP3 ADD SWAP1 POP PUSH2 0xE4F PUSH1 0x0 DUP4 ADD DUP5 PUSH2 0xE2B JUMP JUMPDEST SWAP3 SWAP2 POP POP JUMP JUMPDEST PUSH2 0xE5E DUP2 PUSH2 0xE19 JUMP JUMPDEST DUP2 EQ PUSH2 0xE69 JUMPI PUSH1 0x0 DUP1 REVERT JUMPDEST POP JUMP JUMPDEST PUSH1 0x0 DUP2 CALLDATALOAD SWAP1 POP PUSH2 0xE7B DUP2 PUSH2 0xE55 JUMP JUMPDEST SWAP3 SWAP2 POP POP JUMP JUMPDEST PUSH1 0x0 DUP1 PUSH1 0x40 DUP4 DUP6 SUB SLT ISZERO PUSH2 0xE98 JUMPI PUSH2 0xE97 PUSH2 0xB7A JUMP JUMPDEST JUMPDEST PUSH1 0x0 PUSH2 0xEA6 DUP6 DUP3 DUP7 ADD PUSH2 0xCE1 JUMP JUMPDEST SWAP3 POP POP PUSH1 0x20 PUSH2 0xEB7 DUP6 DUP3 DUP7 ADD PUSH2 0xE6C JUMP JUMPDEST SWAP2 POP POP SWAP3 POP SWAP3 SWAP1 POP JUMP JUMPDEST PUSH1 0x0 DUP2 ISZERO ISZERO SWAP1 POP SWAP2 SWAP1 POP JUMP JUMPDEST PUSH2 0xED6 DUP2 PUSH2 0xEC1 JUMP JUMPDEST DUP3 MSTORE POP POP JUMP JUMPDEST PUSH1 0x0 PUSH1 0x20 DUP3 ADD SWAP1 POP PUSH2 0xEF1 PUSH1 0x0 DUP4 ADD DUP5 PUSH2 0xECD JUMP JUMPDEST SWAP3 SWAP2 POP POP JUMP JUMPDEST PUSH32 0x4E487B7100000000000000000000000000000000000000000000000000000000 PUSH1 0x0 MSTORE PUSH1 0x22 PUSH1 0x4 MSTORE PUSH1 0x24 PUSH1 0x0 REVERT JUMPDEST PUSH1 0x0 PUSH1 0x2 DUP3 DIV SWAP1 POP PUSH1 0x1 DUP3 AND DUP1 PUSH2 0xF3E JUMPI PUSH1 0x7F DUP3 AND SWAP2 POP JUMPDEST PUSH1 0x20 DUP3 LT DUP2 SUB PUSH2 0xF51 JUMPI PUSH2 0xF50 PUSH2 0xEF7 JUMP JUMPDEST JUMPDEST POP SWAP2 SWAP1 POP JUMP JUMPDEST PUSH1 0x0 DUP2 SWAP1 POP DUP2 PUSH1 0x0 MSTORE PUSH1 0x20 PUSH1 0x0 KECCAK256 SWAP1 POP SWAP2 SWAP1 POP JUMP JUMPDEST PUSH1 0x0 DUP2 SLOAD PUSH2 0xF79 DUP2 PUSH2 0xF26 JUMP JUMPDEST PUSH2 0xF83 DUP2 DUP7 PUSH2 0x92A JUMP JUMPDEST SWAP5 POP PUSH1 0x1 DUP3 AND PUSH1 0x0 DUP2 EQ PUSH2 0xF9E JUMPI PUSH1 0x1 DUP2 EQ PUSH2 0xFB0 JUMPI PUSH2 0xFE3 JUMP JUMPDEST PUSH1 0xFF NOT DUP4 AND DUP7 MSTORE PUSH1 0x20 DUP7 ADD SWAP4 POP PUSH2 0xFE3 JUMP JUMPDEST PUSH2 0xFB9 DUP6 PUSH2 0xF57 JUMP JUMPDEST PUSH1 0x0 JUMPDEST DUP4 DUP2 LT ISZERO PUSH2 0xFDB JUMPI DUP2 SLOAD DUP2 DUP10 ADD MSTORE PUSH1 0x1 DUP3 ADD SWAP2 POP PUSH1 0x20 DUP2 ADD SWAP1 POP PUSH2 0xFBC JUMP JUMPDEST DUP1 DUP9 ADD SWAP6 POP POP POP JUMPDEST POP POP POP SWAP3 SWAP2 POP POP JUMP JUMPDEST PUSH1 0x0 PUSH1 0x20 DUP3 ADD SWAP1 POP DUP2 DUP2 SUB PUSH1 0x0 DUP4 ADD MSTORE PUSH2 0x1006 DUP2 DUP5 PUSH2 0xF6C JUMP JUMPDEST SWAP1 POP SWAP3 SWAP2 POP POP JUMP JUMPDEST PUSH1 0x0 PUSH2 0x1019 DUP3 PUSH2 0xA42 JUMP JUMPDEST SWAP2 POP PUSH2 0x1024 DUP4 PUSH2 0xA42 JUMP JUMPDEST SWAP3 POP DUP3 PUSH32 0xFFFFFFFFFFFFFFFFFFFFFFFFFFFFFFFFFFFFFFFFFFFFFFFFFFFFFFFFFFFFFFFF SUB DUP3 GT ISZERO PUSH2 0x1059 JUMPI PUSH2 0x1058 PUSH2 0xA13 JUMP JUMPDEST JUMPDEST DUP3 DUP3 ADD SWAP1 POP SWAP3 SWAP2 POP POP JUMP JUMPDEST PUSH32 0x4E487B7100000000000000000000000000000000000000000000000000000000 PUSH1 0x0 MSTORE PUSH1 0x12 PUSH1 0x4 MSTORE PUSH1 0x24 PUSH1 0x0 REVERT JUMPDEST PUSH1 0x0 PUSH2 0x109E DUP3 PUSH2 0xA42 JUMP JUMPDEST SWAP2 POP PUSH2 0x10A9 DUP4 PUSH2 0xA42 JUMP JUMPDEST SWAP3 POP DUP3 PUSH2 0x10B9 JUMPI PUSH2 0x10B8 PUSH2 0x1064 JUMP JUMPDEST JUMPDEST DUP3 DUP3 DIV SWAP1 POP SWAP3 SWAP2 POP POP JUMP JUMPDEST PUSH1 0x0 PUSH2 0x10CF DUP3 PUSH2 0xA42 JUMP JUMPDEST SWAP2 POP PUSH2 0x10DA DUP4 PUSH2 0xA42 JUMP JUMPDEST SWAP3 POP DUP2 PUSH32 0xFFFFFFFFFFFFFFFFFFFFFFFFFFFFFFFFFFFFFFFFFFFFFFFFFFFFFFFFFFFFFFFF DIV DUP4 GT DUP3 ISZERO ISZERO AND ISZERO PUSH2 0x1113 JUMPI PUSH2 0x1112 PUSH2 0xA13 JUMP JUMPDEST JUMPDEST DUP3 DUP3 MUL SWAP1 POP SWAP3 SWAP2 POP POP JUMP JUMPDEST PUSH1 0x0 PUSH2 0x1129 DUP3 PUSH2 0xA42 JUMP JUMPDEST SWAP2 POP PUSH2 0x1134 DUP4 PUSH2 0xA42 JUMP JUMPDEST SWAP3 POP DUP3 DUP3 LT ISZERO PUSH2 0x1147 JUMPI PUSH2 0x1146 PUSH2 0xA13 JUMP JUMPDEST JUMPDEST DUP3 DUP3 SUB SWAP1 POP SWAP3 SWAP2 POP POP JUMP JUMPDEST PUSH32 0x4F776E61626C65203A2043616C6C6572206973206E6F7420746865206F776E65 PUSH1 0x0 DUP3 ADD MSTORE PUSH32 0x7200000000000000000000000000000000000000000000000000000000000000 PUSH1 0x20 DUP3 ADD MSTORE POP JUMP JUMPDEST PUSH1 0x0 PUSH2 0x11AE PUSH1 0x21 DUP4 PUSH2 0x92A JUMP JUMPDEST SWAP2 POP PUSH2 0x11B9 DUP3 PUSH2 0x1152 JUMP JUMPDEST PUSH1 0x40 DUP3 ADD SWAP1 POP SWAP2 SWAP1 POP JUMP JUMPDEST PUSH1 0x0 PUSH1 0x20 DUP3 ADD SWAP1 POP DUP2 DUP2 SUB PUSH1 0x0 DUP4 ADD MSTORE PUSH2 0x11DD DUP2 PUSH2 0x11A1 JUMP JUMPDEST SWAP1 POP SWAP2 SWAP1 POP JUMP INVALID LOG2 PUSH5 0x6970667358 0x22 SLT KECCAK256 DUP8 ISZERO 0xB5 PUSH15 0xFB2558D12706D86B3E17727BA8405F 0xC8 0xED 0xD0 0xAA CALLER 0xB0 0xE7 0xB8 0xD9 SHR 0xAA 0xF7 0xD4 PUSH5 0x736F6C6343 STOP ADDMOD 0xD STOP CALLER "
		},
		"gasEstimates": {
			"creation": {
				"codeDepositCost": "926800",
				"executionCost": "infinite",
				"totalCost": "infinite"
			},
			"external": {
				"getRound()": "2481",
				"getSecretKey()": "infinite",
				"getWinnerNumber()": "4673",
				"getbalance()": "384",
				"owner()": "2536",
				"paidAddressList(uint256,address)": "3175",
				"playNumber()": "2430",
				"round()": "2452",
				"setSecretKey(string,uint256)": "infinite"
			},
			"internal": {
				"randomNumber()": "infinite"
			}
		},
		"methodIdentifiers": {
			"getRound()": "9f8743f7",
			"getSecretKey()": "79ed40bc",
			"getWinnerNumber()": "a86d2e19",
			"getbalance()": "4d9b3d5d",
			"owner()": "8da5cb5b",
			"paidAddressList(uint256,address)": "cf66b989",
			"playNumber()": "0df516d8",
			"round()": "146ca531",
			"setSecretKey(string,uint256)": "5ef5cc89"
		}
	},
	"abi": [
		{
			"inputs": [
				{
					"internalType": "string",
					"name": "_key1",
					"type": "string"
				},
				{
					"internalType": "uint256",
					"name": "_key2",
					"type": "uint256"
				}
			],
			"stateMutability": "nonpayable",
			"type": "constructor"
		},
		{
			"anonymous": false,
			"inputs": [
				{
					"indexed": true,
					"internalType": "address",
					"name": "sender",
					"type": "address"
				},
				{
					"indexed": false,
					"internalType": "uint256",
					"name": "payment",
					"type": "uint256"
				}
			],
			"name": "PaidAddress",
			"type": "event"
		},
		{
			"anonymous": false,
			"inputs": [
				{
					"indexed": true,
					"internalType": "address",
					"name": "winner",
					"type": "address"
				}
			],
			"name": "WinnerAddress",
			"type": "event"
		},
		{
			"inputs": [],
			"name": "getRound",
			"outputs": [
				{
					"internalType": "uint256",
					"name": "",
					"type": "uint256"
				}
			],
			"stateMutability": "view",
			"type": "function"
		},
		{
			"inputs": [],
			"name": "getSecretKey",
			"outputs": [
				{
					"internalType": "string",
					"name": "",
					"type": "string"
				},
				{
					"internalType": "uint256",
					"name": "",
					"type": "uint256"
				}
			],
			"stateMutability": "view",
			"type": "function"
		},
		{
			"inputs": [],
			"name": "getWinnerNumber",
			"outputs": [
				{
					"internalType": "uint256",
					"name": "",
					"type": "uint256"
				}
			],
			"stateMutability": "view",
			"type": "function"
		},
		{
			"inputs": [],
			"name": "getbalance",
			"outputs": [
				{
					"internalType": "uint256",
					"name": "",
					"type": "uint256"
				}
			],
			"stateMutability": "view",
			"type": "function"
		},
		{
			"inputs": [],
			"name": "owner",
			"outputs": [
				{
					"internalType": "address",
					"name": "",
					"type": "address"
				}
			],
			"stateMutability": "view",
			"type": "function"
		},
		{
			"inputs": [
				{
					"internalType": "uint256",
					"name": "",
					"type": "uint256"
				},
				{
					"internalType": "address",
					"name": "",
					"type": "address"
				}
			],
			"name": "paidAddressList",
			"outputs": [
				{
					"internalType": "bool",
					"name": "",
					"type": "bool"
				}
			],
			"stateMutability": "view",
			"type": "function"
		},
		{
			"inputs": [],
			"name": "playNumber",
			"outputs": [
				{
					"internalType": "uint256",
					"name": "",
					"type": "uint256"
				}
			],
			"stateMutability": "view",
			"type": "function"
		},
		{
			"inputs": [],
			"name": "round",
			"outputs": [
				{
					"internalType": "uint256",
					"name": "",
					"type": "uint256"
				}
			],
			"stateMutability": "view",
			"type": "function"
		},
		{
			"inputs": [
				{
					"internalType": "string",
					"name": "_key1",
					"type": "string"
				},
				{
					"internalType": "uint256",
					"name": "_key2",
					"type": "uint256"
				}
			],
			"name": "setSecretKey",
			"outputs": [],
			"stateMutability": "nonpayable",
			"type": "function"
		},
		{
			"stateMutability": "payable",
			"type": "receive"
		}
	]
}