{
	"chapter6/ex6_1.sol": {
		"Ex6_1": {
			"abi": [
				{
					"anonymous": false,
					"inputs": [
						{
							"indexed": false,
							"internalType": "uint256",
							"name": "result",
							"type": "uint256"
						},
						{
							"indexed": false,
							"internalType": "string",
							"name": "name",
							"type": "string"
						}
					],
					"name": "MyFunction",
					"type": "event"
				},
				{
					"inputs": [
						{
							"internalType": "uint256",
							"name": "_a",
							"type": "uint256"
						},
						{
							"internalType": "uint256",
							"name": "_b",
							"type": "uint256"
						}
					],
					"name": "add",
					"outputs": [],
					"stateMutability": "nonpayable",
					"type": "function"
				},
				{
					"inputs": [
						{
							"internalType": "uint256",
							"name": "_a",
							"type": "uint256"
						},
						{
							"internalType": "uint256",
							"name": "_b",
							"type": "uint256"
						}
					],
					"name": "mul",
					"outputs": [],
					"stateMutability": "nonpayable",
					"type": "function"
				}
			],
			"devdoc": {
				"kind": "dev",
				"methods": {},
				"version": 1
			},
			"evm": {
				"assembly": "    /* \"chapter6/ex6_1.sol\":66:383  contract Ex6_1 {... */\n  mstore(0x40, 0x80)\n  callvalue\n  dup1\n  iszero\n  tag_1\n  jumpi\n  0x00\n  dup1\n  revert\ntag_1:\n  pop\n  dataSize(sub_0)\n  dup1\n  dataOffset(sub_0)\n  0x00\n  codecopy\n  0x00\n  return\nstop\n\nsub_0: assembly {\n        /* \"chapter6/ex6_1.sol\":66:383  contract Ex6_1 {... */\n      mstore(0x40, 0x80)\n      callvalue\n      dup1\n      iszero\n      tag_1\n      jumpi\n      0x00\n      dup1\n      revert\n    tag_1:\n      pop\n      jumpi(tag_2, lt(calldatasize, 0x04))\n      shr(0xe0, calldataload(0x00))\n      dup1\n      0x771602f7\n      eq\n      tag_3\n      jumpi\n      dup1\n      0xc8a4ac9c\n      eq\n      tag_4\n      jumpi\n    tag_2:\n      0x00\n      dup1\n      revert\n        /* \"chapter6/ex6_1.sol\":136:250  function add(uint _a, uint _b) public {... */\n    tag_3:\n      tag_5\n      0x04\n      dup1\n      calldatasize\n      sub\n      dup2\n      add\n      swap1\n      tag_6\n      swap2\n      swap1\n      tag_7\n      jump\t// in\n    tag_6:\n      tag_8\n      jump\t// in\n    tag_5:\n      stop\n        /* \"chapter6/ex6_1.sol\":256:370  function mul(uint _a, uint _b) public {... */\n    tag_4:\n      tag_9\n      0x04\n      dup1\n      calldatasize\n      sub\n      dup2\n      add\n      swap1\n      tag_10\n      swap2\n      swap1\n      tag_7\n      jump\t// in\n    tag_10:\n      tag_11\n      jump\t// in\n    tag_9:\n      stop\n        /* \"chapter6/ex6_1.sol\":136:250  function add(uint _a, uint _b) public {... */\n    tag_8:\n        /* \"chapter6/ex6_1.sol\":184:194  uint total */\n      0x00\n        /* \"chapter6/ex6_1.sol\":202:204  _b */\n      dup2\n        /* \"chapter6/ex6_1.sol\":197:199  _a */\n      dup4\n        /* \"chapter6/ex6_1.sol\":197:204  _a + _b */\n      tag_13\n      swap2\n      swap1\n      tag_14\n      jump\t// in\n    tag_13:\n        /* \"chapter6/ex6_1.sol\":184:204  uint total = _a + _b */\n      swap1\n      pop\n        /* \"chapter6/ex6_1.sol\":219:243  MyFunction(total, \"add\") */\n      0xc782686e55700c1a67821f5be6d214bb892d74f7667202c2c1c4ac7f45d9a058\n        /* \"chapter6/ex6_1.sol\":230:235  total */\n      dup2\n        /* \"chapter6/ex6_1.sol\":219:243  MyFunction(total, \"add\") */\n      mload(0x40)\n      tag_15\n      swap2\n      swap1\n      tag_16\n      jump\t// in\n    tag_15:\n      mload(0x40)\n      dup1\n      swap2\n      sub\n      swap1\n      log1\n        /* \"chapter6/ex6_1.sol\":174:250  {... */\n      pop\n        /* \"chapter6/ex6_1.sol\":136:250  function add(uint _a, uint _b) public {... */\n      pop\n      pop\n      jump\t// out\n        /* \"chapter6/ex6_1.sol\":256:370  function mul(uint _a, uint _b) public {... */\n    tag_11:\n        /* \"chapter6/ex6_1.sol\":304:314  uint total */\n      0x00\n        /* \"chapter6/ex6_1.sol\":322:324  _b */\n      dup2\n        /* \"chapter6/ex6_1.sol\":317:319  _a */\n      dup4\n        /* \"chapter6/ex6_1.sol\":317:324  _a * _b */\n      tag_18\n      swap2\n      swap1\n      tag_19\n      jump\t// in\n    tag_18:\n        /* \"chapter6/ex6_1.sol\":304:324  uint total = _a * _b */\n      swap1\n      pop\n        /* \"chapter6/ex6_1.sol\":339:363  MyFunction(total, \"mul\") */\n      0xc782686e55700c1a67821f5be6d214bb892d74f7667202c2c1c4ac7f45d9a058\n        /* \"chapter6/ex6_1.sol\":350:355  total */\n      dup2\n        /* \"chapter6/ex6_1.sol\":339:363  MyFunction(total, \"mul\") */\n      mload(0x40)\n      tag_20\n      swap2\n      swap1\n      tag_21\n      jump\t// in\n    tag_20:\n      mload(0x40)\n      dup1\n      swap2\n      sub\n      swap1\n      log1\n        /* \"chapter6/ex6_1.sol\":294:370  {... */\n      pop\n        /* \"chapter6/ex6_1.sol\":256:370  function mul(uint _a, uint _b) public {... */\n      pop\n      pop\n      jump\t// out\n        /* \"#utility.yul\":88:205   */\n    tag_23:\n        /* \"#utility.yul\":197:198   */\n      0x00\n        /* \"#utility.yul\":194:195   */\n      dup1\n        /* \"#utility.yul\":187:199   */\n      revert\n        /* \"#utility.yul\":334:411   */\n    tag_25:\n        /* \"#utility.yul\":371:378   */\n      0x00\n        /* \"#utility.yul\":400:405   */\n      dup2\n        /* \"#utility.yul\":389:405   */\n      swap1\n      pop\n        /* \"#utility.yul\":334:411   */\n      swap2\n      swap1\n      pop\n      jump\t// out\n        /* \"#utility.yul\":417:539   */\n    tag_26:\n        /* \"#utility.yul\":490:514   */\n      tag_41\n        /* \"#utility.yul\":508:513   */\n      dup2\n        /* \"#utility.yul\":490:514   */\n      tag_25\n      jump\t// in\n    tag_41:\n        /* \"#utility.yul\":483:488   */\n      dup2\n        /* \"#utility.yul\":480:515   */\n      eq\n        /* \"#utility.yul\":470:533   */\n      tag_42\n      jumpi\n        /* \"#utility.yul\":529:530   */\n      0x00\n        /* \"#utility.yul\":526:527   */\n      dup1\n        /* \"#utility.yul\":519:531   */\n      revert\n        /* \"#utility.yul\":470:533   */\n    tag_42:\n        /* \"#utility.yul\":417:539   */\n      pop\n      jump\t// out\n        /* \"#utility.yul\":545:684   */\n    tag_27:\n        /* \"#utility.yul\":591:596   */\n      0x00\n        /* \"#utility.yul\":629:635   */\n      dup2\n        /* \"#utility.yul\":616:636   */\n      calldataload\n        /* \"#utility.yul\":607:636   */\n      swap1\n      pop\n        /* \"#utility.yul\":645:678   */\n      tag_44\n        /* \"#utility.yul\":672:677   */\n      dup2\n        /* \"#utility.yul\":645:678   */\n      tag_26\n      jump\t// in\n    tag_44:\n        /* \"#utility.yul\":545:684   */\n      swap3\n      swap2\n      pop\n      pop\n      jump\t// out\n        /* \"#utility.yul\":690:1164   */\n    tag_7:\n        /* \"#utility.yul\":758:764   */\n      0x00\n        /* \"#utility.yul\":766:772   */\n      dup1\n        /* \"#utility.yul\":815:817   */\n      0x40\n        /* \"#utility.yul\":803:812   */\n      dup4\n        /* \"#utility.yul\":794:801   */\n      dup6\n        /* \"#utility.yul\":790:813   */\n      sub\n        /* \"#utility.yul\":786:818   */\n      slt\n        /* \"#utility.yul\":783:902   */\n      iszero\n      tag_46\n      jumpi\n        /* \"#utility.yul\":821:900   */\n      tag_47\n      tag_23\n      jump\t// in\n    tag_47:\n        /* \"#utility.yul\":783:902   */\n    tag_46:\n        /* \"#utility.yul\":941:942   */\n      0x00\n        /* \"#utility.yul\":966:1019   */\n      tag_48\n        /* \"#utility.yul\":1011:1018   */\n      dup6\n        /* \"#utility.yul\":1002:1008   */\n      dup3\n        /* \"#utility.yul\":991:1000   */\n      dup7\n        /* \"#utility.yul\":987:1009   */\n      add\n        /* \"#utility.yul\":966:1019   */\n      tag_27\n      jump\t// in\n    tag_48:\n        /* \"#utility.yul\":956:1019   */\n      swap3\n      pop\n        /* \"#utility.yul\":912:1029   */\n      pop\n        /* \"#utility.yul\":1068:1070   */\n      0x20\n        /* \"#utility.yul\":1094:1147   */\n      tag_49\n        /* \"#utility.yul\":1139:1146   */\n      dup6\n        /* \"#utility.yul\":1130:1136   */\n      dup3\n        /* \"#utility.yul\":1119:1128   */\n      dup7\n        /* \"#utility.yul\":1115:1137   */\n      add\n        /* \"#utility.yul\":1094:1147   */\n      tag_27\n      jump\t// in\n    tag_49:\n        /* \"#utility.yul\":1084:1147   */\n      swap2\n      pop\n        /* \"#utility.yul\":1039:1157   */\n      pop\n        /* \"#utility.yul\":690:1164   */\n      swap3\n      pop\n      swap3\n      swap1\n      pop\n      jump\t// out\n        /* \"#utility.yul\":1170:1350   */\n    tag_28:\n        /* \"#utility.yul\":1218:1295   */\n      0x4e487b7100000000000000000000000000000000000000000000000000000000\n        /* \"#utility.yul\":1215:1216   */\n      0x00\n        /* \"#utility.yul\":1208:1296   */\n      mstore\n        /* \"#utility.yul\":1315:1319   */\n      0x11\n        /* \"#utility.yul\":1312:1313   */\n      0x04\n        /* \"#utility.yul\":1305:1320   */\n      mstore\n        /* \"#utility.yul\":1339:1343   */\n      0x24\n        /* \"#utility.yul\":1336:1337   */\n      0x00\n        /* \"#utility.yul\":1329:1344   */\n      revert\n        /* \"#utility.yul\":1356:1547   */\n    tag_14:\n        /* \"#utility.yul\":1396:1399   */\n      0x00\n        /* \"#utility.yul\":1415:1435   */\n      tag_52\n        /* \"#utility.yul\":1433:1434   */\n      dup3\n        /* \"#utility.yul\":1415:1435   */\n      tag_25\n      jump\t// in\n    tag_52:\n        /* \"#utility.yul\":1410:1435   */\n      swap2\n      pop\n        /* \"#utility.yul\":1449:1469   */\n      tag_53\n        /* \"#utility.yul\":1467:1468   */\n      dup4\n        /* \"#utility.yul\":1449:1469   */\n      tag_25\n      jump\t// in\n    tag_53:\n        /* \"#utility.yul\":1444:1469   */\n      swap3\n      pop\n        /* \"#utility.yul\":1492:1493   */\n      dup3\n        /* \"#utility.yul\":1489:1490   */\n      dup3\n        /* \"#utility.yul\":1485:1494   */\n      add\n        /* \"#utility.yul\":1478:1494   */\n      swap1\n      pop\n        /* \"#utility.yul\":1513:1516   */\n      dup1\n        /* \"#utility.yul\":1510:1511   */\n      dup3\n        /* \"#utility.yul\":1507:1517   */\n      gt\n        /* \"#utility.yul\":1504:1540   */\n      iszero\n      tag_54\n      jumpi\n        /* \"#utility.yul\":1520:1538   */\n      tag_55\n      tag_28\n      jump\t// in\n    tag_55:\n        /* \"#utility.yul\":1504:1540   */\n    tag_54:\n        /* \"#utility.yul\":1356:1547   */\n      swap3\n      swap2\n      pop\n      pop\n      jump\t// out\n        /* \"#utility.yul\":1553:1671   */\n    tag_29:\n        /* \"#utility.yul\":1640:1664   */\n      tag_57\n        /* \"#utility.yul\":1658:1663   */\n      dup2\n        /* \"#utility.yul\":1640:1664   */\n      tag_25\n      jump\t// in\n    tag_57:\n        /* \"#utility.yul\":1635:1638   */\n      dup3\n        /* \"#utility.yul\":1628:1665   */\n      mstore\n        /* \"#utility.yul\":1553:1671   */\n      pop\n      pop\n      jump\t// out\n        /* \"#utility.yul\":1677:1846   */\n    tag_30:\n        /* \"#utility.yul\":1761:1772   */\n      0x00\n        /* \"#utility.yul\":1795:1801   */\n      dup3\n        /* \"#utility.yul\":1790:1793   */\n      dup3\n        /* \"#utility.yul\":1783:1802   */\n      mstore\n        /* \"#utility.yul\":1835:1839   */\n      0x20\n        /* \"#utility.yul\":1830:1833   */\n      dup3\n        /* \"#utility.yul\":1826:1840   */\n      add\n        /* \"#utility.yul\":1811:1840   */\n      swap1\n      pop\n        /* \"#utility.yul\":1677:1846   */\n      swap3\n      swap2\n      pop\n      pop\n      jump\t// out\n        /* \"#utility.yul\":1852:2005   */\n    tag_31:\n        /* \"#utility.yul\":1992:1997   */\n      0x6164640000000000000000000000000000000000000000000000000000000000\n        /* \"#utility.yul\":1988:1989   */\n      0x00\n        /* \"#utility.yul\":1980:1986   */\n      dup3\n        /* \"#utility.yul\":1976:1990   */\n      add\n        /* \"#utility.yul\":1969:1998   */\n      mstore\n        /* \"#utility.yul\":1852:2005   */\n      pop\n      jump\t// out\n        /* \"#utility.yul\":2011:2376   */\n    tag_32:\n        /* \"#utility.yul\":2153:2156   */\n      0x00\n        /* \"#utility.yul\":2174:2240   */\n      tag_61\n        /* \"#utility.yul\":2238:2239   */\n      0x03\n        /* \"#utility.yul\":2233:2236   */\n      dup4\n        /* \"#utility.yul\":2174:2240   */\n      tag_30\n      jump\t// in\n    tag_61:\n        /* \"#utility.yul\":2167:2240   */\n      swap2\n      pop\n        /* \"#utility.yul\":2249:2342   */\n      tag_62\n        /* \"#utility.yul\":2338:2341   */\n      dup3\n        /* \"#utility.yul\":2249:2342   */\n      tag_31\n      jump\t// in\n    tag_62:\n        /* \"#utility.yul\":2367:2369   */\n      0x20\n        /* \"#utility.yul\":2362:2365   */\n      dup3\n        /* \"#utility.yul\":2358:2370   */\n      add\n        /* \"#utility.yul\":2351:2370   */\n      swap1\n      pop\n        /* \"#utility.yul\":2011:2376   */\n      swap2\n      swap1\n      pop\n      jump\t// out\n        /* \"#utility.yul\":2382:2911   */\n    tag_16:\n        /* \"#utility.yul\":2576:2580   */\n      0x00\n        /* \"#utility.yul\":2614:2616   */\n      0x40\n        /* \"#utility.yul\":2603:2612   */\n      dup3\n        /* \"#utility.yul\":2599:2617   */\n      add\n        /* \"#utility.yul\":2591:2617   */\n      swap1\n      pop\n        /* \"#utility.yul\":2627:2698   */\n      tag_64\n        /* \"#utility.yul\":2695:2696   */\n      0x00\n        /* \"#utility.yul\":2684:2693   */\n      dup4\n        /* \"#utility.yul\":2680:2697   */\n      add\n        /* \"#utility.yul\":2671:2677   */\n      dup5\n        /* \"#utility.yul\":2627:2698   */\n      tag_29\n      jump\t// in\n    tag_64:\n        /* \"#utility.yul\":2745:2754   */\n      dup2\n        /* \"#utility.yul\":2739:2743   */\n      dup2\n        /* \"#utility.yul\":2735:2755   */\n      sub\n        /* \"#utility.yul\":2730:2732   */\n      0x20\n        /* \"#utility.yul\":2719:2728   */\n      dup4\n        /* \"#utility.yul\":2715:2733   */\n      add\n        /* \"#utility.yul\":2708:2756   */\n      mstore\n        /* \"#utility.yul\":2773:2904   */\n      tag_65\n        /* \"#utility.yul\":2899:2903   */\n      dup2\n        /* \"#utility.yul\":2773:2904   */\n      tag_32\n      jump\t// in\n    tag_65:\n        /* \"#utility.yul\":2765:2904   */\n      swap1\n      pop\n        /* \"#utility.yul\":2382:2911   */\n      swap3\n      swap2\n      pop\n      pop\n      jump\t// out\n        /* \"#utility.yul\":2917:3327   */\n    tag_19:\n        /* \"#utility.yul\":2957:2964   */\n      0x00\n        /* \"#utility.yul\":2980:3000   */\n      tag_67\n        /* \"#utility.yul\":2998:2999   */\n      dup3\n        /* \"#utility.yul\":2980:3000   */\n      tag_25\n      jump\t// in\n    tag_67:\n        /* \"#utility.yul\":2975:3000   */\n      swap2\n      pop\n        /* \"#utility.yul\":3014:3034   */\n      tag_68\n        /* \"#utility.yul\":3032:3033   */\n      dup4\n        /* \"#utility.yul\":3014:3034   */\n      tag_25\n      jump\t// in\n    tag_68:\n        /* \"#utility.yul\":3009:3034   */\n      swap3\n      pop\n        /* \"#utility.yul\":3069:3070   */\n      dup3\n        /* \"#utility.yul\":3066:3067   */\n      dup3\n        /* \"#utility.yul\":3062:3071   */\n      mul\n        /* \"#utility.yul\":3091:3121   */\n      tag_69\n        /* \"#utility.yul\":3109:3120   */\n      dup2\n        /* \"#utility.yul\":3091:3121   */\n      tag_25\n      jump\t// in\n    tag_69:\n        /* \"#utility.yul\":3080:3121   */\n      swap2\n      pop\n        /* \"#utility.yul\":3270:3271   */\n      dup3\n        /* \"#utility.yul\":3261:3268   */\n      dup3\n        /* \"#utility.yul\":3257:3272   */\n      div\n        /* \"#utility.yul\":3254:3255   */\n      dup5\n        /* \"#utility.yul\":3251:3273   */\n      eq\n        /* \"#utility.yul\":3231:3232   */\n      dup4\n        /* \"#utility.yul\":3224:3233   */\n      iszero\n        /* \"#utility.yul\":3204:3287   */\n      or\n        /* \"#utility.yul\":3181:3320   */\n      tag_70\n      jumpi\n        /* \"#utility.yul\":3300:3318   */\n      tag_71\n      tag_28\n      jump\t// in\n    tag_71:\n        /* \"#utility.yul\":3181:3320   */\n    tag_70:\n        /* \"#utility.yul\":2965:3327   */\n      pop\n        /* \"#utility.yul\":2917:3327   */\n      swap3\n      swap2\n      pop\n      pop\n      jump\t// out\n        /* \"#utility.yul\":3333:3486   */\n    tag_33:\n        /* \"#utility.yul\":3473:3478   */\n      0x6d756c0000000000000000000000000000000000000000000000000000000000\n        /* \"#utility.yul\":3469:3470   */\n      0x00\n        /* \"#utility.yul\":3461:3467   */\n      dup3\n        /* \"#utility.yul\":3457:3471   */\n      add\n        /* \"#utility.yul\":3450:3479   */\n      mstore\n        /* \"#utility.yul\":3333:3486   */\n      pop\n      jump\t// out\n        /* \"#utility.yul\":3492:3857   */\n    tag_34:\n        /* \"#utility.yul\":3634:3637   */\n      0x00\n        /* \"#utility.yul\":3655:3721   */\n      tag_74\n        /* \"#utility.yul\":3719:3720   */\n      0x03\n        /* \"#utility.yul\":3714:3717   */\n      dup4\n        /* \"#utility.yul\":3655:3721   */\n      tag_30\n      jump\t// in\n    tag_74:\n        /* \"#utility.yul\":3648:3721   */\n      swap2\n      pop\n        /* \"#utility.yul\":3730:3823   */\n      tag_75\n        /* \"#utility.yul\":3819:3822   */\n      dup3\n        /* \"#utility.yul\":3730:3823   */\n      tag_33\n      jump\t// in\n    tag_75:\n        /* \"#utility.yul\":3848:3850   */\n      0x20\n        /* \"#utility.yul\":3843:3846   */\n      dup3\n        /* \"#utility.yul\":3839:3851   */\n      add\n        /* \"#utility.yul\":3832:3851   */\n      swap1\n      pop\n        /* \"#utility.yul\":3492:3857   */\n      swap2\n      swap1\n      pop\n      jump\t// out\n        /* \"#utility.yul\":3863:4392   */\n    tag_21:\n        /* \"#utility.yul\":4057:4061   */\n      0x00\n        /* \"#utility.yul\":4095:4097   */\n      0x40\n        /* \"#utility.yul\":4084:4093   */\n      dup3\n        /* \"#utility.yul\":4080:4098   */\n      add\n        /* \"#utility.yul\":4072:4098   */\n      swap1\n      pop\n        /* \"#utility.yul\":4108:4179   */\n      tag_77\n        /* \"#utility.yul\":4176:4177   */\n      0x00\n        /* \"#utility.yul\":4165:4174   */\n      dup4\n        /* \"#utility.yul\":4161:4178   */\n      add\n        /* \"#utility.yul\":4152:4158   */\n      dup5\n        /* \"#utility.yul\":4108:4179   */\n      tag_29\n      jump\t// in\n    tag_77:\n        /* \"#utility.yul\":4226:4235   */\n      dup2\n        /* \"#utility.yul\":4220:4224   */\n      dup2\n        /* \"#utility.yul\":4216:4236   */\n      sub\n        /* \"#utility.yul\":4211:4213   */\n      0x20\n        /* \"#utility.yul\":4200:4209   */\n      dup4\n        /* \"#utility.yul\":4196:4214   */\n      add\n        /* \"#utility.yul\":4189:4237   */\n      mstore\n        /* \"#utility.yul\":4254:4385   */\n      tag_78\n        /* \"#utility.yul\":4380:4384   */\n      dup2\n        /* \"#utility.yul\":4254:4385   */\n      tag_34\n      jump\t// in\n    tag_78:\n        /* \"#utility.yul\":4246:4385   */\n      swap1\n      pop\n        /* \"#utility.yul\":3863:4392   */\n      swap3\n      swap2\n      pop\n      pop\n      jump\t// out\n\n    auxdata: 0xa2646970667358221220cb454aadce58738816f510eca1a229e1e49fca2d683e7a2e4ae8acde33d49c7f64736f6c63430008120033\n}\n",
				"bytecode": {
					"linkReferences": {},
					"object": "608060405234801561001057600080fd5b50610375806100206000396000f3fe608060405234801561001057600080fd5b50600436106100365760003560e01c8063771602f71461003b578063c8a4ac9c14610057575b600080fd5b61005560048036038101906100509190610146565b610073565b005b610071600480360381019061006c9190610146565b6100bf565b005b6000818361008191906101b5565b90507fc782686e55700c1a67821f5be6d214bb892d74f7667202c2c1c4ac7f45d9a058816040516100b29190610255565b60405180910390a1505050565b600081836100cd9190610283565b90507fc782686e55700c1a67821f5be6d214bb892d74f7667202c2c1c4ac7f45d9a058816040516100fe9190610311565b60405180910390a1505050565b600080fd5b6000819050919050565b61012381610110565b811461012e57600080fd5b50565b6000813590506101408161011a565b92915050565b6000806040838503121561015d5761015c61010b565b5b600061016b85828601610131565b925050602061017c85828601610131565b9150509250929050565b7f4e487b7100000000000000000000000000000000000000000000000000000000600052601160045260246000fd5b60006101c082610110565b91506101cb83610110565b92508282019050808211156101e3576101e2610186565b5b92915050565b6101f281610110565b82525050565b600082825260208201905092915050565b7f6164640000000000000000000000000000000000000000000000000000000000600082015250565b600061023f6003836101f8565b915061024a82610209565b602082019050919050565b600060408201905061026a60008301846101e9565b818103602083015261027b81610232565b905092915050565b600061028e82610110565b915061029983610110565b92508282026102a781610110565b915082820484148315176102be576102bd610186565b5b5092915050565b7f6d756c0000000000000000000000000000000000000000000000000000000000600082015250565b60006102fb6003836101f8565b9150610306826102c5565b602082019050919050565b600060408201905061032660008301846101e9565b8181036020830152610337816102ee565b90509291505056fea2646970667358221220cb454aadce58738816f510eca1a229e1e49fca2d683e7a2e4ae8acde33d49c7f64736f6c63430008120033",
					"opcodes": "PUSH1 0x80 PUSH1 0x40 MSTORE CALLVALUE DUP1 ISZERO PUSH2 0x10 JUMPI PUSH1 0x0 DUP1 REVERT JUMPDEST POP PUSH2 0x375 DUP1 PUSH2 0x20 PUSH1 0x0 CODECOPY PUSH1 0x0 RETURN INVALID PUSH1 0x80 PUSH1 0x40 MSTORE CALLVALUE DUP1 ISZERO PUSH2 0x10 JUMPI PUSH1 0x0 DUP1 REVERT JUMPDEST POP PUSH1 0x4 CALLDATASIZE LT PUSH2 0x36 JUMPI PUSH1 0x0 CALLDATALOAD PUSH1 0xE0 SHR DUP1 PUSH4 0x771602F7 EQ PUSH2 0x3B JUMPI DUP1 PUSH4 0xC8A4AC9C EQ PUSH2 0x57 JUMPI JUMPDEST PUSH1 0x0 DUP1 REVERT JUMPDEST PUSH2 0x55 PUSH1 0x4 DUP1 CALLDATASIZE SUB DUP2 ADD SWAP1 PUSH2 0x50 SWAP2 SWAP1 PUSH2 0x146 JUMP JUMPDEST PUSH2 0x73 JUMP JUMPDEST STOP JUMPDEST PUSH2 0x71 PUSH1 0x4 DUP1 CALLDATASIZE SUB DUP2 ADD SWAP1 PUSH2 0x6C SWAP2 SWAP1 PUSH2 0x146 JUMP JUMPDEST PUSH2 0xBF JUMP JUMPDEST STOP JUMPDEST PUSH1 0x0 DUP2 DUP4 PUSH2 0x81 SWAP2 SWAP1 PUSH2 0x1B5 JUMP JUMPDEST SWAP1 POP PUSH32 0xC782686E55700C1A67821F5BE6D214BB892D74F7667202C2C1C4AC7F45D9A058 DUP2 PUSH1 0x40 MLOAD PUSH2 0xB2 SWAP2 SWAP1 PUSH2 0x255 JUMP JUMPDEST PUSH1 0x40 MLOAD DUP1 SWAP2 SUB SWAP1 LOG1 POP POP POP JUMP JUMPDEST PUSH1 0x0 DUP2 DUP4 PUSH2 0xCD SWAP2 SWAP1 PUSH2 0x283 JUMP JUMPDEST SWAP1 POP PUSH32 0xC782686E55700C1A67821F5BE6D214BB892D74F7667202C2C1C4AC7F45D9A058 DUP2 PUSH1 0x40 MLOAD PUSH2 0xFE SWAP2 SWAP1 PUSH2 0x311 JUMP JUMPDEST PUSH1 0x40 MLOAD DUP1 SWAP2 SUB SWAP1 LOG1 POP POP POP JUMP JUMPDEST PUSH1 0x0 DUP1 REVERT JUMPDEST PUSH1 0x0 DUP2 SWAP1 POP SWAP2 SWAP1 POP JUMP JUMPDEST PUSH2 0x123 DUP2 PUSH2 0x110 JUMP JUMPDEST DUP2 EQ PUSH2 0x12E JUMPI PUSH1 0x0 DUP1 REVERT JUMPDEST POP JUMP JUMPDEST PUSH1 0x0 DUP2 CALLDATALOAD SWAP1 POP PUSH2 0x140 DUP2 PUSH2 0x11A JUMP JUMPDEST SWAP3 SWAP2 POP POP JUMP JUMPDEST PUSH1 0x0 DUP1 PUSH1 0x40 DUP4 DUP6 SUB SLT ISZERO PUSH2 0x15D JUMPI PUSH2 0x15C PUSH2 0x10B JUMP JUMPDEST JUMPDEST PUSH1 0x0 PUSH2 0x16B DUP6 DUP3 DUP7 ADD PUSH2 0x131 JUMP JUMPDEST SWAP3 POP POP PUSH1 0x20 PUSH2 0x17C DUP6 DUP3 DUP7 ADD PUSH2 0x131 JUMP JUMPDEST SWAP2 POP POP SWAP3 POP SWAP3 SWAP1 POP JUMP JUMPDEST PUSH32 0x4E487B7100000000000000000000000000000000000000000000000000000000 PUSH1 0x0 MSTORE PUSH1 0x11 PUSH1 0x4 MSTORE PUSH1 0x24 PUSH1 0x0 REVERT JUMPDEST PUSH1 0x0 PUSH2 0x1C0 DUP3 PUSH2 0x110 JUMP JUMPDEST SWAP2 POP PUSH2 0x1CB DUP4 PUSH2 0x110 JUMP JUMPDEST SWAP3 POP DUP3 DUP3 ADD SWAP1 POP DUP1 DUP3 GT ISZERO PUSH2 0x1E3 JUMPI PUSH2 0x1E2 PUSH2 0x186 JUMP JUMPDEST JUMPDEST SWAP3 SWAP2 POP POP JUMP JUMPDEST PUSH2 0x1F2 DUP2 PUSH2 0x110 JUMP JUMPDEST DUP3 MSTORE POP POP JUMP JUMPDEST PUSH1 0x0 DUP3 DUP3 MSTORE PUSH1 0x20 DUP3 ADD SWAP1 POP SWAP3 SWAP2 POP POP JUMP JUMPDEST PUSH32 0x6164640000000000000000000000000000000000000000000000000000000000 PUSH1 0x0 DUP3 ADD MSTORE POP JUMP JUMPDEST PUSH1 0x0 PUSH2 0x23F PUSH1 0x3 DUP4 PUSH2 0x1F8 JUMP JUMPDEST SWAP2 POP PUSH2 0x24A DUP3 PUSH2 0x209 JUMP JUMPDEST PUSH1 0x20 DUP3 ADD SWAP1 POP SWAP2 SWAP1 POP JUMP JUMPDEST PUSH1 0x0 PUSH1 0x40 DUP3 ADD SWAP1 POP PUSH2 0x26A PUSH1 0x0 DUP4 ADD DUP5 PUSH2 0x1E9 JUMP JUMPDEST DUP2 DUP2 SUB PUSH1 0x20 DUP4 ADD MSTORE PUSH2 0x27B DUP2 PUSH2 0x232 JUMP JUMPDEST SWAP1 POP SWAP3 SWAP2 POP POP JUMP JUMPDEST PUSH1 0x0 PUSH2 0x28E DUP3 PUSH2 0x110 JUMP JUMPDEST SWAP2 POP PUSH2 0x299 DUP4 PUSH2 0x110 JUMP JUMPDEST SWAP3 POP DUP3 DUP3 MUL PUSH2 0x2A7 DUP2 PUSH2 0x110 JUMP JUMPDEST SWAP2 POP DUP3 DUP3 DIV DUP5 EQ DUP4 ISZERO OR PUSH2 0x2BE JUMPI PUSH2 0x2BD PUSH2 0x186 JUMP JUMPDEST JUMPDEST POP SWAP3 SWAP2 POP POP JUMP JUMPDEST PUSH32 0x6D756C0000000000000000000000000000000000000000000000000000000000 PUSH1 0x0 DUP3 ADD MSTORE POP JUMP JUMPDEST PUSH1 0x0 PUSH2 0x2FB PUSH1 0x3 DUP4 PUSH2 0x1F8 JUMP JUMPDEST SWAP2 POP PUSH2 0x306 DUP3 PUSH2 0x2C5 JUMP JUMPDEST PUSH1 0x20 DUP3 ADD SWAP1 POP SWAP2 SWAP1 POP JUMP JUMPDEST PUSH1 0x0 PUSH1 0x40 DUP3 ADD SWAP1 POP PUSH2 0x326 PUSH1 0x0 DUP4 ADD DUP5 PUSH2 0x1E9 JUMP JUMPDEST DUP2 DUP2 SUB PUSH1 0x20 DUP4 ADD MSTORE PUSH2 0x337 DUP2 PUSH2 0x2EE JUMP JUMPDEST SWAP1 POP SWAP3 SWAP2 POP POP JUMP INVALID LOG2 PUSH5 0x6970667358 0x22 SLT KECCAK256 0xCB GASLIMIT 0x4A 0xAD 0xCE PC PUSH20 0x8816F510ECA1A229E1E49FCA2D683E7A2E4AE8AC 0xDE CALLER 0xD4 SWAP13 PUSH32 0x64736F6C63430008120033000000000000000000000000000000000000000000 "
				},
				"gasEstimates": {
					"creation": {
						"codeDepositCost": "177000",
						"executionCost": "220",
						"totalCost": "177220"
					},
					"external": {
						"add(uint256,uint256)": "infinite",
						"mul(uint256,uint256)": "infinite"
					}
				},
				"methodIdentifiers": {
					"add(uint256,uint256)": "771602f7",
					"mul(uint256,uint256)": "c8a4ac9c"
				}
			},
			"storageLayout": {
				"storage": [],
				"types": null
			},
			"userdoc": {
				"kind": "user",
				"methods": {},
				"version": 1
			}
		}
	}
}