{
	"chapter7/practice1.sol": {
		"ex1": {
			"abi": [
				{
					"inputs": [
						{
							"internalType": "uint256",
							"name": "_num",
							"type": "uint256"
						}
					],
					"name": "quiz1",
					"outputs": [
						{
							"internalType": "uint256",
							"name": "",
							"type": "uint256"
						}
					],
					"stateMutability": "pure",
					"type": "function"
				}
			],
			"devdoc": {
				"kind": "dev",
				"methods": {},
				"version": 1
			},
			"evm": {
				"assembly": "    /* \"chapter7/practice1.sol\":66:250  contract ex1 {... */\n  mstore(0x40, 0x80)\n  callvalue\n  dup1\n  iszero\n  tag_1\n  jumpi\n  0x00\n  dup1\n  revert\ntag_1:\n  pop\n  dataSize(sub_0)\n  dup1\n  dataOffset(sub_0)\n  0x00\n  codecopy\n  0x00\n  return\nstop\n\nsub_0: assembly {\n        /* \"chapter7/practice1.sol\":66:250  contract ex1 {... */\n      mstore(0x40, 0x80)\n      callvalue\n      dup1\n      iszero\n      tag_1\n      jumpi\n      0x00\n      dup1\n      revert\n    tag_1:\n      pop\n      jumpi(tag_2, lt(calldatasize, 0x04))\n      shr(0xe0, calldataload(0x00))\n      dup1\n      0x634817f3\n      eq\n      tag_3\n      jumpi\n    tag_2:\n      0x00\n      dup1\n      revert\n        /* \"chapter7/practice1.sol\":85:247  function quiz1(uint _num) public pure returns(uint)  {... */\n    tag_3:\n      tag_4\n      0x04\n      dup1\n      calldatasize\n      sub\n      dup2\n      add\n      swap1\n      tag_5\n      swap2\n      swap1\n      tag_6\n      jump\t// in\n    tag_5:\n      tag_7\n      jump\t// in\n    tag_4:\n      mload(0x40)\n      tag_8\n      swap2\n      swap1\n      tag_9\n      jump\t// in\n    tag_8:\n      mload(0x40)\n      dup1\n      swap2\n      sub\n      swap1\n      return\n    tag_7:\n        /* \"chapter7/practice1.sol\":131:135  uint */\n      0x00\n        /* \"chapter7/practice1.sol\":159:160  6 */\n      0x06\n        /* \"chapter7/practice1.sol\":151:155  _num */\n      dup3\n        /* \"chapter7/practice1.sol\":151:160  _num >= 6 */\n      lt\n        /* \"chapter7/practice1.sol\":148:219  if(_num >= 6) {... */\n      tag_11\n      jumpi\n        /* \"chapter7/practice1.sol\":176:208  revert(\"_num is greater than 6\") */\n      mload(0x40)\n      0x08c379a000000000000000000000000000000000000000000000000000000000\n      dup2\n      mstore\n      0x04\n      add\n      tag_12\n      swap1\n      tag_13\n      jump\t// in\n    tag_12:\n      mload(0x40)\n      dup1\n      swap2\n      sub\n      swap1\n      revert\n        /* \"chapter7/practice1.sol\":148:219  if(_num >= 6) {... */\n    tag_11:\n        /* \"chapter7/practice1.sol\":236:240  _num */\n      dup2\n        /* \"chapter7/practice1.sol\":229:240  return _num */\n      swap1\n      pop\n        /* \"chapter7/practice1.sol\":85:247  function quiz1(uint _num) public pure returns(uint)  {... */\n      swap2\n      swap1\n      pop\n      jump\t// out\n        /* \"#utility.yul\":88:205   */\n    tag_15:\n        /* \"#utility.yul\":197:198   */\n      0x00\n        /* \"#utility.yul\":194:195   */\n      dup1\n        /* \"#utility.yul\":187:199   */\n      revert\n        /* \"#utility.yul\":334:411   */\n    tag_17:\n        /* \"#utility.yul\":371:378   */\n      0x00\n        /* \"#utility.yul\":400:405   */\n      dup2\n        /* \"#utility.yul\":389:405   */\n      swap1\n      pop\n        /* \"#utility.yul\":334:411   */\n      swap2\n      swap1\n      pop\n      jump\t// out\n        /* \"#utility.yul\":417:539   */\n    tag_18:\n        /* \"#utility.yul\":490:514   */\n      tag_30\n        /* \"#utility.yul\":508:513   */\n      dup2\n        /* \"#utility.yul\":490:514   */\n      tag_17\n      jump\t// in\n    tag_30:\n        /* \"#utility.yul\":483:488   */\n      dup2\n        /* \"#utility.yul\":480:515   */\n      eq\n        /* \"#utility.yul\":470:533   */\n      tag_31\n      jumpi\n        /* \"#utility.yul\":529:530   */\n      0x00\n        /* \"#utility.yul\":526:527   */\n      dup1\n        /* \"#utility.yul\":519:531   */\n      revert\n        /* \"#utility.yul\":470:533   */\n    tag_31:\n        /* \"#utility.yul\":417:539   */\n      pop\n      jump\t// out\n        /* \"#utility.yul\":545:684   */\n    tag_19:\n        /* \"#utility.yul\":591:596   */\n      0x00\n        /* \"#utility.yul\":629:635   */\n      dup2\n        /* \"#utility.yul\":616:636   */\n      calldataload\n        /* \"#utility.yul\":607:636   */\n      swap1\n      pop\n        /* \"#utility.yul\":645:678   */\n      tag_33\n        /* \"#utility.yul\":672:677   */\n      dup2\n        /* \"#utility.yul\":645:678   */\n      tag_18\n      jump\t// in\n    tag_33:\n        /* \"#utility.yul\":545:684   */\n      swap3\n      swap2\n      pop\n      pop\n      jump\t// out\n        /* \"#utility.yul\":690:1019   */\n    tag_6:\n        /* \"#utility.yul\":749:755   */\n      0x00\n        /* \"#utility.yul\":798:800   */\n      0x20\n        /* \"#utility.yul\":786:795   */\n      dup3\n        /* \"#utility.yul\":777:784   */\n      dup5\n        /* \"#utility.yul\":773:796   */\n      sub\n        /* \"#utility.yul\":769:801   */\n      slt\n        /* \"#utility.yul\":766:885   */\n      iszero\n      tag_35\n      jumpi\n        /* \"#utility.yul\":804:883   */\n      tag_36\n      tag_15\n      jump\t// in\n    tag_36:\n        /* \"#utility.yul\":766:885   */\n    tag_35:\n        /* \"#utility.yul\":924:925   */\n      0x00\n        /* \"#utility.yul\":949:1002   */\n      tag_37\n        /* \"#utility.yul\":994:1001   */\n      dup5\n        /* \"#utility.yul\":985:991   */\n      dup3\n        /* \"#utility.yul\":974:983   */\n      dup6\n        /* \"#utility.yul\":970:992   */\n      add\n        /* \"#utility.yul\":949:1002   */\n      tag_19\n      jump\t// in\n    tag_37:\n        /* \"#utility.yul\":939:1002   */\n      swap2\n      pop\n        /* \"#utility.yul\":895:1012   */\n      pop\n        /* \"#utility.yul\":690:1019   */\n      swap3\n      swap2\n      pop\n      pop\n      jump\t// out\n        /* \"#utility.yul\":1025:1143   */\n    tag_20:\n        /* \"#utility.yul\":1112:1136   */\n      tag_39\n        /* \"#utility.yul\":1130:1135   */\n      dup2\n        /* \"#utility.yul\":1112:1136   */\n      tag_17\n      jump\t// in\n    tag_39:\n        /* \"#utility.yul\":1107:1110   */\n      dup3\n        /* \"#utility.yul\":1100:1137   */\n      mstore\n        /* \"#utility.yul\":1025:1143   */\n      pop\n      pop\n      jump\t// out\n        /* \"#utility.yul\":1149:1371   */\n    tag_9:\n        /* \"#utility.yul\":1242:1246   */\n      0x00\n        /* \"#utility.yul\":1280:1282   */\n      0x20\n        /* \"#utility.yul\":1269:1278   */\n      dup3\n        /* \"#utility.yul\":1265:1283   */\n      add\n        /* \"#utility.yul\":1257:1283   */\n      swap1\n      pop\n        /* \"#utility.yul\":1293:1364   */\n      tag_41\n        /* \"#utility.yul\":1361:1362   */\n      0x00\n        /* \"#utility.yul\":1350:1359   */\n      dup4\n        /* \"#utility.yul\":1346:1363   */\n      add\n        /* \"#utility.yul\":1337:1343   */\n      dup5\n        /* \"#utility.yul\":1293:1364   */\n      tag_20\n      jump\t// in\n    tag_41:\n        /* \"#utility.yul\":1149:1371   */\n      swap3\n      swap2\n      pop\n      pop\n      jump\t// out\n        /* \"#utility.yul\":1377:1546   */\n    tag_21:\n        /* \"#utility.yul\":1461:1472   */\n      0x00\n        /* \"#utility.yul\":1495:1501   */\n      dup3\n        /* \"#utility.yul\":1490:1493   */\n      dup3\n        /* \"#utility.yul\":1483:1502   */\n      mstore\n        /* \"#utility.yul\":1535:1539   */\n      0x20\n        /* \"#utility.yul\":1530:1533   */\n      dup3\n        /* \"#utility.yul\":1526:1540   */\n      add\n        /* \"#utility.yul\":1511:1540   */\n      swap1\n      pop\n        /* \"#utility.yul\":1377:1546   */\n      swap3\n      swap2\n      pop\n      pop\n      jump\t// out\n        /* \"#utility.yul\":1552:1724   */\n    tag_22:\n        /* \"#utility.yul\":1692:1716   */\n      0x5f6e756d2069732067726561746572207468616e203600000000000000000000\n        /* \"#utility.yul\":1688:1689   */\n      0x00\n        /* \"#utility.yul\":1680:1686   */\n      dup3\n        /* \"#utility.yul\":1676:1690   */\n      add\n        /* \"#utility.yul\":1669:1717   */\n      mstore\n        /* \"#utility.yul\":1552:1724   */\n      pop\n      jump\t// out\n        /* \"#utility.yul\":1730:2096   */\n    tag_23:\n        /* \"#utility.yul\":1872:1875   */\n      0x00\n        /* \"#utility.yul\":1893:1960   */\n      tag_45\n        /* \"#utility.yul\":1957:1959   */\n      0x16\n        /* \"#utility.yul\":1952:1955   */\n      dup4\n        /* \"#utility.yul\":1893:1960   */\n      tag_21\n      jump\t// in\n    tag_45:\n        /* \"#utility.yul\":1886:1960   */\n      swap2\n      pop\n        /* \"#utility.yul\":1969:2062   */\n      tag_46\n        /* \"#utility.yul\":2058:2061   */\n      dup3\n        /* \"#utility.yul\":1969:2062   */\n      tag_22\n      jump\t// in\n    tag_46:\n        /* \"#utility.yul\":2087:2089   */\n      0x20\n        /* \"#utility.yul\":2082:2085   */\n      dup3\n        /* \"#utility.yul\":2078:2090   */\n      add\n        /* \"#utility.yul\":2071:2090   */\n      swap1\n      pop\n        /* \"#utility.yul\":1730:2096   */\n      swap2\n      swap1\n      pop\n      jump\t// out\n        /* \"#utility.yul\":2102:2521   */\n    tag_13:\n        /* \"#utility.yul\":2268:2272   */\n      0x00\n        /* \"#utility.yul\":2306:2308   */\n      0x20\n        /* \"#utility.yul\":2295:2304   */\n      dup3\n        /* \"#utility.yul\":2291:2309   */\n      add\n        /* \"#utility.yul\":2283:2309   */\n      swap1\n      pop\n        /* \"#utility.yul\":2355:2364   */\n      dup2\n        /* \"#utility.yul\":2349:2353   */\n      dup2\n        /* \"#utility.yul\":2345:2365   */\n      sub\n        /* \"#utility.yul\":2341:2342   */\n      0x00\n        /* \"#utility.yul\":2330:2339   */\n      dup4\n        /* \"#utility.yul\":2326:2343   */\n      add\n        /* \"#utility.yul\":2319:2366   */\n      mstore\n        /* \"#utility.yul\":2383:2514   */\n      tag_48\n        /* \"#utility.yul\":2509:2513   */\n      dup2\n        /* \"#utility.yul\":2383:2514   */\n      tag_23\n      jump\t// in\n    tag_48:\n        /* \"#utility.yul\":2375:2514   */\n      swap1\n      pop\n        /* \"#utility.yul\":2102:2521   */\n      swap2\n      swap1\n      pop\n      jump\t// out\n\n    auxdata: 0xa2646970667358221220b5bf16a5c5017f77d9fd36f0b5ddadd133770516edc10df85f02b3bb56cd80ca64736f6c63430008120033\n}\n",
				"bytecode": {
					"linkReferences": {},
					"object": "608060405234801561001057600080fd5b506101f2806100206000396000f3fe608060405234801561001057600080fd5b506004361061002b5760003560e01c8063634817f314610030575b600080fd5b61004a600480360381019061004591906100e8565b610060565b6040516100579190610124565b60405180910390f35b6000600682106100a5576040517f08c379a000000000000000000000000000000000000000000000000000000000815260040161009c9061019c565b60405180910390fd5b819050919050565b600080fd5b6000819050919050565b6100c5816100b2565b81146100d057600080fd5b50565b6000813590506100e2816100bc565b92915050565b6000602082840312156100fe576100fd6100ad565b5b600061010c848285016100d3565b91505092915050565b61011e816100b2565b82525050565b60006020820190506101396000830184610115565b92915050565b600082825260208201905092915050565b7f5f6e756d2069732067726561746572207468616e203600000000000000000000600082015250565b600061018660168361013f565b915061019182610150565b602082019050919050565b600060208201905081810360008301526101b581610179565b905091905056fea2646970667358221220b5bf16a5c5017f77d9fd36f0b5ddadd133770516edc10df85f02b3bb56cd80ca64736f6c63430008120033",
					"opcodes": "PUSH1 0x80 PUSH1 0x40 MSTORE CALLVALUE DUP1 ISZERO PUSH2 0x10 JUMPI PUSH1 0x0 DUP1 REVERT JUMPDEST POP PUSH2 0x1F2 DUP1 PUSH2 0x20 PUSH1 0x0 CODECOPY PUSH1 0x0 RETURN INVALID PUSH1 0x80 PUSH1 0x40 MSTORE CALLVALUE DUP1 ISZERO PUSH2 0x10 JUMPI PUSH1 0x0 DUP1 REVERT JUMPDEST POP PUSH1 0x4 CALLDATASIZE LT PUSH2 0x2B JUMPI PUSH1 0x0 CALLDATALOAD PUSH1 0xE0 SHR DUP1 PUSH4 0x634817F3 EQ PUSH2 0x30 JUMPI JUMPDEST PUSH1 0x0 DUP1 REVERT JUMPDEST PUSH2 0x4A PUSH1 0x4 DUP1 CALLDATASIZE SUB DUP2 ADD SWAP1 PUSH2 0x45 SWAP2 SWAP1 PUSH2 0xE8 JUMP JUMPDEST PUSH2 0x60 JUMP JUMPDEST PUSH1 0x40 MLOAD PUSH2 0x57 SWAP2 SWAP1 PUSH2 0x124 JUMP JUMPDEST PUSH1 0x40 MLOAD DUP1 SWAP2 SUB SWAP1 RETURN JUMPDEST PUSH1 0x0 PUSH1 0x6 DUP3 LT PUSH2 0xA5 JUMPI PUSH1 0x40 MLOAD PUSH32 0x8C379A000000000000000000000000000000000000000000000000000000000 DUP2 MSTORE PUSH1 0x4 ADD PUSH2 0x9C SWAP1 PUSH2 0x19C JUMP JUMPDEST PUSH1 0x40 MLOAD DUP1 SWAP2 SUB SWAP1 REVERT JUMPDEST DUP2 SWAP1 POP SWAP2 SWAP1 POP JUMP JUMPDEST PUSH1 0x0 DUP1 REVERT JUMPDEST PUSH1 0x0 DUP2 SWAP1 POP SWAP2 SWAP1 POP JUMP JUMPDEST PUSH2 0xC5 DUP2 PUSH2 0xB2 JUMP JUMPDEST DUP2 EQ PUSH2 0xD0 JUMPI PUSH1 0x0 DUP1 REVERT JUMPDEST POP JUMP JUMPDEST PUSH1 0x0 DUP2 CALLDATALOAD SWAP1 POP PUSH2 0xE2 DUP2 PUSH2 0xBC JUMP JUMPDEST SWAP3 SWAP2 POP POP JUMP JUMPDEST PUSH1 0x0 PUSH1 0x20 DUP3 DUP5 SUB SLT ISZERO PUSH2 0xFE JUMPI PUSH2 0xFD PUSH2 0xAD JUMP JUMPDEST JUMPDEST PUSH1 0x0 PUSH2 0x10C DUP5 DUP3 DUP6 ADD PUSH2 0xD3 JUMP JUMPDEST SWAP2 POP POP SWAP3 SWAP2 POP POP JUMP JUMPDEST PUSH2 0x11E DUP2 PUSH2 0xB2 JUMP JUMPDEST DUP3 MSTORE POP POP JUMP JUMPDEST PUSH1 0x0 PUSH1 0x20 DUP3 ADD SWAP1 POP PUSH2 0x139 PUSH1 0x0 DUP4 ADD DUP5 PUSH2 0x115 JUMP JUMPDEST SWAP3 SWAP2 POP POP JUMP JUMPDEST PUSH1 0x0 DUP3 DUP3 MSTORE PUSH1 0x20 DUP3 ADD SWAP1 POP SWAP3 SWAP2 POP POP JUMP JUMPDEST PUSH32 0x5F6E756D2069732067726561746572207468616E203600000000000000000000 PUSH1 0x0 DUP3 ADD MSTORE POP JUMP JUMPDEST PUSH1 0x0 PUSH2 0x186 PUSH1 0x16 DUP4 PUSH2 0x13F JUMP JUMPDEST SWAP2 POP PUSH2 0x191 DUP3 PUSH2 0x150 JUMP JUMPDEST PUSH1 0x20 DUP3 ADD SWAP1 POP SWAP2 SWAP1 POP JUMP JUMPDEST PUSH1 0x0 PUSH1 0x20 DUP3 ADD SWAP1 POP DUP2 DUP2 SUB PUSH1 0x0 DUP4 ADD MSTORE PUSH2 0x1B5 DUP2 PUSH2 0x179 JUMP JUMPDEST SWAP1 POP SWAP2 SWAP1 POP JUMP INVALID LOG2 PUSH5 0x6970667358 0x22 SLT KECCAK256 0xB5 0xBF AND 0xA5 0xC5 ADD PUSH32 0x77D9FD36F0B5DDADD133770516EDC10DF85F02B3BB56CD80CA64736F6C634300 ADDMOD SLT STOP CALLER "
				},
				"gasEstimates": {
					"creation": {
						"codeDepositCost": "99600",
						"executionCost": "147",
						"totalCost": "99747"
					},
					"external": {
						"quiz1(uint256)": "infinite"
					}
				},
				"methodIdentifiers": {
					"quiz1(uint256)": "634817f3"
				}
			},
			"storageLayout": {
				"storage": [],
				"types": null
			},
			"userdoc": {
				"kind": "user",
				"methods": {},
				"version": 1
			}
		}
	}
}