{
	"chapter7/practice4.sol": {
		"ex4": {
			"abi": [
				{
					"inputs": [],
					"name": "output5",
					"outputs": [
						{
							"internalType": "uint256",
							"name": "",
							"type": "uint256"
						}
					],
					"stateMutability": "pure",
					"type": "function"
				},
				{
					"inputs": [],
					"name": "output5WithTryCatch",
					"outputs": [
						{
							"internalType": "uint256",
							"name": "",
							"type": "uint256"
						}
					],
					"stateMutability": "view",
					"type": "function"
				}
			],
			"devdoc": {
				"kind": "dev",
				"methods": {},
				"version": 1
			},
			"evm": {
				"assembly": "    /* \"chapter7/practice4.sol\":66:400  contract ex4 {... */\n  mstore(0x40, 0x80)\n  callvalue\n  dup1\n  iszero\n  tag_1\n  jumpi\n  0x00\n  dup1\n  revert\ntag_1:\n  pop\n  dataSize(sub_0)\n  dup1\n  dataOffset(sub_0)\n  0x00\n  codecopy\n  0x00\n  return\nstop\n\nsub_0: assembly {\n        /* \"chapter7/practice4.sol\":66:400  contract ex4 {... */\n      mstore(0x40, 0x80)\n      callvalue\n      dup1\n      iszero\n      tag_1\n      jumpi\n      0x00\n      dup1\n      revert\n    tag_1:\n      pop\n      jumpi(tag_2, lt(calldatasize, 0x04))\n      shr(0xe0, calldataload(0x00))\n      dup1\n      0x14277497\n      eq\n      tag_3\n      jumpi\n      dup1\n      0x3e26c0de\n      eq\n      tag_4\n      jumpi\n    tag_2:\n      0x00\n      dup1\n      revert\n        /* \"chapter7/practice4.sol\":85:155  function output5() public pure returns(uint) {... */\n    tag_3:\n      tag_5\n      tag_6\n      jump\t// in\n    tag_5:\n      mload(0x40)\n      tag_7\n      swap2\n      swap1\n      tag_8\n      jump\t// in\n    tag_7:\n      mload(0x40)\n      dup1\n      swap2\n      sub\n      swap1\n      return\n        /* \"chapter7/practice4.sol\":161:398  function output5WithTryCatch() public view returns(uint) {... */\n    tag_4:\n      tag_9\n      tag_10\n      jump\t// in\n    tag_9:\n      mload(0x40)\n      tag_11\n      swap2\n      swap1\n      tag_8\n      jump\t// in\n    tag_11:\n      mload(0x40)\n      dup1\n      swap2\n      sub\n      swap1\n      return\n        /* \"chapter7/practice4.sol\":85:155  function output5() public pure returns(uint) {... */\n    tag_6:\n        /* \"chapter7/practice4.sol\":124:128  uint */\n      0x00\n        /* \"chapter7/practice4.sol\":147:148  5 */\n      0x05\n        /* \"chapter7/practice4.sol\":140:148  return 5 */\n      swap1\n      pop\n        /* \"chapter7/practice4.sol\":85:155  function output5() public pure returns(uint) {... */\n      swap1\n      jump\t// out\n        /* \"chapter7/practice4.sol\":161:398  function output5WithTryCatch() public view returns(uint) {... */\n    tag_10:\n        /* \"chapter7/practice4.sol\":212:216  uint */\n      0x00\n        /* \"chapter7/practice4.sol\":232:236  this */\n      address\n        /* \"chapter7/practice4.sol\":232:244  this.output5 */\n      0xffffffffffffffffffffffffffffffffffffffff\n      and\n      0x14277497\n        /* \"chapter7/practice4.sol\":232:246  this.output5() */\n      mload(0x40)\n      dup2\n      0xffffffff\n      and\n      0xe0\n      shl\n      dup2\n      mstore\n      0x04\n      add\n      0x20\n      mload(0x40)\n      dup1\n      dup4\n      sub\n      dup2\n      dup7\n      gas\n      staticcall\n      swap3\n      pop\n      pop\n      pop\n      dup1\n      iszero\n      tag_14\n      jumpi\n      pop\n      mload(0x40)\n      returndatasize\n      not(0x1f)\n      0x1f\n      dup3\n      add\n      and\n      dup3\n      add\n      dup1\n      0x40\n      mstore\n      pop\n      dup2\n      add\n      swap1\n      tag_15\n      swap2\n      swap1\n      tag_16\n      jump\t// in\n    tag_15:\n      0x01\n    tag_14:\n        /* \"chapter7/practice4.sol\":228:383  try this.output5() returns (uint value) {... */\n      tag_17\n      jumpi\n        /* \"chapter7/practice4.sol\":371:372  0 */\n      0x00\n        /* \"chapter7/practice4.sol\":364:372  return 0 */\n      swap1\n      pop\n      jump(tag_13)\n        /* \"chapter7/practice4.sol\":228:383  try this.output5() returns (uint value) {... */\n    tag_17:\n        /* \"chapter7/practice4.sol\":282:306  revert(\"Always failure\") */\n      mload(0x40)\n      0x08c379a000000000000000000000000000000000000000000000000000000000\n      dup2\n      mstore\n      0x04\n      add\n      tag_22\n      swap1\n      tag_23\n      jump\t// in\n    tag_22:\n      mload(0x40)\n      dup1\n      swap2\n      sub\n      swap1\n      revert\n        /* \"chapter7/practice4.sol\":161:398  function output5WithTryCatch() public view returns(uint) {... */\n    tag_13:\n      swap1\n      jump\t// out\n        /* \"#utility.yul\":7:84   */\n    tag_24:\n        /* \"#utility.yul\":44:51   */\n      0x00\n        /* \"#utility.yul\":73:78   */\n      dup2\n        /* \"#utility.yul\":62:78   */\n      swap1\n      pop\n        /* \"#utility.yul\":7:84   */\n      swap2\n      swap1\n      pop\n      jump\t// out\n        /* \"#utility.yul\":90:208   */\n    tag_25:\n        /* \"#utility.yul\":177:201   */\n      tag_37\n        /* \"#utility.yul\":195:200   */\n      dup2\n        /* \"#utility.yul\":177:201   */\n      tag_24\n      jump\t// in\n    tag_37:\n        /* \"#utility.yul\":172:175   */\n      dup3\n        /* \"#utility.yul\":165:202   */\n      mstore\n        /* \"#utility.yul\":90:208   */\n      pop\n      pop\n      jump\t// out\n        /* \"#utility.yul\":214:436   */\n    tag_8:\n        /* \"#utility.yul\":307:311   */\n      0x00\n        /* \"#utility.yul\":345:347   */\n      0x20\n        /* \"#utility.yul\":334:343   */\n      dup3\n        /* \"#utility.yul\":330:348   */\n      add\n        /* \"#utility.yul\":322:348   */\n      swap1\n      pop\n        /* \"#utility.yul\":358:429   */\n      tag_39\n        /* \"#utility.yul\":426:427   */\n      0x00\n        /* \"#utility.yul\":415:424   */\n      dup4\n        /* \"#utility.yul\":411:428   */\n      add\n        /* \"#utility.yul\":402:408   */\n      dup5\n        /* \"#utility.yul\":358:429   */\n      tag_25\n      jump\t// in\n    tag_39:\n        /* \"#utility.yul\":214:436   */\n      swap3\n      swap2\n      pop\n      pop\n      jump\t// out\n        /* \"#utility.yul\":523:640   */\n    tag_27:\n        /* \"#utility.yul\":632:633   */\n      0x00\n        /* \"#utility.yul\":629:630   */\n      dup1\n        /* \"#utility.yul\":622:634   */\n      revert\n        /* \"#utility.yul\":769:891   */\n    tag_29:\n        /* \"#utility.yul\":842:866   */\n      tag_44\n        /* \"#utility.yul\":860:865   */\n      dup2\n        /* \"#utility.yul\":842:866   */\n      tag_24\n      jump\t// in\n    tag_44:\n        /* \"#utility.yul\":835:840   */\n      dup2\n        /* \"#utility.yul\":832:867   */\n      eq\n        /* \"#utility.yul\":822:885   */\n      tag_45\n      jumpi\n        /* \"#utility.yul\":881:882   */\n      0x00\n        /* \"#utility.yul\":878:879   */\n      dup1\n        /* \"#utility.yul\":871:883   */\n      revert\n        /* \"#utility.yul\":822:885   */\n    tag_45:\n        /* \"#utility.yul\":769:891   */\n      pop\n      jump\t// out\n        /* \"#utility.yul\":897:1040   */\n    tag_30:\n        /* \"#utility.yul\":954:959   */\n      0x00\n        /* \"#utility.yul\":985:991   */\n      dup2\n        /* \"#utility.yul\":979:992   */\n      mload\n        /* \"#utility.yul\":970:992   */\n      swap1\n      pop\n        /* \"#utility.yul\":1001:1034   */\n      tag_47\n        /* \"#utility.yul\":1028:1033   */\n      dup2\n        /* \"#utility.yul\":1001:1034   */\n      tag_29\n      jump\t// in\n    tag_47:\n        /* \"#utility.yul\":897:1040   */\n      swap3\n      swap2\n      pop\n      pop\n      jump\t// out\n        /* \"#utility.yul\":1046:1397   */\n    tag_16:\n        /* \"#utility.yul\":1116:1122   */\n      0x00\n        /* \"#utility.yul\":1165:1167   */\n      0x20\n        /* \"#utility.yul\":1153:1162   */\n      dup3\n        /* \"#utility.yul\":1144:1151   */\n      dup5\n        /* \"#utility.yul\":1140:1163   */\n      sub\n        /* \"#utility.yul\":1136:1168   */\n      slt\n        /* \"#utility.yul\":1133:1252   */\n      iszero\n      tag_49\n      jumpi\n        /* \"#utility.yul\":1171:1250   */\n      tag_50\n      tag_27\n      jump\t// in\n    tag_50:\n        /* \"#utility.yul\":1133:1252   */\n    tag_49:\n        /* \"#utility.yul\":1291:1292   */\n      0x00\n        /* \"#utility.yul\":1316:1380   */\n      tag_51\n        /* \"#utility.yul\":1372:1379   */\n      dup5\n        /* \"#utility.yul\":1363:1369   */\n      dup3\n        /* \"#utility.yul\":1352:1361   */\n      dup6\n        /* \"#utility.yul\":1348:1370   */\n      add\n        /* \"#utility.yul\":1316:1380   */\n      tag_30\n      jump\t// in\n    tag_51:\n        /* \"#utility.yul\":1306:1380   */\n      swap2\n      pop\n        /* \"#utility.yul\":1262:1390   */\n      pop\n        /* \"#utility.yul\":1046:1397   */\n      swap3\n      swap2\n      pop\n      pop\n      jump\t// out\n        /* \"#utility.yul\":1403:1572   */\n    tag_31:\n        /* \"#utility.yul\":1487:1498   */\n      0x00\n        /* \"#utility.yul\":1521:1527   */\n      dup3\n        /* \"#utility.yul\":1516:1519   */\n      dup3\n        /* \"#utility.yul\":1509:1528   */\n      mstore\n        /* \"#utility.yul\":1561:1565   */\n      0x20\n        /* \"#utility.yul\":1556:1559   */\n      dup3\n        /* \"#utility.yul\":1552:1566   */\n      add\n        /* \"#utility.yul\":1537:1566   */\n      swap1\n      pop\n        /* \"#utility.yul\":1403:1572   */\n      swap3\n      swap2\n      pop\n      pop\n      jump\t// out\n        /* \"#utility.yul\":1578:1742   */\n    tag_32:\n        /* \"#utility.yul\":1718:1734   */\n      0x416c77617973206661696c757265000000000000000000000000000000000000\n        /* \"#utility.yul\":1714:1715   */\n      0x00\n        /* \"#utility.yul\":1706:1712   */\n      dup3\n        /* \"#utility.yul\":1702:1716   */\n      add\n        /* \"#utility.yul\":1695:1735   */\n      mstore\n        /* \"#utility.yul\":1578:1742   */\n      pop\n      jump\t// out\n        /* \"#utility.yul\":1748:2114   */\n    tag_33:\n        /* \"#utility.yul\":1890:1893   */\n      0x00\n        /* \"#utility.yul\":1911:1978   */\n      tag_55\n        /* \"#utility.yul\":1975:1977   */\n      0x0e\n        /* \"#utility.yul\":1970:1973   */\n      dup4\n        /* \"#utility.yul\":1911:1978   */\n      tag_31\n      jump\t// in\n    tag_55:\n        /* \"#utility.yul\":1904:1978   */\n      swap2\n      pop\n        /* \"#utility.yul\":1987:2080   */\n      tag_56\n        /* \"#utility.yul\":2076:2079   */\n      dup3\n        /* \"#utility.yul\":1987:2080   */\n      tag_32\n      jump\t// in\n    tag_56:\n        /* \"#utility.yul\":2105:2107   */\n      0x20\n        /* \"#utility.yul\":2100:2103   */\n      dup3\n        /* \"#utility.yul\":2096:2108   */\n      add\n        /* \"#utility.yul\":2089:2108   */\n      swap1\n      pop\n        /* \"#utility.yul\":1748:2114   */\n      swap2\n      swap1\n      pop\n      jump\t// out\n        /* \"#utility.yul\":2120:2539   */\n    tag_23:\n        /* \"#utility.yul\":2286:2290   */\n      0x00\n        /* \"#utility.yul\":2324:2326   */\n      0x20\n        /* \"#utility.yul\":2313:2322   */\n      dup3\n        /* \"#utility.yul\":2309:2327   */\n      add\n        /* \"#utility.yul\":2301:2327   */\n      swap1\n      pop\n        /* \"#utility.yul\":2373:2382   */\n      dup2\n        /* \"#utility.yul\":2367:2371   */\n      dup2\n        /* \"#utility.yul\":2363:2383   */\n      sub\n        /* \"#utility.yul\":2359:2360   */\n      0x00\n        /* \"#utility.yul\":2348:2357   */\n      dup4\n        /* \"#utility.yul\":2344:2361   */\n      add\n        /* \"#utility.yul\":2337:2384   */\n      mstore\n        /* \"#utility.yul\":2401:2532   */\n      tag_58\n        /* \"#utility.yul\":2527:2531   */\n      dup2\n        /* \"#utility.yul\":2401:2532   */\n      tag_33\n      jump\t// in\n    tag_58:\n        /* \"#utility.yul\":2393:2532   */\n      swap1\n      pop\n        /* \"#utility.yul\":2120:2539   */\n      swap2\n      swap1\n      pop\n      jump\t// out\n\n    auxdata: 0xa2646970667358221220cf154c0e71064a87db9f460062db6a59c6fb4da3e8d06a921b7f37eec42f74b064736f6c63430008120033\n}\n",
				"bytecode": {
					"linkReferences": {},
					"object": "608060405234801561001057600080fd5b5061027a806100206000396000f3fe608060405234801561001057600080fd5b50600436106100365760003560e01c8063142774971461003b5780633e26c0de14610059575b600080fd5b610043610077565b604051610050919061014e565b60405180910390f35b610061610080565b60405161006e919061014e565b60405180910390f35b60006005905090565b60003073ffffffffffffffffffffffffffffffffffffffff1663142774976040518163ffffffff1660e01b8152600401602060405180830381865afa9250505080156100ea57506040513d601f19601f820116820180604052508101906100e7919061019a565b60015b6100f75760009050610132565b6040517f08c379a000000000000000000000000000000000000000000000000000000000815260040161012990610224565b60405180910390fd5b90565b6000819050919050565b61014881610135565b82525050565b6000602082019050610163600083018461013f565b92915050565b600080fd5b61017781610135565b811461018257600080fd5b50565b6000815190506101948161016e565b92915050565b6000602082840312156101b0576101af610169565b5b60006101be84828501610185565b91505092915050565b600082825260208201905092915050565b7f416c77617973206661696c757265000000000000000000000000000000000000600082015250565b600061020e600e836101c7565b9150610219826101d8565b602082019050919050565b6000602082019050818103600083015261023d81610201565b905091905056fea2646970667358221220cf154c0e71064a87db9f460062db6a59c6fb4da3e8d06a921b7f37eec42f74b064736f6c63430008120033",
					"opcodes": "PUSH1 0x80 PUSH1 0x40 MSTORE CALLVALUE DUP1 ISZERO PUSH2 0x10 JUMPI PUSH1 0x0 DUP1 REVERT JUMPDEST POP PUSH2 0x27A DUP1 PUSH2 0x20 PUSH1 0x0 CODECOPY PUSH1 0x0 RETURN INVALID PUSH1 0x80 PUSH1 0x40 MSTORE CALLVALUE DUP1 ISZERO PUSH2 0x10 JUMPI PUSH1 0x0 DUP1 REVERT JUMPDEST POP PUSH1 0x4 CALLDATASIZE LT PUSH2 0x36 JUMPI PUSH1 0x0 CALLDATALOAD PUSH1 0xE0 SHR DUP1 PUSH4 0x14277497 EQ PUSH2 0x3B JUMPI DUP1 PUSH4 0x3E26C0DE EQ PUSH2 0x59 JUMPI JUMPDEST PUSH1 0x0 DUP1 REVERT JUMPDEST PUSH2 0x43 PUSH2 0x77 JUMP JUMPDEST PUSH1 0x40 MLOAD PUSH2 0x50 SWAP2 SWAP1 PUSH2 0x14E JUMP JUMPDEST PUSH1 0x40 MLOAD DUP1 SWAP2 SUB SWAP1 RETURN JUMPDEST PUSH2 0x61 PUSH2 0x80 JUMP JUMPDEST PUSH1 0x40 MLOAD PUSH2 0x6E SWAP2 SWAP1 PUSH2 0x14E JUMP JUMPDEST PUSH1 0x40 MLOAD DUP1 SWAP2 SUB SWAP1 RETURN JUMPDEST PUSH1 0x0 PUSH1 0x5 SWAP1 POP SWAP1 JUMP JUMPDEST PUSH1 0x0 ADDRESS PUSH20 0xFFFFFFFFFFFFFFFFFFFFFFFFFFFFFFFFFFFFFFFF AND PUSH4 0x14277497 PUSH1 0x40 MLOAD DUP2 PUSH4 0xFFFFFFFF AND PUSH1 0xE0 SHL DUP2 MSTORE PUSH1 0x4 ADD PUSH1 0x20 PUSH1 0x40 MLOAD DUP1 DUP4 SUB DUP2 DUP7 GAS STATICCALL SWAP3 POP POP POP DUP1 ISZERO PUSH2 0xEA JUMPI POP PUSH1 0x40 MLOAD RETURNDATASIZE PUSH1 0x1F NOT PUSH1 0x1F DUP3 ADD AND DUP3 ADD DUP1 PUSH1 0x40 MSTORE POP DUP2 ADD SWAP1 PUSH2 0xE7 SWAP2 SWAP1 PUSH2 0x19A JUMP JUMPDEST PUSH1 0x1 JUMPDEST PUSH2 0xF7 JUMPI PUSH1 0x0 SWAP1 POP PUSH2 0x132 JUMP JUMPDEST PUSH1 0x40 MLOAD PUSH32 0x8C379A000000000000000000000000000000000000000000000000000000000 DUP2 MSTORE PUSH1 0x4 ADD PUSH2 0x129 SWAP1 PUSH2 0x224 JUMP JUMPDEST PUSH1 0x40 MLOAD DUP1 SWAP2 SUB SWAP1 REVERT JUMPDEST SWAP1 JUMP JUMPDEST PUSH1 0x0 DUP2 SWAP1 POP SWAP2 SWAP1 POP JUMP JUMPDEST PUSH2 0x148 DUP2 PUSH2 0x135 JUMP JUMPDEST DUP3 MSTORE POP POP JUMP JUMPDEST PUSH1 0x0 PUSH1 0x20 DUP3 ADD SWAP1 POP PUSH2 0x163 PUSH1 0x0 DUP4 ADD DUP5 PUSH2 0x13F JUMP JUMPDEST SWAP3 SWAP2 POP POP JUMP JUMPDEST PUSH1 0x0 DUP1 REVERT JUMPDEST PUSH2 0x177 DUP2 PUSH2 0x135 JUMP JUMPDEST DUP2 EQ PUSH2 0x182 JUMPI PUSH1 0x0 DUP1 REVERT JUMPDEST POP JUMP JUMPDEST PUSH1 0x0 DUP2 MLOAD SWAP1 POP PUSH2 0x194 DUP2 PUSH2 0x16E JUMP JUMPDEST SWAP3 SWAP2 POP POP JUMP JUMPDEST PUSH1 0x0 PUSH1 0x20 DUP3 DUP5 SUB SLT ISZERO PUSH2 0x1B0 JUMPI PUSH2 0x1AF PUSH2 0x169 JUMP JUMPDEST JUMPDEST PUSH1 0x0 PUSH2 0x1BE DUP5 DUP3 DUP6 ADD PUSH2 0x185 JUMP JUMPDEST SWAP2 POP POP SWAP3 SWAP2 POP POP JUMP JUMPDEST PUSH1 0x0 DUP3 DUP3 MSTORE PUSH1 0x20 DUP3 ADD SWAP1 POP SWAP3 SWAP2 POP POP JUMP JUMPDEST PUSH32 0x416C77617973206661696C757265000000000000000000000000000000000000 PUSH1 0x0 DUP3 ADD MSTORE POP JUMP JUMPDEST PUSH1 0x0 PUSH2 0x20E PUSH1 0xE DUP4 PUSH2 0x1C7 JUMP JUMPDEST SWAP2 POP PUSH2 0x219 DUP3 PUSH2 0x1D8 JUMP JUMPDEST PUSH1 0x20 DUP3 ADD SWAP1 POP SWAP2 SWAP1 POP JUMP JUMPDEST PUSH1 0x0 PUSH1 0x20 DUP3 ADD SWAP1 POP DUP2 DUP2 SUB PUSH1 0x0 DUP4 ADD MSTORE PUSH2 0x23D DUP2 PUSH2 0x201 JUMP JUMPDEST SWAP1 POP SWAP2 SWAP1 POP JUMP INVALID LOG2 PUSH5 0x6970667358 0x22 SLT KECCAK256 0xCF ISZERO 0x4C 0xE PUSH18 0x64A87DB9F460062DB6A59C6FB4DA3E8D06A SWAP3 SHL PUSH32 0x37EEC42F74B064736F6C63430008120033000000000000000000000000000000 "
				},
				"gasEstimates": {
					"creation": {
						"codeDepositCost": "126800",
						"executionCost": "171",
						"totalCost": "126971"
					},
					"external": {
						"output5()": "315",
						"output5WithTryCatch()": "infinite"
					}
				},
				"methodIdentifiers": {
					"output5()": "14277497",
					"output5WithTryCatch()": "3e26c0de"
				}
			},
			"storageLayout": {
				"storage": [],
				"types": null
			},
			"userdoc": {
				"kind": "user",
				"methods": {},
				"version": 1
			}
		}
	}
}