{
	"chapter7/tryCatch.sol": {
		"EX7": {
			"abi": [
				{
					"anonymous": false,
					"inputs": [
						{
							"indexed": false,
							"internalType": "string",
							"name": "reason",
							"type": "string"
						}
					],
					"name": "ErrorReason1",
					"type": "event"
				},
				{
					"anonymous": false,
					"inputs": [
						{
							"indexed": false,
							"internalType": "uint256",
							"name": "errorcode",
							"type": "uint256"
						}
					],
					"name": "ErrorReason2",
					"type": "event"
				},
				{
					"anonymous": false,
					"inputs": [
						{
							"indexed": false,
							"internalType": "bytes",
							"name": "lowlevelData",
							"type": "bytes"
						}
					],
					"name": "ErrorReason3",
					"type": "event"
				},
				{
					"inputs": [
						{
							"internalType": "uint256",
							"name": "_num",
							"type": "uint256"
						}
					],
					"name": "output5",
					"outputs": [
						{
							"internalType": "uint256",
							"name": "",
							"type": "uint256"
						}
					],
					"stateMutability": "pure",
					"type": "function"
				},
				{
					"inputs": [
						{
							"internalType": "uint256",
							"name": "_num",
							"type": "uint256"
						}
					],
					"name": "output5WithTryCatch",
					"outputs": [
						{
							"internalType": "uint256",
							"name": "",
							"type": "uint256"
						},
						{
							"internalType": "bool",
							"name": "",
							"type": "bool"
						}
					],
					"stateMutability": "nonpayable",
					"type": "function"
				}
			],
			"devdoc": {
				"kind": "dev",
				"methods": {},
				"version": 1
			},
			"evm": {
				"assembly": "    /* \"chapter7/tryCatch.sol\":66:951  contract EX7 {... */\n  mstore(0x40, 0x80)\n  callvalue\n  dup1\n  iszero\n  tag_1\n  jumpi\n  0x00\n  dup1\n  revert\ntag_1:\n  pop\n  dataSize(sub_0)\n  dup1\n  dataOffset(sub_0)\n  0x00\n  codecopy\n  0x00\n  return\nstop\n\nsub_0: assembly {\n        /* \"chapter7/tryCatch.sol\":66:951  contract EX7 {... */\n      mstore(0x40, 0x80)\n      callvalue\n      dup1\n      iszero\n      tag_1\n      jumpi\n      0x00\n      dup1\n      revert\n    tag_1:\n      pop\n      jumpi(tag_2, lt(calldatasize, 0x04))\n      shr(0xe0, calldataload(0x00))\n      dup1\n      0x68e90a9e\n      eq\n      tag_3\n      jumpi\n      dup1\n      0x8475016b\n      eq\n      tag_4\n      jumpi\n    tag_2:\n      0x00\n      dup1\n      revert\n        /* \"chapter7/tryCatch.sol\":429:949  function output5WithTryCatch(uint _num) public returns(uint256, bool) {... */\n    tag_3:\n      tag_5\n      0x04\n      dup1\n      calldatasize\n      sub\n      dup2\n      add\n      swap1\n      tag_6\n      swap2\n      swap1\n      tag_7\n      jump\t// in\n    tag_6:\n      tag_8\n      jump\t// in\n    tag_5:\n      mload(0x40)\n      tag_9\n      swap3\n      swap2\n      swap1\n      tag_10\n      jump\t// in\n    tag_9:\n      mload(0x40)\n      dup1\n      swap2\n      sub\n      swap1\n      return\n        /* \"chapter7/tryCatch.sol\":209:423  function output5(uint _num) public pure returns(uint) {... */\n    tag_4:\n      tag_11\n      0x04\n      dup1\n      calldatasize\n      sub\n      dup2\n      add\n      swap1\n      tag_12\n      swap2\n      swap1\n      tag_7\n      jump\t// in\n    tag_12:\n      tag_13\n      jump\t// in\n    tag_11:\n      mload(0x40)\n      tag_14\n      swap2\n      swap1\n      tag_15\n      jump\t// in\n    tag_14:\n      mload(0x40)\n      dup1\n      swap2\n      sub\n      swap1\n      return\n        /* \"chapter7/tryCatch.sol\":429:949  function output5WithTryCatch(uint _num) public returns(uint256, bool) {... */\n    tag_8:\n        /* \"chapter7/tryCatch.sol\":484:491  uint256 */\n      0x00\n        /* \"chapter7/tryCatch.sol\":493:497  bool */\n      dup1\n        /* \"chapter7/tryCatch.sol\":513:517  this */\n      address\n        /* \"chapter7/tryCatch.sol\":513:525  this.output5 */\n      0xffffffffffffffffffffffffffffffffffffffff\n      and\n      0x8475016b\n        /* \"chapter7/tryCatch.sol\":526:530  _num */\n      dup5\n        /* \"chapter7/tryCatch.sol\":513:531  this.output5(_num) */\n      mload(0x40)\n      dup3\n      0xffffffff\n      and\n      0xe0\n      shl\n      dup2\n      mstore\n      0x04\n      add\n      tag_17\n      swap2\n      swap1\n      tag_15\n      jump\t// in\n    tag_17:\n      0x20\n      mload(0x40)\n      dup1\n      dup4\n      sub\n      dup2\n      dup7\n      gas\n      staticcall\n      swap3\n      pop\n      pop\n      pop\n      dup1\n      iszero\n      tag_18\n      jumpi\n      pop\n      mload(0x40)\n      returndatasize\n      not(0x1f)\n      0x1f\n      dup3\n      add\n      and\n      dup3\n      add\n      dup1\n      0x40\n      mstore\n      pop\n      dup2\n      add\n      swap1\n      tag_19\n      swap2\n      swap1\n      tag_20\n      jump\t// in\n    tag_19:\n      0x01\n    tag_18:\n        /* \"chapter7/tryCatch.sol\":509:943  try this.output5(_num) returns (uint value) {... */\n      tag_21\n      jumpi\n      tag_25\n      tag_26\n      jump\t// in\n    tag_25:\n      dup1\n      0x08c379a0\n      sub\n      tag_24\n      jumpi\n      pop\n      tag_27\n      tag_28\n      jump\t// in\n    tag_27:\n      dup1\n      tag_29\n      jumpi\n      pop\n      jump(tag_23)\n    tag_29:\n        /* \"chapter7/tryCatch.sol\":651:671  ErrorReason1(reason) */\n      0x316d4704ca18e103252abce7d81e53dfdec9859f9e0a639ccd9c332effb08d6e\n        /* \"chapter7/tryCatch.sol\":664:670  reason */\n      dup2\n        /* \"chapter7/tryCatch.sol\":651:671  ErrorReason1(reason) */\n      mload(0x40)\n      tag_30\n      swap2\n      swap1\n      tag_31\n      jump\t// in\n    tag_30:\n      mload(0x40)\n      dup1\n      swap2\n      sub\n      swap1\n      log1\n        /* \"chapter7/tryCatch.sol\":692:693  0 */\n      0x00\n        /* \"chapter7/tryCatch.sol\":695:700  false */\n      dup1\n        /* \"chapter7/tryCatch.sol\":685:701  return(0, false) */\n      swap3\n      pop\n      swap3\n      pop\n      pop\n      jump(tag_16)\n        /* \"chapter7/tryCatch.sol\":509:943  try this.output5(_num) returns (uint value) {... */\n    tag_24:\n      0x4e487b71\n      sub\n      tag_23\n      jumpi\n      tag_32\n      tag_33\n      jump\t// in\n    tag_32:\n      swap1\n      tag_34\n      jumpi\n      pop\n      jump(tag_23)\n    tag_34:\n        /* \"chapter7/tryCatch.sol\":760:783  ErrorReason2(errorCode) */\n      0xf0a3d11b86dc0859fa4e51d2dea2035f3649d433b5b4ec57925b58c9a5fac0c1\n        /* \"chapter7/tryCatch.sol\":773:782  errorCode */\n      dup2\n        /* \"chapter7/tryCatch.sol\":760:783  ErrorReason2(errorCode) */\n      mload(0x40)\n      tag_35\n      swap2\n      swap1\n      tag_15\n      jump\t// in\n    tag_35:\n      mload(0x40)\n      dup1\n      swap2\n      sub\n      swap1\n      log1\n        /* \"chapter7/tryCatch.sol\":804:805  0 */\n      0x00\n        /* \"chapter7/tryCatch.sol\":807:812  false */\n      dup1\n        /* \"chapter7/tryCatch.sol\":797:813  return(0, false) */\n      swap3\n      pop\n      swap3\n      pop\n      pop\n      jump(tag_16)\n        /* \"chapter7/tryCatch.sol\":509:943  try this.output5(_num) returns (uint value) {... */\n    tag_23:\n      returndatasize\n      dup1\n      0x00\n      dup2\n      eq\n      tag_37\n      jumpi\n      mload(0x40)\n      swap2\n      pop\n      and(add(returndatasize, 0x3f), not(0x1f))\n      dup3\n      add\n      0x40\n      mstore\n      returndatasize\n      dup3\n      mstore\n      returndatasize\n      0x00\n      0x20\n      dup5\n      add\n      returndatacopy\n      jump(tag_36)\n    tag_37:\n      0x60\n      swap2\n      pop\n    tag_36:\n      pop\n        /* \"chapter7/tryCatch.sol\":877:902  ErrorReason3(loLevelData) */\n      0x11630be05199a3e4c6abf1bfe27413bcfe3cd3058442e7143637d96af091baa4\n        /* \"chapter7/tryCatch.sol\":890:901  loLevelData */\n      dup2\n        /* \"chapter7/tryCatch.sol\":877:902  ErrorReason3(loLevelData) */\n      mload(0x40)\n      tag_38\n      swap2\n      swap1\n      tag_39\n      jump\t// in\n    tag_38:\n      mload(0x40)\n      dup1\n      swap2\n      sub\n      swap1\n      log1\n        /* \"chapter7/tryCatch.sol\":923:924  0 */\n      0x00\n        /* \"chapter7/tryCatch.sol\":926:931  false */\n      dup1\n        /* \"chapter7/tryCatch.sol\":916:932  return(0, false) */\n      swap3\n      pop\n      swap3\n      pop\n      pop\n      jump(tag_16)\n        /* \"chapter7/tryCatch.sol\":509:943  try this.output5(_num) returns (uint value) {... */\n    tag_21:\n        /* \"chapter7/tryCatch.sol\":574:579  value */\n      dup1\n        /* \"chapter7/tryCatch.sol\":581:585  true */\n      0x01\n        /* \"chapter7/tryCatch.sol\":567:586  return(value, true) */\n      swap3\n      pop\n      swap3\n      pop\n      pop\n        /* \"chapter7/tryCatch.sol\":429:949  function output5WithTryCatch(uint _num) public returns(uint256, bool) {... */\n    tag_16:\n      swap2\n      pop\n      swap2\n      jump\t// out\n        /* \"chapter7/tryCatch.sol\":209:423  function output5(uint _num) public pure returns(uint) {... */\n    tag_13:\n        /* \"chapter7/tryCatch.sol\":257:261  uint */\n      0x00\n        /* \"chapter7/tryCatch.sol\":284:285  6 */\n      0x06\n        /* \"chapter7/tryCatch.sol\":276:280  _num */\n      dup3\n        /* \"chapter7/tryCatch.sol\":276:285  _num >= 6 */\n      lt\n        /* \"chapter7/tryCatch.sol\":273:338  if(_num >= 6) {... */\n      tag_42\n      jumpi\n        /* \"chapter7/tryCatch.sol\":301:327  revert(\"_num should be 5\") */\n      mload(0x40)\n      0x08c379a000000000000000000000000000000000000000000000000000000000\n      dup2\n      mstore\n      0x04\n      add\n      tag_43\n      swap1\n      tag_44\n      jump\t// in\n    tag_43:\n      mload(0x40)\n      dup1\n      swap2\n      sub\n      swap1\n      revert\n        /* \"chapter7/tryCatch.sol\":273:338  if(_num >= 6) {... */\n    tag_42:\n        /* \"chapter7/tryCatch.sol\":358:359  4 */\n      0x04\n        /* \"chapter7/tryCatch.sol\":350:354  _num */\n      dup3\n        /* \"chapter7/tryCatch.sol\":350:359  _num <= 4 */\n      gt\n        /* \"chapter7/tryCatch.sol\":347:399  if(_num <= 4) {... */\n      tag_45\n      jumpi\n        /* \"chapter7/tryCatch.sol\":382:387  false */\n      0x00\n        /* \"chapter7/tryCatch.sol\":375:388  assert(false) */\n      tag_46\n      jumpi\n      tag_47\n      tag_48\n      jump\t// in\n    tag_47:\n    tag_46:\n        /* \"chapter7/tryCatch.sol\":347:399  if(_num <= 4) {... */\n    tag_45:\n        /* \"chapter7/tryCatch.sol\":415:416  5 */\n      0x05\n        /* \"chapter7/tryCatch.sol\":408:416  return 5 */\n      swap1\n      pop\n        /* \"chapter7/tryCatch.sol\":209:423  function output5(uint _num) public pure returns(uint) {... */\n      swap2\n      swap1\n      pop\n      jump\t// out\n        /* \"#utility.yul\":7:82   */\n    tag_49:\n        /* \"#utility.yul\":40:46   */\n      0x00\n        /* \"#utility.yul\":73:75   */\n      0x40\n        /* \"#utility.yul\":67:76   */\n      mload\n        /* \"#utility.yul\":57:76   */\n      swap1\n      pop\n        /* \"#utility.yul\":7:82   */\n      swap1\n      jump\t// out\n        /* \"#utility.yul\":88:205   */\n    tag_50:\n        /* \"#utility.yul\":197:198   */\n      0x00\n        /* \"#utility.yul\":194:195   */\n      dup1\n        /* \"#utility.yul\":187:199   */\n      revert\n        /* \"#utility.yul\":334:411   */\n    tag_52:\n        /* \"#utility.yul\":371:378   */\n      0x00\n        /* \"#utility.yul\":400:405   */\n      dup2\n        /* \"#utility.yul\":389:405   */\n      swap1\n      pop\n        /* \"#utility.yul\":334:411   */\n      swap2\n      swap1\n      pop\n      jump\t// out\n        /* \"#utility.yul\":417:539   */\n    tag_53:\n        /* \"#utility.yul\":490:514   */\n      tag_78\n        /* \"#utility.yul\":508:513   */\n      dup2\n        /* \"#utility.yul\":490:514   */\n      tag_52\n      jump\t// in\n    tag_78:\n        /* \"#utility.yul\":483:488   */\n      dup2\n        /* \"#utility.yul\":480:515   */\n      eq\n        /* \"#utility.yul\":470:533   */\n      tag_79\n      jumpi\n        /* \"#utility.yul\":529:530   */\n      0x00\n        /* \"#utility.yul\":526:527   */\n      dup1\n        /* \"#utility.yul\":519:531   */\n      revert\n        /* \"#utility.yul\":470:533   */\n    tag_79:\n        /* \"#utility.yul\":417:539   */\n      pop\n      jump\t// out\n        /* \"#utility.yul\":545:684   */\n    tag_54:\n        /* \"#utility.yul\":591:596   */\n      0x00\n        /* \"#utility.yul\":629:635   */\n      dup2\n        /* \"#utility.yul\":616:636   */\n      calldataload\n        /* \"#utility.yul\":607:636   */\n      swap1\n      pop\n        /* \"#utility.yul\":645:678   */\n      tag_81\n        /* \"#utility.yul\":672:677   */\n      dup2\n        /* \"#utility.yul\":645:678   */\n      tag_53\n      jump\t// in\n    tag_81:\n        /* \"#utility.yul\":545:684   */\n      swap3\n      swap2\n      pop\n      pop\n      jump\t// out\n        /* \"#utility.yul\":690:1019   */\n    tag_7:\n        /* \"#utility.yul\":749:755   */\n      0x00\n        /* \"#utility.yul\":798:800   */\n      0x20\n        /* \"#utility.yul\":786:795   */\n      dup3\n        /* \"#utility.yul\":777:784   */\n      dup5\n        /* \"#utility.yul\":773:796   */\n      sub\n        /* \"#utility.yul\":769:801   */\n      slt\n        /* \"#utility.yul\":766:885   */\n      iszero\n      tag_83\n      jumpi\n        /* \"#utility.yul\":804:883   */\n      tag_84\n      tag_50\n      jump\t// in\n    tag_84:\n        /* \"#utility.yul\":766:885   */\n    tag_83:\n        /* \"#utility.yul\":924:925   */\n      0x00\n        /* \"#utility.yul\":949:1002   */\n      tag_85\n        /* \"#utility.yul\":994:1001   */\n      dup5\n        /* \"#utility.yul\":985:991   */\n      dup3\n        /* \"#utility.yul\":974:983   */\n      dup6\n        /* \"#utility.yul\":970:992   */\n      add\n        /* \"#utility.yul\":949:1002   */\n      tag_54\n      jump\t// in\n    tag_85:\n        /* \"#utility.yul\":939:1002   */\n      swap2\n      pop\n        /* \"#utility.yul\":895:1012   */\n      pop\n        /* \"#utility.yul\":690:1019   */\n      swap3\n      swap2\n      pop\n      pop\n      jump\t// out\n        /* \"#utility.yul\":1025:1143   */\n    tag_55:\n        /* \"#utility.yul\":1112:1136   */\n      tag_87\n        /* \"#utility.yul\":1130:1135   */\n      dup2\n        /* \"#utility.yul\":1112:1136   */\n      tag_52\n      jump\t// in\n    tag_87:\n        /* \"#utility.yul\":1107:1110   */\n      dup3\n        /* \"#utility.yul\":1100:1137   */\n      mstore\n        /* \"#utility.yul\":1025:1143   */\n      pop\n      pop\n      jump\t// out\n        /* \"#utility.yul\":1149:1239   */\n    tag_56:\n        /* \"#utility.yul\":1183:1190   */\n      0x00\n        /* \"#utility.yul\":1226:1231   */\n      dup2\n        /* \"#utility.yul\":1219:1232   */\n      iszero\n        /* \"#utility.yul\":1212:1233   */\n      iszero\n        /* \"#utility.yul\":1201:1233   */\n      swap1\n      pop\n        /* \"#utility.yul\":1149:1239   */\n      swap2\n      swap1\n      pop\n      jump\t// out\n        /* \"#utility.yul\":1245:1354   */\n    tag_57:\n        /* \"#utility.yul\":1326:1347   */\n      tag_90\n        /* \"#utility.yul\":1341:1346   */\n      dup2\n        /* \"#utility.yul\":1326:1347   */\n      tag_56\n      jump\t// in\n    tag_90:\n        /* \"#utility.yul\":1321:1324   */\n      dup3\n        /* \"#utility.yul\":1314:1348   */\n      mstore\n        /* \"#utility.yul\":1245:1354   */\n      pop\n      pop\n      jump\t// out\n        /* \"#utility.yul\":1360:1680   */\n    tag_10:\n        /* \"#utility.yul\":1475:1479   */\n      0x00\n        /* \"#utility.yul\":1513:1515   */\n      0x40\n        /* \"#utility.yul\":1502:1511   */\n      dup3\n        /* \"#utility.yul\":1498:1516   */\n      add\n        /* \"#utility.yul\":1490:1516   */\n      swap1\n      pop\n        /* \"#utility.yul\":1526:1597   */\n      tag_92\n        /* \"#utility.yul\":1594:1595   */\n      0x00\n        /* \"#utility.yul\":1583:1592   */\n      dup4\n        /* \"#utility.yul\":1579:1596   */\n      add\n        /* \"#utility.yul\":1570:1576   */\n      dup6\n        /* \"#utility.yul\":1526:1597   */\n      tag_55\n      jump\t// in\n    tag_92:\n        /* \"#utility.yul\":1607:1673   */\n      tag_93\n        /* \"#utility.yul\":1669:1671   */\n      0x20\n        /* \"#utility.yul\":1658:1667   */\n      dup4\n        /* \"#utility.yul\":1654:1672   */\n      add\n        /* \"#utility.yul\":1645:1651   */\n      dup5\n        /* \"#utility.yul\":1607:1673   */\n      tag_57\n      jump\t// in\n    tag_93:\n        /* \"#utility.yul\":1360:1680   */\n      swap4\n      swap3\n      pop\n      pop\n      pop\n      jump\t// out\n        /* \"#utility.yul\":1686:1908   */\n    tag_15:\n        /* \"#utility.yul\":1779:1783   */\n      0x00\n        /* \"#utility.yul\":1817:1819   */\n      0x20\n        /* \"#utility.yul\":1806:1815   */\n      dup3\n        /* \"#utility.yul\":1802:1820   */\n      add\n        /* \"#utility.yul\":1794:1820   */\n      swap1\n      pop\n        /* \"#utility.yul\":1830:1901   */\n      tag_95\n        /* \"#utility.yul\":1898:1899   */\n      0x00\n        /* \"#utility.yul\":1887:1896   */\n      dup4\n        /* \"#utility.yul\":1883:1900   */\n      add\n        /* \"#utility.yul\":1874:1880   */\n      dup5\n        /* \"#utility.yul\":1830:1901   */\n      tag_55\n      jump\t// in\n    tag_95:\n        /* \"#utility.yul\":1686:1908   */\n      swap3\n      swap2\n      pop\n      pop\n      jump\t// out\n        /* \"#utility.yul\":1914:2057   */\n    tag_58:\n        /* \"#utility.yul\":1971:1976   */\n      0x00\n        /* \"#utility.yul\":2002:2008   */\n      dup2\n        /* \"#utility.yul\":1996:2009   */\n      mload\n        /* \"#utility.yul\":1987:2009   */\n      swap1\n      pop\n        /* \"#utility.yul\":2018:2051   */\n      tag_97\n        /* \"#utility.yul\":2045:2050   */\n      dup2\n        /* \"#utility.yul\":2018:2051   */\n      tag_53\n      jump\t// in\n    tag_97:\n        /* \"#utility.yul\":1914:2057   */\n      swap3\n      swap2\n      pop\n      pop\n      jump\t// out\n        /* \"#utility.yul\":2063:2414   */\n    tag_20:\n        /* \"#utility.yul\":2133:2139   */\n      0x00\n        /* \"#utility.yul\":2182:2184   */\n      0x20\n        /* \"#utility.yul\":2170:2179   */\n      dup3\n        /* \"#utility.yul\":2161:2168   */\n      dup5\n        /* \"#utility.yul\":2157:2180   */\n      sub\n        /* \"#utility.yul\":2153:2185   */\n      slt\n        /* \"#utility.yul\":2150:2269   */\n      iszero\n      tag_99\n      jumpi\n        /* \"#utility.yul\":2188:2267   */\n      tag_100\n      tag_50\n      jump\t// in\n    tag_100:\n        /* \"#utility.yul\":2150:2269   */\n    tag_99:\n        /* \"#utility.yul\":2308:2309   */\n      0x00\n        /* \"#utility.yul\":2333:2397   */\n      tag_101\n        /* \"#utility.yul\":2389:2396   */\n      dup5\n        /* \"#utility.yul\":2380:2386   */\n      dup3\n        /* \"#utility.yul\":2369:2378   */\n      dup6\n        /* \"#utility.yul\":2365:2387   */\n      add\n        /* \"#utility.yul\":2333:2397   */\n      tag_58\n      jump\t// in\n    tag_101:\n        /* \"#utility.yul\":2323:2397   */\n      swap2\n      pop\n        /* \"#utility.yul\":2279:2407   */\n      pop\n        /* \"#utility.yul\":2063:2414   */\n      swap3\n      swap2\n      pop\n      pop\n      jump\t// out\n        /* \"#utility.yul\":2420:2526   */\n    tag_59:\n        /* \"#utility.yul\":2464:2472   */\n      0x00\n        /* \"#utility.yul\":2513:2518   */\n      dup2\n        /* \"#utility.yul\":2508:2511   */\n      0xe0\n        /* \"#utility.yul\":2504:2519   */\n      shr\n        /* \"#utility.yul\":2483:2519   */\n      swap1\n      pop\n        /* \"#utility.yul\":2420:2526   */\n      swap2\n      swap1\n      pop\n      jump\t// out\n        /* \"#utility.yul\":2532:2715   */\n    tag_26:\n        /* \"#utility.yul\":2567:2570   */\n      0x00\n        /* \"#utility.yul\":2605:2606   */\n      0x03\n        /* \"#utility.yul\":2587:2603   */\n      returndatasize\n        /* \"#utility.yul\":2584:2607   */\n      gt\n        /* \"#utility.yul\":2581:2709   */\n      iszero\n      tag_104\n      jumpi\n        /* \"#utility.yul\":2643:2644   */\n      0x04\n        /* \"#utility.yul\":2640:2641   */\n      0x00\n        /* \"#utility.yul\":2637:2638   */\n      dup1\n        /* \"#utility.yul\":2622:2645   */\n      returndatacopy\n        /* \"#utility.yul\":2665:2699   */\n      tag_105\n        /* \"#utility.yul\":2696:2697   */\n      0x00\n        /* \"#utility.yul\":2690:2698   */\n      mload\n        /* \"#utility.yul\":2665:2699   */\n      tag_59\n      jump\t// in\n    tag_105:\n        /* \"#utility.yul\":2658:2699   */\n      swap1\n      pop\n        /* \"#utility.yul\":2581:2709   */\n    tag_104:\n        /* \"#utility.yul\":2532:2715   */\n      swap1\n      jump\t// out\n        /* \"#utility.yul\":2721:2823   */\n    tag_60:\n        /* \"#utility.yul\":2762:2768   */\n      0x00\n        /* \"#utility.yul\":2813:2815   */\n      0x1f\n        /* \"#utility.yul\":2809:2816   */\n      not\n        /* \"#utility.yul\":2804:2806   */\n      0x1f\n        /* \"#utility.yul\":2797:2802   */\n      dup4\n        /* \"#utility.yul\":2793:2807   */\n      add\n        /* \"#utility.yul\":2789:2817   */\n      and\n        /* \"#utility.yul\":2779:2817   */\n      swap1\n      pop\n        /* \"#utility.yul\":2721:2823   */\n      swap2\n      swap1\n      pop\n      jump\t// out\n        /* \"#utility.yul\":2829:3009   */\n    tag_61:\n        /* \"#utility.yul\":2877:2954   */\n      0x4e487b7100000000000000000000000000000000000000000000000000000000\n        /* \"#utility.yul\":2874:2875   */\n      0x00\n        /* \"#utility.yul\":2867:2955   */\n      mstore\n        /* \"#utility.yul\":2974:2978   */\n      0x41\n        /* \"#utility.yul\":2971:2972   */\n      0x04\n        /* \"#utility.yul\":2964:2979   */\n      mstore\n        /* \"#utility.yul\":2998:3002   */\n      0x24\n        /* \"#utility.yul\":2995:2996   */\n      0x00\n        /* \"#utility.yul\":2988:3003   */\n      revert\n        /* \"#utility.yul\":3015:3296   */\n    tag_62:\n        /* \"#utility.yul\":3098:3125   */\n      tag_109\n        /* \"#utility.yul\":3120:3124   */\n      dup3\n        /* \"#utility.yul\":3098:3125   */\n      tag_60\n      jump\t// in\n    tag_109:\n        /* \"#utility.yul\":3090:3096   */\n      dup2\n        /* \"#utility.yul\":3086:3126   */\n      add\n        /* \"#utility.yul\":3228:3234   */\n      dup2\n        /* \"#utility.yul\":3216:3226   */\n      dup2\n        /* \"#utility.yul\":3213:3235   */\n      lt\n        /* \"#utility.yul\":3192:3210   */\n      0xffffffffffffffff\n        /* \"#utility.yul\":3180:3190   */\n      dup3\n        /* \"#utility.yul\":3177:3211   */\n      gt\n        /* \"#utility.yul\":3174:3236   */\n      or\n        /* \"#utility.yul\":3171:3259   */\n      iszero\n      tag_110\n      jumpi\n        /* \"#utility.yul\":3239:3257   */\n      tag_111\n      tag_61\n      jump\t// in\n    tag_111:\n        /* \"#utility.yul\":3171:3259   */\n    tag_110:\n        /* \"#utility.yul\":3279:3289   */\n      dup1\n        /* \"#utility.yul\":3275:3277   */\n      0x40\n        /* \"#utility.yul\":3268:3290   */\n      mstore\n        /* \"#utility.yul\":3058:3296   */\n      pop\n        /* \"#utility.yul\":3015:3296   */\n      pop\n      pop\n      jump\t// out\n        /* \"#utility.yul\":3302:4013   */\n    tag_28:\n        /* \"#utility.yul\":3341:3344   */\n      0x00\n        /* \"#utility.yul\":3379:3383   */\n      0x44\n        /* \"#utility.yul\":3361:3377   */\n      returndatasize\n        /* \"#utility.yul\":3358:3384   */\n      lt\n        /* \"#utility.yul\":3387:3392   */\n      tag_112\n        /* \"#utility.yul\":3355:3394   */\n      jumpi\n        /* \"#utility.yul\":3416:3436   */\n      tag_114\n      tag_49\n      jump\t// in\n    tag_114:\n        /* \"#utility.yul\":3491:3492   */\n      0x04\n        /* \"#utility.yul\":3473:3489   */\n      returndatasize\n        /* \"#utility.yul\":3469:3493   */\n      sub\n        /* \"#utility.yul\":3466:3467   */\n      0x04\n        /* \"#utility.yul\":3460:3464   */\n      dup3\n        /* \"#utility.yul\":3445:3494   */\n      returndatacopy\n        /* \"#utility.yul\":3524:3528   */\n      dup1\n        /* \"#utility.yul\":3518:3529   */\n      mload\n        /* \"#utility.yul\":3623:3639   */\n      returndatasize\n        /* \"#utility.yul\":3616:3620   */\n      0x24\n        /* \"#utility.yul\":3608:3614   */\n      dup3\n        /* \"#utility.yul\":3604:3621   */\n      add\n        /* \"#utility.yul\":3601:3640   */\n      gt\n        /* \"#utility.yul\":3568:3586   */\n      0xffffffffffffffff\n        /* \"#utility.yul\":3560:3566   */\n      dup3\n        /* \"#utility.yul\":3557:3587   */\n      gt\n        /* \"#utility.yul\":3541:3654   */\n      or\n        /* \"#utility.yul\":3538:3684   */\n      iszero\n      tag_115\n      jumpi\n        /* \"#utility.yul\":3669:3674   */\n      pop\n      pop\n      jump(tag_112)\n        /* \"#utility.yul\":3538:3684   */\n    tag_115:\n        /* \"#utility.yul\":3715:3721   */\n      dup1\n        /* \"#utility.yul\":3709:3713   */\n      dup3\n        /* \"#utility.yul\":3705:3722   */\n      add\n        /* \"#utility.yul\":3751:3754   */\n      dup1\n        /* \"#utility.yul\":3745:3755   */\n      mload\n        /* \"#utility.yul\":3778:3796   */\n      0xffffffffffffffff\n        /* \"#utility.yul\":3770:3776   */\n      dup2\n        /* \"#utility.yul\":3767:3797   */\n      gt\n        /* \"#utility.yul\":3764:3807   */\n      iszero\n      tag_116\n      jumpi\n        /* \"#utility.yul\":3800:3805   */\n      pop\n      pop\n      pop\n      pop\n      jump(tag_112)\n        /* \"#utility.yul\":3764:3807   */\n    tag_116:\n        /* \"#utility.yul\":3848:3854   */\n      dup1\n        /* \"#utility.yul\":3841:3845   */\n      0x20\n        /* \"#utility.yul\":3836:3839   */\n      dup4\n        /* \"#utility.yul\":3832:3846   */\n      add\n        /* \"#utility.yul\":3828:3855   */\n      add\n        /* \"#utility.yul\":3907:3908   */\n      0x04\n        /* \"#utility.yul\":3889:3905   */\n      returndatasize\n        /* \"#utility.yul\":3885:3909   */\n      sub\n        /* \"#utility.yul\":3879:3883   */\n      dup6\n        /* \"#utility.yul\":3875:3910   */\n      add\n        /* \"#utility.yul\":3870:3873   */\n      dup2\n        /* \"#utility.yul\":3867:3911   */\n      gt\n        /* \"#utility.yul\":3864:3921   */\n      iszero\n      tag_117\n      jumpi\n        /* \"#utility.yul\":3914:3919   */\n      pop\n      pop\n      pop\n      pop\n      pop\n      jump(tag_112)\n        /* \"#utility.yul\":3864:3921   */\n    tag_117:\n        /* \"#utility.yul\":3931:3988   */\n      tag_118\n        /* \"#utility.yul\":3979:3985   */\n      dup3\n        /* \"#utility.yul\":3973:3977   */\n      0x20\n        /* \"#utility.yul\":3969:3986   */\n      add\n        /* \"#utility.yul\":3961:3967   */\n      dup6\n        /* \"#utility.yul\":3957:3987   */\n      add\n        /* \"#utility.yul\":3951:3955   */\n      dup7\n        /* \"#utility.yul\":3931:3988   */\n      tag_62\n      jump\t// in\n    tag_118:\n        /* \"#utility.yul\":4004:4007   */\n      dup3\n        /* \"#utility.yul\":3997:4007   */\n      swap6\n      pop\n        /* \"#utility.yul\":3345:4013   */\n      pop\n      pop\n      pop\n      pop\n      pop\n        /* \"#utility.yul\":3302:4013   */\n    tag_112:\n      swap1\n      jump\t// out\n        /* \"#utility.yul\":4019:4118   */\n    tag_63:\n        /* \"#utility.yul\":4071:4077   */\n      0x00\n        /* \"#utility.yul\":4105:4110   */\n      dup2\n        /* \"#utility.yul\":4099:4111   */\n      mload\n        /* \"#utility.yul\":4089:4111   */\n      swap1\n      pop\n        /* \"#utility.yul\":4019:4118   */\n      swap2\n      swap1\n      pop\n      jump\t// out\n        /* \"#utility.yul\":4124:4293   */\n    tag_64:\n        /* \"#utility.yul\":4208:4219   */\n      0x00\n        /* \"#utility.yul\":4242:4248   */\n      dup3\n        /* \"#utility.yul\":4237:4240   */\n      dup3\n        /* \"#utility.yul\":4230:4249   */\n      mstore\n        /* \"#utility.yul\":4282:4286   */\n      0x20\n        /* \"#utility.yul\":4277:4280   */\n      dup3\n        /* \"#utility.yul\":4273:4287   */\n      add\n        /* \"#utility.yul\":4258:4287   */\n      swap1\n      pop\n        /* \"#utility.yul\":4124:4293   */\n      swap3\n      swap2\n      pop\n      pop\n      jump\t// out\n        /* \"#utility.yul\":4299:4545   */\n    tag_65:\n        /* \"#utility.yul\":4380:4381   */\n      0x00\n        /* \"#utility.yul\":4390:4503   */\n    tag_122:\n        /* \"#utility.yul\":4404:4410   */\n      dup4\n        /* \"#utility.yul\":4401:4402   */\n      dup2\n        /* \"#utility.yul\":4398:4411   */\n      lt\n        /* \"#utility.yul\":4390:4503   */\n      iszero\n      tag_124\n      jumpi\n        /* \"#utility.yul\":4489:4490   */\n      dup1\n        /* \"#utility.yul\":4484:4487   */\n      dup3\n        /* \"#utility.yul\":4480:4491   */\n      add\n        /* \"#utility.yul\":4474:4492   */\n      mload\n        /* \"#utility.yul\":4470:4471   */\n      dup2\n        /* \"#utility.yul\":4465:4468   */\n      dup5\n        /* \"#utility.yul\":4461:4472   */\n      add\n        /* \"#utility.yul\":4454:4493   */\n      mstore\n        /* \"#utility.yul\":4426:4428   */\n      0x20\n        /* \"#utility.yul\":4423:4424   */\n      dup2\n        /* \"#utility.yul\":4419:4429   */\n      add\n        /* \"#utility.yul\":4414:4429   */\n      swap1\n      pop\n        /* \"#utility.yul\":4390:4503   */\n      jump(tag_122)\n    tag_124:\n        /* \"#utility.yul\":4537:4538   */\n      0x00\n        /* \"#utility.yul\":4528:4534   */\n      dup5\n        /* \"#utility.yul\":4523:4526   */\n      dup5\n        /* \"#utility.yul\":4519:4535   */\n      add\n        /* \"#utility.yul\":4512:4539   */\n      mstore\n        /* \"#utility.yul\":4361:4545   */\n      pop\n        /* \"#utility.yul\":4299:4545   */\n      pop\n      pop\n      pop\n      jump\t// out\n        /* \"#utility.yul\":4551:4928   */\n    tag_66:\n        /* \"#utility.yul\":4639:4642   */\n      0x00\n        /* \"#utility.yul\":4667:4706   */\n      tag_126\n        /* \"#utility.yul\":4700:4705   */\n      dup3\n        /* \"#utility.yul\":4667:4706   */\n      tag_63\n      jump\t// in\n    tag_126:\n        /* \"#utility.yul\":4722:4793   */\n      tag_127\n        /* \"#utility.yul\":4786:4792   */\n      dup2\n        /* \"#utility.yul\":4781:4784   */\n      dup6\n        /* \"#utility.yul\":4722:4793   */\n      tag_64\n      jump\t// in\n    tag_127:\n        /* \"#utility.yul\":4715:4793   */\n      swap4\n      pop\n        /* \"#utility.yul\":4802:4867   */\n      tag_128\n        /* \"#utility.yul\":4860:4866   */\n      dup2\n        /* \"#utility.yul\":4855:4858   */\n      dup6\n        /* \"#utility.yul\":4848:4852   */\n      0x20\n        /* \"#utility.yul\":4841:4846   */\n      dup7\n        /* \"#utility.yul\":4837:4853   */\n      add\n        /* \"#utility.yul\":4802:4867   */\n      tag_65\n      jump\t// in\n    tag_128:\n        /* \"#utility.yul\":4892:4921   */\n      tag_129\n        /* \"#utility.yul\":4914:4920   */\n      dup2\n        /* \"#utility.yul\":4892:4921   */\n      tag_60\n      jump\t// in\n    tag_129:\n        /* \"#utility.yul\":4887:4890   */\n      dup5\n        /* \"#utility.yul\":4883:4922   */\n      add\n        /* \"#utility.yul\":4876:4922   */\n      swap2\n      pop\n        /* \"#utility.yul\":4643:4928   */\n      pop\n        /* \"#utility.yul\":4551:4928   */\n      swap3\n      swap2\n      pop\n      pop\n      jump\t// out\n        /* \"#utility.yul\":4934:5247   */\n    tag_31:\n        /* \"#utility.yul\":5047:5051   */\n      0x00\n        /* \"#utility.yul\":5085:5087   */\n      0x20\n        /* \"#utility.yul\":5074:5083   */\n      dup3\n        /* \"#utility.yul\":5070:5088   */\n      add\n        /* \"#utility.yul\":5062:5088   */\n      swap1\n      pop\n        /* \"#utility.yul\":5134:5143   */\n      dup2\n        /* \"#utility.yul\":5128:5132   */\n      dup2\n        /* \"#utility.yul\":5124:5144   */\n      sub\n        /* \"#utility.yul\":5120:5121   */\n      0x00\n        /* \"#utility.yul\":5109:5118   */\n      dup4\n        /* \"#utility.yul\":5105:5122   */\n      add\n        /* \"#utility.yul\":5098:5145   */\n      mstore\n        /* \"#utility.yul\":5162:5240   */\n      tag_131\n        /* \"#utility.yul\":5235:5239   */\n      dup2\n        /* \"#utility.yul\":5226:5232   */\n      dup5\n        /* \"#utility.yul\":5162:5240   */\n      tag_66\n      jump\t// in\n    tag_131:\n        /* \"#utility.yul\":5154:5240   */\n      swap1\n      pop\n        /* \"#utility.yul\":4934:5247   */\n      swap3\n      swap2\n      pop\n      pop\n      jump\t// out\n        /* \"#utility.yul\":5253:5453   */\n    tag_33:\n        /* \"#utility.yul\":5289:5296   */\n      0x00\n        /* \"#utility.yul\":5298:5302   */\n      dup1\n        /* \"#utility.yul\":5337:5341   */\n      0x23\n        /* \"#utility.yul\":5319:5335   */\n      returndatasize\n        /* \"#utility.yul\":5316:5342   */\n      gt\n        /* \"#utility.yul\":5313:5447   */\n      iszero\n      tag_133\n      jumpi\n        /* \"#utility.yul\":5378:5382   */\n      0x20\n        /* \"#utility.yul\":5375:5376   */\n      0x04\n        /* \"#utility.yul\":5372:5373   */\n      0x00\n        /* \"#utility.yul\":5357:5383   */\n      returndatacopy\n        /* \"#utility.yul\":5407:5408   */\n      0x01\n        /* \"#utility.yul\":5396:5408   */\n      swap2\n      pop\n        /* \"#utility.yul\":5435:5436   */\n      0x00\n        /* \"#utility.yul\":5429:5437   */\n      mload\n        /* \"#utility.yul\":5421:5437   */\n      swap1\n      pop\n        /* \"#utility.yul\":5313:5447   */\n    tag_133:\n        /* \"#utility.yul\":5253:5453   */\n      swap1\n      swap2\n      jump\t// out\n        /* \"#utility.yul\":5459:5557   */\n    tag_67:\n        /* \"#utility.yul\":5510:5516   */\n      0x00\n        /* \"#utility.yul\":5544:5549   */\n      dup2\n        /* \"#utility.yul\":5538:5550   */\n      mload\n        /* \"#utility.yul\":5528:5550   */\n      swap1\n      pop\n        /* \"#utility.yul\":5459:5557   */\n      swap2\n      swap1\n      pop\n      jump\t// out\n        /* \"#utility.yul\":5563:5731   */\n    tag_68:\n        /* \"#utility.yul\":5646:5657   */\n      0x00\n        /* \"#utility.yul\":5680:5686   */\n      dup3\n        /* \"#utility.yul\":5675:5678   */\n      dup3\n        /* \"#utility.yul\":5668:5687   */\n      mstore\n        /* \"#utility.yul\":5720:5724   */\n      0x20\n        /* \"#utility.yul\":5715:5718   */\n      dup3\n        /* \"#utility.yul\":5711:5725   */\n      add\n        /* \"#utility.yul\":5696:5725   */\n      swap1\n      pop\n        /* \"#utility.yul\":5563:5731   */\n      swap3\n      swap2\n      pop\n      pop\n      jump\t// out\n        /* \"#utility.yul\":5737:6110   */\n    tag_69:\n        /* \"#utility.yul\":5823:5826   */\n      0x00\n        /* \"#utility.yul\":5851:5889   */\n      tag_137\n        /* \"#utility.yul\":5883:5888   */\n      dup3\n        /* \"#utility.yul\":5851:5889   */\n      tag_67\n      jump\t// in\n    tag_137:\n        /* \"#utility.yul\":5905:5975   */\n      tag_138\n        /* \"#utility.yul\":5968:5974   */\n      dup2\n        /* \"#utility.yul\":5963:5966   */\n      dup6\n        /* \"#utility.yul\":5905:5975   */\n      tag_68\n      jump\t// in\n    tag_138:\n        /* \"#utility.yul\":5898:5975   */\n      swap4\n      pop\n        /* \"#utility.yul\":5984:6049   */\n      tag_139\n        /* \"#utility.yul\":6042:6048   */\n      dup2\n        /* \"#utility.yul\":6037:6040   */\n      dup6\n        /* \"#utility.yul\":6030:6034   */\n      0x20\n        /* \"#utility.yul\":6023:6028   */\n      dup7\n        /* \"#utility.yul\":6019:6035   */\n      add\n        /* \"#utility.yul\":5984:6049   */\n      tag_65\n      jump\t// in\n    tag_139:\n        /* \"#utility.yul\":6074:6103   */\n      tag_140\n        /* \"#utility.yul\":6096:6102   */\n      dup2\n        /* \"#utility.yul\":6074:6103   */\n      tag_60\n      jump\t// in\n    tag_140:\n        /* \"#utility.yul\":6069:6072   */\n      dup5\n        /* \"#utility.yul\":6065:6104   */\n      add\n        /* \"#utility.yul\":6058:6104   */\n      swap2\n      pop\n        /* \"#utility.yul\":5827:6110   */\n      pop\n        /* \"#utility.yul\":5737:6110   */\n      swap3\n      swap2\n      pop\n      pop\n      jump\t// out\n        /* \"#utility.yul\":6116:6425   */\n    tag_39:\n        /* \"#utility.yul\":6227:6231   */\n      0x00\n        /* \"#utility.yul\":6265:6267   */\n      0x20\n        /* \"#utility.yul\":6254:6263   */\n      dup3\n        /* \"#utility.yul\":6250:6268   */\n      add\n        /* \"#utility.yul\":6242:6268   */\n      swap1\n      pop\n        /* \"#utility.yul\":6314:6323   */\n      dup2\n        /* \"#utility.yul\":6308:6312   */\n      dup2\n        /* \"#utility.yul\":6304:6324   */\n      sub\n        /* \"#utility.yul\":6300:6301   */\n      0x00\n        /* \"#utility.yul\":6289:6298   */\n      dup4\n        /* \"#utility.yul\":6285:6302   */\n      add\n        /* \"#utility.yul\":6278:6325   */\n      mstore\n        /* \"#utility.yul\":6342:6418   */\n      tag_142\n        /* \"#utility.yul\":6413:6417   */\n      dup2\n        /* \"#utility.yul\":6404:6410   */\n      dup5\n        /* \"#utility.yul\":6342:6418   */\n      tag_69\n      jump\t// in\n    tag_142:\n        /* \"#utility.yul\":6334:6418   */\n      swap1\n      pop\n        /* \"#utility.yul\":6116:6425   */\n      swap3\n      swap2\n      pop\n      pop\n      jump\t// out\n        /* \"#utility.yul\":6431:6597   */\n    tag_70:\n        /* \"#utility.yul\":6571:6589   */\n      0x5f6e756d2073686f756c64206265203500000000000000000000000000000000\n        /* \"#utility.yul\":6567:6568   */\n      0x00\n        /* \"#utility.yul\":6559:6565   */\n      dup3\n        /* \"#utility.yul\":6555:6569   */\n      add\n        /* \"#utility.yul\":6548:6590   */\n      mstore\n        /* \"#utility.yul\":6431:6597   */\n      pop\n      jump\t// out\n        /* \"#utility.yul\":6603:6969   */\n    tag_71:\n        /* \"#utility.yul\":6745:6748   */\n      0x00\n        /* \"#utility.yul\":6766:6833   */\n      tag_145\n        /* \"#utility.yul\":6830:6832   */\n      0x10\n        /* \"#utility.yul\":6825:6828   */\n      dup4\n        /* \"#utility.yul\":6766:6833   */\n      tag_64\n      jump\t// in\n    tag_145:\n        /* \"#utility.yul\":6759:6833   */\n      swap2\n      pop\n        /* \"#utility.yul\":6842:6935   */\n      tag_146\n        /* \"#utility.yul\":6931:6934   */\n      dup3\n        /* \"#utility.yul\":6842:6935   */\n      tag_70\n      jump\t// in\n    tag_146:\n        /* \"#utility.yul\":6960:6962   */\n      0x20\n        /* \"#utility.yul\":6955:6958   */\n      dup3\n        /* \"#utility.yul\":6951:6963   */\n      add\n        /* \"#utility.yul\":6944:6963   */\n      swap1\n      pop\n        /* \"#utility.yul\":6603:6969   */\n      swap2\n      swap1\n      pop\n      jump\t// out\n        /* \"#utility.yul\":6975:7394   */\n    tag_44:\n        /* \"#utility.yul\":7141:7145   */\n      0x00\n        /* \"#utility.yul\":7179:7181   */\n      0x20\n        /* \"#utility.yul\":7168:7177   */\n      dup3\n        /* \"#utility.yul\":7164:7182   */\n      add\n        /* \"#utility.yul\":7156:7182   */\n      swap1\n      pop\n        /* \"#utility.yul\":7228:7237   */\n      dup2\n        /* \"#utility.yul\":7222:7226   */\n      dup2\n        /* \"#utility.yul\":7218:7238   */\n      sub\n        /* \"#utility.yul\":7214:7215   */\n      0x00\n        /* \"#utility.yul\":7203:7212   */\n      dup4\n        /* \"#utility.yul\":7199:7216   */\n      add\n        /* \"#utility.yul\":7192:7239   */\n      mstore\n        /* \"#utility.yul\":7256:7387   */\n      tag_148\n        /* \"#utility.yul\":7382:7386   */\n      dup2\n        /* \"#utility.yul\":7256:7387   */\n      tag_71\n      jump\t// in\n    tag_148:\n        /* \"#utility.yul\":7248:7387   */\n      swap1\n      pop\n        /* \"#utility.yul\":6975:7394   */\n      swap2\n      swap1\n      pop\n      jump\t// out\n        /* \"#utility.yul\":7400:7580   */\n    tag_48:\n        /* \"#utility.yul\":7448:7525   */\n      0x4e487b7100000000000000000000000000000000000000000000000000000000\n        /* \"#utility.yul\":7445:7446   */\n      0x00\n        /* \"#utility.yul\":7438:7526   */\n      mstore\n        /* \"#utility.yul\":7545:7549   */\n      0x01\n        /* \"#utility.yul\":7542:7543   */\n      0x04\n        /* \"#utility.yul\":7535:7550   */\n      mstore\n        /* \"#utility.yul\":7569:7573   */\n      0x24\n        /* \"#utility.yul\":7566:7567   */\n      0x00\n        /* \"#utility.yul\":7559:7574   */\n      revert\n\n    auxdata: 0xa264697066735822122089b1f0fd103a42661e43062da1dfe0a33a6d7702a0a09e0fe50c8c2877e8fe1864736f6c63430008120033\n}\n",
				"bytecode": {
					"linkReferences": {},
					"object": "608060405234801561001057600080fd5b50610728806100206000396000f3fe608060405234801561001057600080fd5b50600436106100365760003560e01c806368e90a9e1461003b5780638475016b1461006c575b600080fd5b61005560048036038101906100509190610311565b61009c565b604051610063929190610368565b60405180910390f35b61008660048036038101906100819190610311565b610266565b6040516100939190610391565b60405180910390f35b6000803073ffffffffffffffffffffffffffffffffffffffff16638475016b846040518263ffffffff1660e01b81526004016100d89190610391565b602060405180830381865afa92505050801561011257506040513d601f19601f8201168201806040525081019061010f91906103c1565b60015b6102585761011e6103fb565b806308c379a003610181575061013261048e565b8061013d57506101e2565b7f316d4704ca18e103252abce7d81e53dfdec9859f9e0a639ccd9c332effb08d6e8160405161016c919061059d565b60405180910390a16000809250925050610261565b634e487b71036101e2576101936105bf565b9061019e57506101e2565b7ff0a3d11b86dc0859fa4e51d2dea2035f3649d433b5b4ec57925b58c9a5fac0c1816040516101cd9190610391565b60405180910390a16000809250925050610261565b3d806000811461020e576040519150601f19603f3d011682016040523d82523d6000602084013e610213565b606091505b507f11630be05199a3e4c6abf1bfe27413bcfe3cd3058442e7143637d96af091baa4816040516102439190610635565b60405180910390a16000809250925050610261565b80600192509250505b915091565b6000600682106102ab576040517f08c379a00000000000000000000000000000000000000000000000000000000081526004016102a2906106a3565b60405180910390fd5b600482116102c35760006102c2576102c16106c3565b5b5b60059050919050565b6000604051905090565b600080fd5b6000819050919050565b6102ee816102db565b81146102f957600080fd5b50565b60008135905061030b816102e5565b92915050565b600060208284031215610327576103266102d6565b5b6000610335848285016102fc565b91505092915050565b610347816102db565b82525050565b60008115159050919050565b6103628161034d565b82525050565b600060408201905061037d600083018561033e565b61038a6020830184610359565b9392505050565b60006020820190506103a6600083018461033e565b92915050565b6000815190506103bb816102e5565b92915050565b6000602082840312156103d7576103d66102d6565b5b60006103e5848285016103ac565b91505092915050565b60008160e01c9050919050565b600060033d111561041a5760046000803e6104176000516103ee565b90505b90565b6000601f19601f8301169050919050565b7f4e487b7100000000000000000000000000000000000000000000000000000000600052604160045260246000fd5b6104668261041d565b810181811067ffffffffffffffff821117156104855761048461042e565b5b80604052505050565b600060443d1061051b576104a06102cc565b60043d036004823e80513d602482011167ffffffffffffffff821117156104c857505061051b565b808201805167ffffffffffffffff8111156104e6575050505061051b565b80602083010160043d03850181111561050357505050505061051b565b6105128260200185018661045d565b82955050505050505b90565b600081519050919050565b600082825260208201905092915050565b60005b8381101561055857808201518184015260208101905061053d565b60008484015250505050565b600061056f8261051e565b6105798185610529565b935061058981856020860161053a565b6105928161041d565b840191505092915050565b600060208201905081810360008301526105b78184610564565b905092915050565b60008060233d11156105dc576020600460003e6001915060005190505b9091565b600081519050919050565b600082825260208201905092915050565b6000610607826105e0565b61061181856105eb565b935061062181856020860161053a565b61062a8161041d565b840191505092915050565b6000602082019050818103600083015261064f81846105fc565b905092915050565b7f5f6e756d2073686f756c64206265203500000000000000000000000000000000600082015250565b600061068d601083610529565b915061069882610657565b602082019050919050565b600060208201905081810360008301526106bc81610680565b9050919050565b7f4e487b7100000000000000000000000000000000000000000000000000000000600052600160045260246000fdfea264697066735822122089b1f0fd103a42661e43062da1dfe0a33a6d7702a0a09e0fe50c8c2877e8fe1864736f6c63430008120033",
					"opcodes": "PUSH1 0x80 PUSH1 0x40 MSTORE CALLVALUE DUP1 ISZERO PUSH2 0x10 JUMPI PUSH1 0x0 DUP1 REVERT JUMPDEST POP PUSH2 0x728 DUP1 PUSH2 0x20 PUSH1 0x0 CODECOPY PUSH1 0x0 RETURN INVALID PUSH1 0x80 PUSH1 0x40 MSTORE CALLVALUE DUP1 ISZERO PUSH2 0x10 JUMPI PUSH1 0x0 DUP1 REVERT JUMPDEST POP PUSH1 0x4 CALLDATASIZE LT PUSH2 0x36 JUMPI PUSH1 0x0 CALLDATALOAD PUSH1 0xE0 SHR DUP1 PUSH4 0x68E90A9E EQ PUSH2 0x3B JUMPI DUP1 PUSH4 0x8475016B EQ PUSH2 0x6C JUMPI JUMPDEST PUSH1 0x0 DUP1 REVERT JUMPDEST PUSH2 0x55 PUSH1 0x4 DUP1 CALLDATASIZE SUB DUP2 ADD SWAP1 PUSH2 0x50 SWAP2 SWAP1 PUSH2 0x311 JUMP JUMPDEST PUSH2 0x9C JUMP JUMPDEST PUSH1 0x40 MLOAD PUSH2 0x63 SWAP3 SWAP2 SWAP1 PUSH2 0x368 JUMP JUMPDEST PUSH1 0x40 MLOAD DUP1 SWAP2 SUB SWAP1 RETURN JUMPDEST PUSH2 0x86 PUSH1 0x4 DUP1 CALLDATASIZE SUB DUP2 ADD SWAP1 PUSH2 0x81 SWAP2 SWAP1 PUSH2 0x311 JUMP JUMPDEST PUSH2 0x266 JUMP JUMPDEST PUSH1 0x40 MLOAD PUSH2 0x93 SWAP2 SWAP1 PUSH2 0x391 JUMP JUMPDEST PUSH1 0x40 MLOAD DUP1 SWAP2 SUB SWAP1 RETURN JUMPDEST PUSH1 0x0 DUP1 ADDRESS PUSH20 0xFFFFFFFFFFFFFFFFFFFFFFFFFFFFFFFFFFFFFFFF AND PUSH4 0x8475016B DUP5 PUSH1 0x40 MLOAD DUP3 PUSH4 0xFFFFFFFF AND PUSH1 0xE0 SHL DUP2 MSTORE PUSH1 0x4 ADD PUSH2 0xD8 SWAP2 SWAP1 PUSH2 0x391 JUMP JUMPDEST PUSH1 0x20 PUSH1 0x40 MLOAD DUP1 DUP4 SUB DUP2 DUP7 GAS STATICCALL SWAP3 POP POP POP DUP1 ISZERO PUSH2 0x112 JUMPI POP PUSH1 0x40 MLOAD RETURNDATASIZE PUSH1 0x1F NOT PUSH1 0x1F DUP3 ADD AND DUP3 ADD DUP1 PUSH1 0x40 MSTORE POP DUP2 ADD SWAP1 PUSH2 0x10F SWAP2 SWAP1 PUSH2 0x3C1 JUMP JUMPDEST PUSH1 0x1 JUMPDEST PUSH2 0x258 JUMPI PUSH2 0x11E PUSH2 0x3FB JUMP JUMPDEST DUP1 PUSH4 0x8C379A0 SUB PUSH2 0x181 JUMPI POP PUSH2 0x132 PUSH2 0x48E JUMP JUMPDEST DUP1 PUSH2 0x13D JUMPI POP PUSH2 0x1E2 JUMP JUMPDEST PUSH32 0x316D4704CA18E103252ABCE7D81E53DFDEC9859F9E0A639CCD9C332EFFB08D6E DUP2 PUSH1 0x40 MLOAD PUSH2 0x16C SWAP2 SWAP1 PUSH2 0x59D JUMP JUMPDEST PUSH1 0x40 MLOAD DUP1 SWAP2 SUB SWAP1 LOG1 PUSH1 0x0 DUP1 SWAP3 POP SWAP3 POP POP PUSH2 0x261 JUMP JUMPDEST PUSH4 0x4E487B71 SUB PUSH2 0x1E2 JUMPI PUSH2 0x193 PUSH2 0x5BF JUMP JUMPDEST SWAP1 PUSH2 0x19E JUMPI POP PUSH2 0x1E2 JUMP JUMPDEST PUSH32 0xF0A3D11B86DC0859FA4E51D2DEA2035F3649D433B5B4EC57925B58C9A5FAC0C1 DUP2 PUSH1 0x40 MLOAD PUSH2 0x1CD SWAP2 SWAP1 PUSH2 0x391 JUMP JUMPDEST PUSH1 0x40 MLOAD DUP1 SWAP2 SUB SWAP1 LOG1 PUSH1 0x0 DUP1 SWAP3 POP SWAP3 POP POP PUSH2 0x261 JUMP JUMPDEST RETURNDATASIZE DUP1 PUSH1 0x0 DUP2 EQ PUSH2 0x20E JUMPI PUSH1 0x40 MLOAD SWAP2 POP PUSH1 0x1F NOT PUSH1 0x3F RETURNDATASIZE ADD AND DUP3 ADD PUSH1 0x40 MSTORE RETURNDATASIZE DUP3 MSTORE RETURNDATASIZE PUSH1 0x0 PUSH1 0x20 DUP5 ADD RETURNDATACOPY PUSH2 0x213 JUMP JUMPDEST PUSH1 0x60 SWAP2 POP JUMPDEST POP PUSH32 0x11630BE05199A3E4C6ABF1BFE27413BCFE3CD3058442E7143637D96AF091BAA4 DUP2 PUSH1 0x40 MLOAD PUSH2 0x243 SWAP2 SWAP1 PUSH2 0x635 JUMP JUMPDEST PUSH1 0x40 MLOAD DUP1 SWAP2 SUB SWAP1 LOG1 PUSH1 0x0 DUP1 SWAP3 POP SWAP3 POP POP PUSH2 0x261 JUMP JUMPDEST DUP1 PUSH1 0x1 SWAP3 POP SWAP3 POP POP JUMPDEST SWAP2 POP SWAP2 JUMP JUMPDEST PUSH1 0x0 PUSH1 0x6 DUP3 LT PUSH2 0x2AB JUMPI PUSH1 0x40 MLOAD PUSH32 0x8C379A000000000000000000000000000000000000000000000000000000000 DUP2 MSTORE PUSH1 0x4 ADD PUSH2 0x2A2 SWAP1 PUSH2 0x6A3 JUMP JUMPDEST PUSH1 0x40 MLOAD DUP1 SWAP2 SUB SWAP1 REVERT JUMPDEST PUSH1 0x4 DUP3 GT PUSH2 0x2C3 JUMPI PUSH1 0x0 PUSH2 0x2C2 JUMPI PUSH2 0x2C1 PUSH2 0x6C3 JUMP JUMPDEST JUMPDEST JUMPDEST PUSH1 0x5 SWAP1 POP SWAP2 SWAP1 POP JUMP JUMPDEST PUSH1 0x0 PUSH1 0x40 MLOAD SWAP1 POP SWAP1 JUMP JUMPDEST PUSH1 0x0 DUP1 REVERT JUMPDEST PUSH1 0x0 DUP2 SWAP1 POP SWAP2 SWAP1 POP JUMP JUMPDEST PUSH2 0x2EE DUP2 PUSH2 0x2DB JUMP JUMPDEST DUP2 EQ PUSH2 0x2F9 JUMPI PUSH1 0x0 DUP1 REVERT JUMPDEST POP JUMP JUMPDEST PUSH1 0x0 DUP2 CALLDATALOAD SWAP1 POP PUSH2 0x30B DUP2 PUSH2 0x2E5 JUMP JUMPDEST SWAP3 SWAP2 POP POP JUMP JUMPDEST PUSH1 0x0 PUSH1 0x20 DUP3 DUP5 SUB SLT ISZERO PUSH2 0x327 JUMPI PUSH2 0x326 PUSH2 0x2D6 JUMP JUMPDEST JUMPDEST PUSH1 0x0 PUSH2 0x335 DUP5 DUP3 DUP6 ADD PUSH2 0x2FC JUMP JUMPDEST SWAP2 POP POP SWAP3 SWAP2 POP POP JUMP JUMPDEST PUSH2 0x347 DUP2 PUSH2 0x2DB JUMP JUMPDEST DUP3 MSTORE POP POP JUMP JUMPDEST PUSH1 0x0 DUP2 ISZERO ISZERO SWAP1 POP SWAP2 SWAP1 POP JUMP JUMPDEST PUSH2 0x362 DUP2 PUSH2 0x34D JUMP JUMPDEST DUP3 MSTORE POP POP JUMP JUMPDEST PUSH1 0x0 PUSH1 0x40 DUP3 ADD SWAP1 POP PUSH2 0x37D PUSH1 0x0 DUP4 ADD DUP6 PUSH2 0x33E JUMP JUMPDEST PUSH2 0x38A PUSH1 0x20 DUP4 ADD DUP5 PUSH2 0x359 JUMP JUMPDEST SWAP4 SWAP3 POP POP POP JUMP JUMPDEST PUSH1 0x0 PUSH1 0x20 DUP3 ADD SWAP1 POP PUSH2 0x3A6 PUSH1 0x0 DUP4 ADD DUP5 PUSH2 0x33E JUMP JUMPDEST SWAP3 SWAP2 POP POP JUMP JUMPDEST PUSH1 0x0 DUP2 MLOAD SWAP1 POP PUSH2 0x3BB DUP2 PUSH2 0x2E5 JUMP JUMPDEST SWAP3 SWAP2 POP POP JUMP JUMPDEST PUSH1 0x0 PUSH1 0x20 DUP3 DUP5 SUB SLT ISZERO PUSH2 0x3D7 JUMPI PUSH2 0x3D6 PUSH2 0x2D6 JUMP JUMPDEST JUMPDEST PUSH1 0x0 PUSH2 0x3E5 DUP5 DUP3 DUP6 ADD PUSH2 0x3AC JUMP JUMPDEST SWAP2 POP POP SWAP3 SWAP2 POP POP JUMP JUMPDEST PUSH1 0x0 DUP2 PUSH1 0xE0 SHR SWAP1 POP SWAP2 SWAP1 POP JUMP JUMPDEST PUSH1 0x0 PUSH1 0x3 RETURNDATASIZE GT ISZERO PUSH2 0x41A JUMPI PUSH1 0x4 PUSH1 0x0 DUP1 RETURNDATACOPY PUSH2 0x417 PUSH1 0x0 MLOAD PUSH2 0x3EE JUMP JUMPDEST SWAP1 POP JUMPDEST SWAP1 JUMP JUMPDEST PUSH1 0x0 PUSH1 0x1F NOT PUSH1 0x1F DUP4 ADD AND SWAP1 POP SWAP2 SWAP1 POP JUMP JUMPDEST PUSH32 0x4E487B7100000000000000000000000000000000000000000000000000000000 PUSH1 0x0 MSTORE PUSH1 0x41 PUSH1 0x4 MSTORE PUSH1 0x24 PUSH1 0x0 REVERT JUMPDEST PUSH2 0x466 DUP3 PUSH2 0x41D JUMP JUMPDEST DUP2 ADD DUP2 DUP2 LT PUSH8 0xFFFFFFFFFFFFFFFF DUP3 GT OR ISZERO PUSH2 0x485 JUMPI PUSH2 0x484 PUSH2 0x42E JUMP JUMPDEST JUMPDEST DUP1 PUSH1 0x40 MSTORE POP POP POP JUMP JUMPDEST PUSH1 0x0 PUSH1 0x44 RETURNDATASIZE LT PUSH2 0x51B JUMPI PUSH2 0x4A0 PUSH2 0x2CC JUMP JUMPDEST PUSH1 0x4 RETURNDATASIZE SUB PUSH1 0x4 DUP3 RETURNDATACOPY DUP1 MLOAD RETURNDATASIZE PUSH1 0x24 DUP3 ADD GT PUSH8 0xFFFFFFFFFFFFFFFF DUP3 GT OR ISZERO PUSH2 0x4C8 JUMPI POP POP PUSH2 0x51B JUMP JUMPDEST DUP1 DUP3 ADD DUP1 MLOAD PUSH8 0xFFFFFFFFFFFFFFFF DUP2 GT ISZERO PUSH2 0x4E6 JUMPI POP POP POP POP PUSH2 0x51B JUMP JUMPDEST DUP1 PUSH1 0x20 DUP4 ADD ADD PUSH1 0x4 RETURNDATASIZE SUB DUP6 ADD DUP2 GT ISZERO PUSH2 0x503 JUMPI POP POP POP POP POP PUSH2 0x51B JUMP JUMPDEST PUSH2 0x512 DUP3 PUSH1 0x20 ADD DUP6 ADD DUP7 PUSH2 0x45D JUMP JUMPDEST DUP3 SWAP6 POP POP POP POP POP POP JUMPDEST SWAP1 JUMP JUMPDEST PUSH1 0x0 DUP2 MLOAD SWAP1 POP SWAP2 SWAP1 POP JUMP JUMPDEST PUSH1 0x0 DUP3 DUP3 MSTORE PUSH1 0x20 DUP3 ADD SWAP1 POP SWAP3 SWAP2 POP POP JUMP JUMPDEST PUSH1 0x0 JUMPDEST DUP4 DUP2 LT ISZERO PUSH2 0x558 JUMPI DUP1 DUP3 ADD MLOAD DUP2 DUP5 ADD MSTORE PUSH1 0x20 DUP2 ADD SWAP1 POP PUSH2 0x53D JUMP JUMPDEST PUSH1 0x0 DUP5 DUP5 ADD MSTORE POP POP POP POP JUMP JUMPDEST PUSH1 0x0 PUSH2 0x56F DUP3 PUSH2 0x51E JUMP JUMPDEST PUSH2 0x579 DUP2 DUP6 PUSH2 0x529 JUMP JUMPDEST SWAP4 POP PUSH2 0x589 DUP2 DUP6 PUSH1 0x20 DUP7 ADD PUSH2 0x53A JUMP JUMPDEST PUSH2 0x592 DUP2 PUSH2 0x41D JUMP JUMPDEST DUP5 ADD SWAP2 POP POP SWAP3 SWAP2 POP POP JUMP JUMPDEST PUSH1 0x0 PUSH1 0x20 DUP3 ADD SWAP1 POP DUP2 DUP2 SUB PUSH1 0x0 DUP4 ADD MSTORE PUSH2 0x5B7 DUP2 DUP5 PUSH2 0x564 JUMP JUMPDEST SWAP1 POP SWAP3 SWAP2 POP POP JUMP JUMPDEST PUSH1 0x0 DUP1 PUSH1 0x23 RETURNDATASIZE GT ISZERO PUSH2 0x5DC JUMPI PUSH1 0x20 PUSH1 0x4 PUSH1 0x0 RETURNDATACOPY PUSH1 0x1 SWAP2 POP PUSH1 0x0 MLOAD SWAP1 POP JUMPDEST SWAP1 SWAP2 JUMP JUMPDEST PUSH1 0x0 DUP2 MLOAD SWAP1 POP SWAP2 SWAP1 POP JUMP JUMPDEST PUSH1 0x0 DUP3 DUP3 MSTORE PUSH1 0x20 DUP3 ADD SWAP1 POP SWAP3 SWAP2 POP POP JUMP JUMPDEST PUSH1 0x0 PUSH2 0x607 DUP3 PUSH2 0x5E0 JUMP JUMPDEST PUSH2 0x611 DUP2 DUP6 PUSH2 0x5EB JUMP JUMPDEST SWAP4 POP PUSH2 0x621 DUP2 DUP6 PUSH1 0x20 DUP7 ADD PUSH2 0x53A JUMP JUMPDEST PUSH2 0x62A DUP2 PUSH2 0x41D JUMP JUMPDEST DUP5 ADD SWAP2 POP POP SWAP3 SWAP2 POP POP JUMP JUMPDEST PUSH1 0x0 PUSH1 0x20 DUP3 ADD SWAP1 POP DUP2 DUP2 SUB PUSH1 0x0 DUP4 ADD MSTORE PUSH2 0x64F DUP2 DUP5 PUSH2 0x5FC JUMP JUMPDEST SWAP1 POP SWAP3 SWAP2 POP POP JUMP JUMPDEST PUSH32 0x5F6E756D2073686F756C64206265203500000000000000000000000000000000 PUSH1 0x0 DUP3 ADD MSTORE POP JUMP JUMPDEST PUSH1 0x0 PUSH2 0x68D PUSH1 0x10 DUP4 PUSH2 0x529 JUMP JUMPDEST SWAP2 POP PUSH2 0x698 DUP3 PUSH2 0x657 JUMP JUMPDEST PUSH1 0x20 DUP3 ADD SWAP1 POP SWAP2 SWAP1 POP JUMP JUMPDEST PUSH1 0x0 PUSH1 0x20 DUP3 ADD SWAP1 POP DUP2 DUP2 SUB PUSH1 0x0 DUP4 ADD MSTORE PUSH2 0x6BC DUP2 PUSH2 0x680 JUMP JUMPDEST SWAP1 POP SWAP2 SWAP1 POP JUMP JUMPDEST PUSH32 0x4E487B7100000000000000000000000000000000000000000000000000000000 PUSH1 0x0 MSTORE PUSH1 0x1 PUSH1 0x4 MSTORE PUSH1 0x24 PUSH1 0x0 REVERT INVALID LOG2 PUSH5 0x6970667358 0x22 SLT KECCAK256 DUP10 0xB1 CREATE REVERT LT GASPRICE TIMESTAMP PUSH7 0x1E43062DA1DFE0 LOG3 GASPRICE PUSH14 0x7702A0A09E0FE50C8C2877E8FE18 PUSH5 0x736F6C6343 STOP ADDMOD SLT STOP CALLER "
				},
				"gasEstimates": {
					"creation": {
						"codeDepositCost": "366400",
						"executionCost": "405",
						"totalCost": "366805"
					},
					"external": {
						"output5(uint256)": "infinite",
						"output5WithTryCatch(uint256)": "infinite"
					}
				},
				"methodIdentifiers": {
					"output5(uint256)": "8475016b",
					"output5WithTryCatch(uint256)": "68e90a9e"
				}
			},
			"storageLayout": {
				"storage": [],
				"types": null
			},
			"userdoc": {
				"kind": "user",
				"methods": {},
				"version": 1
			}
		}
	}
}