{
	"data": {
		"bytecode": {
			"linkReferences": {},
			"object": "608060405260018015610010575060015b6000806101000a81548160ff02191690831515021790555060018015610034575060005b600060016101000a81548160ff02191690831515021790555060008015610059575060005b600060026101000a81548160ff02191690831515021790555060018061007d575060015b600060036101000a81548160ff0219169083151502179055506001806100a1575060005b600060046101000a81548160ff0219169083151502179055506000806100c5575060005b600060056101000a81548160ff021916908315150217905550600015600060066101000a81548160ff02191690831515021790555034801561010657600080fd5b506101a5806101166000396000f3fe608060405234801561001057600080fd5b506004361061002b5760003560e01c806393daa36714610030575b600080fd5b610038610054565b60405161004b97969594939291906100f4565b60405180910390f35b60008060008060008060008060009054906101000a900460ff16600060019054906101000a900460ff16600060029054906101000a900460ff16600060039054906101000a900460ff16600060049054906101000a900460ff16600060059054906101000a900460ff16600060069054906101000a900460ff16965096509650965096509650965090919293949596565b6100ee81610163565b82525050565b600060e082019050610109600083018a6100e5565b61011660208301896100e5565b61012360408301886100e5565b61013060608301876100e5565b61013d60808301866100e5565b61014a60a08301856100e5565b61015760c08301846100e5565b98975050505050505050565b6000811515905091905056fea264697066735822122086f8cd1b46dcdf4cc7ea7b4574c1bed10d548e99fa9037844f512dd989c0d2ac64736f6c63430008070033",
			"opcodes": "PUSH1 0x80 PUSH1 0x40 MSTORE PUSH1 0x1 DUP1 ISZERO PUSH2 0x10 JUMPI POP PUSH1 0x1 JUMPDEST PUSH1 0x0 DUP1 PUSH2 0x100 EXP DUP2 SLOAD DUP2 PUSH1 0xFF MUL NOT AND SWAP1 DUP4 ISZERO ISZERO MUL OR SWAP1 SSTORE POP PUSH1 0x1 DUP1 ISZERO PUSH2 0x34 JUMPI POP PUSH1 0x0 JUMPDEST PUSH1 0x0 PUSH1 0x1 PUSH2 0x100 EXP DUP2 SLOAD DUP2 PUSH1 0xFF MUL NOT AND SWAP1 DUP4 ISZERO ISZERO MUL OR SWAP1 SSTORE POP PUSH1 0x0 DUP1 ISZERO PUSH2 0x59 JUMPI POP PUSH1 0x0 JUMPDEST PUSH1 0x0 PUSH1 0x2 PUSH2 0x100 EXP DUP2 SLOAD DUP2 PUSH1 0xFF MUL NOT AND SWAP1 DUP4 ISZERO ISZERO MUL OR SWAP1 SSTORE POP PUSH1 0x1 DUP1 PUSH2 0x7D JUMPI POP PUSH1 0x1 JUMPDEST PUSH1 0x0 PUSH1 0x3 PUSH2 0x100 EXP DUP2 SLOAD DUP2 PUSH1 0xFF MUL NOT AND SWAP1 DUP4 ISZERO ISZERO MUL OR SWAP1 SSTORE POP PUSH1 0x1 DUP1 PUSH2 0xA1 JUMPI POP PUSH1 0x0 JUMPDEST PUSH1 0x0 PUSH1 0x4 PUSH2 0x100 EXP DUP2 SLOAD DUP2 PUSH1 0xFF MUL NOT AND SWAP1 DUP4 ISZERO ISZERO MUL OR SWAP1 SSTORE POP PUSH1 0x0 DUP1 PUSH2 0xC5 JUMPI POP PUSH1 0x0 JUMPDEST PUSH1 0x0 PUSH1 0x5 PUSH2 0x100 EXP DUP2 SLOAD DUP2 PUSH1 0xFF MUL NOT AND SWAP1 DUP4 ISZERO ISZERO MUL OR SWAP1 SSTORE POP PUSH1 0x0 ISZERO PUSH1 0x0 PUSH1 0x6 PUSH2 0x100 EXP DUP2 SLOAD DUP2 PUSH1 0xFF MUL NOT AND SWAP1 DUP4 ISZERO ISZERO MUL OR SWAP1 SSTORE POP CALLVALUE DUP1 ISZERO PUSH2 0x106 JUMPI PUSH1 0x0 DUP1 REVERT JUMPDEST POP PUSH2 0x1A5 DUP1 PUSH2 0x116 PUSH1 0x0 CODECOPY PUSH1 0x0 RETURN INVALID PUSH1 0x80 PUSH1 0x40 MSTORE CALLVALUE DUP1 ISZERO PUSH2 0x10 JUMPI PUSH1 0x0 DUP1 REVERT JUMPDEST POP PUSH1 0x4 CALLDATASIZE LT PUSH2 0x2B JUMPI PUSH1 0x0 CALLDATALOAD PUSH1 0xE0 SHR DUP1 PUSH4 0x93DAA367 EQ PUSH2 0x30 JUMPI JUMPDEST PUSH1 0x0 DUP1 REVERT JUMPDEST PUSH2 0x38 PUSH2 0x54 JUMP JUMPDEST PUSH1 0x40 MLOAD PUSH2 0x4B SWAP8 SWAP7 SWAP6 SWAP5 SWAP4 SWAP3 SWAP2 SWAP1 PUSH2 0xF4 JUMP JUMPDEST PUSH1 0x40 MLOAD DUP1 SWAP2 SUB SWAP1 RETURN JUMPDEST PUSH1 0x0 DUP1 PUSH1 0x0 DUP1 PUSH1 0x0 DUP1 PUSH1 0x0 DUP1 PUSH1 0x0 SWAP1 SLOAD SWAP1 PUSH2 0x100 EXP SWAP1 DIV PUSH1 0xFF AND PUSH1 0x0 PUSH1 0x1 SWAP1 SLOAD SWAP1 PUSH2 0x100 EXP SWAP1 DIV PUSH1 0xFF AND PUSH1 0x0 PUSH1 0x2 SWAP1 SLOAD SWAP1 PUSH2 0x100 EXP SWAP1 DIV PUSH1 0xFF AND PUSH1 0x0 PUSH1 0x3 SWAP1 SLOAD SWAP1 PUSH2 0x100 EXP SWAP1 DIV PUSH1 0xFF AND PUSH1 0x0 PUSH1 0x4 SWAP1 SLOAD SWAP1 PUSH2 0x100 EXP SWAP1 DIV PUSH1 0xFF AND PUSH1 0x0 PUSH1 0x5 SWAP1 SLOAD SWAP1 PUSH2 0x100 EXP SWAP1 DIV PUSH1 0xFF AND PUSH1 0x0 PUSH1 0x6 SWAP1 SLOAD SWAP1 PUSH2 0x100 EXP SWAP1 DIV PUSH1 0xFF AND SWAP7 POP SWAP7 POP SWAP7 POP SWAP7 POP SWAP7 POP SWAP7 POP SWAP7 POP SWAP1 SWAP2 SWAP3 SWAP4 SWAP5 SWAP6 SWAP7 JUMP JUMPDEST PUSH2 0xEE DUP2 PUSH2 0x163 JUMP JUMPDEST DUP3 MSTORE POP POP JUMP JUMPDEST PUSH1 0x0 PUSH1 0xE0 DUP3 ADD SWAP1 POP PUSH2 0x109 PUSH1 0x0 DUP4 ADD DUP11 PUSH2 0xE5 JUMP JUMPDEST PUSH2 0x116 PUSH1 0x20 DUP4 ADD DUP10 PUSH2 0xE5 JUMP JUMPDEST PUSH2 0x123 PUSH1 0x40 DUP4 ADD DUP9 PUSH2 0xE5 JUMP JUMPDEST PUSH2 0x130 PUSH1 0x60 DUP4 ADD DUP8 PUSH2 0xE5 JUMP JUMPDEST PUSH2 0x13D PUSH1 0x80 DUP4 ADD DUP7 PUSH2 0xE5 JUMP JUMPDEST PUSH2 0x14A PUSH1 0xA0 DUP4 ADD DUP6 PUSH2 0xE5 JUMP JUMPDEST PUSH2 0x157 PUSH1 0xC0 DUP4 ADD DUP5 PUSH2 0xE5 JUMP JUMPDEST SWAP9 SWAP8 POP POP POP POP POP POP POP POP JUMP JUMPDEST PUSH1 0x0 DUP2 ISZERO ISZERO SWAP1 POP SWAP2 SWAP1 POP JUMP INVALID LOG2 PUSH5 0x6970667358 0x22 SLT KECCAK256 DUP7 0xF8 0xCD SHL CHAINID 0xDC 0xDF 0x4C 0xC7 0xEA PUSH28 0x4574C1BED10D548E99FA9037844F512DD989C0D2AC64736F6C634300 ADDMOD SMOD STOP CALLER "
		},
		"gasEstimates": {
			"creation": {
				"codeDepositCost": "84200",
				"executionCost": "170433",
				"totalCost": "254633"
			},
			"external": {
				"logical()": "infinite"
			}
		},
		"methodIdentifiers": {
			"logical()": "93daa367"
		}
	},
	"abi": [
		{
			"inputs": [],
			"name": "logical",
			"outputs": [
				{
					"internalType": "bool",
					"name": "",
					"type": "bool"
				},
				{
					"internalType": "bool",
					"name": "",
					"type": "bool"
				},
				{
					"internalType": "bool",
					"name": "",
					"type": "bool"
				},
				{
					"internalType": "bool",
					"name": "",
					"type": "bool"
				},
				{
					"internalType": "bool",
					"name": "",
					"type": "bool"
				},
				{
					"internalType": "bool",
					"name": "",
					"type": "bool"
				},
				{
					"internalType": "bool",
					"name": "",
					"type": "bool"
				}
			],
			"stateMutability": "view",
			"type": "function"
		}
	]
}